:100000000C9463000C94BB0A0C94E20A0C948B00D1
:100010000C948B000C948B000C948B000C948B0034
:100020000C948B000C948B000C948B000C948B0024
:100030000C948B000C948B000C948B000C948B0014
:100040000C94090B0C948B000C94FD0D0C942F0E4A
:100050000C948B000C948B000C948B000C948B00F4
:100060000C948B000C948B0000000008000201002F
:100070000003040700000000000000000102040863
:100080001020408001020408102001020408102002
:10009000040404040404040402020202020203032E
:1000A00003030303000000002300260029000000D2
:1000B0000000250028002B0000000000240027007D
:1000C0002A00B4015F0E11241FBECFEFD8E0DEBFBF
:1000D000CDBF12E0A0E0B1E0ECEBF5E202C005908C
:1000E0000D92A436B107D9F723E0A4E6B2E001C02F
:1000F0001D92A638B207E1F710E0C6ECD0E004C0CC
:100100002297FE010E940710C23CD107C9F70E9446
:10011000C70F0C94DC120C9400000F931F93CF9325
:10012000DF93CDB7DEB7E2970FB6F894DEBF0FBE10
:10013000CDBF26E040E052EC61E070E089EE92E055
:100140000E949B0D6AE070E080E090E00E94820BCC
:1001500024E641E06BE28AE792E00E941408E09115
:100160007A02F0917B020084F185E02D61E08AE75C
:1001700092E0099565E071E08AE792E00E949704B9
:10018000609172028AE792E00E94800781E08F937B
:1001900081EB8F9386E191E09F938F938E010F5FA8
:1001A0001F4F1F930F930E940B10B80189EE92E02E
:1001B0000E94ED0E83E792E00E94690A0F900F9073
:1001C0000F900F900F900F90882321F16EE271E055
:1001D00089EE92E00E94E00E83E792E00E94340AEA
:1001E00008ED12E0F80161918F0140E150E089EEE5
:1001F00092E00E94BF0F6AE389EE92E00E94E20E55
:10020000F2E0003E1F0771F76DE589EE92E00E9473
:10021000FF0E06C060E571E089EE92E00E94ED0EEF
:100220006FE771E089EE92E00E94ED0EE2960FB664
:10023000F894DEBF0FBECDBFDF91CF911F910F911C
:1002400008951F93CF93DF93182FEB0161E00E9475
:10025000200C61E0812F0E94590CBE01882777FD98
:100260008095982F0E94820B60E0812FDF91CF91C3
:100270001F910C94590C6F927F928F929F92AF9224
:10028000BF92CF92DF92EF92FF920F931F93CF9383
:10029000DF931F92CDB7DEB76DB67EB6E62EF12C9A
:1002A00015E0619FA00111249A012F5F3F4F6DB7A8
:1002B0007EB7621B730B0FB6F8947EBF0FBE6DBF87
:1002C0006F5F7F4FDC0120E030E000E3C02EE8E705
:1002D000BE2EF0E2AF2EFD01E81BF90BEE15FF0577
:1002E00034F5ED91DE2ED2940FE0D0220E2F0F7058
:1002F000FB01E20FF31FC082B18210E3912E9D0C2F
:10030000928210E3912E900E9382A48219E0812EA6
:100310008D1420F417E3912ED90CD2820A3020F0EC
:10032000D38017E0D10ED3822B5F3F4FD4CFFB0198
:10033000E40FF51F108289EE92E00E94E00E0FB6E6
:10034000F8947EBE0FBE6DBE0F90DF91CF911F91CE
:100350000F91FF90EF90DF90CF90BF90AF909F9064
:100360008F907F906F9008958AE080937C0282E066
:1003700080937D0210927E0281E08093950210921C
:1003800080028FE1809381021092820288E292E0E3
:1003900090937B0280937A0240E35FEE68E083E70C
:1003A00092E00C949709EF920F93CF9389EE92E02D
:1003B0000E94B80C18161906ECF589EE92E00E941E
:1003C000D10C8E3641F4809365026DEA71E089EEBE
:1003D00092E00E94ED0E6AE070E080E090E00E9402
:1003E000820BB8E2EB2E02E02091000145E652E0DC
:1003F00062E08AE792E00E948307882339F061EC8B
:1004000071E089EE92E00E94E00E14C06AEC71E0A7
:1004100089EE92E00E94E00E4AE050E060916402B2
:1004200089EE92E00E94BF0F60ED71E089EE92E0EC
:100430000E94ED0EE0917A02F0917B020480F5813A
:10044000E02D8AE792E00995882309F4DCC069ED84
:1004500071E089EE92E00E94E00E40916D025091B1
:100460006E0260916F02709170024F5F5F4F6F4F2D
:100470007F4F40936D0250936E0260936F027093B2
:1004800070022AE030E089EE92E00E94B20F6CE246
:1004900089EE92E00E94E20E6CE289EE92E00E9408
:1004A000E20E609193024AE050E089EE92E00E94F1
:1004B000BF0F6AED71E089EE92E00E94E00E80913C
:1004C000930280936402809172028823A1F06CED04
:1004D00071E089EE92E00E94E00E609192024AE0A3
:1004E00050E089EE92E00E94BF0F61EE71E089EE6C
:1004F00092E00E94E00E20E080919402281760F4C0
:10050000822F90E0FC01EA56FD4F3081FC01EA5950
:10051000FD4F30832F5FF0CF67E086E692E00E94C8
:100520003B0164EE71E089EE92E00E94E00E609182
:100530008D0270918E024AE050E089EE92E00E94B6
:10054000AA0F6AED71E089EE92E00E94E00E8AE760
:1005500092E00E948003882309F449C0C09193026D
:1005600040E066E572E08AE792E00E94C7086EEE1E
:1005700071E089EE92E00E94E00E8091710291E0BC
:10058000980F9093710263E00E94D70F91112FC0D2
:1005900068EF71E089EE92E00E94E00E4AE050E0E0
:1005A0006C2F89EE92E00E94BF0F65E072E089EE49
:1005B00092E00E94E00E63E070E080E090E00E9434
:1005C000820BA8E2EA2E00E028E04DE052E06C2F1A
:1005D0008AE792E00E948307882319F066E172E0BF
:1005E00002C06BE172E089EE92E00E94E00E89EEBB
:1005F00092E00E94E90E63E070E089E0CF910F91F4
:10060000EF900C942101CF910F91EF90089580917C
:100610008B0290918C02DC01ED91FC910484F585B4
:10062000E02D0994CF93DF93EC0161E08A810E9471
:10063000590C89858CBD8A858DBD7894DF91CF91C9
:100640000895FC01F8948CB581878DB582878CB5AF
:10065000837F8CBD8CB58F7D8CBD8CB58C7F8CBD24
:100660008DB58E7F8DBD60E082810C94590CF8941D
:1006700020919502233021F42091910221110FC085
:1006800020919502233011F4789407C0DC01ED919C
:10069000FC910288F389E02D099580E00895DC0142
:1006A000ED91FC910488F589E02D61E0099581E0E8
:1006B00008958EBD00000DB407FEFDCF8EB50895E0
:1006C000CF93DF931F92CDB7DEB7DC01ED91FC91A4
:1006D0000480F581E02D698309956981882359F0AB
:1006E00080919302861711F06F3F29F490918F0249
:1006F00081E0911101C080E00F90DF91CF910895CA
:1007000080919002882329F09091920281E09F3F8E
:1007100009F480E00895EF92FF921F93CF93DF9347
:100720001F92CDB7DEB77C01DC01ED91FC91008C0E
:10073000F18DE02D698309956981862F8F770E945D
:10074000590380E00E945903182FD701ED91FC91C5
:10075000028CF38DE02DC7010995812F0F90DF9159
:10076000CF911F91FF90EF9008950F931F93CF9318
:10077000DF9300D0CDB7DEB78C01DC01ED91FC91A9
:10078000008CF18DE02D4A83698309956981862F5C
:1007900080680E9459034A81842F0E945903D8011E
:1007A000ED91FC91028CF38DE02DC8010F900F901C
:1007B000DF91CF911F910F9109941F93CF93DF93F6
:1007C000EC01162F80919502681709F461C0623020
:1007D00009F440C070F4662309F444C0613009F0A4
:1007E00057C061E0CE010E948B03482F437E4460D6
:1007F0003FC06330C1F0643009F04AC061E0CE010F
:100800000E948B03482F437E4C6061E0CE010E9422
:10081000B5038885882381F1E881F9810688F78905
:10082000E02D61E014C061E0CE010E948B03482FEF
:10083000437E406161E0CE010E94B5038885882334
:10084000D9F0E881F9810688F789E02D60E0CE01D2
:10085000099512C061E0CE010E948B03482F437EB0
:10086000486006C061E0CE010E948B03482F437EA2
:1008700061E0CE010E94B50380919502811106C00E
:1008800067E2CE010E948B0387FFF6CF109395029B
:10089000DF91CF911F910895CF93DF93EC016032E8
:1008A00008F06FE16F838885882311F066956F8368
:1008B00061E1CE010E948B03482F407E8F81482B3F
:1008C00061E1CE01DF91CF910C94B503CF93DF931B
:1008D000EC011092940210929302109292021092E4
:1008E00091021092900210928F0210928E0210923A
:1008F0008D0268E20E948B0382FF0AC06DE3CE0185
:100900000E948B03482F44606DE3CE010E94B50323
:1009100040E465E2CE010E94B503E881F9810488D4
:10092000F589E02D63E0CE01DF91CF910994DF924C
:10093000EF92FF920F931F93CF93DF93EC018B0104
:10094000E881F9810488F589E02D61E009950115B8
:100950001105E1F0E881F981008CF18DE02DCE01E7
:1009600009958EEB0E9459037801D12CF7018191F2
:100970007F010E945903D394F0E1DF12F7CFE881A1
:10098000F981028CF38DE02DCE0109956DE3CE0146
:100990000E948B038E7F91E0012B09F490E0482F99
:1009A000492B6DE3CE01DF91CF911F910F91FF9005
:1009B000EF90DF900C94B5038F929F92AF92BF920D
:1009C000DF92EF92FF920F931F93CF93DF93CDB7F8
:1009D000DEB7AE970FB6F894DEBF0FBECDBF7C0179
:1009E000D42E8EE28E010F5F1F4FD801E82F1D928B
:1009F000EA95E9F791E0998334E03A8342E04B834A
:100A000093E09D834E833F8340E4488735E03987F8
:100A10009A8796E09B8793E39C8737E03D8798E031
:100A20009F8799E0998B99E19B8B92E49C8B55E28F
:100A30005D8B4E8B46E24F8B388F38E2398F30E139
:100A40003A8F39E23B8F3CED3C8F8D8F88E88E8F5B
:100A50008FE28F8F8DE288A380E389A337E33BA3E6
:100A600030E93CA338E33DA39EA39CE39FA39FE80A
:100A700098A79DE399A792E19AA79FE69BA78CA7C9
:100A80008FEF8DA76F3131F06B3231F0663531F475
:100A900089ED05C08EE403C08CE601C084EE8E872C
:100AA0006F3141F06B3221F0663521F480E003C0F4
:100AB00080E401C080EC888B2AA361E0D701129604
:100AC0008C910E94590C61E0F70182810E94200CF8
:100AD0000E9461090E94530B4B015C014AEA6FE2DC
:100AE000C7010E94B5036FE2C7010E948B038A3AD7
:100AF00059F00E94530B681979098A099B096233DE
:100B000071058105910550F30E94530B4B015C0167
:100B100045E56FE2C7010E94B5036FE2C7010E947D
:100B20008B03853559F00E94530B681979098A099E
:100B30009B09623371058105910550F3B12CF801D1
:100B4000EB0DF11DEB0DF11D60816F3F31F0418127
:100B5000C7010E94B503B394F2CF60E070E0C70113
:100B60000E949704D701ED91FC9111970084F185C3
:100B7000E02D18966C91C7010995D701ED91FC9174
:100B80000488F589E02D61E0C70109950E94530BA7
:100B90004B015C0167E2C7010E948B0387FD0BC01C
:100BA0000E94530B681979098A099B096233710500
:100BB0008105910578F30E94530B681979098A0918
:100BC0009B09623371058105910588F443E050E08B
:100BD00067E073E0F70184810E949B0AF0928C0227
:100BE000E0928B02D7011596DC9281E001C080E093
:100BF000AE960FB6F894DEBF0FBECDBFDF91CF919A
:100C00001F910F91FF90EF90DF90BF90AF909F905A
:100C10008F900895CF93DF93EC0161110DC064E2D2
:100C2000CE010E948B0390E0919581959109959555
:100C30008795DF91CF91089541E063E20E94B5036B
:100C400063E2CE010E948B0381FFFACFE8CFCF93FE
:100C5000DF93EC01809195028330A9F48091910299
:100C6000811111C060E0CE010E940A06863A9F4FB2
:100C700054F4E881F9810488F589E02D61E0CE0122
:100C8000099581E001C080E0DF91CF910895FF9246
:100C90000F931F93CF93DF93EC01809195028330E4
:100CA00001F568E2CE010E948B0382FD28C019C0C5
:100CB000809194028D3330F4E0919402F0E0EA5692
:100CC000FD4F1082E881F981028CF38DE02DCE0179
:100CD0000995E881F9810488F589E02D63E0CE016A
:100CE000099560E0CE010E940A0690938E028093DF
:100CF0008D02DF91CF911F910F91FF900895E881B0
:100D0000F9810488F589E02D61E0CE010995E8813B
:100D1000F981008CF18DE02DCE01099580E00E94D3
:100D2000590380E00E9459038093910280919102BF
:100D30008334D0F4809191028093910280E00E94EC
:100D40005903809392028E81811109C09091920281
:100D50008D81981721F0809192028F3F39F4809114
:100D60009102833018F017C082E4E6CF109291020E
:100D7000E881F981028CF38DE02DCE010995E8819F
:100D8000F9810288F389E02DCE01DF91CF911F9187
:100D90000F91FF9009948091910283508093940267
:100DA00080E00E9459038093930280E00E945903DF
:100DB000982F907890938F02982F90749093900230
:100DC000E881F9810684F785E02D682FCE01099529
:100DD000F12C80919402F81608F06ACF0F2D10E0E4
:100DE00080E00E945903F801EA56FD4F8083F39496
:100DF000F0CF4F925F926F927F929F92AF92BF928D
:100E0000EF920F931F93CF93DF93EC01162F5A01AC
:100E1000922E6DE30E948B03482F44606DE3CE0158
:100E20000E94B5030E94530B2B013C01CE010E948E
:100E300027068823C1F0E881F9810088F189E02D37
:100E4000E12C292DA501612FCE010995DF91CF91CC
:100E50001F910F91EF90BF90AF909F907F906F90F8
:100E60005F904F9008950E94530B6419750986098D
:100E70009709683E734081059105E8F6E881F9819C
:100E80000480F581E02DCE010995D0CFCF93DF937B
:100E9000EC016887662311F04FE001C04AE163E18D
:100EA000CE010E94B5038885882341F061E1CE011F
:100EB0000E948B03482F4F71406602C04F814068EB
:100EC00061E1CE01DF91CF910C94B5031F93CF93D5
:100ED000DF93EC01162F662311F04DE501C045E5C7
:100EE0006AE5CE010E94B503112311F04CE701C061
:100EF00040E76CE5CE01DF91CF911F910C94B503D3
:100F0000FC01668308952F923F924F925F927F92E9
:100F10008F929F92AF92BF92CF92DF92EF92FF9209
:100F20000F931F93CF93DF93EC01962E5A01722EED
:100F3000802E10E0CE2CD12CE12CF12CE881F9810F
:100F40000190F081E02D01E0272DA501692DCE0152
:100F500009950E94530B1B012C010E94530B62192F
:100F60007309840995096C157D058E059F0540F46C
:100F7000692DCE010E946003882379F381E009C0C6
:100F80001F5F8116D8F68D858F3110F48F5F8D87A6
:100F900080E0DF91CF911F910F91FF90EF90DF9054
:100FA000CF90BF90AF909F908F907F905F904F9029
:100FB0003F902F900895CF93DF93EC016072609380
:100FC000D30280918F02882361F18091D30288231C
:100FD00041F180919402882321F180E00E9459031D
:100FE00090E09195819591099F878E872091940239
:100FF0002150209394022B853C852115310589F0E1
:101000008217930734F44D854F3118F44F5F4D87A5
:1010100008C0281739072CF48D85882311F08150DA
:101020008D87DF91CF910895FC0114861386178672
:1010300016861092D3023FE135870C94DC048F9220
:101040009F92AF92BF92CF92DF92EF92FF920F9357
:101050001F93CF93DF93EC01F62ED42E152F822E03
:10106000902EE881F9810488F589E02D61E00995E9
:1010700067E2CE010E948B0387FFFACF40E065E272
:10108000CE010E94B503EE2011F00C2D01C000E04E
:10109000080D0E3308F00DE3E881F981008CF18D25
:1010A000E02DCE01099580E80E94590383E0800F6E
:1010B0000E9459038F2D0E9459038D810E9459036C
:1010C000EE2099F0CC2011F080EA01C080E80E9467
:1010D0005903CC20B9F0C501B7FE03C091958195A5
:1010E00091090E94590301500DC0992041F08B8550
:1010F0009C85892B11F080E603C080E401C080E06C
:101100000E945903CD2CED2CF12E8E2D8C198017B9
:1011100030F4F70181917F010E945903F6CFE881F5
:10112000F981028CF38DE02DCE010995E881F981DA
:101130000488F589E02D64E0CE0109950E94530BE7
:101140006B017C018B810E948F0C892BA1F0E881BF
:10115000F9810488F589E02D61E0CE01DF91CF911E
:101160001F910F91FF90EF90DF90CF90BF90AF90C5
:101170009F908F9009940E94530B6C197D098E09E2
:101180009F09683E73408105910508F7DBCF6F9298
:101190007F928F929F92AF92BF92CF92DF92EF9207
:1011A000FF920F931F93CF93DF93EC013B01F42E3B
:1011B000109290021091930280908D0290908E0276
:1011C0008091D30201E0811101C000E06DE3CE0106
:1011D0000E948B03482F44606DE3CE010E94B5034B
:1011E0000E94530B5B016C01CE010E9427068823ED
:1011F00001F1109393025401C02EEE24E39400E019
:101200002F2DA301612FCE010E941F0890928E0204
:1012100080928D02DF91CF911F910F91FF90EF90FF
:10122000DF90CF90BF90AF909F908F907F906F9006
:1012300008950E94530B6A197B098C099D09683E29
:10124000734081059105A8F6E881F9810480F58154
:10125000E02DCE010995C8CFAF92BF92CF92EF9209
:101260000F93A12CB12CC12C0E941F080F91EF905D
:10127000CF90BF90AF9008951F93CF93DF93EC0171
:10128000162F809195026817A1F0CE010E94DD0310
:10129000143079F48B859C85892B59F0E881F9818C
:1012A0000284F385E02D6D85CE01DF91CF911F91F2
:1012B0000994DF91CF911F9108951092D3020C945D
:1012C0006604CF93CFB7F8948091D702811127C0DD
:1012D000EAE9F0E08491E6E8F0E09491E82FF0E0AC
:1012E000EE0FFF1FE854FF4FA591B4918C91892315
:1012F00021F461E08AE00E94590C61E08AE00E94DA
:10130000200C8CB580618CBD8CB580648CBD61E097
:101310008DE00E94200C61E08BE00E94200C809107
:10132000D7028F5F8093D702CFBFCF910895FC0182
:1013300080E5858316826083528341830895FC0192
:101340008CB583838DB58483358126818091D602C7
:10135000882399F09FB7F8948091D602813059F490
:101360008DB38093D4024DB38091D50280958423B0
:101370008DBB9FBF02C09093D4023CBD2DBD60E0E9
:1013800080810C94590CCF93DF93EC0161E088814C
:101390000E94590C8091D602882361F09FB7F8947F
:1013A0002091D6028091D402213019F48DBB9FBFC9
:1013B00001C08FBF8B818CBD8C818DBDDF91CF91A2
:1013C00008950F931F93CF93DF938C010E949F0981
:1013D0008FE90E94590380E00E945903C82FD0E092
:1013E000DC2FCC2780E00E945903C82BC8010E9443
:1013F000C309CE01DF91CF911F910F9108951F93E3
:10140000CF93DF93EC010E949F0985E00E9459036E
:1014100080E00E945903182FCE010E94C309812F3A
:10142000DF91CF911F9108950E94FF098170089567
:101430001F93CF93DF93EC01162F442339F040E044
:1014400066E00E94180ACE010E94C309CE010E94E4
:10145000140A8111FBCFCE010E949F09812FDF91D9
:10146000CF911F910C9459030F931F93CF93DF9348
:101470008C0140E06BE40E94180A80E00E9459034E
:1014800080E00E94590380E00E94590380E00E949E
:101490005903C8EDD2E080E00E945903899382E0AD
:1014A000C03ED807C1F7C8010E94C30988ED92E089
:1014B000DF91CF911F910F910895CF93DF93EC01AE
:1014C00040E06BEA0E94180ACE01DF91CF910C94A4
:1014D000C309CF93DF93EC018CB58B838DB58C83DF
:1014E00061E088810E94200C80E58D831E82CE0100
:1014F0000E94C309CE010E945D0A89819A81892BCD
:1015000051F0CE010E94E10929813A8182179307A7
:1015100011F080E00CC041E061E0CE010E94180AA9
:1015200080E00E945903CE010E94C30981E0DF914F
:10153000CF91089508958230E8F4E82FF0E0EE0F9F
:10154000FF1FEF5FFE4F71836083813041F0809118
:1015500069008C7F842B80936900E89A08958091BC
:101560006900440F551F440F551F837F842B8093C0
:101570006900E99A08951F920F920FB60F921124F5
:101580002F933F934F935F936F937F938F939F938B
:10159000AF93BF93EF93FF93E0910101F0910201AC
:1015A0000995FF91EF91BF91AF919F918F917F919D
:1015B0006F915F914F913F912F910F900FBE0F90C0
:1015C0001F9018951F920F920FB60F9211242F9310
:1015D0003F934F935F936F937F938F939F93AF93BB
:1015E000BF93EF93FF93E0910301F09104010995FC
:1015F000FF91EF91BF91AF919F918F917F916F91EB
:101600005F914F913F912F910F900FBE0F901F90C0
:1016100018951F920F920FB60F9211242F933F939C
:101620008F939F93AF93BF938091E1029091E202D9
:10163000A091E302B091E4023091E00223E0230F95
:101640002D3720F40196A11DB11D05C026E8230FFA
:101650000296A11DB11D2093E0028093E1029093B8
:10166000E202A093E302B093E4028091E50290913C
:10167000E602A091E702B091E8020196A11DB11D1A
:101680008093E5029093E602A093E702B093E8020C
:10169000BF91AF919F918F913F912F910F900FBE6E
:1016A0000F901F9018952FB7F8946091E1027091F8
:1016B000E2028091E3029091E4022FBF08953FB7C8
:1016C000F8948091E5029091E602A091E702B09132
:1016D000E80226B5A89B05C02F3F19F00196A11D71
:1016E000B11D3FBF6627782F892F9A2F620F711D7A
:1016F000811D911D42E0660F771F881F991F4A9533
:10170000D1F708958F929F92AF92BF92CF92DF92BE
:10171000EF92FF926B017C010E945F0B4B015C0119
:10172000C114D104E104F104F1F00E94D60F0E942B
:101730005F0B681979098A099B09683E7340810526
:10174000910570F321E0C21AD108E108F10888EE92
:10175000880E83E0981EA11CB11CC114D104E104C1
:10176000F10429F7DDCFFF90EF90DF90CF90BF908D
:10177000AF909F908F900895789484B5826084BDD7
:1017800084B5816084BD85B5826085BD85B5816085
:1017900085BDEEE6F0E0808181608083E1E8F0E0E5
:1017A0001082808182608083808181608083E0E814
:1017B000F0E0808181608083E1EBF0E080818460F3
:1017C0008083E0EBF0E0808181608083EAE7F0E0F5
:1017D0008081846080838081826080838081816059
:1017E00080838081806880831092C1000895833057
:1017F00081F028F4813099F08230A1F0089587308B
:10180000A9F08830B9F08430D1F4809180008F7DC8
:1018100003C0809180008F7780938000089584B505
:101820008F7702C084B58F7D84BD08958091B0000C
:101830008F7703C08091B0008F7D8093B0000895B2
:10184000CF93DF9390E0FC01E458FF4F2491FC011B
:10185000E057FF4F8491882349F190E0880F991F4A
:10186000FC01E854FF4FA591B49182559F4FFC01B4
:10187000C591D4919FB7611108C0F8948C912095BF
:1018800082238C93888182230AC0623051F4F894B9
:101890008C91322F309583238C938881822B88837F
:1018A00004C0F8948C91822B8C939FBFDF91CF91D1
:1018B00008950F931F93CF93DF931F92CDB7DEB799
:1018C000282F30E0F901E859FF4F8491F901E458DD
:1018D000FF4F1491F901E057FF4F04910023C9F025
:1018E000882321F069830E94F70B6981E02FF0E0E3
:1018F000EE0FFF1FE255FF4FA591B4919FB7F894EB
:101900008C91611103C01095812301C0812B8C93B0
:101910009FBF0F90DF91CF911F910F910895CF93AB
:10192000DF93282F30E0F901E859FF4F8491F90146
:10193000E458FF4FD491F901E057FF4FC491CC23F5
:1019400091F081110E94F70BEC2FF0E0EE0FFF1FDA
:10195000EC55FF4FA591B4912C912D2381E090E09F
:1019600021F480E002C080E090E0DF91CF91089503
:10197000FC01818D228D90E0805C9F4F821B91093C
:101980008F7399270895FC01918D828D981731F0FE
:10199000828DE80FF11D858D90E008958FEF9FEF08
:1019A0000895FC01918D828D981761F0828DDF0181
:1019B000A80FB11D5D968C91928D9F5F9F73928F42
:1019C00090E008958FEF9FEF089585E59EE0892BC5
:1019D00049F080E090E0892B29F00E94550E81119A
:1019E0000C9400000895FC01848DDF01A80FB11D47
:1019F000A35ABF4F2C91848D90E001968F73992745
:101A0000848FA689B7892C93A089B1898C91806431
:101A10008C93938D848D981306C00288F389E02DF2
:101A200080818F7D80830895CF93DF93EC01888D33
:101A30008823C9F0EA89FB89808185FD05C0A889D2
:101A4000B9898C9186FD0FC00FB607FCF5CF808158
:101A500085FFF2CFA889B9898C9185FFEDCFCE01A2
:101A60000E94F30CE7CFDF91CF910895CF92DF92E0
:101A7000FF920F931F93CF93DF931F92CDB7DEB7E3
:101A80006C0181E0D60158968C9358975B969C9197
:101A90005B975C968C915C97981307C05096ED917C
:101AA000FC915197808185FD2EC0F601038D10E0D9
:101AB0000F5F1F4F0F731127F02EF601848DF81260
:101AC00011C00FB607FCF9CFD6015096ED91FC91ED
:101AD0005197808185FFF1CFC60169830E94F30C85
:101AE0006981EBCF838DE80FF11DE35AFF4F6083CF
:101AF000D6015B960C935B975296ED91FC915397B0
:101B0000808180620CC0D6015696ED91FC9157976A
:101B100060835096ED91FC91519780818064808321
:101B200081E090E00F90DF91CF911F910F91FF9096
:101B3000DF90CF900895BF92CF92DF92EF92FF9205
:101B4000CF93DF93EC016A017B01B22EE889F9891A
:101B500082E08083411581EE580761057105A1F08F
:101B600060E079E08DE390E0A70196010E94E30F29
:101B700021503109410951095695479537952795C7
:101B8000211580E1380798F0E889F989108260E82A
:101B900074E88EE190E0A70196010E94E30F2150C6
:101BA0003109410951095695479537952795EC8597
:101BB000FD853083EE85FF852083188EEC89FD89B5
:101BC000B082EA89FB89808180618083EA89FB8910
:101BD000808188608083EA89FB8980818068808336
:101BE000EA89FB8980818F7D8083DF91CF91FF908F
:101BF000EF90DF90CF90BF9008951F920F920FB695
:101C00000F9211242F938F939F93EF93FF93E09163
:101C1000F902F091FA028081E091FF02F091000355
:101C200082FD12C09081809102038F5F8F7320919B
:101C30000303821751F0E0910203F0E0E751FD4FFA
:101C4000958F8093020301C08081FF91EF919F9156
:101C50008F912F910F900FBE0F901F9018951F928C
:101C60000F920FB60F9211242F933F934F935F93D0
:101C70006F937F938F939F93AF93BF93EF93FF9354
:101C800089EE92E00E94F30CFF91EF91BF91AF912A
:101C90009F918F917F916F915F914F913F912F9184
:101CA0000F900FBE0F901F90189589EE92E00E9442
:101CB000B80C21E0892B09F420E0822F08951092BE
:101CC000EC021092EB0288EE93E0A0E0B0E080938B
:101CD000ED029093EE02A093EF02B093F00288E43D
:101CE00092E09093EA028093E90285EC90E0909371
:101CF000F6028093F50284EC90E09093F8028093D2
:101D0000F70280EC90E09093FA028093F90281EC64
:101D100090E09093FC028093FB0282EC90E0909321
:101D2000FE028093FD0286EC90E090930003809386
:101D3000FF02109202031092030310920403109208
:101D400005030895CF92DF92EF92FF920F931F93B6
:101D5000CF93DF937C016A01EB0100E010E00C15EA
:101D60001D0571F06991D701ED91FC910190F08111
:101D7000E02DC7010995892B19F00F5F1F4FEFCF99
:101D8000C801DF91CF911F910F91FF90EF90DF90ED
:101D9000CF9008956115710581F0DB010D90002051
:101DA000E9F7AD0141505109461B570BDC01ED919C
:101DB000FC910280F381E02D099480E090E0089589
:101DC0000C94CA0EDC01ED91FC910190F081E02DA4
:101DD000099464E572E00C94CA0E0F931F93CF939D
:101DE000DF93EC010E94CA0E8C01CE010E94E90E25
:101DF000800F911FDF91CF911F910F9108950F9345
:101E00001F93CF93DF93EC010E94E20E8C01CE0171
:101E10000E94E90E800F911FDF91CF911F910F91CA
:101E200008958F929F92AF92BF92DF92EF92FF92AE
:101E30000F931F93CF93DF93CDB7DEB7A1970FB664
:101E4000F894DEBF0FBECDBF7C01F42FD52ECB01A1
:101E500019A2223008F42AE08E010F5D1F4F822E56
:101E6000912CA12CB12C6F2F7D2DA50194010E94E6
:101E7000E30FF22FD32ECA01015011096A3014F476
:101E8000E0E301C0E7E3E60FD801EC93232B242B1A
:101E9000252B49F7B801C7010E94CA0EA1960FB6BB
:101EA000F894DEBF0FBECDBFDF91CF911F910F9190
:101EB000FF90EF90DF90BF90AF909F908F9008952C
:101EC000CF92DF92EF92FF920F931F93CF93DF9306
:101ED000EC016A017B012115310579F4E881F98172
:101EE0000190F081E02D642FDF91CF911F910F9130
:101EF000FF90EF90DF90CF9009942A303105E9F4FC
:101F000077FF1AC06DE20E94E20E8C01442755272C
:101F1000BA014C195D096E097F092AE0CE010E94C1
:101F2000110F800F911FDF91CF911F910F91FF90A3
:101F3000EF90DF90CF9008952AE0B701A601CE017F
:101F4000DF91CF911F910F91FF90EF90DF90CF9095
:101F50000C94110F9A01AB01662757FD6095762FFF
:101F60000C94600F2115310541F4DC01ED91FC91D9
:101F70000190F081E02D642F09940C94110F9A01C7
:101F8000462F50E060E070E00C94B20F08950E947C
:101F9000BC0B0E94C60F0E948D00C5EEDCE00E94C3
:101FA000D3012097E1F30E94E50CF9CF0895991B26
:101FB00079E004C0991F961708F0961B881F7A9540
:101FC000C9F780950895A1E21A2EAA1BBB1BFD013B
:101FD0000DC0AA1FBB1FEE1FFF1FA217B307E40708
:101FE000F50720F0A21BB30BE40BF50B661F771F60
:101FF000881F991F1A9469F7609570958095909540
:102000009B01AC01BD01CF010895EE0FFF1F0590AC
:10201000F491E02D0994AEE0B0E0E1E1F0E10C9440
:10202000B3120D891E8986E08C831A8309838FEF92
:102030009FE79E838D83AE01475E5F4F6F89788DEA
:10204000CE0101960E942D10EF81F885E00FF11F5F
:1020500010822E96E4E00C94CF12ACE0B0E0E3E303
:10206000F0E10C94A5127C016B018A01FC0117823E
:102070001682838181FFBDC1CE0101964C01F7011B
:102080009381F60193FD859193FF81916F018823E0
:1020900009F4ABC1853239F493FD859193FF8191A9
:1020A0006F01853229F4B70190E00E941512E7CF45
:1020B000512C312C20E02032A0F48B3269F030F426
:1020C000803259F0833269F420612CC08D3239F0AE
:1020D000803339F4216026C02260246023C0286048
:1020E00021C027FD27C030ED380F3A3078F426FFA5
:1020F00006C0FAE05F9E300D1124532E13C08AE013
:10210000389E300D1124332E20620CC08E3221F403
:1021100026FD6BC1206406C08C3611F4206802C015
:10212000883641F4F60193FD859193FF81916F010B
:102130008111C1CF982F9F7D9554933028F40C5F67
:102140001F4FFFE3F9830DC0833631F0833771F001
:10215000833509F05BC022C0F801808189830E5F5E
:102160001F4F44244394512C540115C03801F2E010
:102170006F0E711CF801A080B18026FF03C0652D91
:1021800070E002C06FEF7FEFC5012C870E940A123A
:102190002C0183012C852F77222E17C03801F2E005
:1021A0006F0E711CF801A080B18026FF03C0652D61
:1021B00070E002C06FEF7FEFC5012C870E94FF1116
:1021C0002C012C852068222E830123FC1BC0832D2B
:1021D00090E048165906B0F4B70180E290E00E9402
:1021E00015123A94F4CFF50127FC859127FE8191D1
:1021F0005F01B70190E00E94151231103A94F1E0AE
:102200004F1A51084114510471F7E5C0843611F09A
:10221000893639F5F80127FF07C060817181828115
:1022200093810C5F1F4F08C060817181882777FD03
:102230008095982F0E5F1F4F2F76B22E97FF09C003
:1022400090958095709561957F4F8F4F9F4F206837
:10225000B22E2AE030E0A4010E944712A82EA8184E
:1022600044C0853729F42F7EB22E2AE030E025C005
:10227000F22FF97FBF2E8F36C1F018F4883579F030
:10228000B4C0803719F0883721F0AFC02F2F2061FC
:10229000B22EB4FE0DC08B2D8460B82E09C024FF71
:1022A0000AC09F2F9660B92E06C028E030E005C016
:1022B00020E130E002C020E132E0F801B7FE07C0C3
:1022C00060817181828193810C5F1F4F06C06081A4
:1022D000718180E090E00E5F1F4FA4010E944712C1
:1022E000A82EA818FB2DFF77BF2EB6FE0BC02B2DF6
:1022F0002E7FA51450F4B4FE0AC0B2FC08C02B2DEA
:102300002E7E05C07A2C2B2D03C07A2C01C0752C93
:1023100024FF0DC0FE01EA0DF11D8081803311F410
:10232000297E09C022FF06C07394739404C0822FD3
:10233000867809F0739423FD13C020FF06C05A2C41
:10234000731418F4530C5718732C731468F4B701F2
:1023500080E290E02C870E94151273942C85F5CFB3
:10236000731410F4371801C0312C24FF12C0B701C8
:1023700080E390E02C870E9415122C8522FF17C065
:1023800021FF03C088E590E002C088E790E0B70134
:102390000CC0822F867859F021FD02C080E201C076
:1023A0008BE227FD8DE2B70190E00E941512A51483
:1023B00038F4B70180E390E00E9415125A94F7CFE9
:1023C000AA94F401EA0DF11D8081B70190E00E940A
:1023D0001512A110F5CF332009F451CEB70180E2D8
:1023E00090E00E9415123A94F6CFF701868197810A
:1023F00002C08FEF9FEF2C96E2E10C94C112FC011A
:102400000590615070400110D8F7809590958E0F1F
:102410009F1F0895FC016150704001900110D8F792
:10242000809590958E0F9F1F08950F931F93CF93C4
:10243000DF93182F092FEB018B8181FD03C08FEFF4
:102440009FEF20C082FF10C04E815F812C813D81B3
:10245000421753077CF4E881F9819F012F5F3F4FBA
:1024600039832883108306C0E885F985812F099573
:10247000892B29F72E813F812F5F3F4F3F832E838A
:10248000812F902FDF91CF911F910F910895FA0125
:10249000AA27283051F1203181F1E8946F936E7FA3
:1024A0006E5F7F4F8F4F9F4FAF4FB1E03ED0B4E094
:1024B0003CD0670F781F891F9A1FA11D680F791FD5
:1024C0008A1F911DA11D6A0F711D811D911DA11DE6
:1024D00020D009F468943F912AE0269F11243019F6
:1024E000305D3193DEF6CF010895462F4770405D91
:1024F0004193B3E00FD0C9F7F6CF462F4F70405D40
:102500004A3318F0495D31FD4052419302D0A9F79A
:10251000EACFB4E0A6959795879577956795BA9594
:10252000C9F700976105710508959B01AC010A2E5A
:1025300006945795479537952795BA95C9F7620F31
:10254000731F841F951FA01D08952F923F924F92D5
:102550005F926F927F928F929F92AF92BF92CF9233
:10256000DF92EF92FF920F931F93CF93DF93CDB73C
:10257000DEB7CA1BDB0B0FB6F894DEBF0FBECDBFB4
:1025800009942A88398848885F846E847D848C8485
:102590009B84AA84B984C884DF80EE80FD800C818E
:1025A0001B81AA81B981CE0FD11D0FB6F894DEBF71
:0C25B0000FBECDBFED010895F894FFCFE1
:1025BC00019A0A9A0A73616D706C65456E63727943
:1025CC0070744B6579000A4C697374656E696E673B
:1025DC00206174202564204D687A2E2E2E005350D5
:1025EC004920466C61736820496E6974204F4B2EEC
:1025FC0020556E69717565204D4143203D205B006F
:10260C0053504920466C617368204D454D206E6FC8
:10261C007420666F756E6420286973206368697016
:10262C0020736F6C64657265643F292E2E2E0052E8
:10263C00464D36395F41544320456E61626C65648A
:10264C0020284175746F205472616E736D697373B9
:10265C00696F6E20436F6E74726F6C290047475719
:10266C003A204E65772074616720666F756E642121
:10267C00004747573A204F6B21004747573A2000F5
:10268C00204E6F7468696E6700232C00746F205B9A
:10269C00005D20002C52585F525353493A0041437D
:1026AC004B2073656E742C0050696E67696E6720E1
:1026BC006E6F6465002C41434B2E2E2E0041434B14
:1026CC002054455354002C6F6B21002C6E6F746892
:1026DC00696E670000000000F90683073703C7081E
:1026EC0046074C044706DB072C095D093C096607C5
:1026FC002103120300000000360DA20EB80CD10C01
:10270C00C30C140D0D0A006E616E00696E66006FCD
:04271C0076660000DD
:00000001FF
