:100000000C9463000C94640A0C948B0A0C948B007F
:100010000C948B000C948B000C948B000C948B0034
:100020000C948B000C948B000C948B000C948B0024
:100030000C948B000C948B000C948B000C948B0014
:100040000C94B20A0C948B000C94A60D0C94D80D51
:100050000C948B000C948B000C948B000C948B00F4
:100060000C948B000C948B0000000008000201002F
:100070000003040700000000000000000102040863
:100080001020408001020408102001020408102002
:10009000040404040404040402020202020203032E
:1000A00003030303000000002300260029000000D2
:1000B0000000250028002B0000000000240027007D
:1000C0002A00B401080E11241FBECFEFD8E0DEBF16
:1000D000CDBF12E0A0E0B1E0E6EFF4E202C005908F
:1000E0000D92AA34B107D9F723E0AAE4B2E001C027
:1000F0001D92AE36B207E1F710E0C6ECD0E004C0C6
:100100002297FE010E94A40FC23CD107C9F70E94AA
:10011000700F0C9479120C9400000F931F93CF93DF
:10012000DF93CDB7DEB7E2970FB6F894DEBF0FBE10
:10013000CDBF26E040E052EC61E070E081ED92E05E
:100140000E94440D6AE070E080E090E00E942B0B7A
:1001500024E641E06BE282E692E00E94BD07E09176
:100160006202F09163020084F185E02D61E082E695
:1001700092E0099564E071E082E692E00E9440041A
:1001800060915A0282E692E00E94290781E08F93F3
:1001900081EB8F9385E191E09F938F938E010F5FA9
:1001A0001F4F1F930F930E94A80FB80181ED92E09B
:1001B0000E94960E8BE592E00E94120A0F900F901B
:1001C0000F900F900F900F90882321F16DE271E056
:1001D00081ED92E00E94890E8BE592E00E94DD099C
:1001E00000EC12E0F80161918F0140E150E081EDF7
:1001F00092E00E94680F6AE381ED92E00E948B0E0C
:10020000F2E0083C1F0771F76DE581ED92E00E9476
:10021000A80E06C06FE471E081ED92E00E94960E98
:100220006EE771E081ED92E00E94960EE2960FB6C5
:10023000F894DEBF0FBECDBFDF91CF911F910F911C
:1002400008951F93CF93DF93182FEB0161E00E9475
:10025000C90B61E0812F0E94020CBE01882777FD47
:100260008095982F0E942B0B60E0812FDF91CF911A
:100270001F910C94020C6F927F928F929F92AF927B
:10028000BF92CF92DF92EF92FF920F931F93CF9383
:10029000DF931F92CDB7DEB76DB67EB6E62EF12C9A
:1002A00015E0619FA00111249A012F5F3F4F6DB7A8
:1002B0007EB7621B730B0FB6F8947EBF0FBE6DBF87
:1002C0006F5F7F4FDC0120E030E000E3C02EE8E705
:1002D000BE2EF0E2AF2EFD01E81BF90BEE15FF0577
:1002E00034F5ED91DE2ED2940FE0D0220E2F0F7058
:1002F000FB01E20FF31FC082B18210E3912E9D0C2F
:10030000928210E3912E900E9382A48219E0812EA6
:100310008D1420F417E3912ED90CD2820A3020F0EC
:10032000D38017E0D10ED3822B5F3F4FD4CFFB0198
:10033000E40FF51F108281ED92E00E94890E0FB646
:10034000F8947EBE0FBE6DBE0F90DF91CF911F91CE
:100350000F91FF90EF90DF90CF90BF90AF909F9064
:100360008F907F906F9008958AE08093640282E07E
:10037000809365021092660281E080937D02109264
:1003800068028FE18093690210926A028EE092E027
:10039000909363028093620240E35FEE68E08BE536
:1003A00092E00C944009EF920F9381ED92E00E944D
:1003B000610C18161906ACF581ED92E00E947A0CDA
:1003C0008E3669F480934B026CEA71E081ED92E025
:1003D0000E94960EB8E2EB2E02E021E01BC08336AD
:1003E00029F480934B0260EC71E006C08337C9F4B6
:1003F00080934B0267ED71E081ED92E00E94960ED2
:1004000081ED92E00E947A0C80934C02A8E2EA2EE1
:1004100002E022E04BE452E062E082E692E00E94D9
:100420002C07E0916202F09163020480F581E02DD7
:1004300082E692E00995882309F48FC020E080913C
:100440007C02281760F4822F90E0FC01E258FD4FF7
:100450003081FC01E15BFD4F30832F5FF0CF809155
:100460004F028D3219F46DEE71E053C063EF71E00D
:1004700081ED92E00E94890E409156025091570200
:1004800060915802709159024F5F5F4F6F4F7F4FDD
:10049000409356025093570260935802709359024A
:1004A0002AE030E081ED92E00E945B0F6CE281ED8A
:1004B00092E00E948B0E6CE281ED92E00E948B0E26
:1004C00060917B024AE050E081ED92E00E94680F6B
:1004D00064EF71E081ED92E00E94890E80917B02D1
:1004E00080934A0267E08FE492E00E943B0166EF4E
:1004F00071E081ED92E00E94890E60917502709129
:1005000076024AE050E081ED92E00E94530F64EFE2
:1005100071E081ED92E00E94890E82E692E00E94F5
:1005200029038823D1F080917B0240E06CE372E0E4
:1005300082E692E00E94700860E072E081ED92E055
:100540000E94890E81ED92E00E94920E63E070E0BD
:1005500089E00F91EF900C9421010F91EF90089595
:100560008091730290917402DC01ED91FC910484FE
:10057000F585E02D0994CF93DF93EC0161E08A814A
:100580000E94020C89858CBD8A858DBD7894DF918F
:10059000CF910895FC01F8948CB581878DB5828741
:1005A0008CB5837F8CBD8CB58F7D8CBD8CB58C7FDD
:1005B0008CBD8DB58E7F8DBD60E082810C94020C68
:1005C000F89420917D02233021F4209179022111A9
:1005D0000FC020917D02233011F4789407C0DC0114
:1005E000ED91FC910288F389E02D099580E0089552
:1005F000DC01ED91FC910488F589E02D61E009951D
:1006000081E008958EBD00000DB407FEFDCF8EB5CC
:100610000895CF93DF931F92CDB7DEB7DC01ED9144
:10062000FC910480F581E02D698309956981882317
:1006300059F080917B02861711F06F3F29F4909159
:10064000770281E0911101C080E00F90DF91CF919E
:10065000089580917802882329F090917A0281E0B0
:100660009F3F09F480E00895EF92FF921F93CF938C
:10067000DF931F92CDB7DEB77C01DC01ED91FC91D9
:10068000008CF18DE02D698309956981862F8F7724
:100690000E94020380E00E940203182FD701ED910F
:1006A000FC91028CF38DE02DC7010995812F0F90ED
:1006B000DF91CF911F91FF90EF9008950F931F93BB
:1006C000CF93DF9300D0CDB7DEB78C01DC01ED9185
:1006D000FC91008CF18DE02D4A8369830995698135
:1006E000862F80680E9402034A81842F0E940203A1
:1006F000D801ED91FC91028CF38DE02DC8010F9093
:100700000F90DF91CF911F910F9109941F93CF9379
:10071000DF93EC01162F80917D02681709F461C008
:10072000623009F440C070F4662309F444C06130BB
:1007300009F057C061E0CE010E943403482F437E88
:1007400044603FC06330C1F0643009F04AC061E0EA
:10075000CE010E943403482F437E4C6061E0CE01FD
:100760000E945E038885882381F1E881F9810688EB
:10077000F789E02D61E014C061E0CE010E943403EE
:10078000482F437E406161E0CE010E945E03888570
:100790008823D9F0E881F9810688F789E02D60E0A7
:1007A000CE01099512C061E0CE010E943403482FAA
:1007B000437E486006C061E0CE010E943403482FAA
:1007C000437E61E0CE010E945E0380917D02811133
:1007D00006C067E2CE010E94340387FFF6CF109374
:1007E0007D02DF91CF911F910895CF93DF93EC01AC
:1007F000603208F06FE16F838885882311F0669579
:100800006F8361E1CE010E943403482F407E8F81C7
:10081000482B61E1CE01DF91CF910C945E03CF9321
:10082000DF93EC0110927C0210927B0210927A020C
:10083000109279021092780210927702109276024A
:100840001092750268E20E94340382FF0AC06DE3D1
:10085000CE010E943403482F44606DE3CE010E9414
:100860005E0340E465E2CE010E945E03E881F98107
:100870000488F589E02D63E0CE01DF91CF910994E2
:10088000DF92EF92FF920F931F93CF93DF93EC01D0
:100890008B01E881F9810488F589E02D61E00995F3
:1008A00001151105E1F0E881F981008CF18DE02D51
:1008B000CE0109958EEB0E9402037801D12CF7013D
:1008C00081917F010E940203D394F0E1DF12F7CF00
:1008D000E881F981028CF38DE02DCE0109956DE35D
:1008E000CE010E9434038E7F91E0012B09F490E049
:1008F000482F492B6DE3CE01DF91CF911F910F91CE
:10090000FF90EF90DF900C945E038F929F92AF92D6
:10091000BF92DF92EF92FF920F931F93CF93DF93DB
:10092000CDB7DEB7AE970FB6F894DEBF0FBECDBF22
:100930007C01D42E8EE28E010F5F1F4FD801E82F6D
:100940001D92EA95E9F791E0998334E03A8342E019
:100950004B8393E09D834E833F8340E4488735E09B
:1009600039879A8796E09B8793E39C8737E03D879A
:1009700098E09F8799E0998B99E19B8B92E49C8BFF
:1009800055E25D8B4E8B46E24F8B388F38E2398FC4
:1009900030E13A8F39E23B8F3CED3C8F8D8F88E818
:1009A0008E8F8FE28F8F8DE288A380E389A337E358
:1009B0003BA330E93CA338E33DA39EA39CE39FA364
:1009C0009FE898A79DE399A792E19AA79FE69BA726
:1009D0008CA78FEF8DA76F3131F06B3231F0663518
:1009E00031F489ED05C08EE403C08CE601C084EECD
:1009F0008E876F3141F06B3221F0663521F480E053
:100A000003C080E401C080EC888B2AA361E0D70199
:100A100012968C910E94020C61E0F70182810E9483
:100A2000C90B0E940A090E94FC0A4B015C014AEAB8
:100A30006FE2C7010E945E036FE2C7010E943403A8
:100A40008A3A59F00E94FC0A681979098A099B09B7
:100A5000623371058105910550F30E94FC0A4B0138
:100A60005C0145E56FE2C7010E945E036FE2C701CA
:100A70000E943403853559F00E94FC0A68197909EF
:100A80008A099B09623371058105910550F3B12CE8
:100A9000F801EB0DF11DEB0DF11D60816F3F31F0A1
:100AA0004181C7010E945E03B394F2CF60E070E021
:100AB000C7010E944004D701ED91FC911197008479
:100AC000F185E02D18966C91C7010995D701ED913C
:100AD000FC910488F589E02D61E0C70109950E9429
:100AE000FC0A4B015C0167E2C7010E94340387FDE9
:100AF0000BC00E94FC0A681979098A099B096233B4
:100B000071058105910578F30E94FC0A681979093D
:100B10008A099B09623371058105910588F443E0D8
:100B200050E060EB72E0F70184810E94440AF09289
:100B30007402E0927302D7011596DC9281E001C045
:100B400080E0AE960FB6F894DEBF0FBECDBFDF914A
:100B5000CF911F910F91FF90EF90DF90BF90AF90DA
:100B60009F908F900895CF93DF93EC0161110DC09A
:100B700064E2CE010E94340390E091958195910941
:100B800095958795DF91CF91089541E063E20E94AA
:100B90005E0363E2CE010E94340381FFFACFE8CF07
:100BA000CF93DF93EC0180917D028330A9F4809193
:100BB0007902811111C060E0CE010E94B305863A2E
:100BC0009F4F54F4E881F9810488F589E02D61E0B4
:100BD000CE01099581E001C080E0DF91CF910895B9
:100BE000FF920F931F93CF93DF93EC0180917D02CF
:100BF000833001F568E2CE010E94340382FD28C0F3
:100C000019C080917C028D3330F4E0917C02F0E0D9
:100C1000E258FD4F1082E881F981028CF38DE02DBE
:100C2000CE010995E881F9810488F589E02D63E01A
:100C3000CE01099560E0CE010E94B3059093760243
:100C400080937502DF91CF911F910F91FF900895CE
:100C5000E881F9810488F589E02D61E0CE010995EC
:100C6000E881F981008CF18DE02DCE01099580E0BD
:100C70000E94020380E00E94020380937902809127
:100C800079028334D0F4809179028093790280E0F4
:100C90000E94020380937A028E81811109C0909193
:100CA0007A028D81981721F080917A028F3F39F472
:100CB00080917902833018F017C082E4E6CF109259
:100CC0007902E881F981028CF38DE02DCE0109953E
:100CD000E881F9810288F389E02DCE01DF91CF917F
:100CE0001F910F91FF900994809179028350809316
:100CF0007C0280E00E94020380937B0280E00E94DD
:100D00000203982F907890937702982F9074909385
:100D10007802E881F9810684F785E02D682FCE01FD
:100D20000995F12C80917C02F81608F06ACF0F2DFE
:100D300010E080E00E940203F801E258FD4F80833A
:100D4000F394F0CF4F925F926F927F929F92AF9207
:100D5000BF92EF920F931F93CF93DF93EC01162F67
:100D60005A01922E6DE30E943403482F44606DE3D4
:100D7000CE010E945E030E94FC0A2B013C01CE01C1
:100D80000E94D0058823C1F0E881F9810088F189AB
:100D9000E02DE12C292DA501612FCE010995DF91D0
:100DA000CF911F910F91EF90BF90AF909F907F9048
:100DB0006F905F904F9008950E94FC0A6419750926
:100DC00086099709683E734081059105E8F6E88138
:100DD000F9810480F581E02DCE010995D0CFCF9324
:100DE000DF93EC016887662311F04FE001C04AE110
:100DF00063E1CE010E945E038885882341F061E1B2
:100E0000CE010E943403482F4F71406602C04F81CB
:100E1000406861E1CE01DF91CF910C945E031F9396
:100E2000CF93DF93EC01162F662311F04DE501C03F
:100E300045E56AE5CE010E945E03112311F04CE7FF
:100E400001C040E76CE5CE01DF91CF911F910C947A
:100E50005E03FC01668308952F923F924F925F924A
:100E60007F928F929F92AF92BF92CF92DF92EF923A
:100E7000FF920F931F93CF93DF93EC01962E5A01AD
:100E8000722E802E10E0CE2CD12CE12CF12CE8819A
:100E9000F9810190F081E02D01E0272DA501692D58
:100EA000CE0109950E94FC0A1B012C010E94FC0A3C
:100EB00062197309840995096C157D058E059F05D6
:100EC00040F4692DCE010E940903882379F381E063
:100ED00009C01F5F8116D8F68D858F3110F48F5FA2
:100EE0008D8780E0DF91CF911F910F91FF90EF9060
:100EF000DF90CF90BF90AF909F908F907F905F904A
:100F00004F903F902F900895CF93DF93EC01607244
:100F10006093BB0280917702882361F18091BB02CC
:100F2000882341F180917C02882321F180E00E9496
:100F3000020390E09195819591099F878E8720917A
:100F40007C02215020937C022B853C8521153105A4
:100F500089F08217930734F44D854F3118F44F5FB1
:100F60004D8708C0281739072CF48D85882311F088
:100F700081508D87DF91CF910895FC0114861386EF
:100F8000178616861092BB023FE135870C948504C4
:100F90008F929F92AF92BF92CF92DF92EF92FF9289
:100FA0000F931F93CF93DF93EC01F62ED42E152FC2
:100FB000822E902EE881F9810488F589E02D61E088
:100FC000099567E2CE010E94340387FFFACF40E023
:100FD00065E2CE010E945E03EE2011F00C2D01C0EF
:100FE00000E0080D0E3308F00DE3E881F981008C74
:100FF000F18DE02DCE01099580E80E94020383E087
:10100000800F0E9402038F2D0E9402038D810E9497
:101010000203EE2099F0CC2011F080EA01C080E8B4
:101020000E940203CC20B9F0C501B7FE03C0919520
:10103000819591090E94020301500DC0992041F051
:101040008B859C85892B11F080E603C080E401C06C
:1010500080E00E940203CD2CED2CF12E8E2D8C19F8
:10106000801730F4F70181917F010E940203F6CFCF
:10107000E881F981028CF38DE02DCE010995E8819C
:10108000F9810488F589E02D64E0CE0109950E947C
:10109000FC0A6B017C018B810E94380C892BA1F02A
:1010A000E881F9810488F589E02D61E0CE01DF91C6
:1010B000CF911F910F91FF90EF90DF90CF90BF9055
:1010C000AF909F908F9009940E94FC0A6C197D0943
:1010D0008E099F09683E73408105910508F7DBCFB3
:1010E0006F927F928F929F92AF92BF92CF92DF9238
:1010F000EF92FF920F931F93CF93DF93EC013B018D
:10110000F42E1092780210917B02809075029090DC
:1011100076028091BB0201E0811101C000E06DE325
:10112000CE010E943403482F44606DE3CE010E943B
:101130005E030E94FC0A5B016C01CE010E94D00597
:10114000882301F110937B025401C02EEE24E39416
:1011500000E02F2DA301612FCE010E94C8079092BD
:10116000760280927502DF91CF911F910F91FF90CF
:10117000EF90DF90CF90BF90AF909F908F907F9037
:101180006F9008950E94FC0A6A197B098C099D09D9
:10119000683E734081059105A8F6E881F9810480D5
:1011A000F581E02DCE010995C8CFAF92BF92CF92C5
:1011B000EF920F93A12CB12CC12C0E94C8070F9164
:1011C000EF90CF90BF90AF9008951F93CF93DF9390
:1011D000EC01162F80917D026817A1F0CE010E94CC
:1011E0008603143079F48B859C85892B59F0E8812E
:1011F000F9810284F385E02D6D85CE01DF91CF91D9
:101200001F910994DF91CF911F9108951092BB0215
:101210000C940F04CF93CFB7F8948091BF02811143
:1012200027C0EAE9F0E08491E6E8F0E09491E82F45
:10123000F0E0EE0FFF1FE854FF4FA591B4918C91A1
:10124000892321F461E08AE00E94020C61E08AE0D7
:101250000E94C90B8CB580618CBD8CB580648CBD3F
:1012600061E08DE00E94C90B61E08BE00E94C90B38
:101270008091BF028F5F8093BF02CFBFCF9108954F
:10128000FC0180E585831682608352834183089543
:10129000FC018CB583838DB5848335812681809153
:1012A000BE02882399F09FB7F8948091BE028130E6
:1012B00059F48DB38093BC024DB38091BD028095EB
:1012C00084238DBB9FBF02C09093BC023CBD2DBD4B
:1012D00060E080810C94020CCF93DF93EC0161E01D
:1012E00088810E94020C8091BE02882361F09FB722
:1012F000F8942091BE028091BC02213019F48DBB7C
:101300009FBF01C08FBF8B818CBD8C818DBDDF9154
:10131000CF9108950F931F93CF93DF938C010E9479
:1013200048098FE90E94020380E00E940203C82F4F
:10133000D0E0DC2FCC2780E00E940203C82BC8013C
:101340000E946C09CE01DF91CF911F910F910895FA
:101350001F93CF93DF93EC010E94480985E00E9420
:10136000020380E00E940203182FCE010E946C0944
:10137000812FDF91CF911F9108950E94A80981705C
:1013800008951F93CF93DF93EC01162F442339F078
:1013900040E066E00E94C109CE010E946C09CE01C6
:1013A0000E94BD098111FBCFCE010E944809812F07
:1013B000DF91CF911F910C9402030F931F93CF9352
:1013C000DF938C0140E06BE40E94C10980E00E9441
:1013D000020380E00E94020380E00E94020380E09A
:1013E0000E940203C0ECD2E080E00E9402038993D5
:1013F00082E0C83CD807C1F7C8010E946C0980ECA4
:1014000092E0DF91CF911F910F910895CF93DF93D9
:10141000EC0140E06BEA0E94C109CE01DF91CF915F
:101420000C946C09CF93DF93EC018CB58B838DB555
:101430008C8361E088810E94C90B80E58D831E82C8
:10144000CE010E946C09CE010E94060A89819A8110
:10145000892B51F0CE010E948A0929813A81821795
:10146000930711F080E00CC041E061E0CE010E94E2
:10147000C10980E00E940203CE010E946C0981E054
:10148000DF91CF91089508958230E8F4E82FF0E0DD
:10149000EE0FFF1FE050FF4F71836083813041F0FA
:1014A000809169008C7F842B80936900E89A08956D
:1014B00080916900440F551F440F551F837F842B73
:1014C00080936900E99A08951F920F920FB60F92C8
:1014D00011242F933F934F935F936F937F938F9339
:1014E0009F93AF93BF93EF93FF93E0910001F0912F
:1014F00001010995FF91EF91BF91AF919F918F915C
:101500007F916F915F914F913F912F910F900FBEFF
:101510000F901F9018951F920F920FB60F921124E3
:101520002F933F934F935F936F937F938F939F93EB
:10153000AF93BF93EF93FF93E0910201F09103010A
:101540000995FF91EF91BF91AF919F918F917F91FD
:101550006F915F914F913F912F910F900FBE0F9020
:101560001F9018951F920F920FB60F9211242F9370
:101570003F938F939F93AF93BF938091C9029091B4
:10158000CA02A091CB02B091CC023091C80223E0F4
:10159000230F2D3720F40196A11DB11D05C026E8AB
:1015A000230F0296A11DB11D2093C8028093C9028A
:1015B0009093CA02A093CB02B093CC028091CD024B
:1015C0009091CE02A091CF02B091D0020196A11DC0
:1015D000B11D8093CD029093CE02A093CF02B09321
:1015E000D002BF91AF919F918F913F912F910F901A
:1015F0000FBE0F901F9018952FB7F8946091C902F5
:101600007091CA028091CB029091CC022FBF0895B5
:101610003FB7F8948091CD029091CE02A091CF0275
:10162000B091D00226B5A89B05C02F3F19F00196B6
:10163000A11DB11D3FBF6627782F892F9A2F620FFA
:10164000711D811D911D42E0660F771F881F991F34
:101650004A95D1F708958F929F92AF92BF92CF9201
:10166000DF92EF92FF926B017C010E94080B4B010D
:101670005C01C114D104E104F104F1F00E947F0F78
:101680000E94080B681979098A099B09683E734012
:101690008105910570F321E0C21AD108E108F10833
:1016A00088EE880E83E0981EA11CB11CC114D104E1
:1016B000E104F10429F7DDCFFF90EF90DF90CF90A8
:1016C000BF90AF909F908F900895789484B582607A
:1016D00084BD84B5816084BD85B5826085BD85B5D6
:1016E000816085BDEEE6F0E0808181608083E1E885
:1016F000F0E01082808182608083808181608083BD
:10170000E0E8F0E0808181608083E1EBF0E08081BF
:1017100084608083E0EBF0E0808181608083EAE791
:10172000F0E080818460808380818260808380811A
:10173000816080838081806880831092C1000895D9
:10174000833081F028F4813099F08230A1F008953F
:101750008730A9F08830B9F08430D1F480918000CE
:101760008F7D03C0809180008F77809380000895E3
:1017700084B58F7702C084B58F7D84BD0895809134
:10178000B0008F7703C08091B0008F7D8093B00050
:101790000895CF93DF9390E0FC01E458FF4F24912C
:1017A000FC01E057FF4F8491882349F190E0880FB6
:1017B000991FFC01E854FF4FA591B49182559F4FAA
:1017C000FC01C591D4919FB7611108C0F8948C9128
:1017D000209582238C93888182230AC0623051F441
:1017E000F8948C91322F309583238C938881822BAF
:1017F000888304C0F8948C91822B8C939FBFDF91D7
:10180000CF9108950F931F93CF93DF931F92CDB77E
:10181000DEB7282F30E0F901E859FF4F8491F90134
:10182000E458FF4F1491F901E057FF4F0491002352
:10183000C9F0882321F069830E94A00B6981E02F01
:10184000F0E0EE0FFF1FE255FF4FA591B4919FB757
:10185000F8948C91611103C01095812301C0812BF4
:101860008C939FBF0F90DF91CF911F910F9108959F
:10187000CF93DF93282F30E0F901E859FF4F84918F
:10188000F901E458FF4FD491F901E057FF4FC4919B
:10189000CC2391F081110E94A00BEC2FF0E0EE0F11
:1018A000FF1FEC55FF4FA591B4912C912D2381E0A2
:1018B00090E021F480E002C080E090E0DF91CF91E1
:1018C0000895FC01818D228D90E0805C9F4F821BEA
:1018D00091098F7399270895FC01918D828D981736
:1018E00031F0828DE80FF11D858D90E008958FEF26
:1018F0009FEF0895FC01918D828D981761F0828D84
:10190000DF01A80FB11D5D968C91928D9F5F9F7333
:10191000928F90E008958FEF9FEF08958EEF9DE0F6
:10192000892B49F080E090E0892B29F00E94FE0D80
:1019300081110C9400000895FC01848DDF01A80F33
:10194000B11DA35ABF4F2C91848D90E001968F73E7
:101950009927848FA689B7892C93A089B1898C9106
:1019600080648C93938D848D981306C00288F389CC
:10197000E02D80818F7D80830895CF93DF93EC01EC
:10198000888D8823C9F0EA89FB89808185FD05C09F
:10199000A889B9898C9186FD0FC00FB607FCF5CFD9
:1019A000808185FFF2CFA889B9898C9185FFEDCF21
:1019B000CE010E949C0CE7CFDF91CF910895CF928A
:1019C000DF92FF920F931F93CF93DF931F92CDB7B8
:1019D000DEB76C0181E0D60158968C9358975B96E0
:1019E0009C915B975C968C915C97981307C050967E
:1019F000ED91FC915197808185FD2EC0F601038DFC
:101A000010E00F5F1F4F0F731127F02EF601848D2A
:101A1000F81211C00FB607FCF9CFD6015096ED9120
:101A2000FC915197808185FFF1CFC60169830E94A7
:101A30009C0C6981EBCF838DE80FF11DE35AFF4FBA
:101A40006083D6015B960C935B975296ED91FC9167
:101A50005397808180620CC0D6015696ED91FC911F
:101A6000579760835096ED91FC91519780818064E7
:101A7000808381E090E00F90DF91CF911F910F91D3
:101A8000FF90DF90CF900895BF92CF92DF92EF92B8
:101A9000FF92CF93DF93EC016A017B01B22EE889BC
:101AA000F98982E08083411581EE5807610571054F
:101AB000A1F060E079E08DE390E0A70196010E943B
:101AC000800F2150310941095109569547953795A5
:101AD0002795211580E1380798F0E889F989108267
:101AE00060E874E88EE190E0A70196010E94800F03
:101AF0002150310941095109569547953795279548
:101B0000EC85FD853083EE85FF852083188EEC897A
:101B1000FD89B082EA89FB89808180618083EA89BE
:101B2000FB89808188608083EA89FB898081806865
:101B30008083EA89FB8980818F7D8083DF91CF91CB
:101B4000FF90EF90DF90CF90BF9008951F920F927B
:101B50000FB60F9211242F938F939F93EF93FF93C0
:101B6000E091E102F091E2028081E091E702F091E0
:101B7000E80282FD12C090818091EA028F5F8F732C
:101B80002091EB02821751F0E091EA02F0E0EF526F
:101B9000FD4F958F8093EA0201C08081FF91EF9104
:101BA0009F918F912F910F900FBE0F901F901895BE
:101BB0001F920F920FB60F9211242F933F934F93C2
:101BC0005F936F937F938F939F93AF93BF93EF93A5
:101BD000FF9381ED92E00E949C0CFF91EF91BF91E9
:101BE000AF919F918F917F916F915F914F913F91B5
:101BF0002F910F900FBE0F901F90189581ED92E0DE
:101C00000E94610C21E0892B09F420E0822F0895C5
:101C10001092D4021092D30288EE93E0A0E0B0E0DC
:101C20008093D5029093D602A093D702B093D802A6
:101C30008EE292E09093D2028093D10285EC90E004
:101C40009093DE028093DD0284EC90E09093E002BA
:101C50008093DF0280EC90E09093E2028093E102B7
:101C600081EC90E09093E4028093E30282EC90E0B8
:101C70009093E6028093E50286EC90E09093E80270
:101C80008093E7021092EA021092EB021092EC02AB
:101C90001092ED020895CF92DF92EF92FF920F9390
:101CA0001F93CF93DF937C016A01EB0100E010E00A
:101CB0000C151D0571F06991D701ED91FC91019012
:101CC000F081E02DC7010995892B19F00F5F1F4F97
:101CD000EFCFC801DF91CF911F910F91FF90EF904F
:101CE000DF90CF9008956115710581F0DB010D90B3
:101CF0000020E9F7AD0141505109461B570BDC01AB
:101D0000ED91FC910280F381E02D099480E090E058
:101D100008950C94730EDC01ED91FC910190F0811B
:101D2000E02D09946AE372E00C94730E0F931F93F5
:101D3000CF93DF93EC010E94730E8C01CE010E94C1
:101D4000920E800F911FDF91CF911F910F910895F7
:101D50000F931F93CF93DF93EC010E948B0E8C01A6
:101D6000CE010E94920E800F911FDF91CF911F91A3
:101D70000F9108958F929F92AF92BF92DF92EF9250
:101D8000FF920F931F93CF93DF93CDB7DEB7A19749
:101D90000FB6F894DEBF0FBECDBF7C01F42FD52E59
:101DA000CB0119A2223008F42AE08E010F5D1F4FEB
:101DB000822E912CA12CB12C6F2F7D2DA501940189
:101DC0000E94800FF22FD32ECA01015011096A30F0
:101DD00014F4E0E301C0E7E3E60FD801EC93232B12
:101DE000242B252B49F7B801C7010E94730EA19639
:101DF0000FB6F894DEBF0FBECDBFDF91CF911F911C
:101E00000F91FF90EF90DF90BF90AF909F908F90D9
:101E10000895CF92DF92EF92FF920F931F93CF938B
:101E2000DF93EC016A017B012115310579F4E8812A
:101E3000F9810190F081E02D642FDF91CF911F9106
:101E40000F91FF90EF90DF90CF9009942A303105E9
:101E5000E9F477FF1AC06DE20E948B0E8C014427D3
:101E60005527BA014C195D096E097F092AE0CE0198
:101E70000E94BA0E800F911FDF91CF911F910F9199
:101E8000FF90EF90DF90CF9008952AE0B701A60170
:101E9000CE01DF91CF911F910F91FF90EF90DF90D6
:101EA000CF900C94BA0E9A01AB01662757FD60954E
:101EB000762F0C94090F2115310541F4DC01ED91C9
:101EC000FC910190F081E02D642F09940C94BA0EDE
:101ED0009A01462F50E060E070E00C945B0F08958B
:101EE0000E94650B0E946F0F0E948D00CEE8DCE01F
:101EF0000E94D3012097E1F30E948E0CF9CF089540
:101F0000A1E21A2EAA1BBB1BFD010DC0AA1FBB1FFD
:101F1000EE1FFF1FA217B307E407F50720F0A21B6F
:101F2000B30BE40BF50B661F771F881F991F1A94DC
:101F300069F760957095809590959B01AC01BD0106
:101F4000CF010895EE0FFF1F0590F491E02D099445
:101F5000AEE0B0E0EEEAFFE00C9450120D891E896D
:101F600086E08C831A8309838FEF9FE79E838D839E
:101F7000AE01475E5F4F6F89788DCE0101960E945A
:101F8000CA0FEF81F885E00FF11F10822E96E4E072
:101F90000C946C12ACE0B0E0E0EDFFE00C94421267
:101FA0007C016B018A01FC0117821682838181FF0B
:101FB000BDC1CE0101964C01F7019381F60193FD5D
:101FC000859193FF81916F01882309F4ABC185321C
:101FD00039F493FD859193FF81916F01853229F446
:101FE000B70190E00E94B211E7CF512C312C20E0D4
:101FF0002032A0F48B3269F030F4803259F0833211
:1020000069F420612CC08D3239F0803339F42160BD
:1020100026C02260246023C0286021C027FD27C07D
:1020200030ED380F3A3078F426FF06C0FAE05F9EB4
:10203000300D1124532E13C08AE0389E300D112428
:10204000332E20620CC08E3221F426FD6BC1206439
:1020500006C08C3611F4206802C0883641F4F601BF
:1020600093FD859193FF81916F018111C1CF982FCD
:102070009F7D9554933028F40C5F1F4FFFE3F98345
:102080000DC0833631F0833771F0833509F05BC0C2
:1020900022C0F801808189830E5F1F4F442443943E
:1020A000512C540115C03801F2E06F0E711CF8017B
:1020B000A080B18026FF03C0652D70E002C06FEFE5
:1020C0007FEFC5012C870E94A7112C0183012C856D
:1020D0002F77222E17C03801F2E06F0E711CF80125
:1020E000A080B18026FF03C0652D70E002C06FEFB5
:1020F0007FEFC5012C870E949C112C012C85206844
:10210000222E830123FC1BC0832D90E04816590624
:10211000B0F4B70180E290E00E94B2113A94F4CF9B
:10212000F50127FC859127FE81915F01B70190E0C1
:102130000E94B21131103A94F1E04F1A5108411443
:10214000510471F7E5C0843611F0893639F5F8018C
:1021500027FF07C060817181828193810C5F1F4FCF
:1021600008C060817181882777FD8095982F0E5F68
:102170001F4F2F76B22E97FF09C0909580957095CE
:1021800061957F4F8F4F9F4F2068B22E2AE030E03D
:10219000A4010E94E411A82EA81844C0853729F490
:1021A0002F7EB22E2AE030E025C0F22FF97FBF2E1D
:1021B0008F36C1F018F4883579F0B4C0803719F043
:1021C000883721F0AFC02F2F2061B22EB4FE0DC092
:1021D0008B2D8460B82E09C024FF0AC09F2F966003
:1021E000B92E06C028E030E005C020E130E002C092
:1021F00020E132E0F801B7FE07C060817181828181
:1022000093810C5F1F4F06C06081718180E090E078
:102210000E5F1F4FA4010E94E411A82EA818FB2DE9
:10222000FF77BF2EB6FE0BC02B2D2E7FA51450F4CA
:10223000B4FE0AC0B2FC08C02B2D2E7E05C07A2C3D
:102240002B2D03C07A2C01C0752C24FF0DC0FE017C
:10225000EA0DF11D8081803311F4297E09C022FF2F
:1022600006C07394739404C0822F867809F0739427
:1022700023FD13C020FF06C05A2C731418F4530C0E
:102280005718732C731468F4B70180E290E02C8720
:102290000E94B21173942C85F5CF731410F4371883
:1022A00001C0312C24FF12C0B70180E390E02C87DD
:1022B0000E94B2112C8522FF17C021FF03C088E5C0
:1022C00090E002C088E790E0B7010CC0822F8678CA
:1022D00059F021FD02C080E201C08BE227FD8DE2B2
:1022E000B70190E00E94B211A51438F4B70180E361
:1022F00090E00E94B2115A94F7CFAA94F401EA0D2B
:10230000F11D8081B70190E00E94B211A110F5CFBC
:10231000332009F451CEB70180E290E00E94B2115F
:102320003A94F6CFF7018681978102C08FEF9FEF35
:102330002C96E2E10C945E12FC0105906150704015
:102340000110D8F7809590958E0F9F1F0895FC017E
:102350006150704001900110D8F7809590958E0FD4
:102360009F1F08950F931F93CF93DF93182F092F6B
:10237000EB018B8181FD03C08FEF9FEF20C082FFB7
:1023800010C04E815F812C813D81421753077CF440
:10239000E881F9819F012F5F3F4F398328831083A4
:1023A00006C0E885F985812F0995892B29F72E81AB
:1023B0003F812F5F3F4F3F832E83812F902FDF91EF
:1023C000CF911F910F910895FA01AA27283051F15A
:1023D000203181F1E8946F936E7F6E5F7F4F8F4F56
:1023E0009F4FAF4FB1E03ED0B4E03CD0670F781FB5
:1023F000891F9A1FA11D680F791F8A1F911DA11D9A
:102400006A0F711D811D911DA11D20D009F46894D2
:102410003F912AE0269F11243019305D3193DEF67A
:10242000CF010895462F4770405D4193B3E00FD030
:10243000C9F7F6CF462F4F70405D4A3318F0495D1B
:1024400031FD4052419302D0A9F7EACFB4E0A695FE
:102450009795879577956795BA95C9F70097610520
:10246000710508959B01AC010A2E06945795479576
:1024700037952795BA95C9F7620F731F841F951F6B
:10248000A01D08952F923F924F925F926F927F927C
:102490008F929F92AF92BF92CF92DF92EF92FF9274
:1024A0000F931F93CF93DF93CDB7DEB7CA1BDB0B20
:1024B0000FB6F894DEBF0FBECDBF09942A883988C5
:1024C00048885F846E847D848C849B84AA84B984CC
:1024D000C884DF80EE80FD800C811B81AA81B981D8
:1024E000CE0FD11D0FB6F894DEBF0FBECDBFED01EC
:0624F0000895F894FFCFEF
:1024F600430A430A73616D706C65456E6372797049
:10250600744B6579000A4C697374656E696E672051
:102516006174202564204D687A2E2E2E0053504972
:1025260020466C61736820496E6974204F4B2E20DB
:10253600556E69717565204D4143203D205B005302
:10254600504920466C617368204D454D206E6F746E
:1025560020666F756E642028697320636869702031
:10256600736F6C64657265643F292E2E2E00524689
:102576004D36395F41544320456E61626C65642077
:10258600284175746F205472616E736D6973736937
:102596006F6E20436F6E74726F6C29004747573A0F
:1025A600204E65772074616720666F756E64210022
:1025B6004747573A20506572736F6E2120637265E4
:1025C600646974732E2E004747573A20506572731C
:1025D6006F6E2120736B696C6C732E2E002D7469DF
:1025E600636B00232C002C52585F525353493A0018
:1025F60041434B2073656E742C0000000000A20658
:102606002C07E0027008EF06F503F0058407D508ED
:102616000609E5080F07CA02BB0200000000DF0C2E
:102626004B0E610C7A0C6C0CBD0C0D0A006E616EC3
:0A26360000696E66006F7666000012
:00000001FF
