:100000000C9463000C94730A0C949A0A0C948B0061
:100010000C948B000C948B000C948B000C948B0034
:100020000C948B000C948B000C948B000C948B0024
:100030000C948B000C948B000C948B000C948B0014
:100040000C94C10A0C948B000C94B50D0C94E70D24
:100050000C948B000C948B000C948B000C948B00F4
:100060000C948B000C948B0000000008000201002F
:100070000003040700000000000000000102040863
:100080001020408001020408102001020408102002
:10009000040404040404040402020202020203032E
:1000A00003030303000000002300260029000000D2
:1000B0000000250028002B0000000000240027007D
:1000C0002A00A002170E11241FBECFEFD8E0DEBF1A
:1000D000CDBF12E0A0E0B1E0ECE2F5E202C0059095
:1000E0000D92A034B107D9F723E0A0E4B2E001C03B
:1000F0001D92A036B207E1F710E0C6ECD0E004C0D4
:100100002297FE010E94BF0FC23CD107C9F70E948F
:100110007F0F0C9494120C9400000F931F93CF93B5
:10012000DF93CDB7DEB7E2970FB6F894DEBF0FBE10
:10013000CDBF26E040E052EC61E070E083EC92E05D
:100140000E94530D6AE070E080E090E00E943A0B5C
:1001500024E641E06BE284E592E00E94CC07E09166
:100160005402F09155020084F185E02D61E084E5B0
:1001700092E0099564E071E084E592E00E944F040A
:1001800060914C0284E592E00E94380781E08F93F1
:1001900081EB8F9385E191E09F938F938E010F5FA9
:1001A0001F4F1F930F930E94C30FB80183EC92E07F
:1001B0000E94A50E8DE492E00E94210A0F900F90FC
:1001C0000F900F900F900F90882321F16DE271E056
:1001D00083EC92E00E94980E8DE492E00E94EC097C
:1001E00002EB12E0F80161918F0140E150E083ECF5
:1001F00092E00E94770F6AE383EC92E00E949A0EED
:10020000F2E00A3B1F0771F76DE583EC92E00E9474
:10021000B70E06C06FE471E083EC92E00E94A50E79
:100220006EE771E083EC92E00E94A50EE2960FB6B5
:10023000F894DEBF0FBECDBFDF91CF911F910F911C
:1002400008951F93CF93DF93182FEB0161E00E9475
:10025000D80B61E0812F0E94110CBE01882777FD29
:100260008095982F0E943A0B60E0812FDF91CF910B
:100270001F910C94110C6F927F928F929F92AF926C
:10028000BF92CF92DF92EF92FF920F931F93CF9383
:10029000DF931F92CDB7DEB76DB67EB6E62EF12C9A
:1002A00015E0619FA00111249A012F5F3F4F6DB7A8
:1002B0007EB7621B730B0FB6F8947EBF0FBE6DBF87
:1002C0006F5F7F4FDC0120E030E000E3C02EE8E705
:1002D000BE2EF0E2AF2EFD01E81BF90BEE15FF0577
:1002E00034F5ED91DE2ED2940FE0D0220E2F0F7058
:1002F000FB01E20FF31FC082B18210E3912E9D0C2F
:10030000928210E3912E900E9382A48219E0812EA6
:100310008D1420F417E3912ED90CD2820A3020F0EC
:10032000D38017E0D10ED3822B5F3F4FD4CFFB0198
:10033000E40FF51F108283EC92E00E94A50E0FB629
:10034000F8947EBE0FBE6DBE0F90DF91CF911F91CE
:100350000F91FF90EF90DF90CF90BF90AF909F9064
:100360008F907F906F900895EF920F93CF93E091CD
:100370005402F09155020480F581E02D84E592E06D
:100380000995882309F4D8C06CEA71E083EC92E007
:100390000E94980E40914702509148026091490294
:1003A00070914A024F5F5F4F6F4F7F4F40934702FC
:1003B000509348026093490270934A022AE030E069
:1003C00083EC92E00E946A0F6DE583EC92E00E945C
:1003D0009A0E6BE583EC92E00E949A0E60916D029A
:1003E0004AE050E083EC92E00E94770F6FEA71E000
:1003F00083EC92E00E94980E80914C028823A1F039
:1004000062EB71E083EC92E00E94980E60916C02C6
:100410004AE050E083EC92E00E94770F6FEA71E0CF
:1004200083EC92E00E94980E20E080916E022817E3
:1004300060F4822F90E0FC01E059FD4F3081FC0117
:10044000E05CFD4F30832F5FF0CF67E080E492E007
:100450000E943B0167EB71E083EC92E00E94980EF2
:1004600060916702709168024AE050E083EC92E08C
:100470000E94620F64EC71E083EC92E00E94980E9F
:1004800084E592E00E943803882309F449C0C091B2
:100490006D0240E063E372E084E592E00E947F0831
:1004A00066EC71E083EC92E00E94980E80914B0222
:1004B00091E0980F90934B0263E00E948F0F91118F
:1004C0002FC063ED71E083EC92E00E94980E4AE049
:1004D00050E06C2F83EC92E00E94770F62EE71E0A7
:1004E00083EC92E00E94980E63E070E080E090E080
:1004F0000E943A0BA8E2EA2E00E028E04CEE51E020
:100500006C2F84E592E00E943B07882319F065EF89
:1005100071E002C069EF71E083EC92E00E94980EF6
:1005200083EC92E00E94A10E63E070E089E0CF913D
:100530000F91EF900C942101CF910F91EF900895BE
:100540008AE08093560282E080935702109258020C
:1005500081E080936F0210925A028FE180935B02D8
:1005600010925C0285E092E09093550280935402D1
:1005700040E35FEE68E08DE492E00C944F098091D7
:10058000650290916602DC01ED91FC910484F58591
:10059000E02D0994CF93DF93EC0161E08A810E9402
:1005A000110C89858CBD8A858DBD7894DF91CF91A2
:1005B0000895FC01F8948CB581878DB582878CB540
:1005C000837F8CBD8CB58F7D8CBD8CB58C7F8CBDB5
:1005D0008DB58E7F8DBD60E082810C94110CF894F6
:1005E00020916F02233021F420916B0221110FC062
:1005F00020916F02233011F4789407C0DC01ED9153
:10060000FC910288F389E02D099580E00895DC01D2
:10061000ED91FC910488F589E02D61E0099581E078
:1006200008958EBD00000DB407FEFDCF8EB5089570
:10063000CF93DF931F92CDB7DEB7DC01ED91FC9134
:100640000480F581E02D698309956981882359F03B
:1006500080916D02861711F06F3F29F49091690225
:1006600081E0911101C080E00F90DF91CF9108955A
:1006700080916A02882329F090916C0281E09F3F6B
:1006800009F480E00895EF92FF921F93CF93DF93D8
:100690001F92CDB7DEB77C01DC01ED91FC91008C9F
:1006A000F18DE02D698309956981862F8F770E94EE
:1006B000110380E00E941103182FD701ED91FC91E6
:1006C000028CF38DE02DC7010995812F0F90DF91EA
:1006D000CF911F91FF90EF9008950F931F93CF93A9
:1006E000DF9300D0CDB7DEB78C01DC01ED91FC913A
:1006F000008CF18DE02D4A83698309956981862FED
:1007000080680E9411034A81842F0E941103D8013E
:10071000ED91FC91028CF38DE02DC8010F900F90AC
:10072000DF91CF911F910F9109941F93CF93DF9386
:10073000EC01162F80916F02681709F461C06230D6
:1007400009F440C070F4662309F444C0613009F034
:1007500057C061E0CE010E944303482F437E4460AE
:100760003FC06330C1F0643009F04AC061E0CE019F
:100770000E944303482F437E4C6061E0CE010E94FB
:100780006D038885882381F1E881F9810688F789DE
:10079000E02D61E014C061E0CE010E944303482FC8
:1007A000437E406161E0CE010E946D03888588230D
:1007B000D9F0E881F9810688F789E02D60E0CE0163
:1007C000099512C061E0CE010E944303482F437E89
:1007D000486006C061E0CE010E944303482F437E7B
:1007E00061E0CE010E946D0380916F02811106C00D
:1007F00067E2CE010E94430387FFF6CF10936F029A
:10080000DF91CF911F910895CF93DF93EC01603278
:1008100008F06FE16F838885882311F066956F83F8
:1008200061E1CE010E944303482F407E8F81482B17
:1008300061E1CE01DF91CF910C946D03CF93DF93F3
:10084000EC0110926E0210926D0210926C021092E6
:100850006B0210926A021092690210926802109262
:10086000670268E20E94430382FF0AC06DE3CE0183
:100870000E944303482F44606DE3CE010E946D0344
:1008800040E465E2CE010E946D03E881F9810488AD
:10089000F589E02D63E0CE01DF91CF910994DF92DD
:1008A000EF92FF920F931F93CF93DF93EC018B0195
:1008B000E881F9810488F589E02D61E00995011549
:1008C0001105E1F0E881F981008CF18DE02DCE0178
:1008D00009958EEB0E9411037801D12CF7018191CB
:1008E0007F010E941103D394F0E1DF12F7CFE8817A
:1008F000F981028CF38DE02DCE0109956DE3CE01D7
:100900000E9443038E7F91E0012B09F490E0482F71
:10091000492B6DE3CE01DF91CF911F910F91FF9095
:10092000EF90DF900C946D038F929F92AF92BF92E5
:10093000DF92EF92FF920F931F93CF93DF93CDB788
:10094000DEB7AE970FB6F894DEBF0FBECDBF7C0109
:10095000D42E8EE28E010F5F1F4FD801E82F1D921B
:10096000EA95E9F791E0998334E03A8342E04B83DA
:1009700093E09D834E833F8340E4488735E0398789
:100980009A8796E09B8793E39C8737E03D8798E0C2
:100990009F8799E0998B99E19B8B92E49C8B55E220
:1009A0005D8B4E8B46E24F8B388F38E2398F30E1CA
:1009B0003A8F39E23B8F3CED3C8F8D8F88E88E8FEC
:1009C0008FE28F8F8DE288A380E389A337E33BA377
:1009D00030E93CA338E33DA39EA39CE39FA39FE89B
:1009E00098A79DE399A792E19AA79FE69BA78CA75A
:1009F0008FEF8DA76F3131F06B3231F0663531F406
:100A000089ED05C08EE403C08CE601C084EE8E87BC
:100A10006F3141F06B3221F0663521F480E003C084
:100A200080E401C080EC888B2AA361E0D701129694
:100A30008C910E94110C61E0F70182810E94D80B19
:100A40000E9419090E940B0B4B015C014AEA6FE2FC
:100A5000C7010E946D036FE2C7010E9443038A3AF7
:100A600059F00E940B0B681979098A099B096233B6
:100A700071058105910550F30E940B0B4B015C0140
:100A800045E56FE2C7010E946D036FE2C7010E9456
:100A90004303853559F00E940B0B681979098A09BF
:100AA0009B09623371058105910550F3B12CF80162
:100AB000EB0DF11DEB0DF11D60816F3F31F04181B8
:100AC000C7010E946D03B394F2CF60E070E0C701EC
:100AD0000E944F04D701ED91FC9111970084F1859C
:100AE000E02D18966C91C7010995D701ED91FC9105
:100AF0000488F589E02D61E0C70109950E940B0B80
:100B00004B015C0167E2C7010E94430387FD0BC0F4
:100B10000E940B0B681979098A099B0962337105D8
:100B20008105910578F30E940B0B681979098A09F0
:100B30009B09623371058105910588F443E050E01B
:100B40006FEB72E0F70184810E94530AF092660213
:100B5000E0926502D7011596DC9281E001C080E049
:100B6000AE960FB6F894DEBF0FBECDBFDF91CF912A
:100B70001F910F91FF90EF90DF90BF90AF909F90EB
:100B80008F900895CF93DF93EC0161110DC064E263
:100B9000CE010E94430390E091958195910995952E
:100BA0008795DF91CF91089541E063E20E946D0344
:100BB00063E2CE010E94430381FFFACFE8CFCF93D7
:100BC000DF93EC0180916F028330A9F480916B0276
:100BD000811111C060E0CE010E94C205863A9F4F8C
:100BE00054F4E881F9810488F589E02D61E0CE01B3
:100BF000099581E001C080E0DF91CF910895FF92D7
:100C00000F931F93CF93DF93EC0180916F0283309A
:100C100001F568E2CE010E94430382FD28C019C09D
:100C200080916E028D3330F4E0916E02F0E0E05975
:100C3000FD4F1082E881F981028CF38DE02DCE0109
:100C40000995E881F9810488F589E02D63E0CE01FA
:100C5000099560E0CE010E94C205909368028093DE
:100C60006702DF91CF911F910F91FF900895E88166
:100C7000F9810488F589E02D61E0CE010995E881CC
:100C8000F981008CF18DE02DCE01099580E00E9464
:100C9000110380E00E94110380936B0280916B022C
:100CA0008334D0F480916B0280936B0280E00E94C9
:100CB000110380936C028E81811109C090916C02A6
:100CC0008D81981721F080916C028F3F39F48091CB
:100CD0006B02833018F017C082E4E6CF10926B02EB
:100CE000E881F981028CF38DE02DCE010995E88130
:100CF000F9810288F389E02DCE01DF91CF911F9118
:100D00000F91FF90099480916B02835080936E0243
:100D100080E00E94110380936D0280E00E94110325
:100D2000982F907890936902982F907490936A020C
:100D3000E881F9810684F785E02D682FCE010995B9
:100D4000F12C80916E02F81608F06ACF0F2D10E09A
:100D500080E00E941103F801E059FD4F8083F39475
:100D6000F0CF4F925F926F927F929F92AF92BF921D
:100D7000EF920F931F93CF93DF93EC01162F5A013D
:100D8000922E6DE30E944303482F44606DE3CE0131
:100D90000E946D030E940B0B2B013C01CE010E94AF
:100DA000DF058823C1F0E881F9810088F189E02D11
:100DB000E12C292DA501612FCE010995DF91CF915D
:100DC0001F910F91EF90BF90AF909F907F906F9089
:100DD0005F904F9008950E940B0B64197509860966
:100DE0009709683E734081059105E8F6E881F9812D
:100DF0000480F581E02DCE010995D0CFCF93DF930C
:100E0000EC016887662311F04FE001C04AE163E11D
:100E1000CE010E946D038885882341F061E1CE01F7
:100E20000E944303482F4F71406602C04F814068C3
:100E300061E1CE01DF91CF910C946D031F93CF93AD
:100E4000DF93EC01162F662311F04DE501C045E557
:100E50006AE5CE010E946D03112311F04CE701C039
:100E600040E76CE5CE01DF91CF911F910C946D03AB
:100E7000FC01668308952F923F924F925F927F927A
:100E80008F929F92AF92BF92CF92DF92EF92FF929A
:100E90000F931F93CF93DF93EC01962E5A01722E7E
:100EA000802E10E0CE2CD12CE12CF12CE881F981A0
:100EB0000190F081E02D01E0272DA501692DCE01E3
:100EC00009950E940B0B1B012C010E940B0B621950
:100ED0007309840995096C157D058E059F0540F4FD
:100EE000692DCE010E941803882379F381E009C09F
:100EF0001F5F8116D8F68D858F3110F48F5F8D8737
:100F000080E0DF91CF911F910F91FF90EF90DF90E4
:100F1000CF90BF90AF909F908F907F905F904F90B9
:100F20003F902F900895CF93DF93EC016072609310
:100F3000AD0280916902882361F18091AD0288231E
:100F400041F180916E02882321F180E00E9411031B
:100F500090E09195819591099F878E8720916E02EF
:100F6000215020936E022B853C852115310589F097
:100F70008217930734F44D854F3118F44F5F4D8736
:100F800008C0281739072CF48D85882311F081506B
:100F90008D87DF91CF910895FC0114861386178603
:100FA00016861092AD023FE135870C9494048F921F
:100FB0009F92AF92BF92CF92DF92EF92FF920F93E8
:100FC0001F93CF93DF93EC01F62ED42E152F822E94
:100FD000902EE881F9810488F589E02D61E009957A
:100FE00067E2CE010E94430387FFFACF40E065E24B
:100FF000CE010E946D03EE2011F00C2D01C000E027
:10100000080D0E3308F00DE3E881F981008CF18DB5
:10101000E02DCE01099580E80E94110383E0800F46
:101020000E9411038F2D0E9411038D810E941103D4
:10103000EE2099F0CC2011F080EA01C080E80E94F7
:101040001103CC20B9F0C501B7FE03C0919581957D
:1010500091090E94110301500DC0992041F08B8528
:101060009C85892B11F080E603C080E401C080E0FC
:101070000E941103CD2CED2CF12E8E2D8C19801792
:1010800030F4F70181917F010E941103F6CFE881CE
:10109000F981028CF38DE02DCE010995E881F9816B
:1010A0000488F589E02D64E0CE0109950E940B0BC0
:1010B0006B017C018B810E94470C892BA1F0E88198
:1010C000F9810488F589E02D61E0CE01DF91CF91AF
:1010D0001F910F91FF90EF90DF90CF90BF90AF9056
:1010E0009F908F9009940E940B0B6C197D098E09BB
:1010F0009F09683E73408105910508F7DBCF6F9229
:101100007F928F929F92AF92BF92CF92DF92EF9297
:10111000FF920F931F93CF93DF93EC013B01F42ECB
:1011200010926A0210916D0280906702909068029E
:101130008091AD0201E0811101C000E06DE3CE01BC
:101140000E944303482F44606DE3CE010E946D036B
:101150000E940B0B5B016C01CE010E94DF0588230E
:1011600001F110936D025401C02EEE24E39400E0CF
:101170002F2DA301612FCE010E94D7079092680204
:1011800080926702DF91CF911F910F91FF90EF90B6
:10119000DF90CF90BF90AF909F908F907F906F9097
:1011A00008950E940B0B6A197B098C099D09683E02
:1011B000734081059105A8F6E881F9810480F581E5
:1011C000E02DCE010995C8CFAF92BF92CF92EF929A
:1011D0000F93A12CB12CC12C0E94D7070F91EF9037
:1011E000CF90BF90AF9008951F93CF93DF93EC0102
:1011F000162F80916F026817A1F0CE010E9495030F
:10120000143079F48B859C85892B59F0E881F9811C
:101210000284F385E02D6D85CE01DF91CF911F9182
:101220000994DF91CF911F9108951092AD020C9413
:101230001E04CF93CFB7F8948091B102811127C0DB
:10124000EAE9F0E08491E6E8F0E09491E82FF0E03C
:10125000EE0FFF1FE854FF4FA591B4918C918923A5
:1012600021F461E08AE00E94110C61E08AE00E94B2
:10127000D80B8CB580618CBD8CB580648CBD61E071
:101280008DE00E94D80B61E08BE00E94D80B80912A
:10129000B1028F5F8093B102CFBFCF910895FC015F
:1012A00080E5858316826083528341830895FC0123
:1012B0008CB583838DB58483358126818091B0027E
:1012C000882399F09FB7F8948091B002813059F447
:1012D0008DB38093AE024DB38091AF02809584238D
:1012E0008DBB9FBF02C09093AE023CBD2DBD60E0A0
:1012F00080810C94110CCF93DF93EC0161E0888125
:101300000E94110C8091B002882361F09FB7F8947D
:101310002091B0028091AE02213019F48DBB9FBFA5
:1013200001C08FBF8B818CBD8C818DBDDF91CF9132
:1013300008950F931F93CF93DF938C010E94570959
:101340008FE90E94110380E00E941103C82FD0E0B2
:10135000DC2FCC2780E00E941103C82BC8010E941B
:101360007B09CE01DF91CF911F910F9108951F93BB
:10137000CF93DF93EC010E94570985E00E9411038F
:1013800080E00E941103182FCE010E947B09812F5B
:10139000DF91CF911F9108950E94B7098170089540
:1013A0001F93CF93DF93EC01162F442339F040E0D5
:1013B00066E00E94D009CE010E947B09CE010E9406
:1013C000CC098111FBCFCE010E945709812FDF91FB
:1013D000CF911F910C9411030F931F93CF93DF9321
:1013E0008C0140E06BE40E94D00980E00E94110370
:1013F00080E00E94110380E00E94110380E00E94BF
:101400001103C2EBD2E080E00E941103899382E0D5
:10141000CA3BD807C1F7C8010E947B0982EB92E062
:10142000DF91CF911F910F910895CF93DF93EC013E
:1014300040E06BEA0E94D009CE01DF91CF910C947D
:101440007B09CF93DF93EC018CB58B838DB58C83B7
:1014500061E088810E94D80B80E58D831E82CE01D9
:101460000E947B09CE010E94150A89819A81892BED
:1014700051F0CE010E94990929813A818217930780
:1014800011F080E00CC041E061E0CE010E94D00983
:1014900080E00E941103CE010E947B0981E0DF9170
:1014A000CF91089508958230E8F4E82FF0E0EE0F30
:1014B000FF1FE050FF4F71836083813041F08091C6
:1014C00069008C7F842B80936900E89A089580914D
:1014D0006900440F551F440F551F837F842B809351
:1014E0006900E99A08951F920F920FB60F92112486
:1014F0002F933F934F935F936F937F938F939F931C
:10150000AF93BF93EF93FF93E0910001F09101013E
:101510000995FF91EF91BF91AF919F918F917F912D
:101520006F915F914F913F912F910F900FBE0F9050
:101530001F9018951F920F920FB60F9211242F93A0
:101540003F934F935F936F937F938F939F93AF934B
:10155000BF93EF93FF93E0910201F091030109958E
:10156000FF91EF91BF91AF919F918F917F916F917B
:101570005F914F913F912F910F900FBE0F901F9051
:1015800018951F920F920FB60F9211242F933F932D
:101590008F939F93AF93BF938091BB029091BC02B6
:1015A000A091BD02B091BE023091BA0223E0230F98
:1015B0002D3720F40196A11DB11D05C026E8230F8B
:1015C0000296A11DB11D2093BA028093BB02909395
:1015D000BC02A093BD02B093BE028091BF02909165
:1015E000C002A091C102B091C2020196A11DB11D1D
:1015F0008093BF029093C002A093C102B093C20235
:10160000BF91AF919F918F913F912F910F900FBEFE
:101610000F901F9018952FB7F8946091BB027091AE
:10162000BC028091BD029091BE022FBF08953FB7CA
:10163000F8948091BF029091C002A091C102B09134
:10164000C20226B5A89B05C02F3F19F00196A11D27
:10165000B11D3FBF6627782F892F9A2F620F711D0A
:10166000811D911D42E0660F771F881F991F4A95C3
:10167000D1F708958F929F92AF92BF92CF92DF924F
:10168000EF92FF926B017C010E94170B4B015C01F2
:10169000C114D104E104F104F1F00E948E0F0E9404
:1016A000170B681979098A099B09683E73408105FF
:1016B000910570F321E0C21AD108E108F10888EE23
:1016C000880E83E0981EA11CB11CC114D104E10452
:1016D000F10429F7DDCFFF90EF90DF90CF90BF901E
:1016E000AF909F908F900895789484B5826084BD68
:1016F00084B5816084BD85B5826085BD85B5816016
:1017000085BDEEE6F0E0808181608083E1E8F0E075
:101710001082808182608083808181608083E0E8A4
:10172000F0E0808181608083E1EBF0E08081846083
:101730008083E0EBF0E0808181608083EAE7F0E085
:1017400080818460808380818260808380818160E9
:1017500080838081806880831092C10008958330E7
:1017600081F028F4813099F08230A1F0089587301B
:10177000A9F08830B9F08430D1F4809180008F7D59
:1017800003C0809180008F7780938000089584B596
:101790008F7702C084B58F7D84BD08958091B0009D
:1017A0008F7703C08091B0008F7D8093B000089543
:1017B000CF93DF9390E0FC01E458FF4F2491FC01AC
:1017C000E057FF4F8491882349F190E0880F991FDB
:1017D000FC01E854FF4FA591B49182559F4FFC0145
:1017E000C591D4919FB7611108C0F8948C91209550
:1017F00082238C93888182230AC0623051F4F8944A
:101800008C91322F309583238C938881822B88830F
:1018100004C0F8948C91822B8C939FBFDF91CF9161
:1018200008950F931F93CF93DF931F92CDB7DEB729
:10183000282F30E0F901E859FF4F8491F901E4586D
:10184000FF4F1491F901E057FF4F04910023C9F0B5
:10185000882321F069830E94AF0B6981E02FF0E0BB
:10186000EE0FFF1FE255FF4FA591B4919FB7F8947B
:101870008C91611103C01095812301C0812B8C9341
:101880009FBF0F90DF91CF911F910F910895CF933C
:10189000DF93282F30E0F901E859FF4F8491F901D7
:1018A000E458FF4FD491F901E057FF4FC491CC2386
:1018B00091F081110E94AF0BEC2FF0E0EE0FFF1FB3
:1018C000EC55FF4FA591B4912C912D2381E090E030
:1018D00021F480E002C080E090E0DF91CF91089594
:1018E000FC01818D228D90E0805C9F4F821B9109CD
:1018F0008F7399270895FC01918D828D981731F08F
:10190000828DE80FF11D858D90E008958FEF9FEF98
:101910000895FC01918D828D981761F0828DDF0111
:10192000A80FB11D5D968C91928D9F5F9F73928FD2
:1019300090E008958FEF9FEF08958DE09EE0892B52
:1019400049F080E090E0892B29F00E940D0E811172
:101950000C9400000895FC01848DDF01A80FB11DD7
:10196000A35ABF4F2C91848D90E001968F739927D5
:10197000848FA689B7892C93A089B1898C918064C2
:101980008C93938D848D981306C00288F389E02D83
:1019900080818F7D80830895CF93DF93EC01888DC4
:1019A0008823C9F0EA89FB89808185FD05C0A88963
:1019B000B9898C9186FD0FC00FB607FCF5CF8081E9
:1019C00085FFF2CFA889B9898C9185FFEDCFCE0133
:1019D0000E94AB0CE7CFDF91CF910895CF92DF92B9
:1019E000FF920F931F93CF93DF931F92CDB7DEB774
:1019F0006C0181E0D60158968C9358975B969C9128
:101A00005B975C968C915C97981307C05096ED910C
:101A1000FC915197808185FD2EC0F601038D10E069
:101A20000F5F1F4F0F731127F02EF601848DF812F0
:101A300011C00FB607FCF9CFD6015096ED91FC917D
:101A40005197808185FFF1CFC60169830E94AB0C5D
:101A50006981EBCF838DE80FF11DE35AFF4F60835F
:101A6000D6015B960C935B975296ED91FC91539740
:101A7000808180620CC0D6015696ED91FC915797FB
:101A800060835096ED91FC915197808180648083B2
:101A900081E090E00F90DF91CF911F910F91FF9027
:101AA000DF90CF900895BF92CF92DF92EF92FF9296
:101AB000CF93DF93EC016A017B01B22EE889F989AB
:101AC00082E08083411581EE580761057105A1F020
:101AD00060E079E08DE390E0A70196010E949B0F02
:101AE0002150310941095109569547953795279558
:101AF000211580E1380798F0E889F989108260E8BB
:101B000074E88EE190E0A70196010E949B0F21509E
:101B10003109410951095695479537952795EC8527
:101B2000FD853083EE85FF852083188EEC89FD8945
:101B3000B082EA89FB89808180618083EA89FB89A0
:101B4000808188608083EA89FB89808180688083C6
:101B5000EA89FB8980818F7D8083DF91CF91FF901F
:101B6000EF90DF90CF90BF9008951F920F920FB625
:101B70000F9211242F938F939F93EF93FF93E091F4
:101B8000D302F091D4028081E091D902F091DA027F
:101B900082FD12C090818091DC028F5F8F73209153
:101BA000DD02821751F0E091DC02F0E0ED53FD4FD1
:101BB000958F8093DC0201C08081FF91EF919F910E
:101BC0008F912F910F900FBE0F901F9018951F921D
:101BD0000F920FB60F9211242F933F934F935F9361
:101BE0006F937F938F939F93AF93BF93EF93FF93E5
:101BF00083EC92E00E94AB0CFF91EF91BF91AF910B
:101C00009F918F917F916F915F914F913F912F9114
:101C10000F900FBE0F901F90189583EC92E00E94DA
:101C2000700C21E0892B09F420E0822F0895109296
:101C3000C6021092C50288EE93E0A0E0B0E0809367
:101C4000C7029093C802A093C902B093CA0285E26A
:101C500092E09093C4028093C30285EC90E090934D
:101C6000D0028093CF0284EC90E09093D2028093D4
:101C7000D10280EC90E09093D4028093D30281EC67
:101C800090E09093D6028093D50282EC90E09093FE
:101C9000D8028093D70286EC90E09093DA0280938A
:101CA000D9021092DC021092DD021092DE02109234
:101CB000DF020895CF92DF92EF92FF920F931F936E
:101CC000CF93DF937C016A01EB0100E010E00C157B
:101CD0001D0571F06991D701ED91FC910190F081A2
:101CE000E02DC7010995892B19F00F5F1F4FEFCF2A
:101CF000C801DF91CF911F910F91FF90EF90DF907E
:101D0000CF9008956115710581F0DB010D900020E1
:101D1000E9F7AD0141505109461B570BDC01ED912C
:101D2000FC910280F381E02D099480E090E0089519
:101D30000C94820EDC01ED91FC910190F081E02D7C
:101D4000099461E372E00C94820E0F931F93CF937A
:101D5000DF93EC010E94820E8C01CE010E94A10E45
:101D6000800F911FDF91CF911F910F9108950F93D5
:101D70001F93CF93DF93EC010E949A0E8C01CE014A
:101D80000E94A10E800F911FDF91CF911F910F91A3
:101D900008958F929F92AF92BF92DF92EF92FF923F
:101DA0000F931F93CF93DF93CDB7DEB7A1970FB6F5
:101DB000F894DEBF0FBECDBF7C01F42FD52ECB0132
:101DC00019A2223008F42AE08E010F5D1F4F822EE7
:101DD000912CA12CB12C6F2F7D2DA50194010E9477
:101DE0009B0FF22FD32ECA01015011096A3014F44F
:101DF000E0E301C0E7E3E60FD801EC93232B242BAB
:101E0000252B49F7B801C7010E94820EA1960FB693
:101E1000F894DEBF0FBECDBFDF91CF911F910F9120
:101E2000FF90EF90DF90BF90AF909F908F900895BC
:101E3000CF92DF92EF92FF920F931F93CF93DF9396
:101E4000EC016A017B012115310579F4E881F98102
:101E50000190F081E02D642FDF91CF911F910F91C0
:101E6000FF90EF90DF90CF9009942A303105E9F48C
:101E700077FF1AC06DE20E949A0E8C014427552705
:101E8000BA014C195D096E097F092AE0CE010E9452
:101E9000C90E800F911FDF91CF911F910F91FF907D
:101EA000EF90DF90CF9008952AE0B701A601CE0110
:101EB000DF91CF911F910F91FF90EF90DF90CF9026
:101EC0000C94C90E9A01AB01662757FD6095762FD9
:101ED0000C94180F2115310541F4DC01ED91FC91B2
:101EE0000190F081E02D642F09940C94C90E9A01A1
:101EF000462F50E060E070E00C946A0F08950E9455
:101F0000740B0E947E0F0E948D00CDE9DCE00E94E0
:101F1000B4012097E1F30E949D0CF9CF0895991B1D
:101F200079E004C0991F961708F0961B881F7A95D0
:101F3000C9F780950895A1E21A2EAA1BBB1BFD01CB
:101F40000DC0AA1FBB1FEE1FFF1FA217B307E40798
:101F5000F50720F0A21BB30BE40BF50B661F771FF0
:101F6000881F991F1A9469F76095709580959095D0
:101F70009B01AC01BD01CF010895EE0FFF1F05903D
:101F8000F491E02D0994AEE0B0E0E9ECFFE00C94B0
:101F90006B120D891E8986E08C831A8309838FEF6B
:101FA0009FE79E838D83AE01475E5F4F6F89788D7B
:101FB000CE0101960E94E50FEF81F885E00FF11F39
:101FC00010822E96E4E00C948712ACE0B0E0EBEEC9
:101FD000FFE00C945D127C016B018A01FC01178209
:101FE0001682838181FFBDC1CE0101964C01F701AC
:101FF0009381F60193FD859193FF81916F01882371
:1020000009F4ABC1853239F493FD859193FF819139
:102010006F01853229F4B70190E00E94CD11E7CF1E
:10202000512C312C20E02032A0F48B3269F030F4B6
:10203000803259F0833269F420612CC08D3239F03E
:10204000803339F4216026C02260246023C02860D8
:1020500021C027FD27C030ED380F3A3078F426FF35
:1020600006C0FAE05F9E300D1124532E13C08AE0A3
:10207000389E300D1124332E20620CC08E3221F494
:1020800026FD6BC1206406C08C3611F4206802C0A6
:10209000883641F4F60193FD859193FF81916F019C
:1020A0008111C1CF982F9F7D9554933028F40C5FF8
:1020B0001F4FFFE3F9830DC0833631F0833771F092
:1020C000833509F05BC022C0F801808189830E5FEF
:1020D0001F4F44244394512C540115C03801F2E0A1
:1020E0006F0E711CF801A080B18026FF03C0652D22
:1020F00070E002C06FEF7FEFC5012C870E94C21114
:102100002C0183012C852F77222E17C03801F2E095
:102110006F0E711CF801A080B18026FF03C0652DF1
:1021200070E002C06FEF7FEFC5012C870E94B711EE
:102130002C012C852068222E830123FC1BC0832DBB
:1021400090E048165906B0F4B70180E290E00E9492
:10215000CD113A94F4CFF50127FC859127FE8191AA
:102160005F01B70190E00E94CD1131103A94F1E087
:102170004F1A51084114510471F7E5C0843611F02B
:10218000893639F5F80127FF07C0608171818281A6
:1021900093810C5F1F4F08C060817181882777FD94
:1021A0008095982F0E5F1F4F2F76B22E97FF09C094
:1021B00090958095709561957F4F8F4F9F4F2068C8
:1021C000B22E2AE030E0A4010E94FF11A82EA81828
:1021D00044C0853729F42F7EB22E2AE030E025C096
:1021E000F22FF97FBF2E8F36C1F018F4883579F0C1
:1021F000B4C0803719F0883721F0AFC02F2F20618D
:10220000B22EB4FE0DC08B2D8460B82E09C024FF01
:102210000AC09F2F9660B92E06C028E030E005C0A6
:1022200020E130E002C020E132E0F801B7FE07C053
:1022300060817181828193810C5F1F4F06C0608134
:10224000718180E090E00E5F1F4FA4010E94FF119A
:10225000A82EA818FB2DFF77BF2EB6FE0BC02B2D86
:102260002E7FA51450F4B4FE0AC0B2FC08C02B2D7A
:102270002E7E05C07A2C2B2D03C07A2C01C0752C24
:1022800024FF0DC0FE01EA0DF11D8081803311F4A1
:10229000297E09C022FF06C07394739404C0822F64
:1022A000867809F0739423FD13C020FF06C05A2CD2
:1022B000731418F4530C5718732C731468F4B70183
:1022C00080E290E02C870E94CD1173942C85F5CF8D
:1022D000731410F4371801C0312C24FF12C0B70159
:1022E00080E390E02C870E94CD112C8522FF17C03F
:1022F00021FF03C088E590E002C088E790E0B701C5
:102300000CC0822F867859F021FD02C080E201C006
:102310008BE227FD8DE2B70190E00E94CD11A5145C
:1023200038F4B70180E390E00E94CD115A94F7CFC2
:10233000AA94F401EA0DF11D8081B70190E00E949A
:10234000CD11A110F5CF332009F451CEB70180E2B1
:1023500090E00E94CD113A94F6CFF70186819781E3
:1023600002C08FEF9FEF2C96E2E10C947912FC01F2
:102370000590615070400110D8F7809590958E0FB0
:102380009F1F0895FC016150704001900110D8F723
:10239000809590958E0F9F1F08950F931F93CF9355
:1023A000DF93182F092FEB018B8181FD03C08FEF85
:1023B0009FEF20C082FF10C04E815F812C813D8144
:1023C000421753077CF4E881F9819F012F5F3F4F4B
:1023D00039832883108306C0E885F985812F099504
:1023E000892B29F72E813F812F5F3F4F3F832E831B
:1023F000812F902FDF91CF911F910F910895FA01B6
:10240000AA27283051F1203181F1E8946F936E7F33
:102410006E5F7F4F8F4F9F4FAF4FB1E03ED0B4E024
:102420003CD0670F781F891F9A1FA11D680F791F65
:102430008A1F911DA11D6A0F711D811D911DA11D76
:1024400020D009F468943F912AE0269F1124301986
:10245000305D3193DEF6CF010895462F4770405D21
:102460004193B3E00FD0C9F7F6CF462F4F70405DD0
:102470004A3318F0495D31FD4052419302D0A9F72B
:10248000EACFB4E0A6959795879577956795BA9525
:10249000C9F700976105710508959B01AC010A2EEB
:1024A00006945795479537952795BA95C9F7620FC2
:1024B000731F841F951FA01D08952F923F924F9266
:1024C0005F926F927F928F929F92AF92BF92CF92C4
:1024D000DF92EF92FF920F931F93CF93DF93CDB7CD
:1024E000DEB7CA1BDB0B0FB6F894DEBF0FBECDBF45
:1024F00009942A88398848885F846E847D848C8416
:102500009B84AA84B984C884DF80EE80FD800C811E
:102510001B81AA81B981CE0FD11D0FB6F894DEBF01
:0C2520000FBECDBFED010895F894FFCF71
:10252C00520A520A73616D706C65456E63727970F4
:10253C00744B6579000A4C697374656E696E67201B
:10254C006174202564204D687A2E2E2E005350493C
:10255C0020466C61736820496E6974204F4B2E20A5
:10256C00556E69717565204D4143203D205B0053CC
:10257C00504920466C617368204D454D206E6F7438
:10258C0020666F756E6420286973206368697020FB
:10259C00736F6C64657265643F292E2E2E00524653
:1025AC004D36395F41544320456E61626C65642041
:1025BC00284175746F205472616E736D6973736901
:1025CC006F6E20436F6E74726F6C2900235B005D1D
:1025DC002000746F205B002020205B52585F525308
:1025EC0053493A005D00202D2041434B2073656E0A
:1025FC00742E002050696E67696E67206E6F64657B
:10260C002000202D2041434B2E2E2E0041434B20E9
:10261C0054455354006F6B21006E6F7468696E677C
:10262C000000000000B1063B07EF027F08FE060425
:10263C0004FF059307E4081509F4081E07D902CA1C
:10264C000200000000EE0C5A0E700C890C7B0CCCB6
:10265C000C0D0A006E616E00696E66006F76660086
:00000001FF
