:100000000C9463000C94AB0A0C94D20A0C948B00F1
:100010000C948B000C948B000C948B000C948B0034
:100020000C948B000C948B000C948B000C948B0024
:100030000C948B000C948B000C948B000C948B0014
:100040000C94F90A0C948B000C94ED0D0C941F0E7B
:100050000C948B000C948B000C948B000C948B00F4
:100060000C948B000C948B0000000008000201002F
:100070000003040700000000000000000102040863
:100080001020408001020408102001020408102002
:10009000040404040404040402020202020203032E
:1000A00003030303000000002300260029000000D2
:1000B0000000250028002B0000000000240027007D
:1000C0002A00B4014F0E11241FBECFEFD8E0DEBFCF
:1000D000CDBF12E0A0E0B1E0ECE9F5E202C005908E
:1000E0000D92A236B107D9F723E0A2E6B2E001C033
:1000F0001D92A338B207E1F710E0C6ECD0E004C0CF
:100100002297FE010E94F70FC23CD107C9F70E9457
:10011000B70F0C94CC120C9400000F931F93CF9345
:10012000DF93CDB7DEB7E2970FB6F894DEBF0FBE10
:10013000CDBF26E040E052EC61E070E086EE92E058
:100140000E948B0D6AE070E080E090E00E94720BEC
:1001500024E641E06BE287E792E00E940408E09128
:100160007702F09178020084F185E02D61E087E765
:1001700092E0099565E071E087E792E00E948704CC
:1001800060916F0287E792E00E94700781E08F9391
:1001900081EB8F9386E191E09F938F938E010F5FA8
:1001A0001F4F1F930F930E94FB0FB80186EE92E042
:1001B0000E94DD0E80E792E00E94590A0F900F9096
:1001C0000F900F900F900F90882321F16EE271E055
:1001D00086EE92E00E94D00E80E792E00E94240A10
:1001E00005ED12E0F80161918F0140E150E086EEEB
:1001F00092E00E94AF0F6AE386EE92E00E94D20E78
:10020000F2E00D3D1F0771F76DE586EE92E00E946A
:10021000EF0E06C060E571E086EE92E00E94DD0E12
:100220006FE771E086EE92E00E94DD0EE2960FB677
:10023000F894DEBF0FBECDBFDF91CF911F910F911C
:1002400008951F93CF93DF93182FEB0161E00E9475
:10025000100C61E0812F0E94490CBE01882777FDB8
:100260008095982F0E94720B60E0812FDF91CF91D3
:100270001F910C94490C6F927F928F929F92AF9234
:10028000BF92CF92DF92EF92FF920F931F93CF9383
:10029000DF931F92CDB7DEB76DB67EB6E62EF12C9A
:1002A00015E0619FA00111249A012F5F3F4F6DB7A8
:1002B0007EB7621B730B0FB6F8947EBF0FBE6DBF87
:1002C0006F5F7F4FDC0120E030E000E3C02EE8E705
:1002D000BE2EF0E2AF2EFD01E81BF90BEE15FF0577
:1002E00034F5ED91DE2ED2940FE0D0220E2F0F7058
:1002F000FB01E20FF31FC082B18210E3912E9D0C2F
:10030000928210E3912E900E9382A48219E0812EA6
:100310008D1420F417E3912ED90CD2820A3020F0EC
:10032000D38017E0D10ED3822B5F3F4FD4CFFB0198
:10033000E40FF51F108286EE92E00E94D00E0FB6F9
:10034000F8947EBE0FBE6DBE0F90DF91CF911F91CE
:100350000F91FF90EF90DF90CF90BF90AF909F9064
:100360008F907F906F9008958AE08093790282E069
:1003700080937A0210927B0281E080939202109225
:100380007D028FE180937E0210927F0286E292E0EE
:10039000909378028093770240E35FEE68E080E715
:1003A00092E00C948709EF920F93CF9386EE92E040
:1003B0000E94A80C181619068CF586EE92E00E9491
:1003C000C10C8E3641F4809362026DEA71E086EED4
:1003D00092E00E94DD0EB8E2EB2E02E021E042E660
:1003E00052E06091000187E792E00E947307882342
:1003F00039F061EC71E086EE92E00E94D00E0EC002
:100400004AE050E06091000186EE92E00E94AF0F5A
:100410006AEC71E086EE92E00E94DD0EE0917702D8
:10042000F09178020480F581E02D87E792E009954C
:10043000882309F4D8C067ED71E086EE92E00E944F
:10044000D00E40916A0250916B0260916C027091E3
:100450006D024F5F5F4F6F4F7F4F40936A02509323
:100460006B0260936C0270936D022AE030E086EEBE
:1004700092E00E94A20F6CE286EE92E00E94D20E01
:100480006CE286EE92E00E94D20E609190024AE009
:1004900050E086EE92E00E94AF0F68ED71E086EECC
:1004A00092E00E94D00E80916F028823A1F06AED45
:1004B00071E086EE92E00E94D00E60918F024AE0D9
:1004C00050E086EE92E00E94AF0F6FED71E086EE95
:1004D00092E00E94D00E20E080919102281760F4F3
:1004E000822F90E0FC01ED56FD4F3081FC01ED596B
:1004F000FD4F30832F5FF0CF67E083E692E00E94EC
:100500003B0162EE71E086EE92E00E94D00E6091B7
:100510008A0270918B024AE050E086EE92E00E94DF
:100520009A0F68ED71E086EE92E00E94D00E87E7A8
:1005300092E00E947003882309F449C0C0919002A0
:1005400040E064E572E087E792E00E94B7086CEE55
:1005500071E086EE92E00E94D00E80916E0291E0F2
:10056000980F90936E0263E00E94C70F91112FC005
:1005700066EF71E086EE92E00E94D00E4AE050E015
:100580006C2F86EE92E00E94AF0F63E072E086EE81
:1005900092E00E94D00E63E070E080E090E00E9464
:1005A000720BA8E2EA2E00E028E04BE052E06C2F4C
:1005B00087E792E00E947307882319F064E172E0F4
:1005C00002C069E172E086EE92E00E94D00E86EEF3
:1005D00092E00E94D90E63E070E089E0CF910F9124
:1005E000EF900C942101CF910F91EF90089580919D
:1005F000880290918902DC01ED91FC910484F585DB
:10060000E02D0994CF93DF93EC0161E08A810E9491
:10061000490C89858CBD8A858DBD7894DF91CF91F9
:100620000895FC01F8948CB581878DB582878CB5CF
:10063000837F8CBD8CB58F7D8CBD8CB58C7F8CBD44
:100640008DB58E7F8DBD60E082810C94490CF8944D
:1006500020919202233021F420918E0221110FC0AB
:1006600020919202233011F4789407C0DC01ED91BF
:10067000FC910288F389E02D099580E00895DC0162
:10068000ED91FC910488F589E02D61E0099581E008
:1006900008958EBD00000DB407FEFDCF8EB5089500
:1006A000CF93DF931F92CDB7DEB7DC01ED91FC91C4
:1006B0000480F581E02D698309956981882359F0CB
:1006C00080919002861711F06F3F29F490918C026F
:1006D00081E0911101C080E00F90DF91CF910895EA
:1006E00080918D02882329F090918F0281E09F3FB5
:1006F00009F480E00895EF92FF921F93CF93DF9368
:100700001F92CDB7DEB77C01DC01ED91FC91008C2E
:10071000F18DE02D698309956981862F8F770E947D
:10072000490380E00E944903182FD701ED91FC9105
:10073000028CF38DE02DC7010995812F0F90DF9179
:10074000CF911F91FF90EF9008950F931F93CF9338
:10075000DF9300D0CDB7DEB78C01DC01ED91FC91C9
:10076000008CF18DE02D4A83698309956981862F7C
:1007700080680E9449034A81842F0E944903D8015E
:10078000ED91FC91028CF38DE02DC8010F900F903C
:10079000DF91CF911F910F9109941F93CF93DF9316
:1007A000EC01162F80919202681709F461C0623043
:1007B00009F440C070F4662309F444C0613009F0C4
:1007C00057C061E0CE010E947B03482F437E446006
:1007D0003FC06330C1F0643009F04AC061E0CE012F
:1007E0000E947B03482F437E4C6061E0CE010E9453
:1007F000A5038885882381F1E881F9810688F78936
:10080000E02D61E014C061E0CE010E947B03482F1F
:10081000437E406161E0CE010E94A5038885882364
:10082000D9F0E881F9810688F789E02D60E0CE01F2
:10083000099512C061E0CE010E947B03482F437EE0
:10084000486006C061E0CE010E947B03482F437ED2
:1008500061E0CE010E94A50380919202811106C041
:1008600067E2CE010E947B0387FFF6CF10939202CE
:10087000DF91CF911F910895CF93DF93EC01603208
:1008800008F06FE16F838885882311F066956F8388
:1008900061E1CE010E947B03482F407E8F81482B6F
:1008A00061E1CE01DF91CF910C94A503CF93DF934B
:1008B000EC01109291021092900210928F0210920D
:1008C0008E0210928D0210928C0210928B02109266
:1008D0008A0268E20E947B0382FF0AC06DE3CE01B8
:1008E0000E947B03482F44606DE3CE010E94A50364
:1008F00040E465E2CE010E94A503E881F981048805
:10090000F589E02D63E0CE01DF91CF910994DF926C
:10091000EF92FF920F931F93CF93DF93EC018B0124
:10092000E881F9810488F589E02D61E009950115D8
:100930001105E1F0E881F981008CF18DE02DCE0107
:1009400009958EEB0E9449037801D12CF701819122
:100950007F010E944903D394F0E1DF12F7CFE881D1
:10096000F981028CF38DE02DCE0109956DE3CE0166
:100970000E947B038E7F91E0012B09F490E0482FC9
:10098000492B6DE3CE01DF91CF911F910F91FF9025
:10099000EF90DF900C94A5038F929F92AF92BF923D
:1009A000DF92EF92FF920F931F93CF93DF93CDB718
:1009B000DEB7AE970FB6F894DEBF0FBECDBF7C0199
:1009C000D42E8EE28E010F5F1F4FD801E82F1D92AB
:1009D000EA95E9F791E0998334E03A8342E04B836A
:1009E00093E09D834E833F8340E4488735E0398719
:1009F0009A8796E09B8793E39C8737E03D8798E052
:100A00009F8799E0998B99E19B8B92E49C8B55E2AF
:100A10005D8B4E8B46E24F8B388F38E2398F30E159
:100A20003A8F39E23B8F3CED3C8F8D8F88E88E8F7B
:100A30008FE28F8F8DE288A380E389A337E33BA306
:100A400030E93CA338E33DA39EA39CE39FA39FE82A
:100A500098A79DE399A792E19AA79FE69BA78CA7E9
:100A60008FEF8DA76F3131F06B3231F0663531F495
:100A700089ED05C08EE403C08CE601C084EE8E874C
:100A80006F3141F06B3221F0663521F480E003C014
:100A900080E401C080EC888B2AA361E0D701129624
:100AA0008C910E94490C61E0F70182810E94100C38
:100AB0000E9451090E94430B4B015C014AEA6FE21C
:100AC000C7010E94A5036FE2C7010E947B038A3A17
:100AD00059F00E94430B681979098A099B0962330E
:100AE00071058105910550F30E94430B4B015C0198
:100AF00045E56FE2C7010E94A5036FE2C7010E94AE
:100B00007B03853559F00E94430B681979098A09DE
:100B10009B09623371058105910550F3B12CF801F1
:100B2000EB0DF11DEB0DF11D60816F3F31F0418147
:100B3000C7010E94A503B394F2CF60E070E0C70143
:100B40000E948704D701ED91FC9111970084F185F3
:100B5000E02D18966C91C7010995D701ED91FC9194
:100B60000488F589E02D61E0C70109950E94430BD7
:100B70004B015C0167E2C7010E947B0387FD0BC04C
:100B80000E94430B681979098A099B096233710530
:100B90008105910578F30E94430B681979098A0948
:100BA0009B09623371058105910588F443E050E0AB
:100BB00067EF72E0F70184810E948B0AF09289024C
:100BC000E0928802D7011596DC9281E001C080E0B6
:100BD000AE960FB6F894DEBF0FBECDBFDF91CF91BA
:100BE0001F910F91FF90EF90DF90BF90AF909F907B
:100BF0008F900895CF93DF93EC0161110DC064E2F3
:100C0000CE010E947B0390E0919581959109959585
:100C10008795DF91CF91089541E063E20E94A5039B
:100C200063E2CE010E947B0381FFFACFE8CFCF932E
:100C3000DF93EC01809192028330A9F480918E02BF
:100C4000811111C060E0CE010E94FA05863A9F4FE3
:100C500054F4E881F9810488F589E02D61E0CE0142
:100C6000099581E001C080E0DF91CF910895FF9266
:100C70000F931F93CF93DF93EC0180919202833007
:100C800001F568E2CE010E947B0382FD28C019C0F5
:100C9000809191028D3330F4E0919102F0E0ED56B5
:100CA000FD4F1082E881F981028CF38DE02DCE0199
:100CB0000995E881F9810488F589E02D63E0CE018A
:100CC000099560E0CE010E94FA0590938B02809313
:100CD0008A02DF91CF911F910F91FF900895E881D3
:100CE000F9810488F589E02D61E0CE010995E8815C
:100CF000F981008CF18DE02DCE01099580E00E94F4
:100D0000490380E00E94490380938E0280918E0205
:100D10008334D0F480918E0280938E0280E00E9412
:100D2000490380938F028E81811109C090918F02B7
:100D30008D81981721F080918F028F3F39F4809137
:100D40008E02833018F017C082E4E6CF10928E0234
:100D5000E881F981028CF38DE02DCE010995E881BF
:100D6000F9810288F389E02DCE01DF91CF911F91A7
:100D70000F91FF90099480918E028350809391028D
:100D800080E00E9449038093900280E00E94490322
:100D9000982F907890938C02982F907490938D0256
:100DA000E881F9810684F785E02D682FCE01099549
:100DB000F12C80919102F81608F06ACF0F2D10E007
:100DC00080E00E944903F801ED56FD4F8083F394C3
:100DD000F0CF4F925F926F927F929F92AF92BF92AD
:100DE000EF920F931F93CF93DF93EC01162F5A01CD
:100DF000922E6DE30E947B03482F44606DE3CE0189
:100E00000E94A5030E94430B2B013C01CE010E94CE
:100E100017068823C1F0E881F9810088F189E02D67
:100E2000E12C292DA501612FCE010995DF91CF91EC
:100E30001F910F91EF90BF90AF909F907F906F9018
:100E40005F904F9008950E94430B641975098609BD
:100E50009709683E734081059105E8F6E881F981BC
:100E60000480F581E02DCE010995D0CFCF93DF939B
:100E7000EC016887662311F04FE001C04AE163E1AD
:100E8000CE010E94A5038885882341F061E1CE014F
:100E90000E947B03482F4F71406602C04F8140681B
:100EA00061E1CE01DF91CF910C94A5031F93CF9305
:100EB000DF93EC01162F662311F04DE501C045E5E7
:100EC0006AE5CE010E94A503112311F04CE701C091
:100ED00040E76CE5CE01DF91CF911F910C94A50303
:100EE000FC01668308952F923F924F925F927F920A
:100EF0008F929F92AF92BF92CF92DF92EF92FF922A
:100F00000F931F93CF93DF93EC01962E5A01722E0D
:100F1000802E10E0CE2CD12CE12CF12CE881F9812F
:100F20000190F081E02D01E0272DA501692DCE0172
:100F300009950E94430B1B012C010E94430B62196F
:100F40007309840995096C157D058E059F0540F48C
:100F5000692DCE010E945003882379F381E009C0F6
:100F60001F5F8116D8F68D858F3110F48F5F8D87C6
:100F700080E0DF91CF911F910F91FF90EF90DF9074
:100F8000CF90BF90AF909F908F907F905F904F9049
:100F90003F902F900895CF93DF93EC0160726093A0
:100FA000D00280918C02882361F18091D002882345
:100FB00041F180919102882321F180E00E94490350
:100FC00090E09195819591099F878E87209191025C
:100FD0002150209391022B853C852115310589F004
:100FE0008217930734F44D854F3118F44F5F4D87C6
:100FF00008C0281739072CF48D85882311F08150FB
:101000008D87DF91CF910895FC0114861386178692
:1010100016861092D0023FE135870C94CC048F9253
:101020009F92AF92BF92CF92DF92EF92FF920F9377
:101030001F93CF93DF93EC01F62ED42E152F822E23
:10104000902EE881F9810488F589E02D61E0099509
:1010500067E2CE010E947B0387FFFACF40E065E2A2
:10106000CE010E94A503EE2011F00C2D01C000E07E
:10107000080D0E3308F00DE3E881F981008CF18D45
:10108000E02DCE01099580E80E94490383E0800F9E
:101090000E9449038F2D0E9449038D810E944903BC
:1010A000EE2099F0CC2011F080EA01C080E80E9487
:1010B0004903CC20B9F0C501B7FE03C091958195D5
:1010C00091090E94490301500DC0992041F08B8580
:1010D0009C85892B11F080E603C080E401C080E08C
:1010E0000E944903CD2CED2CF12E8E2D8C198017EA
:1010F00030F4F70181917F010E944903F6CFE88126
:10110000F981028CF38DE02DCE010995E881F981FA
:101110000488F589E02D64E0CE0109950E94430B17
:101120006B017C018B810E947F0C892BA1F0E881EF
:10113000F9810488F589E02D61E0CE01DF91CF913E
:101140001F910F91FF90EF90DF90CF90BF90AF90E5
:101150009F908F9009940E94430B6C197D098E0912
:101160009F09683E73408105910508F7DBCF6F92B8
:101170007F928F929F92AF92BF92CF92DF92EF9227
:10118000FF920F931F93CF93DF93EC013B01F42E5B
:1011900010928D021091900280908A0290908B02A2
:1011A0008091D00201E0811101C000E06DE3CE0129
:1011B0000E947B03482F44606DE3CE010E94A5038B
:1011C0000E94430B5B016C01CE010E94170688232D
:1011D00001F1109390025401C02EEE24E39400E03C
:1011E0002F2DA301612FCE010E940F0890928B0238
:1011F00080928A02DF91CF911F910F91FF90EF9023
:10120000DF90CF90BF90AF909F908F907F906F9026
:1012100008950E94430B6A197B098C099D09683E59
:10122000734081059105A8F6E881F9810480F58174
:10123000E02DCE010995C8CFAF92BF92CF92EF9229
:101240000F93A12CB12CC12C0E940F080F91EF908D
:10125000CF90BF90AF9008951F93CF93DF93EC0191
:10126000162F809192026817A1F0CE010E94CD0343
:10127000143079F48B859C85892B59F0E881F981AC
:101280000284F385E02D6D85CE01DF91CF911F9112
:101290000994DF91CF911F9108951092D0020C9480
:1012A0005604CF93CFB7F8948091D402811127C010
:1012B000EAE9F0E08491E6E8F0E09491E82FF0E0CC
:1012C000EE0FFF1FE854FF4FA591B4918C91892335
:1012D00021F461E08AE00E94490C61E08AE00E940A
:1012E000100C8CB580618CBD8CB580648CBD61E0C8
:1012F0008DE00E94100C61E08BE00E94100C809148
:10130000D4028F5F8093D402CFBFCF910895FC01A8
:1013100080E5858316826083528341830895FC01B2
:101320008CB583838DB58483358126818091D302EA
:10133000882399F09FB7F8948091D302813059F4B3
:101340008DB38093D1024DB38091D20280958423D6
:101350008DBB9FBF02C09093D1023CBD2DBD60E00C
:1013600080810C94490CCF93DF93EC0161E088817C
:101370000E94490C8091D302882361F09FB7F894B2
:101380002091D3028091D102213019F48DBB9FBFEF
:1013900001C08FBF8B818CBD8C818DBDDF91CF91C2
:1013A00008950F931F93CF93DF938C010E948F09B1
:1013B0008FE90E94490380E00E944903C82FD0E0D2
:1013C000DC2FCC2780E00E944903C82BC8010E9473
:1013D000B309CE01DF91CF911F910F9108951F9313
:1013E000CF93DF93EC010E948F0985E00E944903AF
:1013F00080E00E944903182FCE010E94B309812F7B
:10140000DF91CF911F9108950E94EF098170089597
:101410001F93CF93DF93EC01162F442339F040E064
:1014200066E00E94080ACE010E94B309CE010E9424
:10143000040A8111FBCFCE010E948F09812FDF9119
:10144000CF911F910C9449030F931F93CF93DF9378
:101450008C0140E06BE40E94080A80E00E9449038E
:1014600080E00E94490380E00E94490380E00E94DE
:101470004903C5EDD2E080E00E944903899382E0F0
:10148000CD3DD807C1F7C8010E94B30985ED92E0B0
:10149000DF91CF911F910F910895CF93DF93EC01CE
:1014A00040E06BEA0E94080ACE01DF91CF910C94D4
:1014B000B309CF93DF93EC018CB58B838DB58C830F
:1014C00061E088810E94100C80E58D831E82CE0130
:1014D0000E94B309CE010E944D0A89819A81892B0D
:1014E00051F0CE010E94D10929813A8182179307D8
:1014F00011F080E00CC041E061E0CE010E94080ADA
:1015000080E00E944903CE010E94B30981E0DF918F
:10151000CF91089508958230E8F4E82FF0E0EE0FBF
:10152000FF1FEF5FFE4F71836083813041F0809138
:1015300069008C7F842B80936900E89A08958091DC
:101540006900440F551F440F551F837F842B8093E0
:101550006900E99A08951F920F920FB60F92112415
:101560002F933F934F935F936F937F938F939F93AB
:10157000AF93BF93EF93FF93E0910101F0910201CC
:101580000995FF91EF91BF91AF919F918F917F91BD
:101590006F915F914F913F912F910F900FBE0F90E0
:1015A0001F9018951F920F920FB60F9211242F9330
:1015B0003F934F935F936F937F938F939F93AF93DB
:1015C000BF93EF93FF93E0910301F091040109951C
:1015D000FF91EF91BF91AF919F918F917F916F910B
:1015E0005F914F913F912F910F900FBE0F901F90E1
:1015F00018951F920F920FB60F9211242F933F93BD
:101600008F939F93AF93BF938091DE029091DF02FF
:10161000A091E002B091E1023091DD0223E0230FBE
:101620002D3720F40196A11DB11D05C026E8230F1A
:101630000296A11DB11D2093DD028093DE029093DE
:10164000DF02A093E002B093E1028091E202909168
:10165000E302A091E402B091E5020196A11DB11D43
:101660008093E2029093E302A093E402B093E50238
:10167000BF91AF919F918F913F912F910F900FBE8E
:101680000F901F9018952FB7F8946091DE0270911B
:10169000DF028091E0029091E1022FBF08953FB7F1
:1016A000F8948091E2029091E302A091E402B0915B
:1016B000E50226B5A89B05C02F3F19F00196A11D94
:1016C000B11D3FBF6627782F892F9A2F620F711D9A
:1016D000811D911D42E0660F771F881F991F4A9553
:1016E000D1F708958F929F92AF92BF92CF92DF92DF
:1016F000EF92FF926B017C010E944F0B4B015C014A
:10170000C114D104E104F104F1F00E94C60F0E945B
:101710004F0B681979098A099B09683E7340810556
:10172000910570F321E0C21AD108E108F10888EEB2
:10173000880E83E0981EA11CB11CC114D104E104E1
:10174000F10429F7DDCFFF90EF90DF90CF90BF90AD
:10175000AF909F908F900895789484B5826084BDF7
:1017600084B5816084BD85B5826085BD85B58160A5
:1017700085BDEEE6F0E0808181608083E1E8F0E005
:101780001082808182608083808181608083E0E834
:10179000F0E0808181608083E1EBF0E08081846013
:1017A0008083E0EBF0E0808181608083EAE7F0E015
:1017B0008081846080838081826080838081816079
:1017C00080838081806880831092C1000895833077
:1017D00081F028F4813099F08230A1F008958730AB
:1017E000A9F08830B9F08430D1F4809180008F7DE9
:1017F00003C0809180008F7780938000089584B526
:101800008F7702C084B58F7D84BD08958091B0002C
:101810008F7703C08091B0008F7D8093B0000895D2
:10182000CF93DF9390E0FC01E458FF4F2491FC013B
:10183000E057FF4F8491882349F190E0880F991F6A
:10184000FC01E854FF4FA591B49182559F4FFC01D4
:10185000C591D4919FB7611108C0F8948C912095DF
:1018600082238C93888182230AC0623051F4F894D9
:101870008C91322F309583238C938881822B88839F
:1018800004C0F8948C91822B8C939FBFDF91CF91F1
:1018900008950F931F93CF93DF931F92CDB7DEB7B9
:1018A000282F30E0F901E859FF4F8491F901E458FD
:1018B000FF4F1491F901E057FF4F04910023C9F045
:1018C000882321F069830E94E70B6981E02FF0E013
:1018D000EE0FFF1FE255FF4FA591B4919FB7F8940B
:1018E0008C91611103C01095812301C0812B8C93D1
:1018F0009FBF0F90DF91CF911F910F910895CF93CC
:10190000DF93282F30E0F901E859FF4F8491F90166
:10191000E458FF4FD491F901E057FF4FC491CC2315
:1019200091F081110E94E70BEC2FF0E0EE0FFF1F0A
:10193000EC55FF4FA591B4912C912D2381E090E0BF
:1019400021F480E002C080E090E0DF91CF91089523
:10195000FC01818D228D90E0805C9F4F821B91095C
:101960008F7399270895FC01918D828D981731F01E
:10197000828DE80FF11D858D90E008958FEF9FEF28
:101980000895FC01918D828D981761F0828DDF01A1
:10199000A80FB11D5D968C91928D9F5F9F73928F62
:1019A00090E008958FEF9FEF089585E49EE0892BE6
:1019B00049F080E090E0892B29F00E94450E8111CA
:1019C0000C9400000895FC01848DDF01A80FB11D67
:1019D000A35ABF4F2C91848D90E001968F73992765
:1019E000848FA689B7892C93A089B1898C91806452
:1019F0008C93938D848D981306C00288F389E02D13
:101A000080818F7D80830895CF93DF93EC01888D53
:101A10008823C9F0EA89FB89808185FD05C0A889F2
:101A2000B9898C9186FD0FC00FB607FCF5CF808178
:101A300085FFF2CFA889B9898C9185FFEDCFCE01C2
:101A40000E94E30CE7CFDF91CF910895CF92DF9210
:101A5000FF920F931F93CF93DF931F92CDB7DEB703
:101A60006C0181E0D60158968C9358975B969C91B7
:101A70005B975C968C915C97981307C05096ED919C
:101A8000FC915197808185FD2EC0F601038D10E0F9
:101A90000F5F1F4F0F731127F02EF601848DF81280
:101AA00011C00FB607FCF9CFD6015096ED91FC910D
:101AB0005197808185FFF1CFC60169830E94E30CB5
:101AC0006981EBCF838DE80FF11DE35AFF4F6083EF
:101AD000D6015B960C935B975296ED91FC915397D0
:101AE000808180620CC0D6015696ED91FC9157978B
:101AF00060835096ED91FC91519780818064808342
:101B000081E090E00F90DF91CF911F910F91FF90B6
:101B1000DF90CF900895BF92CF92DF92EF92FF9225
:101B2000CF93DF93EC016A017B01B22EE889F9893A
:101B300082E08083411581EE580761057105A1F0AF
:101B400060E079E08DE390E0A70196010E94D30F59
:101B500021503109410951095695479537952795E7
:101B6000211580E1380798F0E889F989108260E84A
:101B700074E88EE190E0A70196010E94D30F2150F6
:101B80003109410951095695479537952795EC85B7
:101B9000FD853083EE85FF852083188EEC89FD89D5
:101BA000B082EA89FB89808180618083EA89FB8930
:101BB000808188608083EA89FB8980818068808356
:101BC000EA89FB8980818F7D8083DF91CF91FF90AF
:101BD000EF90DF90CF90BF9008951F920F920FB6B5
:101BE0000F9211242F938F939F93EF93FF93E09184
:101BF000F602F091F7028081E091FC02F091FD0283
:101C000082FD12C090818091FF028F5F8F732091BF
:101C10000003821751F0E091FF02F0E0EA51FD4F1E
:101C2000958F8093FF0201C08081FF91EF919F917A
:101C30008F912F910F900FBE0F901F9018951F92AC
:101C40000F920FB60F9211242F933F934F935F93F0
:101C50006F937F938F939F93AF93BF93EF93FF9374
:101C600086EE92E00E94E30CFF91EF91BF91AF915D
:101C70009F918F917F916F915F914F913F912F91A4
:101C80000F900FBE0F901F90189586EE92E00E9465
:101C9000A80C21E0892B09F420E0822F08951092EE
:101CA000E9021092E80288EE93E0A0E0B0E08093B1
:101CB000EA029093EB02A093EC02B093ED0286E46B
:101CC00092E09093E7028093E60285EC90E0909397
:101CD000F3028093F20284EC90E09093F5028093FB
:101CE000F40280EC90E09093F7028093F60281EC8E
:101CF00090E09093F9028093F80282EC90E0909348
:101D0000FB028093FA0286EC90E09093FD028093B0
:101D1000FC021092FF021092000310920103109235
:101D200002030895CF92DF92EF92FF920F931F93D9
:101D3000CF93DF937C016A01EB0100E010E00C150A
:101D40001D0571F06991D701ED91FC910190F08131
:101D5000E02DC7010995892B19F00F5F1F4FEFCFB9
:101D6000C801DF91CF911F910F91FF90EF90DF900D
:101D7000CF9008956115710581F0DB010D90002071
:101D8000E9F7AD0141505109461B570BDC01ED91BC
:101D9000FC910280F381E02D099480E090E00895A9
:101DA0000C94BA0EDC01ED91FC910190F081E02DD4
:101DB000099462E572E00C94BA0E0F931F93CF93CF
:101DC000DF93EC010E94BA0E8C01CE010E94D90E65
:101DD000800F911FDF91CF911F910F9108950F9365
:101DE0001F93CF93DF93EC010E94D20E8C01CE01A2
:101DF0000E94D90E800F911FDF91CF911F910F91FB
:101E000008958F929F92AF92BF92DF92EF92FF92CE
:101E10000F931F93CF93DF93CDB7DEB7A1970FB684
:101E2000F894DEBF0FBECDBF7C01F42FD52ECB01C1
:101E300019A2223008F42AE08E010F5D1F4F822E76
:101E4000912CA12CB12C6F2F7D2DA50194010E9406
:101E5000D30FF22FD32ECA01015011096A3014F4A6
:101E6000E0E301C0E7E3E60FD801EC93232B242B3A
:101E7000252B49F7B801C7010E94BA0EA1960FB6EB
:101E8000F894DEBF0FBECDBFDF91CF911F910F91B0
:101E9000FF90EF90DF90BF90AF909F908F9008954C
:101EA000CF92DF92EF92FF920F931F93CF93DF9326
:101EB000EC016A017B012115310579F4E881F98192
:101EC0000190F081E02D642FDF91CF911F910F9150
:101ED000FF90EF90DF90CF9009942A303105E9F41C
:101EE00077FF1AC06DE20E94D20E8C01442755275D
:101EF000BA014C195D096E097F092AE0CE010E94E2
:101F0000010F800F911FDF91CF911F910F91FF90D3
:101F1000EF90DF90CF9008952AE0B701A601CE019F
:101F2000DF91CF911F910F91FF90EF90DF90CF90B5
:101F30000C94010F9A01AB01662757FD6095762F2F
:101F40000C94500F2115310541F4DC01ED91FC9109
:101F50000190F081E02D642F09940C94010F9A01F7
:101F6000462F50E060E070E00C94A20F08950E94AC
:101F7000AC0B0E94B60F0E948D00C5EDDCE00E9404
:101F8000D3012097E1F30E94D50CF9CF0895991B56
:101F900079E004C0991F961708F0961B881F7A9560
:101FA000C9F780950895A1E21A2EAA1BBB1BFD015B
:101FB0000DC0AA1FBB1FEE1FFF1FA217B307E40728
:101FC000F50720F0A21BB30BE40BF50B661F771F80
:101FD000881F991F1A9469F7609570958095909560
:101FE0009B01AC01BD01CF010895EE0FFF1F0590CD
:101FF000F491E02D0994AEE0B0E0E1E0F0E10C9462
:10200000A3120D891E8986E08C831A8309838FEFC2
:102010009FE79E838D83AE01475E5F4F6F89788D0A
:10202000CE0101960E941D10EF81F885E00FF11F8F
:1020300010822E96E4E00C94BF12ACE0B0E0E3E234
:10204000F0E10C9495127C016B018A01FC0117826E
:102050001682838181FFBDC1CE0101964C01F7013B
:102060009381F60193FD859193FF81916F01882300
:1020700009F4ABC1853239F493FD859193FF8191C9
:102080006F01853229F4B70190E00E940512E7CF75
:10209000512C312C20E02032A0F48B3269F030F446
:1020A000803259F0833269F420612CC08D3239F0CE
:1020B000803339F4216026C02260246023C0286068
:1020C00021C027FD27C030ED380F3A3078F426FFC5
:1020D00006C0FAE05F9E300D1124532E13C08AE033
:1020E000389E300D1124332E20620CC08E3221F424
:1020F00026FD6BC1206406C08C3611F4206802C036
:10210000883641F4F60193FD859193FF81916F012B
:102110008111C1CF982F9F7D9554933028F40C5F87
:102120001F4FFFE3F9830DC0833631F0833771F021
:10213000833509F05BC022C0F801808189830E5F7E
:102140001F4F44244394512C540115C03801F2E030
:102150006F0E711CF801A080B18026FF03C0652DB1
:1021600070E002C06FEF7FEFC5012C870E94FA116B
:102170002C0183012C852F77222E17C03801F2E025
:102180006F0E711CF801A080B18026FF03C0652D81
:1021900070E002C06FEF7FEFC5012C870E94EF1146
:1021A0002C012C852068222E830123FC1BC0832D4B
:1021B00090E048165906B0F4B70180E290E00E9422
:1021C00005123A94F4CFF50127FC859127FE819101
:1021D0005F01B70190E00E94051231103A94F1E0DE
:1021E0004F1A51084114510471F7E5C0843611F0BB
:1021F000893639F5F80127FF07C060817181828136
:1022000093810C5F1F4F08C060817181882777FD23
:102210008095982F0E5F1F4F2F76B22E97FF09C023
:1022200090958095709561957F4F8F4F9F4F206857
:10223000B22E2AE030E0A4010E943712A82EA8187E
:1022400044C0853729F42F7EB22E2AE030E025C025
:10225000F22FF97FBF2E8F36C1F018F4883579F050
:10226000B4C0803719F0883721F0AFC02F2F20611C
:10227000B22EB4FE0DC08B2D8460B82E09C024FF91
:102280000AC09F2F9660B92E06C028E030E005C036
:1022900020E130E002C020E132E0F801B7FE07C0E3
:1022A00060817181828193810C5F1F4F06C06081C4
:1022B000718180E090E00E5F1F4FA4010E943712F1
:1022C000A82EA818FB2DFF77BF2EB6FE0BC02B2D16
:1022D0002E7FA51450F4B4FE0AC0B2FC08C02B2D0A
:1022E0002E7E05C07A2C2B2D03C07A2C01C0752CB4
:1022F00024FF0DC0FE01EA0DF11D8081803311F431
:10230000297E09C022FF06C07394739404C0822FF3
:10231000867809F0739423FD13C020FF06C05A2C61
:10232000731418F4530C5718732C731468F4B70112
:1023300080E290E02C870E94051273942C85F5CFE3
:10234000731410F4371801C0312C24FF12C0B701E8
:1023500080E390E02C870E9405122C8522FF17C095
:1023600021FF03C088E590E002C088E790E0B70154
:102370000CC0822F867859F021FD02C080E201C096
:102380008BE227FD8DE2B70190E00E940512A514B3
:1023900038F4B70180E390E00E9405125A94F7CF19
:1023A000AA94F401EA0DF11D8081B70190E00E942A
:1023B0000512A110F5CF332009F451CEB70180E208
:1023C00090E00E9405123A94F6CFF701868197813A
:1023D00002C08FEF9FEF2C96E2E10C94B112FC014A
:1023E0000590615070400110D8F7809590958E0F40
:1023F0009F1F0895FC016150704001900110D8F7B3
:10240000809590958E0F9F1F08950F931F93CF93E4
:10241000DF93182F092FEB018B8181FD03C08FEF14
:102420009FEF20C082FF10C04E815F812C813D81D3
:10243000421753077CF4E881F9819F012F5F3F4FDA
:1024400039832883108306C0E885F985812F099593
:10245000892B29F72E813F812F5F3F4F3F832E83AA
:10246000812F902FDF91CF911F910F910895FA0145
:10247000AA27283051F1203181F1E8946F936E7FC3
:102480006E5F7F4F8F4F9F4FAF4FB1E03ED0B4E0B4
:102490003CD0670F781F891F9A1FA11D680F791FF5
:1024A0008A1F911DA11D6A0F711D811D911DA11D06
:1024B00020D009F468943F912AE0269F1124301916
:1024C000305D3193DEF6CF010895462F4770405DB1
:1024D0004193B3E00FD0C9F7F6CF462F4F70405D60
:1024E0004A3318F0495D31FD4052419302D0A9F7BB
:1024F000EACFB4E0A6959795879577956795BA95B5
:10250000C9F700976105710508959B01AC010A2E7A
:1025100006945795479537952795BA95C9F7620F51
:10252000731F841F951FA01D08952F923F924F92F5
:102530005F926F927F928F929F92AF92BF92CF9253
:10254000DF92EF92FF920F931F93CF93DF93CDB75C
:10255000DEB7CA1BDB0B0FB6F894DEBF0FBECDBFD4
:1025600009942A88398848885F846E847D848C84A5
:102570009B84AA84B984C884DF80EE80FD800C81AE
:102580001B81AA81B981CE0FD11D0FB6F894DEBF91
:0C2590000FBECDBFED010895F894FFCF01
:10259C00028A0A8A0A73616D706C65456E63727982
:1025AC0070744B6579000A4C697374656E696E675B
:1025BC00206174202564204D687A2E2E2E005350F5
:1025CC004920466C61736820496E6974204F4B2E0C
:1025DC0020556E69717565204D4143203D205B008F
:1025EC0053504920466C617368204D454D206E6FE9
:1025FC007420666F756E6420286973206368697037
:10260C0020736F6C64657265643F292E2E2E005208
:10261C00464D36395F41544320456E61626C6564AA
:10262C0020284175746F205472616E736D697373D9
:10263C00696F6E20436F6E74726F6C290047475739
:10264C003A204E65772074616720666F756E642141
:10265C00004747573A204F6B21004747573A204EC7
:10266C006F7468696E6700232C00746F205B005DCB
:10267C0020002C52585F525353493A0041434B208F
:10268C0073656E742C0050696E67696E67206E6F8F
:10269C006465002C41434B2E2E2E0041434B20549D
:1026AC00455354002C6F6B21002C6E6F7468696E4F
:1026BC00670000000000E90673072703B708360718
:1026CC003C043706CB071C094D092C09560711038E
:1026DC00020300000000260D920EA80CC10CB30CD6
:1026EC00040D0D0A006E616E00696E66006F7666F1
:0226FC000000DC
:00000001FF
