:100000000C9463000C94D4090C94FB090C948B00A1
:100010000C948B000C948B000C948B000C948B0034
:100020000C948B000C948B000C948B000C948B0024
:100030000C948B000C948B000C948B000C948B0014
:100040000C94220A0C948B000C94160D0C94480D01
:100050000C948B000C948B000C948B000C948B00F4
:100060000C948B000C948B0000000008000201002F
:100070000003040700000000000000000102040863
:100080001020408001020408102001020408102002
:10009000040404040404040402020202020203032E
:1000A00003030303000000002300260029000000D2
:1000B0000000250028002B0000000000240027007D
:1000C0002A000A02780D11241FBECFEFD8E0DEBF50
:1000D000CDBF12E0A0E0B1E0E2E0F4E202C00590A2
:1000E0000D92A832B107D9F723E0A8E2B2E001C02F
:1000F0001D92A134B207E1F710E0C6ECD0E004C0D5
:100100002297FE010E942A0FC23CD107C9F70E9424
:10011000CE0E0C94FF110C9400000F931F93CF93FD
:10012000DF93CDB7DEB7E2970FB6F894DEBF0FBE10
:10013000CDBF26E040E052EC61E070E084EA92E05E
:100140000E94B40C24E641E06BE28DE292E00E9452
:100150002907E0912D02F0912E020084F185E02D17
:1001600061E08DE292E0099567E071E08DE292E056
:100170000E94AF036AEB7FEF8DE292E00E9451088C
:1001800081E08F9381EB8F9388E191E09F938F9330
:100190008E010F5F1F4F1F930F930E942E0FB80108
:1001A00084EA92E00E94060E8EE392E00E948209A9
:1001B0000F900F900F900F900F900F90882319F1D0
:1001C00063E371E084EA92E00E94F90D8EE392E02D
:1001D0000E944D0903E912E0F80161918F0140E1AD
:1001E00050E084EA92E00E94C60E60E284EA92E067
:1001F0000E94FB0DF2E00B391F0771F784EA92E0D1
:100200000E94020E06C06AE571E084EA92E00E9454
:10021000060E69E871E084EA92E00E94060EE2961A
:100220000FB6F894DEBF0FBECDBFDF91CF911F9107
:100230000F9108951F93CF93DF93182FEB0161E087
:100240000E94390B61E0812F0E94720BBE0188274A
:1002500077FD8095982F0E949B0A60E0812FDF91A7
:10026000CF911F910C94720BEF920F931F93CF932A
:10027000DF93E0912D02F0912E020480F581E02DB4
:100280008DE292E00995882309F446C06BE584EA83
:1002900092E00E94FB0D60914E024AE050E084EA39
:1002A00092E00E94C60E68EB71E084EA92E00E9440
:1002B000F90D10E080914F02181778F4C12FD0E0AB
:1002C000CF5ADD4F688184EA92E00E94FB0D88815D
:1002D0008F5F80932C021F5FEDCF6BEB71E084EAA0
:1002E00092E00E94F90D60914802709149024AE043
:1002F00050E084EA92E00E94B10E68EC71E084EA7A
:1003000092E00E94F90D63E070E089E00E941A011A
:1003100084EA92E00E94020E0E946C0A2091010180
:1003200030910201442737FD4095542F0E94F20E70
:10033000C901AA2797FDA095BA2F40912802509194
:10034000290260912A0270912B0284179507A60753
:10035000B70709F459C08093280290932902A0930B
:100360002A02B0932B026AEC71E084EA92E00E94C8
:10037000F90D4AE050E06091000184EA92E00E94A9
:10038000C60E63ED71E084EA92E00E94F90DC0E0D0
:1003900020910001C21758F4EC2FF0E0EB5BFD4F09
:1003A000608184EA92E00E94FB0DCF5FF1CF88E28A
:1003B000E82E02E04CE252E062E08DE292E00E9420
:1003C0009806882319F067ED71E002C06CED71E0CA
:1003D00084EA92E00E94F90D8091000190E001967C
:1003E0006FE170E00E94DE0E8093000184EA92E0EB
:1003F0000E94020E63E070E089E0DF91CF911F91CF
:100400000F91EF900C941A01DF91CF911F910F91F2
:10041000EF90089540E35FEE68E08EE392E00E9483
:10042000B0088AE080932F0282E08093300210921D
:10043000310281E080935002109233028FE1809369
:100440003402109235028CEE91E090932E0280934C
:100450002D0208958091460290914702DC01ED91B2
:10046000FC910484F585E02D0994CF93DF93EC0192
:1004700061E08A810E94720B89858CBD8A858DBD61
:100480007894DF91CF910895FC01F8948CB5818721
:100490008DB582878CB5837F8CBD8CB58F7D8CBDEF
:1004A0008CB58C7F8CBD8DB58E7F8DBD60E08281DB
:1004B0000C94720BF89420915002233021F4209177
:1004C0004C0221110FC020915002233011F4789476
:1004D00007C0DC01ED91FC910288F389E02D0995BC
:1004E00080E00895DC01ED91FC910488F589E02D10
:1004F00061E0099581E008958EBD00000DB407FE0E
:10050000FDCF8EB50895CF93DF931F92CDB7DEB7A1
:10051000DC01ED91FC910480F581E02D6983099562
:100520006981882359F080914E02861711F06F3F40
:1005300029F490914A0281E0911101C080E00F906E
:10054000DF91CF910895EF92FF921F93CF93DF93A6
:100550001F92CDB7DEB77C01DC01ED91FC91008CE0
:10056000F18DE02D698309956981862F8F770E942F
:100570007C0280E00E947C02182FD701ED91FC9153
:10058000028CF38DE02DC7010995812F0F90DF912B
:10059000CF911F91FF90EF9008950F931F93CF93EA
:1005A000DF9300D0CDB7DEB78C01DC01ED91FC917B
:1005B000008CF18DE02D4A83698309956981862F2E
:1005C00080680E947C024A81842F0E947C02D801AC
:1005D000ED91FC91028CF38DE02DC8010F900F90EE
:1005E000DF91CF911F910F9109941F93CF93DF93C8
:1005F000EC01162F80915002681709F461C0623037
:1006000009F440C070F4662309F444C0613009F075
:1006100057C061E0CE010E94A302482F437E446090
:100620003FC06330C1F0643009F04AC061E0CE01E0
:100630000E94A302482F437E4C6061E0CE010E94DD
:10064000CD028885882381F1E881F9810688F789C0
:10065000E02D61E014C061E0CE010E94A302482FAA
:10066000437E406161E0CE010E94CD0288858823EF
:10067000D9F0E881F9810688F789E02D60E0CE01A4
:10068000099512C061E0CE010E94A302482F437E6B
:10069000486006C061E0CE010E94A302482F437E5D
:1006A00061E0CE010E94CD0280915002811106C00E
:1006B00067E2CE010E94A30287FFF6CF109350029B
:1006C000DF91CF911F910895CF93DF93EC016032BA
:1006D00008F06FE16F838885882311F066956F833A
:1006E00061E1CE010E94A302482F407E8F81482BFA
:1006F00061E1CE01DF91CF910C94CD02CF93DF93D6
:10070000EC0110924F0210924E0210924D02109284
:100710004C0210924B0210924A021092490210921F
:10072000480268E20E94A30282FF0AC06DE3CE0184
:100730000E94A302482F44606DE3CE010E94CD02C7
:1007400040E465E2CE010E94CD02E881F98104888F
:10075000F589E02D63E0CE01DF91CF910994DF921E
:10076000EF92FF920F931F93CF93DF93EC018B01D6
:10077000E881F9810488F589E02D61E0099501158A
:100780001105E1F0E881F981008CF18DE02DCE01B9
:1007900009958EEB0E947C027801D12CF7018191A2
:1007A0007F010E947C02D394F0E1DF12F7CFE88151
:1007B000F981028CF38DE02DCE0109956DE3CE0118
:1007C0000E94A3028E7F91E0012B09F490E0482F54
:1007D000492B6DE3CE01DF91CF911F910F91FF90D7
:1007E000EF90DF900C94CD028F929F92AF92BF92C8
:1007F000DF92EF92FF920F931F93CF93DF93CDB7CA
:10080000DEB7AE970FB6F894DEBF0FBECDBF7C014A
:10081000D42E8EE28E010F5F1F4FD801E82F1D925C
:10082000EA95E9F791E0998334E03A8342E04B831B
:1008300093E09D834E833F8340E4488735E03987CA
:100840009A8796E09B8793E39C8737E03D8798E003
:100850009F8799E0998B99E19B8B92E49C8B55E261
:100860005D8B4E8B46E24F8B388F38E2398F30E10B
:100870003A8F39E23B8F3CED3C8F8D8F88E88E8F2D
:100880008FE28F8F8DE288A380E389A337E33BA3B8
:1008900030E93CA338E33DA39EA39CE39FA39FE8DC
:1008A00098A79DE399A792E19AA79FE69BA78CA79B
:1008B0008FEF8DA76F3131F06B3231F0663531F447
:1008C00089ED05C08EE403C08CE601C084EE8E87FE
:1008D0006F3141F06B3221F0663521F480E003C0C6
:1008E00080E401C080EC888B2AA361E0D7011296D6
:1008F0008C910E94720B61E0F70182810E94390B9A
:100900000E947A080E946C0A4B015C014AEA6FE27D
:10091000C7010E94CD026FE2C7010E94A3028A3A7A
:1009200059F00E946C0A681979098A099B09623397
:1009300071058105910550F30E946C0A4B015C0121
:1009400045E56FE2C7010E94CD026FE2C7010E9438
:10095000A302853559F00E946C0A681979098A0941
:100960009B09623371058105910550F3B12CF801A3
:10097000EB0DF11DEB0DF11D60816F3F31F04181F9
:10098000C7010E94CD02B394F2CF60E070E0C701CE
:100990000E94AF03D701ED91FC9111970084F1857E
:1009A000E02D18966C91C7010995D701ED91FC9146
:1009B0000488F589E02D61E0C70109950E946C0A61
:1009C0004B015C0167E2C7010E94A30287FD0BC0D7
:1009D0000E946C0A681979098A099B0962337105BA
:1009E0008105910578F30E946C0A681979098A09D2
:1009F0009B09623371058105910588F443E050E05D
:100A00006AE272E0F70184810E94B409F092470221
:100A1000E0924602D7011596DC9281E001C080E0A9
:100A2000AE960FB6F894DEBF0FBECDBFDF91CF916B
:100A30001F910F91FF90EF90DF90BF90AF909F902C
:100A40008F900895CF93DF93EC0161110DC064E2A4
:100A5000CE010E94A30290E0919581959109959510
:100A60008795DF91CF91089541E063E20E94CD0226
:100A700063E2CE010E94A30281FFFACFE8CFCF93B9
:100A8000DF93EC01809150028330A9F480914C02F5
:100A9000811111C060E0CE010E942205863A9F4F6D
:100AA00054F4E881F9810488F589E02D61E0CE01F4
:100AB000099581E001C080E0DF91CF910895FF9218
:100AC0000F931F93CF93DF93EC01809150028330FB
:100AD00001F568E2CE010E94A30282FD28C019C080
:100AE00080914F028D3330F4E0914F02F0E0EF5AE5
:100AF000FD4F1082E881F981028CF38DE02DCE014B
:100B00000995E881F9810488F589E02D63E0CE013B
:100B1000099560E0CE010E942205909349028093DE
:100B20004802DF91CF911F910F91FF900895E881C6
:100B3000F9810488F589E02D61E0CE010995E8810D
:100B4000F981008CF18DE02DCE01099580E00E94A5
:100B50007C0280E00E947C0280934C0280914C02D7
:100B60008334D0F480914C0280934C0280E00E9448
:100B70007C0280934D028E81811109C090914D02BB
:100B80008D81981721F080914D028F3F39F480912B
:100B90004C02833018F017C082E4E6CF10924C026A
:100BA000E881F981028CF38DE02DCE010995E88171
:100BB000F9810288F389E02DCE01DF91CF911F9159
:100BC0000F91FF90099480914C02835080934F02C3
:100BD00080E00E947C0280934E0280E00E947C02B2
:100BE000982F907890934A02982F907490934B028C
:100BF000E881F9810684F785E02D682FCE010995FB
:100C0000F12C80914F02F81608F06ACF0F2D10E0FA
:100C100080E00E947C02F801EF5AFD4F8083F3943C
:100C2000F0CF4F925F926F927F929F92AF92BF925E
:100C3000EF920F931F93CF93DF93EC01162F5A017E
:100C4000922E6DE30E94A302482F44606DE3CE0113
:100C50000E94CD020E946C0A2B013C01CE010E9431
:100C60003F058823C1F0E881F9810088F189E02DF2
:100C7000E12C292DA501612FCE010995DF91CF919E
:100C80001F910F91EF90BF90AF909F907F906F90CA
:100C90005F904F9008950E946C0A64197509860947
:100CA0009709683E734081059105E8F6E881F9816E
:100CB0000480F581E02DCE010995D0CFCF93DF934D
:100CC000EC016887662311F04FE001C04AE163E15F
:100CD000CE010E94CD028885882341F061E1CE01DA
:100CE0000E94A302482F4F71406602C04F814068A6
:100CF00061E1CE01DF91CF910C94CD021F93CF9390
:100D0000DF93EC01162F662311F04DE501C045E598
:100D10006AE5CE010E94CD02112311F04CE701C01B
:100D200040E76CE5CE01DF91CF911F910C94CD028D
:100D30002F923F924F925F927F928F929F92AF92AB
:100D4000BF92CF92DF92EF92FF920F931F93CF93B8
:100D5000DF93EC01962E5A01722E802E10E0CE2CDD
:100D6000D12CE12CF12CE881F9810190F081E02D6A
:100D700001E0272DA501692DCE0109950E946C0A7D
:100D80001B012C010E946C0A6219730984099509E0
:100D90006C157D058E059F0540F4692DCE010E94DE
:100DA0008302882379F381E009C01F5F8116D8F69A
:100DB0008D858F3110F48F5F8D8780E0DF91CF912B
:100DC0001F910F91FF90EF90DF90CF90BF90AF9069
:100DD0009F908F907F905F904F903F902F900895BD
:100DE000CF93DF93EC01607260938E0280914A0290
:100DF000882361F180918E02882341F180914F0216
:100E0000882321F180E00E947C0290E091958195F9
:100E100091099F878E8720914F02215020934F0286
:100E20002B853C852115310589F08217930734F411
:100E30004D854F3118F44F5F4D8708C0281739078B
:100E40002CF48D85882311F081508D87DF91CF910F
:100E50000895FC01148613861786168610928E025A
:100E60003FE135870C94F4038F929F92AF92BF922B
:100E7000CF92DF92EF92FF920F931F93CF93DF9366
:100E8000EC01F62ED42E152F822E902EE881F981BA
:100E90000488F589E02D61E0099567E2CE010E94A2
:100EA000A30287FFFACF40E065E2CE010E94CD02A7
:100EB000EE2011F00C2D01C000E0080D0E3308F0FB
:100EC0000DE3E881F981008CF18DE02DCE010995CB
:100ED00080E80E947C0283E0800F0E947C028F2DBC
:100EE0000E947C028D810E947C02EE2099F0CC2031
:100EF00011F080EA01C080E80E947C02CC20B9F0A9
:100F0000C501B7FE03C09195819591090E947C02AD
:100F100001500DC0992041F08B859C85892B11F0E3
:100F200080E603C080E401C080E00E947C02CD2CFA
:100F3000ED2CF12E8E2D8C19801730F4F701819154
:100F40007F010E947C02F6CFE881F981028CF38D4B
:100F5000E02DCE010995E881F9810488F589E02D1D
:100F600064E0CE0109950E946C0A6B017C018B81C3
:100F70000E94A80B892BA1F0E881F9810488F589EA
:100F8000E02D61E0CE01DF91CF911F910F91FF9095
:100F9000EF90DF90CF90BF90AF909F908F9009948B
:100FA0000E946C0A6C197D098E099F09683E734086
:100FB0008105910508F7DBCF6F927F928F929F9208
:100FC000AF92BF92CF92DF92EF92FF920F931F9357
:100FD000CF93DF93EC013B01F42E10924B02109162
:100FE0004E02809048029090490280918E0201E06A
:100FF000811101C000E06DE3CE010E94A302482FE1
:1010000044606DE3CE010E94CD020E946C0A5B0138
:101010006C01CE010E943F05882301F110934E021E
:101020005401C02EEE24E39400E02F2DA301612F84
:10103000CE010E9434079092490280924802DF91CB
:10104000CF911F910F91FF90EF90DF90CF90BF90C5
:10105000AF909F908F907F906F9008950E946C0A40
:101060006A197B098C099D09683E734081059105C9
:10107000A8F6E881F9810480F581E02DCE0109957B
:10108000C8CFAF92BF92CF92EF920F93A12CB12C09
:10109000C12C0E9434070F91EF90CF90BF90AF907A
:1010A0000895FC017487638708951F93CF93DF939E
:1010B000EC01162F809150026817A1F0CE010E941A
:1010C000F502143079F48B859C85892B59F0E881E1
:1010D000F9810284F385E02D6D85CE01DF91CF91FA
:1010E0001F910994DF91CF911F91089510928E0264
:1010F0000C947E03CF93CFB7F89480919202811124
:1011000027C0EAE9F0E08491E6E8F0E09491E82F66
:10111000F0E0EE0FFF1FE854FF4FA591B4918C91C2
:10112000892321F461E08AE00E94720B61E08AE089
:101130000E94390B8CB580618CBD8CB580648CBDF0
:1011400061E08DE00E94390B61E08BE00E94390B79
:10115000809192028F5F80939202CFBFCF910895CA
:10116000FC0180E585831682608352834183089564
:10117000FC018CB583838DB5848335812681809174
:101180009102882399F09FB7F89480919102813061
:1011900059F48DB380938F024DB380919002809566
:1011A00084238DBB9FBF02C090938F023CBD2DBD99
:1011B00060E080810C94720BCF93DF93EC0161E0CF
:1011C00088810E94720B80919102882361F09FB701
:1011D000F8942091910280918F02213019F48DBBF7
:1011E0009FBF01C08FBF8B818CBD8C818DBDDF9176
:1011F000CF9108950F931F93CF93DF938C010E949B
:10120000B8088FE90E947C0280E00E947C02C82F0F
:10121000D0E0DC2FCC2780E00E947C02C82BC801E4
:101220000E94DC08CE01DF91CF911F910F910895AC
:101230001F93CF93DF93EC010E94B80885E00E94D2
:101240007C0280E00E947C02182FCE010E94DC0804
:10125000812FDF91CF911F9108950E94180981700D
:1012600008951F93CF93DF93EC01162F442339F099
:1012700040E066E00E943109CE010E94DC08CE0108
:101280000E942D098111FBCFCE010E94B808812F49
:10129000DF91CF911F910C947C020F931F93CF93FA
:1012A000DF938C0140E06BE40E94310980E00E94F2
:1012B0007C0280E00E947C0280E00E947C0280E050
:1012C0000E947C02C3E9D2E080E00E947C02899304
:1012D00082E0CB39D807C1F7C8010E94DC0883E956
:1012E00092E0DF91CF911F910F910895CF93DF93FB
:1012F000EC0140E06BEA0E943109CE01DF91CF9111
:101300000C94DC08CF93DF93EC018CB58B838DB507
:101310008C8361E088810E94390B80E58D831E8279
:10132000CE010E94DC08CE010E94760989819A8153
:10133000892B51F0CE010E94FA0829813A81821747
:10134000930711F080E00CC041E061E0CE010E9403
:10135000310980E00E947C02CE010E94DC0881E01D
:10136000DF91CF91089508958230E8F4E82FF0E0FE
:10137000EE0FFF1FED5FFE4F71836083813041F000
:10138000809169008C7F842B80936900E89A08958E
:1013900080916900440F551F440F551F837F842B94
:1013A00080936900E99A08951F920F920FB60F92E9
:1013B00011242F933F934F935F936F937F938F935A
:1013C0009F93AF93BF93EF93FF93E0910301F0914D
:1013D00004010995FF91EF91BF91AF919F918F917A
:1013E0007F916F915F914F913F912F910F900FBE21
:1013F0000F901F9018951F920F920FB60F92112405
:101400002F933F934F935F936F937F938F939F930C
:10141000AF93BF93EF93FF93E0910501F091060125
:101420000995FF91EF91BF91AF919F918F917F911E
:101430006F915F914F913F912F910F900FBE0F9041
:101440001F9018951F920F920FB60F9211242F9391
:101450003F938F939F93AF93BF9380919C02909102
:101460009D02A0919E02B0919F0230919B0223E0C9
:10147000230F2D3720F40196A11DB11D05C026E8CC
:10148000230F0296A11DB11D20939B0280939C0205
:1014900090939D02A0939E02B0939F028091A00220
:1014A0009091A102A091A202B091A3020196A11D68
:1014B000B11D8093A0029093A102A093A202B093C9
:1014C000A302BF91AF919F918F913F912F910F9068
:1014D0000FBE0F901F9018952FB7F89460919C0243
:1014E00070919D0280919E0290919F022FBF08955E
:1014F0003FB7F8948091A0029091A102A091A2021E
:10150000B091A30226B5A89B05C02F3F19F0019604
:10151000A11DB11D3FBF6627782F892F9A2F620F1B
:10152000711D811D911D42E0660F771F881F991F55
:101530004A95D1F708958F929F92AF92BF92CF9222
:10154000DF92EF92FF926B017C010E94780A4B01BF
:101550005C01C114D104E104F104F1F00E94DD0E3C
:101560000E94780A681979098A099B09683E7340C4
:101570008105910570F321E0C21AD108E108F10854
:1015800088EE880E83E0981EA11CB11CC114D10402
:10159000E104F10429F7DDCFFF90EF90DF90CF90C9
:1015A000BF90AF909F908F900895789484B582609B
:1015B00084BD84B5816084BD85B5826085BD85B5F7
:1015C000816085BDEEE6F0E0808181608083E1E8A6
:1015D000F0E01082808182608083808181608083DE
:1015E000E0E8F0E0808181608083E1EBF0E08081E1
:1015F00084608083E0EBF0E0808181608083EAE7B3
:10160000F0E080818460808380818260808380813B
:10161000816080838081806880831092C1000895FA
:10162000833081F028F4813099F08230A1F0089560
:101630008730A9F08830B9F08430D1F480918000EF
:101640008F7D03C0809180008F7780938000089504
:1016500084B58F7702C084B58F7D84BD0895809155
:10166000B0008F7703C08091B0008F7D8093B00071
:101670000895CF93DF9390E0FC01E458FF4F24914D
:10168000FC01E057FF4F8491882349F190E0880FD7
:10169000991FFC01E854FF4FA591B49182559F4FCB
:1016A000FC01C591D4919FB7611108C0F8948C9149
:1016B000209582238C93888182230AC0623051F462
:1016C000F8948C91322F309583238C938881822BD0
:1016D000888304C0F8948C91822B8C939FBFDF91F8
:1016E000CF9108950F931F93CF93DF931F92CDB7A0
:1016F000DEB7282F30E0F901E859FF4F8491F90156
:10170000E458FF4F1491F901E057FF4F0491002373
:10171000C9F0882321F069830E94100B6981E02FB2
:10172000F0E0EE0FFF1FE255FF4FA591B4919FB778
:10173000F8948C91611103C01095812301C0812B15
:101740008C939FBF0F90DF91CF911F910F910895C0
:10175000CF93DF93282F30E0F901E859FF4F8491B0
:10176000F901E458FF4FD491F901E057FF4FC491BC
:10177000CC2391F081110E94100BEC2FF0E0EE0FC2
:10178000FF1FEC55FF4FA591B4912C912D2381E0C3
:1017900090E021F480E002C080E090E0DF91CF9102
:1017A0000895FC01818D228D90E0805C9F4F821B0B
:1017B00091098F7399270895FC01918D828D981757
:1017C00031F0828DE80FF11D858D90E008958FEF47
:1017D0009FEF0895FC01918D828D981761F0828DA5
:1017E000DF01A80FB11D5D968C91928D9F5F9F7355
:1017F000928F90E008958FEF9FEF08958EE69DE021
:10180000892B49F080E090E0892B29F00E946E0D31
:1018100081110C9400000895FC01848DDF01A80F54
:10182000B11DA35ABF4F2C91848D90E001968F7308
:101830009927848FA689B7892C93A089B1898C9127
:1018400080648C93938D848D981306C00288F389ED
:10185000E02D80818F7D80830895CF93DF93EC010D
:10186000888D8823C9F0EA89FB89808185FD05C0C0
:10187000A889B9898C9186FD0FC00FB607FCF5CFFA
:10188000808185FFF2CFA889B9898C9185FFEDCF42
:10189000CE010E940C0CE7CFDF91CF910895CF923B
:1018A000DF92FF920F931F93CF93DF931F92CDB7D9
:1018B000DEB76C0181E0D60158968C9358975B9601
:1018C0009C915B975C968C915C97981307C050969F
:1018D000ED91FC915197808185FD2EC0F601038D1D
:1018E00010E00F5F1F4F0F731127F02EF601848D4C
:1018F000F81211C00FB607FCF9CFD6015096ED9142
:10190000FC915197808185FFF1CFC60169830E94C8
:101910000C0C6981EBCF838DE80FF11DE35AFF4F6B
:101920006083D6015B960C935B975296ED91FC9188
:101930005397808180620CC0D6015696ED91FC9140
:10194000579760835096ED91FC9151978081806408
:10195000808381E090E00F90DF91CF911F910F91F4
:10196000FF90DF90CF900895BF92CF92DF92EF92D9
:10197000FF92CF93DF93EC016A017B01B22EE889DD
:10198000F98982E08083411581EE58076105710570
:10199000A1F060E079E08DE390E0A70196010E945C
:1019A000F20E215031094109510956954795379555
:1019B0002795211580E1380798F0E889F989108288
:1019C00060E874E88EE190E0A70196010E94F20EB3
:1019D0002150310941095109569547953795279569
:1019E000EC85FD853083EE85FF852083188EEC899C
:1019F000FD89B082EA89FB89808180618083EA89E0
:101A0000FB89808188608083EA89FB898081806886
:101A10008083EA89FB8980818F7D8083DF91CF91EC
:101A2000FF90EF90DF90CF90BF9008951F920F929C
:101A30000FB60F9211242F938F939F93EF93FF93E1
:101A4000E091B402F091B5028081E091BA02F09188
:101A5000BB0282FD12C090818091BD028F5F8F73A7
:101A60002091BE02821751F0E091BD02F0E0EC55EA
:101A7000FD4F958F8093BD0201C08081FF91EF9152
:101A80009F918F912F910F900FBE0F901F901895DF
:101A90001F920F920FB60F9211242F933F934F93E3
:101AA0005F936F937F938F939F93AF93BF93EF93C6
:101AB000FF9384EA92E00E940C0CFF91EF91BF919A
:101AC000AF919F918F917F916F915F914F913F91D6
:101AD0002F910F900FBE0F901F90189584EA92E0FF
:101AE0000E94D10B21E0892B09F420E0822F089578
:101AF0001092A7021092A60288EE93E0A0E0B0E058
:101B00008093A8029093A902A093AA02B093AB027B
:101B10008CE092E09093A5028093A40285EC90E083
:101B20009093B1028093B00284EC90E09093B30262
:101B30008093B20280EC90E09093B5028093B4025F
:101B400081EC90E09093B7028093B60282EC90E033
:101B50009093B9028093B80286EC90E09093BB0218
:101B60008093BA021092BD021092BE021092BF0280
:101B70001092C0020895CF92DF92EF92FF920F93DE
:101B80001F93CF93DF937C016A01EB0100E010E02B
:101B90000C151D0571F06991D701ED91FC91019033
:101BA000F081E02DC7010995892B19F00F5F1F4FB8
:101BB000EFCFC801DF91CF911F910F91FF90EF9070
:101BC000DF90CF9008956115710581F0DB010D90D4
:101BD0000020E9F7AD0141505109461B570BDC01CC
:101BE000ED91FC910280F381E02D099480E090E07A
:101BF00008950C94E30DDC01ED91FC910190F081CE
:101C0000E02D099468E172E00C94E30D0F931F93AB
:101C1000CF93DF93EC010E94E30D8C01CE010E9473
:101C2000020E800F911FDF91CF911F910F910895A8
:101C30008F929F92AF92BF92DF92EF92FF920F939B
:101C40001F93CF93DF93CDB7DEB7A1970FB6F8946C
:101C5000DEBF0FBECDBF7C01F42FD52ECB0119A264
:101C6000223008F42AE08E010F5D1F4F822E912C46
:101C7000A12CB12C6F2F7D2DA50194010E94F20E95
:101C8000F22FD32ECA01015011096A3014F4E0E397
:101C900001C0E7E3E60FD801EC93232B242B252B7F
:101CA00049F7B801C7010E94E30DA1960FB6F89459
:101CB000DEBF0FBECDBFDF91CF911F910F91FF907F
:101CC000EF90DF90BF90AF909F908F900895CF924C
:101CD000DF92EF92FF920F931F93CF93DF93EC016C
:101CE0006A017B012115310579F4E881F9810190C0
:101CF000F081E02D642FDF91CF911F910F91FF9024
:101D0000EF90DF90CF9009942A303105E9F477FF06
:101D10001AC06DE20E94FB0D8C0144275527BA01C1
:101D20004C195D096E097F092AE0CE010E94180E48
:101D3000800F911FDF91CF911F910F91FF90EF9036
:101D4000DF90CF9008952AE0B701A601CE01DF9180
:101D5000CF911F910F91FF90EF90DF90CF900C9457
:101D6000180E9A01AB01662757FD6095762F0C94EB
:101D7000670E2115310541F4DC01ED91FC910190D4
:101D8000F081E02D642F09940C94180E9A01462FCF
:101D900050E060E070E00C94B90E08950E94D50AFE
:101DA0000E94CD0E0E948D00CEEFDBE00E94340138
:101DB0002097E1F30E94FE0BF9CF089597FB072EC1
:101DC00016F4009407D077FD09D00E94140F07FC89
:101DD00005D03EF4909581959F4F0895709561953B
:101DE0007F4F0895A1E21A2EAA1BBB1BFD010DC057
:101DF000AA1FBB1FEE1FFF1FA217B307E407F507BB
:101E000020F0A21BB30BE40BF50B661F771F881F96
:101E1000991F1A9469F760957095809590959B012C
:101E2000AC01BD01CF010895AA1BBB1B51E107C046
:101E3000AA1FBB1FA617B70710F0A61BB70B881F5A
:101E4000991F5A95A9F780959095BC01CD010895E9
:101E5000EE0FFF1F0590F491E02D0994AEE0B0E085
:101E6000E4E3FFE00C94D6110D891E8986E08C8393
:101E70001A8309838FEF9FE79E838D83AE01475EB0
:101E80005F4F6F89788DCE0101960E94500FEF81D0
:101E9000F885E00FF11F10822E96E4E00C94F21109
:101EA000ACE0B0E0E6E5FFE00C94C8117C016B010A
:101EB0008A01FC0117821682838181FFBDC1CE0198
:101EC00001964C01F7019381F60193FD859193FFF3
:101ED00081916F01882309F4ABC1853239F493FDF8
:101EE000859193FF81916F01853229F4B70190E0CC
:101EF0000E943811E7CF512C312C20E02032A0F481
:101F00008B3269F030F4803259F0833269F4206109
:101F10002CC08D3239F0803339F4216026C0226024
:101F2000246023C0286021C027FD27C030ED380F72
:101F30003A3078F426FF06C0FAE05F9E300D112497
:101F4000532E13C08AE0389E300D1124332E2062A8
:101F50000CC08E3221F426FD6BC1206406C08C3685
:101F600011F4206802C0883641F4F60193FD859192
:101F700093FF81916F018111C1CF982F9F7D95545F
:101F8000933028F40C5F1F4FFFE3F9830DC08336B5
:101F900031F0833771F0833509F05BC022C0F8015E
:101FA000808189830E5F1F4F44244394512C540138
:101FB00015C03801F2E06F0E711CF801A080B180ED
:101FC00026FF03C0652D70E002C06FEF7FEFC501F3
:101FD0002C870E942D112C0183012C852F77222E16
:101FE00017C03801F2E06F0E711CF801A080B180BB
:101FF00026FF03C0652D70E002C06FEF7FEFC501C3
:102000002C870E9422112C012C852068222E83010E
:1020100023FC1BC0832D90E048165906B0F4B7018D
:1020200080E290E00E9438113A94F4CFF50127FC49
:10203000859127FE81915F01B70190E00E943811E0
:1020400031103A94F1E04F1A51084114510471F7DC
:10205000E5C0843611F0893639F5F80127FF07C04D
:1020600060817181828193810C5F1F4F08C0608104
:102070007181882777FD8095982F0E5F1F4F2F76EF
:10208000B22E97FF09C090958095709561957F4F0E
:102090008F4F9F4F2068B22E2AE030E0A4010E94AB
:1020A0006A11A82EA81844C0853729F42F7EB22EB5
:1020B0002AE030E025C0F22FF97FBF2E8F36C1F025
:1020C00018F4883579F0B4C0803719F0883721F0DA
:1020D000AFC02F2F2061B22EB4FE0DC08B2D8460B7
:1020E000B82E09C024FF0AC09F2F9660B92E06C0E3
:1020F00028E030E005C020E130E002C020E132E01D
:10210000F801B7FE07C060817181828193810C5F05
:102110001F4F06C06081718180E090E00E5F1F4F0D
:10212000A4010E946A11A82EA818FB2DFF77BF2ECC
:10213000B6FE0BC02B2D2E7FA51450F4B4FE0AC0A2
:10214000B2FC08C02B2D2E7E05C07A2C2B2D03C08F
:102150007A2C01C0752C24FF0DC0FE01EA0DF11D83
:102160008081803311F4297E09C022FF06C0739458
:10217000739404C0822F867809F0739423FD13C0F2
:1021800020FF06C05A2C731418F4530C5718732CE4
:10219000731468F4B70180E290E02C870E94381134
:1021A00073942C85F5CF731410F4371801C0312CBB
:1021B00024FF12C0B70180E390E02C870E94381101
:1021C0002C8522FF17C021FF03C088E590E002C0E4
:1021D00088E790E0B7010CC0822F867859F021FD86
:1021E00002C080E201C08BE227FD8DE2B70190E0E2
:1021F0000E943811A51438F4B70180E390E00E94E2
:1022000038115A94F7CFAA94F401EA0DF11D808198
:10221000B70190E00E943811A110F5CF332009F4E6
:1022200051CEB70180E290E00E9438113A94F6CF87
:10223000F7018681978102C08FEF9FEF2C96E2E134
:102240000C94E411FC010590615070400110D8F726
:10225000809590958E0F9F1F0895FC0161507040EE
:1022600001900110D8F7809590958E0F9F1F0895CB
:102270000F931F93CF93DF93182F092FEB018B81BF
:1022800081FD03C08FEF9FEF20C082FF10C04E8101
:102290005F812C813D81421753077CF4E881F981ED
:1022A0009F012F5F3F4F39832883108306C0E88545
:1022B000F985812F0995892B29F72E813F812F5F81
:1022C0003F4F3F832E83812F902FDF91CF911F911E
:1022D0000F910895FA01AA27283051F1203181F198
:1022E000E8946F936E7F6E5F7F4F8F4F9F4FAF4F1E
:1022F000B1E03ED0B4E03CD0670F781F891F9A1F31
:10230000A11D680F791F8A1F911DA11D6A0F711DE4
:10231000811D911DA11D20D009F468943F912AE0F0
:10232000269F11243019305D3193DEF6CF010895D8
:10233000462F4770405D4193B3E00FD0C9F7F6CF09
:10234000462F4F70405D4A3318F0495D31FD4052D1
:10235000419302D0A9F7EACFB4E0A6959795879567
:1023600077956795BA95C9F7009761057105089546
:102370009B01AC010A2E06945795479537952795F2
:10238000BA95C9F7620F731F841F951FA01D08958A
:102390002F923F924F925F926F927F928F929F9275
:1023A000AF92BF92CF92DF92EF92FF920F931F9363
:1023B000CF93DF93CDB7DEB7CA1BDB0B0FB6F89414
:1023C000DEBF0FBECDBF09942A88398848885F8454
:1023D0006E847D848C849B84AA84B984C884DF80C5
:1023E000EE80FD800C811B81AA81B981CE0FD11DA9
:1023F0000FB6F894DEBF0FBECDBFED010895F8947F
:02240000FFCF0C
:10240200019600B309B30973616D706C65456E6323
:10241200727970744B6579000A5472616E736D69DA
:102422007474696E67206174202564204D687A2E69
:102432002E2E0053504920466C61736820496E6904
:1024420074204F4B202E2E2E20556E6971756549D2
:102452004420284D4143293A200053504920466CDC
:10246200617368204D454D206E6F7420666F756EE6
:102472006420286973206368697020736F6C6465D7
:102482007265643F292E2E2E0052464D36395F4129
:10249200544320456E61626C656420284175746FF7
:1024A200205472616E736D697373696F6E20436F2E
:1024B2006E74726F6C290A005D20002020205B522E
:1024C200585F525353493A005D0053656E64696E1A
:1024D200675B005D3A2000206F6B2100206E6F74F5
:1024E20068696E672E2E2E00000000001106980605
:1024F2005A02DC075E0664035F05F00641087608AF
:1025020055087E0644023502000000004F0CBB0D48
:10251200D10BEA0BDC0B2D0C0D0A006E616E00690B
:082522006E66006F7666000092
:00000001FF
