:100000000C9463000C94A30A0C94CA0A0C948B0001
:100010000C948B000C948B000C948B000C948B0034
:100020000C948B000C948B000C948B000C948B0024
:100030000C948B000C948B000C948B000C948B0014
:100040000C94F10A0C948B000C94E50D0C94170E93
:100050000C948B000C948B000C948B000C948B00F4
:100060000C948B000C948B0000000008000201002F
:100070000003040700000000000000000102040863
:100080001020408001020408102001020408102002
:10009000040404040404040402020202020203032E
:1000A00003030303000000002300260029000000D2
:1000B0000000250028002B0000000000240027007D
:1000C0002A00B401470E11241FBECFEFD8E0DEBFD7
:1000D000CDBF12E0A0E0B1E0ECE8F5E202C005908F
:1000E0000D92A435B107D9F723E0A4E5B2E001C031
:1000F0001D92A637B207E1F710E0C6ECD0E004C0CD
:100100002297FE010E94EF0FC23CD107C9F70E945F
:10011000AF0F0C94C4120C9400000F931F93CF9355
:10012000DF93CDB7DEB7E2970FB6F894DEBF0FBE10
:10013000CDBF26E040E052EC61E070E089ED92E056
:100140000E94830D6AE070E080E090E00E946A0BFC
:1001500024E641E06BE28AE692E00E94FC07E0912F
:100160006A02F0916B020084F185E02D61E08AE67D
:1001700092E0099564E071E08AE692E00E947F04D3
:10018000609162028AE692E00E94680781E08F93A4
:1001900081EB8F9385E191E09F938F938E010F5FA9
:1001A0001F4F1F930F930E94F30FB80189ED92E048
:1001B0000E94D50E83E692E00E94510A0F900F90A4
:1001C0000F900F900F900F90882321F16DE271E056
:1001D00089ED92E00E94C80E83E692E00E941C0A1C
:1001E00008EC12E0F80161918F0140E150E089EDE7
:1001F00092E00E94A70F6AE389ED92E00E94CA0E86
:10020000F2E0003D1F0771F76DE589ED92E00E9475
:10021000E70E06C06FE471E089ED92E00E94D50E12
:100220006EE771E089ED92E00E94D50EE2960FB67E
:10023000F894DEBF0FBECDBFDF91CF911F910F911C
:1002400008951F93CF93DF93182FEB0161E00E9475
:10025000080C61E0812F0E94410CBE01882777FDC8
:100260008095982F0E946A0B60E0812FDF91CF91DB
:100270001F910C94410C6F927F928F929F92AF923C
:10028000BF92CF92DF92EF92FF920F931F93CF9383
:10029000DF931F92CDB7DEB76DB67EB6E62EF12C9A
:1002A00015E0619FA00111249A012F5F3F4F6DB7A8
:1002B0007EB7621B730B0FB6F8947EBF0FBE6DBF87
:1002C0006F5F7F4FDC0120E030E000E3C02EE8E705
:1002D000BE2EF0E2AF2EFD01E81BF90BEE15FF0577
:1002E00034F5ED91DE2ED2940FE0D0220E2F0F7058
:1002F000FB01E20FF31FC082B18210E3912E9D0C2F
:10030000928210E3912E900E9382A48219E0812EA6
:100310008D1420F417E3912ED90CD2820A3020F0EC
:10032000D38017E0D10ED3822B5F3F4FD4CFFB0198
:10033000E40FF51F108289ED92E00E94C80E0FB6FF
:10034000F8947EBE0FBE6DBE0F90DF91CF911F91CE
:100350000F91FF90EF90DF90CF90BF90AF909F9064
:100360008F907F906F9008958AE080936C0282E076
:1003700080936D0210926E0281E08093850210924C
:1003800070028FE1809371021092720289E192E013
:1003900090936B0280936A0240E35FEE68E083E62D
:1003A00092E00C947F09EF920F93CF9389ED92E046
:1003B0000E94A00C181619062CF589ED92E00E94F7
:1003C000B90C8E3641F4809355026CEA71E089EDE8
:1003D00092E00E94D50EB8E2EB2E02E021E045E566
:1003E00052E0609154028AE692E00E946B078823F3
:1003F00019F06CEB71E002C061EC71E089ED92E004
:100400000E94C80EE0916A02F0916B020480F581AF
:10041000E02D8AE692E00995882309F4DCC06AECB5
:1004200071E089ED92E00E94C80E40915D0250910A
:100430005E0260915F02709160024F5F5F4F6F4F8D
:100440007F4F40935D0250935E0260935F02709312
:1004500060022AE030E089ED92E00E949A0F6CE29F
:1004600089ED92E00E94CA0E6CE289ED92E00E9452
:10047000CA0E609183024AE050E089ED92E00E944A
:10048000A70F6BEC71E089ED92E00E94C80E80919D
:10049000830280935402809162028823A1F06DEC64
:1004A00071E089ED92E00E94C80E609182024AE0FC
:1004B00050E089ED92E00E94A70F62ED71E089EDB6
:1004C00092E00E94C80E20E080918402281760F418
:1004D000822F90E0FC01EA57FD4F3081FC01EA5A7F
:1004E000FD4F30832F5FF0CF67E086E592E00E94FA
:1004F0003B0165ED71E089ED92E00E94C80E6091CC
:100500007D0270917E024AE050E089ED92E00E9407
:10051000920F6BEC71E089ED92E00E94C80E8AE6C2
:1005200092E00E946803882309F449C0C0918302C5
:1005300040E067E472E08AE692E00E94AF086FED67
:1005400071E089ED92E00E94C80E8091610291E015
:10055000980F9093610263E00E94BF0F91112FC02A
:1005600069EE71E089ED92E00E94C80E4AE050E029
:100570006C2F89ED92E00E94A70F66EF71E089ED84
:1005800092E00E94C80E63E070E080E090E00E947C
:100590006A0BA8E2EA2E00E028E04EEF51E06C2F53
:1005A0008AE692E00E946B07882319F067E072E008
:1005B00002C06CE072E089ED92E00E94C80E89ED05
:1005C00092E00E94D10E63E070E089E0CF910F913C
:1005D000EF900C942101CF910F91EF9008958091AD
:1005E0007B0290917C02DC01ED91FC910484F58505
:1005F000E02D0994CF93DF93EC0161E08A810E94A2
:10060000410C89858CBD8A858DBD7894DF91CF9111
:100610000895FC01F8948CB581878DB582878CB5DF
:10062000837F8CBD8CB58F7D8CBD8CB58C7F8CBD54
:100630008DB58E7F8DBD60E082810C94410CF89465
:1006400020918502233021F42091810221110FC0D5
:1006500020918502233011F4789407C0DC01ED91DC
:10066000FC910288F389E02D099580E00895DC0172
:10067000ED91FC910488F589E02D61E0099581E018
:1006800008958EBD00000DB407FEFDCF8EB5089510
:10069000CF93DF931F92CDB7DEB7DC01ED91FC91D4
:1006A0000480F581E02D698309956981882359F0DB
:1006B00080918302861711F06F3F29F490917F0299
:1006C00081E0911101C080E00F90DF91CF910895FA
:1006D00080918002882329F09091820281E09F3FDF
:1006E00009F480E00895EF92FF921F93CF93DF9378
:1006F0001F92CDB7DEB77C01DC01ED91FC91008C3F
:10070000F18DE02D698309956981862F8F770E948D
:10071000410380E00E944103182FD701ED91FC9125
:10072000028CF38DE02DC7010995812F0F90DF9189
:10073000CF911F91FF90EF9008950F931F93CF9348
:10074000DF9300D0CDB7DEB78C01DC01ED91FC91D9
:10075000008CF18DE02D4A83698309956981862F8C
:1007600080680E9441034A81842F0E944103D8017E
:10077000ED91FC91028CF38DE02DC8010F900F904C
:10078000DF91CF911F910F9109941F93CF93DF9326
:10079000EC01162F80918502681709F461C0623060
:1007A00009F440C070F4662309F444C0613009F0D4
:1007B00057C061E0CE010E947303482F437E44601E
:1007C0003FC06330C1F0643009F04AC061E0CE013F
:1007D0000E947303482F437E4C6061E0CE010E946B
:1007E0009D038885882381F1E881F9810688F7894E
:1007F000E02D61E014C061E0CE010E947303482F38
:10080000437E406161E0CE010E949D03888588237C
:10081000D9F0E881F9810688F789E02D60E0CE0102
:10082000099512C061E0CE010E947303482F437EF8
:10083000486006C061E0CE010E947303482F437EEA
:1008400061E0CE010E949D0380918502811106C066
:1008500067E2CE010E94730387FFF6CF10938502F3
:10086000DF91CF911F910895CF93DF93EC01603218
:1008700008F06FE16F838885882311F066956F8398
:1008800061E1CE010E947303482F407E8F81482B87
:1008900061E1CE01DF91CF910C949D03CF93DF9363
:1008A000EC01109284021092830210928202109244
:1008B00081021092800210927F0210927E021092AA
:1008C0007D0268E20E94730382FF0AC06DE3CE01DD
:1008D0000E947303482F44606DE3CE010E949D0384
:1008E00040E465E2CE010E949D03E881F98104881D
:1008F000F589E02D63E0CE01DF91CF910994DF927D
:10090000EF92FF920F931F93CF93DF93EC018B0134
:10091000E881F9810488F589E02D61E009950115E8
:100920001105E1F0E881F981008CF18DE02DCE0117
:1009300009958EEB0E9441037801D12CF70181913A
:100940007F010E944103D394F0E1DF12F7CFE881E9
:10095000F981028CF38DE02DCE0109956DE3CE0176
:100960000E9473038E7F91E0012B09F490E0482FE1
:10097000492B6DE3CE01DF91CF911F910F91FF9035
:10098000EF90DF900C949D038F929F92AF92BF9255
:10099000DF92EF92FF920F931F93CF93DF93CDB728
:1009A000DEB7AE970FB6F894DEBF0FBECDBF7C01A9
:1009B000D42E8EE28E010F5F1F4FD801E82F1D92BB
:1009C000EA95E9F791E0998334E03A8342E04B837A
:1009D00093E09D834E833F8340E4488735E0398729
:1009E0009A8796E09B8793E39C8737E03D8798E062
:1009F0009F8799E0998B99E19B8B92E49C8B55E2C0
:100A00005D8B4E8B46E24F8B388F38E2398F30E169
:100A10003A8F39E23B8F3CED3C8F8D8F88E88E8F8B
:100A20008FE28F8F8DE288A380E389A337E33BA316
:100A300030E93CA338E33DA39EA39CE39FA39FE83A
:100A400098A79DE399A792E19AA79FE69BA78CA7F9
:100A50008FEF8DA76F3131F06B3231F0663531F4A5
:100A600089ED05C08EE403C08CE601C084EE8E875C
:100A70006F3141F06B3221F0663521F480E003C024
:100A800080E401C080EC888B2AA361E0D701129634
:100A90008C910E94410C61E0F70182810E94080C58
:100AA0000E9449090E943B0B4B015C014AEA6FE23C
:100AB000C7010E949D036FE2C7010E9473038A3A37
:100AC00059F00E943B0B681979098A099B09623326
:100AD00071058105910550F30E943B0B4B015C01B0
:100AE00045E56FE2C7010E949D036FE2C7010E94C6
:100AF0007303853559F00E943B0B681979098A09FF
:100B00009B09623371058105910550F3B12CF80101
:100B1000EB0DF11DEB0DF11D60816F3F31F0418157
:100B2000C7010E949D03B394F2CF60E070E0C7015B
:100B30000E947F04D701ED91FC9111970084F1850B
:100B4000E02D18966C91C7010995D701ED91FC91A4
:100B50000488F589E02D61E0C70109950E943B0BEF
:100B60004B015C0167E2C7010E94730387FD0BC064
:100B70000E943B0B681979098A099B096233710548
:100B80008105910578F30E943B0B681979098A0960
:100B90009B09623371058105910588F443E050E0BB
:100BA0006FEE72E0F70184810E94830AF0927C026A
:100BB000E0927B02D7011596DC9281E001C080E0D3
:100BC000AE960FB6F894DEBF0FBECDBFDF91CF91CA
:100BD0001F910F91FF90EF90DF90BF90AF909F908B
:100BE0008F900895CF93DF93EC0161110DC064E203
:100BF000CE010E94730390E091958195910995959E
:100C00008795DF91CF91089541E063E20E949D03B3
:100C100063E2CE010E94730381FFFACFE8CFCF9346
:100C2000DF93EC01809185028330A9F480918102E9
:100C3000811111C060E0CE010E94F205863A9F4FFB
:100C400054F4E881F9810488F589E02D61E0CE0152
:100C5000099581E001C080E0DF91CF910895FF9276
:100C60000F931F93CF93DF93EC0180918502833024
:100C700001F568E2CE010E94730382FD28C019C00D
:100C8000809184028D3330F4E0918402F0E0EA57E1
:100C9000FD4F1082E881F981028CF38DE02DCE01A9
:100CA0000995E881F9810488F589E02D63E0CE019A
:100CB000099560E0CE010E94F20590937E02809338
:100CC0007D02DF91CF911F910F91FF900895E881F0
:100CD000F9810488F589E02D61E0CE010995E8816C
:100CE000F981008CF18DE02DCE01099580E00E9404
:100CF000410380E00E944103809381028091810240
:100D00008334D0F4809181028093810280E00E943C
:100D10004103809382028E81811109C090918202E9
:100D20008D81981721F0809182028F3F39F4809154
:100D30008102833018F017C082E4E6CF109281025E
:100D4000E881F981028CF38DE02DCE010995E881CF
:100D5000F9810288F389E02DCE01DF91CF911F91B7
:100D60000F91FF90099480918102835080938402B7
:100D700080E00E9441038093830280E00E9441034F
:100D8000982F907890937F02982F90749093800280
:100D9000E881F9810684F785E02D682FCE01099559
:100DA000F12C80918402F81608F06ACF0F2D10E024
:100DB00080E00E944103F801EA57FD4F8083F394DD
:100DC000F0CF4F925F926F927F929F92AF92BF92BD
:100DD000EF920F931F93CF93DF93EC01162F5A01DD
:100DE000922E6DE30E947303482F44606DE3CE01A1
:100DF0000E949D030E943B0B2B013C01CE010E94EF
:100E00000F068823C1F0E881F9810088F189E02D7F
:100E1000E12C292DA501612FCE010995DF91CF91FC
:100E20001F910F91EF90BF90AF909F907F906F9028
:100E30005F904F9008950E943B0B641975098609D5
:100E40009709683E734081059105E8F6E881F981CC
:100E50000480F581E02DCE010995D0CFCF93DF93AB
:100E6000EC016887662311F04FE001C04AE163E1BD
:100E7000CE010E949D038885882341F061E1CE0167
:100E80000E947303482F4F71406602C04F81406833
:100E900061E1CE01DF91CF910C949D031F93CF931D
:100EA000DF93EC01162F662311F04DE501C045E5F7
:100EB0006AE5CE010E949D03112311F04CE701C0A9
:100EC00040E76CE5CE01DF91CF911F910C949D031B
:100ED000FC01668308952F923F924F925F927F921A
:100EE0008F929F92AF92BF92CF92DF92EF92FF923A
:100EF0000F931F93CF93DF93EC01962E5A01722E1E
:100F0000802E10E0CE2CD12CE12CF12CE881F9813F
:100F10000190F081E02D01E0272DA501692DCE0182
:100F200009950E943B0B1B012C010E943B0B62198F
:100F30007309840995096C157D058E059F0540F49C
:100F4000692DCE010E944803882379F381E009C00E
:100F50001F5F8116D8F68D858F3110F48F5F8D87D6
:100F600080E0DF91CF911F910F91FF90EF90DF9084
:100F7000CF90BF90AF909F908F907F905F904F9059
:100F80003F902F900895CF93DF93EC0160726093B0
:100F9000C30280917F02882361F18091C30288237C
:100FA00041F180918402882321F180E00E94410375
:100FB00090E09195819591099F878E872091840279
:100FC0002150209384022B853C852115310589F021
:100FD0008217930734F44D854F3118F44F5F4D87D6
:100FE00008C0281739072CF48D85882311F081500B
:100FF0008D87DF91CF910895FC01148613861786A3
:1010000016861092C3023FE135870C94C4048F9278
:101010009F92AF92BF92CF92DF92EF92FF920F9387
:101020001F93CF93DF93EC01F62ED42E152F822E33
:10103000902EE881F9810488F589E02D61E0099519
:1010400067E2CE010E94730387FFFACF40E065E2BA
:10105000CE010E949D03EE2011F00C2D01C000E096
:10106000080D0E3308F00DE3E881F981008CF18D55
:10107000E02DCE01099580E80E94410383E0800FB6
:101080000E9441038F2D0E9441038D810E944103E4
:10109000EE2099F0CC2011F080EA01C080E80E9497
:1010A0004103CC20B9F0C501B7FE03C091958195ED
:1010B00091090E94410301500DC0992041F08B8598
:1010C0009C85892B11F080E603C080E401C080E09C
:1010D0000E944103CD2CED2CF12E8E2D8C19801702
:1010E00030F4F70181917F010E944103F6CFE8813E
:1010F000F981028CF38DE02DCE010995E881F9810B
:101100000488F589E02D64E0CE0109950E943B0B2F
:101110006B017C018B810E94770C892BA1F0E88107
:10112000F9810488F589E02D61E0CE01DF91CF914E
:101130001F910F91FF90EF90DF90CF90BF90AF90F5
:101140009F908F9009940E943B0B6C197D098E092A
:101150009F09683E73408105910508F7DBCF6F92C8
:101160007F928F929F92AF92BF92CF92DF92EF9237
:10117000FF920F931F93CF93DF93EC013B01F42E6B
:10118000109280021091830280907D0290907E02E6
:101190008091C30201E0811101C000E06DE3CE0146
:1011A0000E947303482F44606DE3CE010E949D03AB
:1011B0000E943B0B5B016C01CE010E940F0688234D
:1011C00001F1109383025401C02EEE24E39400E059
:1011D0002F2DA301612FCE010E94070890927E025D
:1011E00080927D02DF91CF911F910F91FF90EF9040
:1011F000DF90CF90BF90AF909F908F907F906F9037
:1012000008950E943B0B6A197B098C099D09683E71
:10121000734081059105A8F6E881F9810480F58184
:10122000E02DCE010995C8CFAF92BF92CF92EF9239
:101230000F93A12CB12CC12C0E9407080F91EF90A5
:10124000CF90BF90AF9008951F93CF93DF93EC01A1
:10125000162F809185026817A1F0CE010E94C50368
:10126000143079F48B859C85892B59F0E881F981BC
:101270000284F385E02D6D85CE01DF91CF911F9122
:101280000994DF91CF911F9108951092C3020C949D
:101290004E04CF93CFB7F8948091C702811127C035
:1012A000EAE9F0E08491E6E8F0E09491E82FF0E0DC
:1012B000EE0FFF1FE854FF4FA591B4918C91892345
:1012C00021F461E08AE00E94410C61E08AE00E9422
:1012D000080C8CB580618CBD8CB580648CBD61E0E0
:1012E0008DE00E94080C61E08BE00E94080C809168
:1012F000C7028F5F8093C702CFBFCF910895FC01D3
:1013000080E5858316826083528341830895FC01C2
:101310008CB583838DB58483358126818091C60207
:10132000882399F09FB7F8948091C602813059F4D0
:101330008DB38093C4024DB38091C5028095842300
:101340008DBB9FBF02C09093C4023CBD2DBD60E029
:1013500080810C94410CCF93DF93EC0161E0888194
:101360000E94410C8091C602882361F09FB7F894D7
:101370002091C6028091C402213019F48DBB9FBF19
:1013800001C08FBF8B818CBD8C818DBDDF91CF91D2
:1013900008950F931F93CF93DF938C010E948709C9
:1013A0008FE90E94410380E00E944103C82FD0E0F2
:1013B000DC2FCC2780E00E944103C82BC8010E948B
:1013C000AB09CE01DF91CF911F910F9108951F932B
:1013D000CF93DF93EC010E94870985E00E944103CF
:1013E00080E00E944103182FCE010E94AB09812F9B
:1013F000DF91CF911F9108950E94E70981700895B0
:101400001F93CF93DF93EC01162F442339F040E074
:1014100066E00E94000ACE010E94AB09CE010E9444
:10142000FC098111FBCFCE010E948709812FDF913A
:10143000CF911F910C9441030F931F93CF93DF9390
:101440008C0140E06BE40E94000A80E00E944103AE
:1014500080E00E94410380E00E94410380E00E94FE
:101460004103C8ECD2E080E00E944103899382E00E
:10147000C03DD807C1F7C8010E94AB0988EC92E0D3
:10148000DF91CF911F910F910895CF93DF93EC01DE
:1014900040E06BEA0E94000ACE01DF91CF910C94EC
:1014A000AB09CF93DF93EC018CB58B838DB58C8327
:1014B00061E088810E94080C80E58D831E82CE0148
:1014C0000E94AB09CE010E94450A89819A81892B2D
:1014D00051F0CE010E94C90929813A8182179307F0
:1014E00011F080E00CC041E061E0CE010E94000AF2
:1014F00080E00E944103CE010E94AB0981E0DF91B0
:10150000CF91089508958230E8F4E82FF0E0EE0FCF
:10151000FF1FE050FF4F71836083813041F0809165
:1015200069008C7F842B80936900E89A08958091EC
:101530006900440F551F440F551F837F842B8093F0
:101540006900E99A08951F920F920FB60F92112425
:101550002F933F934F935F936F937F938F939F93BB
:10156000AF93BF93EF93FF93E0910001F0910101DE
:101570000995FF91EF91BF91AF919F918F917F91CD
:101580006F915F914F913F912F910F900FBE0F90F0
:101590001F9018951F920F920FB60F9211242F9340
:1015A0003F934F935F936F937F938F939F93AF93EB
:1015B000BF93EF93FF93E0910201F091030109952E
:1015C000FF91EF91BF91AF919F918F917F916F911B
:1015D0005F914F913F912F910F900FBE0F901F90F1
:1015E00018951F920F920FB60F9211242F933F93CD
:1015F0008F939F93AF93BF938091D1029091D2022A
:10160000A091D302B091D4023091D00223E0230FF5
:101610002D3720F40196A11DB11D05C026E8230F2A
:101620000296A11DB11D2093D0028093D102909308
:10163000D202A093D302B093D4028091D5029091AC
:10164000D602A091D702B091D8020196A11DB11D7A
:101650008093D5029093D602A093D702B093D8027C
:10166000BF91AF919F918F913F912F910F900FBE9E
:101670000F901F9018952FB7F8946091D102709138
:10168000D2028091D3029091D4022FBF08953FB728
:10169000F8948091D5029091D602A091D702B09192
:1016A000D80226B5A89B05C02F3F19F00196A11DB1
:1016B000B11D3FBF6627782F892F9A2F620F711DAA
:1016C000811D911D42E0660F771F881F991F4A9563
:1016D000D1F708958F929F92AF92BF92CF92DF92EF
:1016E000EF92FF926B017C010E94470B4B015C0162
:1016F000C114D104E104F104F1F00E94BE0F0E9474
:10170000470B681979098A099B09683E734081056E
:10171000910570F321E0C21AD108E108F10888EEC2
:10172000880E83E0981EA11CB11CC114D104E104F1
:10173000F10429F7DDCFFF90EF90DF90CF90BF90BD
:10174000AF909F908F900895789484B5826084BD07
:1017500084B5816084BD85B5826085BD85B58160B5
:1017600085BDEEE6F0E0808181608083E1E8F0E015
:101770001082808182608083808181608083E0E844
:10178000F0E0808181608083E1EBF0E08081846023
:101790008083E0EBF0E0808181608083EAE7F0E025
:1017A0008081846080838081826080838081816089
:1017B00080838081806880831092C1000895833087
:1017C00081F028F4813099F08230A1F008958730BB
:1017D000A9F08830B9F08430D1F4809180008F7DF9
:1017E00003C0809180008F7780938000089584B536
:1017F0008F7702C084B58F7D84BD08958091B0003D
:101800008F7703C08091B0008F7D8093B0000895E2
:10181000CF93DF9390E0FC01E458FF4F2491FC014B
:10182000E057FF4F8491882349F190E0880F991F7A
:10183000FC01E854FF4FA591B49182559F4FFC01E4
:10184000C591D4919FB7611108C0F8948C912095EF
:1018500082238C93888182230AC0623051F4F894E9
:101860008C91322F309583238C938881822B8883AF
:1018700004C0F8948C91822B8C939FBFDF91CF9101
:1018800008950F931F93CF93DF931F92CDB7DEB7C9
:10189000282F30E0F901E859FF4F8491F901E4580D
:1018A000FF4F1491F901E057FF4F04910023C9F055
:1018B000882321F069830E94DF0B6981E02FF0E02B
:1018C000EE0FFF1FE255FF4FA591B4919FB7F8941B
:1018D0008C91611103C01095812301C0812B8C93E1
:1018E0009FBF0F90DF91CF911F910F910895CF93DC
:1018F000DF93282F30E0F901E859FF4F8491F90177
:10190000E458FF4FD491F901E057FF4FC491CC2325
:1019100091F081110E94DF0BEC2FF0E0EE0FFF1F22
:10192000EC55FF4FA591B4912C912D2381E090E0CF
:1019300021F480E002C080E090E0DF91CF91089533
:10194000FC01818D228D90E0805C9F4F821B91096C
:101950008F7399270895FC01918D828D981731F02E
:10196000828DE80FF11D858D90E008958FEF9FEF38
:101970000895FC01918D828D981761F0828DDF01B1
:10198000A80FB11D5D968C91928D9F5F9F73928F72
:1019900090E008958FEF9FEF08958DE39EE0892BEF
:1019A00049F080E090E0892B29F00E943D0E8111E2
:1019B0000C9400000895FC01848DDF01A80FB11D77
:1019C000A35ABF4F2C91848D90E001968F73992775
:1019D000848FA689B7892C93A089B1898C91806462
:1019E0008C93938D848D981306C00288F389E02D23
:1019F00080818F7D80830895CF93DF93EC01888D64
:101A00008823C9F0EA89FB89808185FD05C0A88902
:101A1000B9898C9186FD0FC00FB607FCF5CF808188
:101A200085FFF2CFA889B9898C9185FFEDCFCE01D2
:101A30000E94DB0CE7CFDF91CF910895CF92DF9228
:101A4000FF920F931F93CF93DF931F92CDB7DEB713
:101A50006C0181E0D60158968C9358975B969C91C7
:101A60005B975C968C915C97981307C05096ED91AC
:101A7000FC915197808185FD2EC0F601038D10E009
:101A80000F5F1F4F0F731127F02EF601848DF81290
:101A900011C00FB607FCF9CFD6015096ED91FC911D
:101AA0005197808185FFF1CFC60169830E94DB0CCD
:101AB0006981EBCF838DE80FF11DE35AFF4F6083FF
:101AC000D6015B960C935B975296ED91FC915397E0
:101AD000808180620CC0D6015696ED91FC9157979B
:101AE00060835096ED91FC91519780818064808352
:101AF00081E090E00F90DF91CF911F910F91FF90C7
:101B0000DF90CF900895BF92CF92DF92EF92FF9235
:101B1000CF93DF93EC016A017B01B22EE889F9894A
:101B200082E08083411581EE580761057105A1F0BF
:101B300060E079E08DE390E0A70196010E94CB0F71
:101B400021503109410951095695479537952795F7
:101B5000211580E1380798F0E889F989108260E85A
:101B600074E88EE190E0A70196010E94CB0F21500E
:101B70003109410951095695479537952795EC85C7
:101B8000FD853083EE85FF852083188EEC89FD89E5
:101B9000B082EA89FB89808180618083EA89FB8940
:101BA000808188608083EA89FB8980818068808366
:101BB000EA89FB8980818F7D8083DF91CF91FF90BF
:101BC000EF90DF90CF90BF9008951F920F920FB6C5
:101BD0000F9211242F938F939F93EF93FF93E09194
:101BE000E902F091EA028081E091EF02F091F002C7
:101BF00082FD12C090818091F2028F5F8F732091DD
:101C0000F302821751F0E091F202F0E0E752FD4F4B
:101C1000958F8093F20201C08081FF91EF919F9197
:101C20008F912F910F900FBE0F901F9018951F92BC
:101C30000F920FB60F9211242F933F934F935F9300
:101C40006F937F938F939F93AF93BF93EF93FF9384
:101C500089ED92E00E94DB0CFF91EF91BF91AF9173
:101C60009F918F917F916F915F914F913F912F91B4
:101C70000F900FBE0F901F90189589ED92E00E9473
:101C8000A00C21E0892B09F420E0822F0895109206
:101C9000DC021092DB0288EE93E0A0E0B0E08093DB
:101CA000DD029093DE02A093DF02B093E00289E3AD
:101CB00092E09093DA028093D90285EC90E09093C1
:101CC000E6028093E50284EC90E09093E802809332
:101CD000E70280EC90E09093EA028093E90281ECC5
:101CE00090E09093EC028093EB0282EC90E0909372
:101CF000EE028093ED0286EC90E09093F0028093E8
:101D0000EF021092F2021092F3021092F40210927B
:101D1000F5020895CF92DF92EF92FF920F931F93F7
:101D2000CF93DF937C016A01EB0100E010E00C151A
:101D30001D0571F06991D701ED91FC910190F08141
:101D4000E02DC7010995892B19F00F5F1F4FEFCFC9
:101D5000C801DF91CF911F910F91FF90EF90DF901D
:101D6000CF9008956115710581F0DB010D90002081
:101D7000E9F7AD0141505109461B570BDC01ED91CC
:101D8000FC910280F381E02D099480E090E00895B9
:101D90000C94B20EDC01ED91FC910190F081E02DEC
:101DA000099465E472E00C94B20E0F931F93CF93E5
:101DB000DF93EC010E94B20E8C01CE010E94D10E85
:101DC000800F911FDF91CF911F910F9108950F9375
:101DD0001F93CF93DF93EC010E94CA0E8C01CE01BA
:101DE0000E94D10E800F911FDF91CF911F910F9113
:101DF00008958F929F92AF92BF92DF92EF92FF92DF
:101E00000F931F93CF93DF93CDB7DEB7A1970FB694
:101E1000F894DEBF0FBECDBF7C01F42FD52ECB01D1
:101E200019A2223008F42AE08E010F5D1F4F822E86
:101E3000912CA12CB12C6F2F7D2DA50194010E9416
:101E4000CB0FF22FD32ECA01015011096A3014F4BE
:101E5000E0E301C0E7E3E60FD801EC93232B242B4A
:101E6000252B49F7B801C7010E94B20EA1960FB603
:101E7000F894DEBF0FBECDBFDF91CF911F910F91C0
:101E8000FF90EF90DF90BF90AF909F908F9008955C
:101E9000CF92DF92EF92FF920F931F93CF93DF9336
:101EA000EC016A017B012115310579F4E881F981A2
:101EB0000190F081E02D642FDF91CF911F910F9160
:101EC000FF90EF90DF90CF9009942A303105E9F42C
:101ED00077FF1AC06DE20E94CA0E8C014427552775
:101EE000BA014C195D096E097F092AE0CE010E94F2
:101EF000F90E800F911FDF91CF911F910F91FF90ED
:101F0000EF90DF90CF9008952AE0B701A601CE01AF
:101F1000DF91CF911F910F91FF90EF90DF90CF90C5
:101F20000C94F90E9A01AB01662757FD6095762F48
:101F30000C94480F2115310541F4DC01ED91FC9121
:101F40000190F081E02D642F09940C94F90E9A0110
:101F5000462F50E060E070E00C949A0F08950E94C4
:101F6000A40B0E94AE0F0E948D00CDECDCE00E941D
:101F7000D3012097E1F30E94CD0CF9CF0895991B6E
:101F800079E004C0991F961708F0961B881F7A9570
:101F9000C9F780950895A1E21A2EAA1BBB1BFD016B
:101FA0000DC0AA1FBB1FEE1FFF1FA217B307E40738
:101FB000F50720F0A21BB30BE40BF50B661F771F90
:101FC000881F991F1A9469F7609570958095909570
:101FD0009B01AC01BD01CF010895EE0FFF1F0590DD
:101FE000F491E02D0994AEE0B0E0E9EFFFE00C944D
:101FF0009B120D891E8986E08C831A8309838FEFDB
:102000009FE79E838D83AE01475E5F4F6F89788D1A
:10201000CE0101960E941510EF81F885E00FF11FA7
:1020200010822E96E4E00C94B712ACE0B0E0EBE145
:10203000F0E10C948D127C016B018A01FC01178286
:102040001682838181FFBDC1CE0101964C01F7014B
:102050009381F60193FD859193FF81916F01882310
:1020600009F4ABC1853239F493FD859193FF8191D9
:102070006F01853229F4B70190E00E94FD11E7CF8E
:10208000512C312C20E02032A0F48B3269F030F456
:10209000803259F0833269F420612CC08D3239F0DE
:1020A000803339F4216026C02260246023C0286078
:1020B00021C027FD27C030ED380F3A3078F426FFD5
:1020C00006C0FAE05F9E300D1124532E13C08AE043
:1020D000389E300D1124332E20620CC08E3221F434
:1020E00026FD6BC1206406C08C3611F4206802C046
:1020F000883641F4F60193FD859193FF81916F013C
:102100008111C1CF982F9F7D9554933028F40C5F97
:102110001F4FFFE3F9830DC0833631F0833771F031
:10212000833509F05BC022C0F801808189830E5F8E
:102130001F4F44244394512C540115C03801F2E040
:102140006F0E711CF801A080B18026FF03C0652DC1
:1021500070E002C06FEF7FEFC5012C870E94F21183
:102160002C0183012C852F77222E17C03801F2E035
:102170006F0E711CF801A080B18026FF03C0652D91
:1021800070E002C06FEF7FEFC5012C870E94E7115E
:102190002C012C852068222E830123FC1BC0832D5B
:1021A00090E048165906B0F4B70180E290E00E9432
:1021B000FD113A94F4CFF50127FC859127FE81911A
:1021C0005F01B70190E00E94FD1131103A94F1E0F7
:1021D0004F1A51084114510471F7E5C0843611F0CB
:1021E000893639F5F80127FF07C060817181828146
:1021F00093810C5F1F4F08C060817181882777FD34
:102200008095982F0E5F1F4F2F76B22E97FF09C033
:1022100090958095709561957F4F8F4F9F4F206867
:10222000B22E2AE030E0A4010E942F12A82EA81896
:1022300044C0853729F42F7EB22E2AE030E025C035
:10224000F22FF97FBF2E8F36C1F018F4883579F060
:10225000B4C0803719F0883721F0AFC02F2F20612C
:10226000B22EB4FE0DC08B2D8460B82E09C024FFA1
:102270000AC09F2F9660B92E06C028E030E005C046
:1022800020E130E002C020E132E0F801B7FE07C0F3
:1022900060817181828193810C5F1F4F06C06081D4
:1022A000718180E090E00E5F1F4FA4010E942F1209
:1022B000A82EA818FB2DFF77BF2EB6FE0BC02B2D26
:1022C0002E7FA51450F4B4FE0AC0B2FC08C02B2D1A
:1022D0002E7E05C07A2C2B2D03C07A2C01C0752CC4
:1022E00024FF0DC0FE01EA0DF11D8081803311F441
:1022F000297E09C022FF06C07394739404C0822F04
:10230000867809F0739423FD13C020FF06C05A2C71
:10231000731418F4530C5718732C731468F4B70122
:1023200080E290E02C870E94FD1173942C85F5CFFC
:10233000731410F4371801C0312C24FF12C0B701F8
:1023400080E390E02C870E94FD112C8522FF17C0AE
:1023500021FF03C088E590E002C088E790E0B70164
:102360000CC0822F867859F021FD02C080E201C0A6
:102370008BE227FD8DE2B70190E00E94FD11A514CC
:1023800038F4B70180E390E00E94FD115A94F7CF32
:10239000AA94F401EA0DF11D8081B70190E00E943A
:1023A000FD11A110F5CF332009F451CEB70180E221
:1023B00090E00E94FD113A94F6CFF7018681978153
:1023C00002C08FEF9FEF2C96E2E10C94A912FC0162
:1023D0000590615070400110D8F7809590958E0F50
:1023E0009F1F0895FC016150704001900110D8F7C3
:1023F000809590958E0F9F1F08950F931F93CF93F5
:10240000DF93182F092FEB018B8181FD03C08FEF24
:102410009FEF20C082FF10C04E815F812C813D81E3
:10242000421753077CF4E881F9819F012F5F3F4FEA
:1024300039832883108306C0E885F985812F0995A3
:10244000892B29F72E813F812F5F3F4F3F832E83BA
:10245000812F902FDF91CF911F910F910895FA0155
:10246000AA27283051F1203181F1E8946F936E7FD3
:102470006E5F7F4F8F4F9F4FAF4FB1E03ED0B4E0C4
:102480003CD0670F781F891F9A1FA11D680F791F05
:102490008A1F911DA11D6A0F711D811D911DA11D16
:1024A00020D009F468943F912AE0269F1124301926
:1024B000305D3193DEF6CF010895462F4770405DC1
:1024C0004193B3E00FD0C9F7F6CF462F4F70405D70
:1024D0004A3318F0495D31FD4052419302D0A9F7CB
:1024E000EACFB4E0A6959795879577956795BA95C5
:1024F000C9F700976105710508959B01AC010A2E8B
:1025000006945795479537952795BA95C9F7620F61
:10251000731F841F951FA01D08952F923F924F9205
:102520005F926F927F928F929F92AF92BF92CF9263
:10253000DF92EF92FF920F931F93CF93DF93CDB76C
:10254000DEB7CA1BDB0B0FB6F894DEBF0FBECDBFE4
:1025500009942A88398848885F846E847D848C84B5
:102560009B84AA84B984C884DF80EE80FD800C81BE
:102570001B81AA81B981CE0FD11D0FB6F894DEBFA1
:0C2580000FBECDBFED010895F894FFCF11
:10258C00820A820A73616D706C65456E6372797034
:10259C00744B6579000A4C697374656E696E6720BB
:1025AC006174202564204D687A2E2E2E00535049DC
:1025BC0020466C61736820496E6974204F4B2E2045
:1025CC00556E69717565204D4143203D205B00536C
:1025DC00504920466C617368204D454D206E6F74D8
:1025EC0020666F756E64202869732063686970209B
:1025FC00736F6C64657265643F292E2E2E005246F3
:10260C004D36395F41544320456E61626C656420E0
:10261C00284175746F205472616E736D69737369A0
:10262C006F6E20436F6E74726F6C29004E4E65771F
:10263C002074616720666F756E6421004F4F6B21AB
:10264C00004E4E6F7468696E6700232C00746F2007
:10265C005B005D20002C52585F525353493A0041A5
:10266C00434B2073656E742C0050696E67696E67FE
:10267C00206E6F6465002C41434B2E2E2E0041437F
:10268C004B2054455354002C6F6B21002C6E6F74EF
:10269C0068696E670000000000E1066B071F03AF5E
:1026AC00082E0734042F06C3071409450924094EC4
:1026BC00070903FA02000000001E0D8A0EA00CB9D7
:1026CC000CAB0CFC0C0D0A006E616E00696E6600A2
:0426DC006F766600AF
:00000001FF
