:100000000C9463000C945C0A0C94830A0C948B008F
:100010000C948B000C948B000C948B000C948B0034
:100020000C948B000C948B000C948B000C948B0024
:100030000C948B000C948B000C948B000C948B0014
:100040000C94AA0A0C948B000C949E0D0C94D00D69
:100050000C948B000C948B000C948B000C948B00F4
:100060000C948B000C948B0000000008000201002F
:100070000003040700000000000000000102040863
:100080001020408001020408102001020408102002
:10009000040404040404040402020202020203032E
:1000A00003030303000000002300260029000000D2
:1000B0000000250028002B0000000000240027007D
:1000C0002A00B401000E11241FBECFEFD8E0DEBF1E
:1000D000CDBF12E0A0E0B1E0E6EEF4E202C0059090
:1000E0000D92A432B107D9F723E0A4E2B2E001C037
:1000F0001D92A834B207E1F710E0C6ECD0E004C0CE
:100100002297FE010E949C0FC23CD107C9F70E94B2
:10011000680F0C9471120C9400000F931F93CF93EF
:10012000DF93CDB7DEB7E2970FB6F894DEBF0FBE10
:10013000CDBF26E040E052EC61E070E08BEA92E057
:100140000E943C0D6AE070E080E090E00E94230B8A
:1001500024E641E06BE28CE392E00E94B507E09177
:100160003C02F0913D020084F185E02D61E08CE3DA
:1001700092E0099564E071E08CE392E00E9438041B
:10018000609134028CE392E00E94210781E08F931A
:1001900081EB8F9385E191E09F938F938E010F5FA9
:1001A0001F4F1F930F930E94A00FB8018BEA92E09C
:1001B0000E948E0E85E392E00E940A0A0F900F9033
:1001C0000F900F900F900F90882321F16DE271E056
:1001D0008BEA92E00E94810E85E392E00E94D509AD
:1001E0000AE912E0F80161918F0140E150E08BEAE9
:1001F00092E00E94600F6AE38BEA92E00E94830E15
:10020000F2E0023A1F0771F76DE58BEA92E00E9477
:10021000A00E06C06FE471E08BEA92E00E948E0EA1
:100220006EE771E08BEA92E00E948E0EE2960FB6C6
:10023000F894DEBF0FBECDBFDF91CF911F910F911C
:1002400008951F93CF93DF93182FEB0161E00E9475
:10025000C10B61E0812F0E94FA0BBE01882777FD58
:100260008095982F0E94230B60E0812FDF91CF9122
:100270001F910C94FA0B6F927F928F929F92AF9284
:10028000BF92CF92DF92EF92FF920F931F93CF9383
:10029000DF931F92CDB7DEB76DB67EB6E62EF12C9A
:1002A00015E0619FA00111249A012F5F3F4F6DB7A8
:1002B0007EB7621B730B0FB6F8947EBF0FBE6DBF87
:1002C0006F5F7F4FDC0120E030E000E3C02EE8E705
:1002D000BE2EF0E2AF2EFD01E81BF90BEE15FF0577
:1002E00034F5ED91DE2ED2940FE0D0220E2F0F7058
:1002F000FB01E20FF31FC082B18210E3912E9D0C2F
:10030000928210E3912E900E9382A48219E0812EA6
:100310008D1420F417E3912ED90CD2820A3020F0EC
:10032000D38017E0D10ED3822B5F3F4FD4CFFB0198
:10033000E40FF51F10828BEA92E00E94810E0FB647
:10034000F8947EBE0FBE6DBE0F90DF91CF911F91CE
:100350000F91FF90EF90DF90CF90BF90AF909F9064
:100360008F907F906F9008958AE080933E0282E0A4
:1003700080933F021092400281E0809357021092D6
:1003800042028FE1809343021092440288EE91E092
:1003900090933D0280933C0240E35FEE68E085E38A
:1003A00092E00C943809EF920F938BEA92E00E944E
:1003B000590C18161906A4F58BEA92E00E94720CEB
:1003C0008E3669F4809325026CEA71E08BEA92E044
:1003D0000E948E0EB8E2EB2E02E021E01AC08F36AA
:1003E000F9F48093250260EC71E08BEA92E00E94C0
:1003F0008E0E8BEA92E00E94720C809326028BEAAA
:1004000092E00E94720C80932802A8E2EA2E02E099
:1004100023E045E252E062E08CE392E00E94240790
:10042000E0913C02F0913D020480F581E02D8CE3E7
:1004300092E00995882309F488C06DEC71E08BEA9D
:1004400092E00E94810E4091300250913102609101
:100450003202709133024F5F5F4F6F4F7F4F409377
:1004600030025093310260933202709333022AE0DB
:1004700030E08BEA92E00E94530F6CE28BEA92E04C
:100480000E94830E6CE28BEA92E00E94830E6091E0
:1004900055024AE050E08BEA92E00E94600F6EEC59
:1004A00071E08BEA92E00E94810E80915502809368
:1004B000240220E080915602281760F4822F90E0F9
:1004C000FC01E85AFD4F3081FC01E75DFD4F3083B0
:1004D0002F5FF0CF67E089E292E00E943B0160ED80
:1004E00071E08BEA92E00E94810E60914F02709160
:1004F00050024AE050E08BEA92E00E944B0F6EEC13
:1005000071E08BEA92E00E94810E8CE392E00E94FF
:1005100021038823D1F08091550240E066E172E02A
:100520008CE392E00E9468086AED71E08BEA92E049
:100530000E94810E8BEA92E00E948A0E63E070E0D6
:1005400089E00F91EF900C9421010F91EF900895A5
:1005500080914D0290914E02DC01ED91FC9104845A
:10056000F585E02D0994CF93DF93EC0161E08A815A
:100570000E94FA0B89858CBD8A858DBD7894DF91A8
:10058000CF910895FC01F8948CB581878DB5828751
:100590008CB5837F8CBD8CB58F7D8CBD8CB58C7FED
:1005A0008CBD8DB58E7F8DBD60E082810C94FA0B81
:1005B000F89420915702233021F420915302211105
:1005C0000FC020915702233011F4789407C0DC014A
:1005D000ED91FC910288F389E02D099580E0089562
:1005E000DC01ED91FC910488F589E02D61E009952D
:1005F00081E008958EBD00000DB407FEFDCF8EB5DD
:100600000895CF93DF931F92CDB7DEB7DC01ED9154
:10061000FC910480F581E02D698309956981882327
:1006200059F080915502861711F06F3F29F490918F
:10063000510281E0911101C080E00F90DF91CF91D4
:10064000089580915202882329F09091540281E00C
:100650009F3F09F480E00895EF92FF921F93CF939C
:10066000DF931F92CDB7DEB77C01DC01ED91FC91E9
:10067000008CF18DE02D698309956981862F8F7734
:100680000E94FA0280E00E94FA02182FD701ED9131
:10069000FC91028CF38DE02DC7010995812F0F90FD
:1006A000DF91CF911F91FF90EF9008950F931F93CB
:1006B000CF93DF9300D0CDB7DEB78C01DC01ED9195
:1006C000FC91008CF18DE02D4A8369830995698145
:1006D000862F80680E94FA024A81842F0E94FA02C3
:1006E000D801ED91FC91028CF38DE02DC8010F90A3
:1006F0000F90DF91CF911F910F9109941F93CF938A
:10070000DF93EC01162F80915702681709F461C03E
:10071000623009F440C070F4662309F444C06130CB
:1007200009F057C061E0CE010E942C03482F437EA0
:1007300044603FC06330C1F0643009F04AC061E0FA
:10074000CE010E942C03482F437E4C6061E0CE0115
:100750000E9456038885882381F1E881F981068803
:10076000F789E02D61E014C061E0CE010E942C0306
:10077000482F437E406161E0CE010E945603888588
:100780008823D9F0E881F9810688F789E02D60E0B7
:10079000CE01099512C061E0CE010E942C03482FC2
:1007A000437E486006C061E0CE010E942C03482FC2
:1007B000437E61E0CE010E94560380915702811171
:1007C00006C067E2CE010E942C0387FFF6CF10938C
:1007D0005702DF91CF911F910895CF93DF93EC01E2
:1007E000603208F06FE16F838885882311F0669589
:1007F0006F8361E1CE010E942C03482F407E8F81E0
:10080000482B61E1CE01DF91CF910C945603CF9339
:10081000DF93EC011092560210925502109254028E
:1008200010925302109252021092510210925002F2
:1008300010924F0268E20E942C0382FF0AC06DE30F
:10084000CE010E942C03482F44606DE3CE010E942C
:10085000560340E465E2CE010E945603E881F98127
:100860000488F589E02D63E0CE01DF91CF910994F2
:10087000DF92EF92FF920F931F93CF93DF93EC01E0
:100880008B01E881F9810488F589E02D61E0099503
:1008900001151105E1F0E881F981008CF18DE02D61
:1008A000CE0109958EEB0E94FA027801D12CF70156
:1008B00081917F010E94FA02D394F0E1DF12F7CF19
:1008C000E881F981028CF38DE02DCE0109956DE36D
:1008D000CE010E942C038E7F91E0012B09F490E061
:1008E000482F492B6DE3CE01DF91CF911F910F91DE
:1008F000FF90EF90DF900C9456038F929F92AF92EF
:10090000BF92DF92EF92FF920F931F93CF93DF93EB
:10091000CDB7DEB7AE970FB6F894DEBF0FBECDBF32
:100920007C01D42E8EE28E010F5F1F4FD801E82F7D
:100930001D92EA95E9F791E0998334E03A8342E029
:100940004B8393E09D834E833F8340E4488735E0AB
:1009500039879A8796E09B8793E39C8737E03D87AA
:1009600098E09F8799E0998B99E19B8B92E49C8B0F
:1009700055E25D8B4E8B46E24F8B388F38E2398FD4
:1009800030E13A8F39E23B8F3CED3C8F8D8F88E828
:100990008E8F8FE28F8F8DE288A380E389A337E368
:1009A0003BA330E93CA338E33DA39EA39CE39FA374
:1009B0009FE898A79DE399A792E19AA79FE69BA736
:1009C0008CA78FEF8DA76F3131F06B3231F0663528
:1009D00031F489ED05C08EE403C08CE601C084EEDD
:1009E0008E876F3141F06B3221F0663521F480E063
:1009F00003C080E401C080EC888B2AA361E0D701AA
:100A000012968C910E94FA0B61E0F70182810E949C
:100A1000C10B0E9402090E94F40A4B015C014AEAE0
:100A20006FE2C7010E9456036FE2C7010E942C03C8
:100A30008A3A59F00E94F40A681979098A099B09CF
:100A4000623371058105910550F30E94F40A4B0150
:100A50005C0145E56FE2C7010E9456036FE2C701E2
:100A60000E942C03853559F00E94F40A681979090F
:100A70008A099B09623371058105910550F3B12CF8
:100A8000F801EB0DF11DEB0DF11D60816F3F31F0B1
:100A90004181C7010E945603B394F2CF60E070E039
:100AA000C7010E943804D701ED91FC911197008491
:100AB000F185E02D18966C91C7010995D701ED914C
:100AC000FC910488F589E02D61E0C70109950E9439
:100AD000F40A4B015C0167E2C7010E942C0387FD09
:100AE0000BC00E94F40A681979098A099B096233CC
:100AF00071058105910578F30E94F40A6819790956
:100B00008A099B09623371058105910588F443E0E8
:100B100050E068EA72E0F70184810E943C0AF0929A
:100B20004E02E0924D02D7011596DC9281E001C0A1
:100B300080E0AE960FB6F894DEBF0FBECDBFDF915A
:100B4000CF911F910F91FF90EF90DF90BF90AF90EA
:100B50009F908F900895CF93DF93EC0161110DC0AA
:100B600064E2CE010E942C0390E091958195910959
:100B700095958795DF91CF91089541E063E20E94BA
:100B8000560363E2CE010E942C0381FFFACFE8CF27
:100B9000CF93DF93EC01809157028330A9F48091C9
:100BA0005302811111C060E0CE010E94AB05863A6C
:100BB0009F4F54F4E881F9810488F589E02D61E0C4
:100BC000CE01099581E001C080E0DF91CF910895C9
:100BD000FF920F931F93CF93DF93EC018091570205
:100BE000833001F568E2CE010E942C0382FD28C00B
:100BF00019C0809156028D3330F4E0915602F0E036
:100C0000E85AFD4F1082E881F981028CF38DE02DC6
:100C1000CE010995E881F9810488F589E02D63E02A
:100C2000CE01099560E0CE010E94AB059093500281
:100C300080934F02DF91CF911F910F91FF90089504
:100C4000E881F9810488F589E02D61E0CE010995FC
:100C5000E881F981008CF18DE02DCE01099580E0CD
:100C60000E94FA0280E00E94FA028093530280916F
:100C700053028334D0F4809153028093530280E076
:100C80000E94FA02809354028E81811109C09091D2
:100C900054028D81981721F0809154028F3F39F4CE
:100CA00080915302833018F017C082E4E6CF10928F
:100CB0005302E881F981028CF38DE02DCE01099574
:100CC000E881F9810288F389E02DCE01DF91CF918F
:100CD0001F910F91FF90099480915302835080934C
:100CE000560280E00E94FA028093550280E00E9442
:100CF000FA02982F907890935102982F90749093C5
:100D00005202E881F9810684F785E02D682FCE0133
:100D10000995F12C80915602F81608F06ACF0F2D34
:100D200010E080E00E94FA02F801E85AFD4F80834B
:100D3000F394F0CF4F925F926F927F929F92AF9217
:100D4000BF92EF920F931F93CF93DF93EC01162F77
:100D50005A01922E6DE30E942C03482F44606DE3EC
:100D6000CE010E9456030E94F40A2B013C01CE01E1
:100D70000E94C8058823C1F0E881F9810088F189C3
:100D8000E02DE12C292DA501612FCE010995DF91E0
:100D9000CF911F910F91EF90BF90AF909F907F9058
:100DA0006F905F904F9008950E94F40A641975093E
:100DB00086099709683E734081059105E8F6E88148
:100DC000F9810480F581E02DCE010995D0CFCF9334
:100DD000DF93EC016887662311F04FE001C04AE120
:100DE00063E1CE010E9456038885882341F061E1CA
:100DF000CE010E942C03482F4F71406602C04F81E4
:100E0000406861E1CE01DF91CF910C9456031F93AE
:100E1000CF93DF93EC01162F662311F04DE501C04F
:100E200045E56AE5CE010E945603112311F04CE717
:100E300001C040E76CE5CE01DF91CF911F910C948A
:100E40005603FC01668308952F923F924F925F9262
:100E50007F928F929F92AF92BF92CF92DF92EF924A
:100E6000FF920F931F93CF93DF93EC01962E5A01BD
:100E7000722E802E10E0CE2CD12CE12CF12CE881AA
:100E8000F9810190F081E02D01E0272DA501692D68
:100E9000CE0109950E94F40A1B012C010E94F40A5C
:100EA00062197309840995096C157D058E059F05E6
:100EB00040F4692DCE010E940103882379F381E07B
:100EC00009C01F5F8116D8F68D858F3110F48F5FB2
:100ED0008D8780E0DF91CF911F910F91FF90EF9070
:100EE000DF90CF90BF90AF909F908F907F905F905A
:100EF0004F903F902F900895CF93DF93EC01607255
:100F00006093950280915102882361F1809195024E
:100F1000882341F180915602882321F180E00E94CC
:100F2000FA0290E09195819591099F878E87209193
:100F300056022150209356022B853C852115310500
:100F400089F08217930734F44D854F3118F44F5FC1
:100F50004D8708C0281739072CF48D85882311F098
:100F600081508D87DF91CF910895FC0114861386FF
:100F700017861686109295023FE135870C947D0402
:100F80008F929F92AF92BF92CF92DF92EF92FF9299
:100F90000F931F93CF93DF93EC01F62ED42E152FD2
:100FA000822E902EE881F9810488F589E02D61E098
:100FB000099567E2CE010E942C0387FFFACF40E03B
:100FC00065E2CE010E945603EE2011F00C2D01C007
:100FD00000E0080D0E3308F00DE3E881F981008C84
:100FE000F18DE02DCE01099580E80E94FA0283E0A0
:100FF000800F0E94FA028F2D0E94FA028D810E94BA
:10100000FA02EE2099F0CC2011F080EA01C080E8CD
:101010000E94FA02CC20B9F0C501B7FE03C0919539
:10102000819591090E94FA0201500DC0992041F06A
:101030008B859C85892B11F080E603C080E401C07C
:1010400080E00E94FA02CD2CED2CF12E8E2D8C1911
:10105000801730F4F70181917F010E94FA02F6CFE8
:10106000E881F981028CF38DE02DCE010995E881AC
:10107000F9810488F589E02D64E0CE0109950E948C
:10108000F40A6B017C018B810E94300C892BA1F04A
:10109000E881F9810488F589E02D61E0CE01DF91D6
:1010A000CF911F910F91FF90EF90DF90CF90BF9065
:1010B000AF909F908F9009940E94F40A6C197D095B
:1010C0008E099F09683E73408105910508F7DBCFC3
:1010D0006F927F928F929F92AF92BF92CF92DF9248
:1010E000EF92FF920F931F93CF93DF93EC013B019D
:1010F000F42E109252021091550280904F0290905F
:1011000050028091950201E0811101C000E06DE381
:10111000CE010E942C03482F44606DE3CE010E9453
:1011200056030E94F40A5B016C01CE010E94C805BF
:10113000882301F1109355025401C02EEE24E3944C
:1011400000E02F2DA301612FCE010E94C0079092D5
:10115000500280924F02DF91CF911F910F91FF902B
:10116000EF90DF90CF90BF90AF909F908F907F9047
:101170006F9008950E94F40A6A197B098C099D09F1
:10118000683E734081059105A8F6E881F9810480E5
:10119000F581E02DCE010995C8CFAF92BF92CF92D5
:1011A000EF920F93A12CB12CC12C0E94C0070F917C
:1011B000EF90CF90BF90AF9008951F93CF93DF93A0
:1011C000EC01162F809157026817A1F0CE010E9402
:1011D0007E03143079F48B859C85892B59F0E88146
:1011E000F9810284F385E02D6D85CE01DF91CF91E9
:1011F0001F910994DF91CF911F910895109295024C
:101200000C940704CF93CFB7F89480919902811181
:1012100027C0EAE9F0E08491E6E8F0E09491E82F55
:10122000F0E0EE0FFF1FE854FF4FA591B4918C91B1
:10123000892321F461E08AE00E94FA0B61E08AE0F0
:101240000E94C10B8CB580618CBD8CB580648CBD57
:1012500061E08DE00E94C10B61E08BE00E94C10B58
:10126000809199028F5F80939902CFBFCF910895AB
:10127000FC0180E585831682608352834183089553
:10128000FC018CB583838DB5848335812681809163
:101290009802882399F09FB7F89480919802813042
:1012A00059F48DB3809396024DB380919702809547
:1012B00084238DBB9FBF02C0909396023CBD2DBD81
:1012C00060E080810C94FA0BCF93DF93EC0161E036
:1012D00088810E94FA0B80919802882361F09FB761
:1012E000F8942091980280919602213019F48DBBD8
:1012F0009FBF01C08FBF8B818CBD8C818DBDDF9165
:10130000CF9108950F931F93CF93DF938C010E9489
:1013100040098FE90E94FA0280E00E94FA02C82F79
:10132000D0E0DC2FCC2780E00E94FA02C82BC80155
:101330000E946409CE01DF91CF911F910F91089512
:101340001F93CF93DF93EC010E94400985E00E9438
:10135000FA0280E00E94FA02182FCE010E9464096E
:10136000812FDF91CF911F9108950E94A009817074
:1013700008951F93CF93DF93EC01162F442339F088
:1013800040E066E00E94B909CE010E946409CE01E6
:101390000E94B5098111FBCFCE010E944009812F27
:1013A000DF91CF911F910C94FA020F931F93CF936B
:1013B000DF938C0140E06BE40E94B90980E00E9459
:1013C000FA0280E00E94FA0280E00E94FA0280E0C5
:1013D0000E94FA02CAE9D2E080E00E94FA028993F0
:1013E00082E0C23AD807C1F7C8010E9464098AE9BD
:1013F00092E0DF91CF911F910F910895CF93DF93EA
:10140000EC0140E06BEA0E94B909CE01DF91CF9177
:101410000C946409CF93DF93EC018CB58B838DB56D
:101420008C8361E088810E94C10B80E58D831E82E0
:10143000CE010E946409CE010E94FE0989819A8131
:10144000892B51F0CE010E94820929813A818217AD
:10145000930711F080E00CC041E061E0CE010E94F2
:10146000B90980E00E94FA02CE010E94640981E07D
:10147000DF91CF91089508958230E8F4E82FF0E0ED
:10148000EE0FFF1FE050FF4F71836083813041F00A
:10149000809169008C7F842B80936900E89A08957D
:1014A00080916900440F551F440F551F837F842B83
:1014B00080936900E99A08951F920F920FB60F92D8
:1014C00011242F933F934F935F936F937F938F9349
:1014D0009F93AF93BF93EF93FF93E0910001F0913F
:1014E00001010995FF91EF91BF91AF919F918F916C
:1014F0007F916F915F914F913F912F910F900FBE10
:101500000F901F9018951F920F920FB60F921124F3
:101510002F933F934F935F936F937F938F939F93FB
:10152000AF93BF93EF93FF93E0910201F09103011A
:101530000995FF91EF91BF91AF919F918F917F910D
:101540006F915F914F913F912F910F900FBE0F9030
:101550001F9018951F920F920FB60F9211242F9380
:101560003F938F939F93AF93BF938091A3029091EA
:10157000A402A091A502B091A6023091A20223E09C
:10158000230F2D3720F40196A11DB11D05C026E8BB
:10159000230F0296A11DB11D2093A2028093A302E6
:1015A0009093A402A093A502B093A6028091A702F3
:1015B0009091A802A091A902B091AA020196A11D42
:1015C000B11D8093A7029093A802A093A902B093A3
:1015D000AA02BF91AF919F918F913F912F910F9050
:1015E0000FBE0F901F9018952FB7F8946091A3022B
:1015F0007091A4028091A5029091A6022FBF089538
:101600003FB7F8948091A7029091A802A091A902F7
:10161000B091AA0226B5A89B05C02F3F19F00196EC
:10162000A11DB11D3FBF6627782F892F9A2F620F0A
:10163000711D811D911D42E0660F771F881F991F44
:101640004A95D1F708958F929F92AF92BF92CF9211
:10165000DF92EF92FF926B017C010E94000B4B0125
:101660005C01C114D104E104F104F1F00E94770F90
:101670000E94000B681979098A099B09683E73402A
:101680008105910570F321E0C21AD108E108F10843
:1016900088EE880E83E0981EA11CB11CC114D104F1
:1016A000E104F10429F7DDCFFF90EF90DF90CF90B8
:1016B000BF90AF909F908F900895789484B582608A
:1016C00084BD84B5816084BD85B5826085BD85B5E6
:1016D000816085BDEEE6F0E0808181608083E1E895
:1016E000F0E01082808182608083808181608083CD
:1016F000E0E8F0E0808181608083E1EBF0E08081D0
:1017000084608083E0EBF0E0808181608083EAE7A1
:10171000F0E080818460808380818260808380812A
:10172000816080838081806880831092C1000895E9
:10173000833081F028F4813099F08230A1F008954F
:101740008730A9F08830B9F08430D1F480918000DE
:101750008F7D03C0809180008F77809380000895F3
:1017600084B58F7702C084B58F7D84BD0895809144
:10177000B0008F7703C08091B0008F7D8093B00060
:101780000895CF93DF9390E0FC01E458FF4F24913C
:10179000FC01E057FF4F8491882349F190E0880FC6
:1017A000991FFC01E854FF4FA591B49182559F4FBA
:1017B000FC01C591D4919FB7611108C0F8948C9138
:1017C000209582238C93888182230AC0623051F451
:1017D000F8948C91322F309583238C938881822BBF
:1017E000888304C0F8948C91822B8C939FBFDF91E7
:1017F000CF9108950F931F93CF93DF931F92CDB78F
:10180000DEB7282F30E0F901E859FF4F8491F90144
:10181000E458FF4F1491F901E057FF4F0491002362
:10182000C9F0882321F069830E94980B6981E02F19
:10183000F0E0EE0FFF1FE255FF4FA591B4919FB767
:10184000F8948C91611103C01095812301C0812B04
:101850008C939FBF0F90DF91CF911F910F910895AF
:10186000CF93DF93282F30E0F901E859FF4F84919F
:10187000F901E458FF4FD491F901E057FF4FC491AB
:10188000CC2391F081110E94980BEC2FF0E0EE0F29
:10189000FF1FEC55FF4FA591B4912C912D2381E0B2
:1018A00090E021F480E002C080E090E0DF91CF91F1
:1018B0000895FC01818D228D90E0805C9F4F821BFA
:1018C00091098F7399270895FC01918D828D981746
:1018D00031F0828DE80FF11D858D90E008958FEF36
:1018E0009FEF0895FC01918D828D981761F0828D94
:1018F000DF01A80FB11D5D968C91928D9F5F9F7344
:10190000928F90E008958FEF9FEF089586EF9DE00E
:10191000892B49F080E090E0892B29F00E94F60D98
:1019200081110C9400000895FC01848DDF01A80F43
:10193000B11DA35ABF4F2C91848D90E001968F73F7
:101940009927848FA689B7892C93A089B1898C9116
:1019500080648C93938D848D981306C00288F389DC
:10196000E02D80818F7D80830895CF93DF93EC01FC
:10197000888D8823C9F0EA89FB89808185FD05C0AF
:10198000A889B9898C9186FD0FC00FB607FCF5CFE9
:10199000808185FFF2CFA889B9898C9185FFEDCF31
:1019A000CE010E94940CE7CFDF91CF910895CF92A2
:1019B000DF92FF920F931F93CF93DF931F92CDB7C8
:1019C000DEB76C0181E0D60158968C9358975B96F0
:1019D0009C915B975C968C915C97981307C050968E
:1019E000ED91FC915197808185FD2EC0F601038D0C
:1019F00010E00F5F1F4F0F731127F02EF601848D3B
:101A0000F81211C00FB607FCF9CFD6015096ED9130
:101A1000FC915197808185FFF1CFC60169830E94B7
:101A2000940C6981EBCF838DE80FF11DE35AFF4FD2
:101A30006083D6015B960C935B975296ED91FC9177
:101A40005397808180620CC0D6015696ED91FC912F
:101A5000579760835096ED91FC91519780818064F7
:101A6000808381E090E00F90DF91CF911F910F91E3
:101A7000FF90DF90CF900895BF92CF92DF92EF92C8
:101A8000FF92CF93DF93EC016A017B01B22EE889CC
:101A9000F98982E08083411581EE5807610571055F
:101AA000A1F060E079E08DE390E0A70196010E944B
:101AB000780F2150310941095109569547953795BD
:101AC0002795211580E1380798F0E889F989108277
:101AD00060E874E88EE190E0A70196010E94780F1B
:101AE0002150310941095109569547953795279558
:101AF000EC85FD853083EE85FF852083188EEC898B
:101B0000FD89B082EA89FB89808180618083EA89CE
:101B1000FB89808188608083EA89FB898081806875
:101B20008083EA89FB8980818F7D8083DF91CF91DB
:101B3000FF90EF90DF90CF90BF9008951F920F928B
:101B40000FB60F9211242F938F939F93EF93FF93D0
:101B5000E091BB02F091BC028081E091C102F09162
:101B6000C20282FD12C090818091C4028F5F8F7388
:101B70002091C502821751F0E091C402F0E0E555D2
:101B8000FD4F958F8093C40201C08081FF91EF913A
:101B90009F918F912F910F900FBE0F901F901895CE
:101BA0001F920F920FB60F9211242F933F934F93D2
:101BB0005F936F937F938F939F93AF93BF93EF93B5
:101BC000FF938BEA92E00E94940CFF91EF91BF91FA
:101BD000AF919F918F917F916F915F914F913F91C5
:101BE0002F910F900FBE0F901F9018958BEA92E0E7
:101BF0000E94590C21E0892B09F420E0822F0895DE
:101C00001092AE021092AD0288EE93E0A0E0B0E038
:101C10008093AF029093B002A093B102B093B2024E
:101C200088E092E09093AC028093AB0285EC90E068
:101C30009093B8028093B70284EC90E09093BA023C
:101C40008093B90280EC90E09093BC028093BB0239
:101C500081EC90E09093BE028093BD0282EC90E014
:101C60009093C0028093BF0286EC90E09093C202F2
:101C70008093C1021092C4021092C5021092C60253
:101C80001092C7020895CF92DF92EF92FF920F93C6
:101C90001F93CF93DF937C016A01EB0100E010E01A
:101CA0000C151D0571F06991D701ED91FC91019022
:101CB000F081E02DC7010995892B19F00F5F1F4FA7
:101CC000EFCFC801DF91CF911F910F91FF90EF905F
:101CD000DF90CF9008956115710581F0DB010D90C3
:101CE0000020E9F7AD0141505109461B570BDC01BB
:101CF000ED91FC910280F381E02D099480E090E069
:101D000008950C946B0EDC01ED91FC910190F08133
:101D1000E02D099464E172E00C946B0E0F931F9315
:101D2000CF93DF93EC010E946B0E8C01CE010E94D9
:101D30008A0E800F911FDF91CF911F910F9108950F
:101D40000F931F93CF93DF93EC010E94830E8C01BE
:101D5000CE010E948A0E800F911FDF91CF911F91BB
:101D60000F9108958F929F92AF92BF92DF92EF9260
:101D7000FF920F931F93CF93DF93CDB7DEB7A19759
:101D80000FB6F894DEBF0FBECDBF7C01F42FD52E69
:101D9000CB0119A2223008F42AE08E010F5D1F4FFB
:101DA000822E912CA12CB12C6F2F7D2DA501940199
:101DB0000E94780FF22FD32ECA01015011096A3008
:101DC00014F4E0E301C0E7E3E60FD801EC93232B22
:101DD000242B252B49F7B801C7010E946B0EA19651
:101DE0000FB6F894DEBF0FBECDBFDF91CF911F912C
:101DF0000F91FF90EF90DF90BF90AF909F908F90EA
:101E00000895CF92DF92EF92FF920F931F93CF939B
:101E1000DF93EC016A017B012115310579F4E8813A
:101E2000F9810190F081E02D642FDF91CF911F9116
:101E30000F91FF90EF90DF90CF9009942A303105F9
:101E4000E9F477FF1AC06DE20E94830E8C014427EB
:101E50005527BA014C195D096E097F092AE0CE01A8
:101E60000E94B20E800F911FDF91CF911F910F91B1
:101E7000FF90EF90DF90CF9008952AE0B701A60180
:101E8000CE01DF91CF911F910F91FF90EF90DF90E6
:101E9000CF900C94B20E9A01AB01662757FD609566
:101EA000762F0C94010F2115310541F4DC01ED91E1
:101EB000FC910190F081E02D642F09940C94B20EF6
:101EC0009A01462F50E060E070E00C94530F0895A3
:101ED0000E945D0B0E94670F0E948D00C6E8DCE047
:101EE0000E94D3012097E1F30E94860CF9CF089558
:101EF000A1E21A2EAA1BBB1BFD010DC0AA1FBB1F0E
:101F0000EE1FFF1FA217B307E407F50720F0A21B7F
:101F1000B30BE40BF50B661F771F881F991F1A94EC
:101F200069F760957095809590959B01AC01BD0116
:101F3000CF010895EE0FFF1F0590F491E02D099455
:101F4000AEE0B0E0E6EAFFE00C9448120D891E898D
:101F500086E08C831A8309838FEF9FE79E838D83AE
:101F6000AE01475E5F4F6F89788DCE0101960E946A
:101F7000C20FEF81F885E00FF11F10822E96E4E08A
:101F80000C946412ACE0B0E0E8ECFFE00C943A1280
:101F90007C016B018A01FC0117821682838181FF1B
:101FA000BDC1CE0101964C01F7019381F60193FD6D
:101FB000859193FF81916F01882309F4ABC185322C
:101FC00039F493FD859193FF81916F01853229F456
:101FD000B70190E00E94AA11E7CF512C312C20E0EC
:101FE0002032A0F48B3269F030F4803259F0833221
:101FF00069F420612CC08D3239F0803339F42160CE
:1020000026C02260246023C0286021C027FD27C08D
:1020100030ED380F3A3078F426FF06C0FAE05F9EC4
:10202000300D1124532E13C08AE0389E300D112438
:10203000332E20620CC08E3221F426FD6BC1206449
:1020400006C08C3611F4206802C0883641F4F601CF
:1020500093FD859193FF81916F018111C1CF982FDD
:102060009F7D9554933028F40C5F1F4FFFE3F98355
:102070000DC0833631F0833771F0833509F05BC0D2
:1020800022C0F801808189830E5F1F4F442443944E
:10209000512C540115C03801F2E06F0E711CF8018B
:1020A000A080B18026FF03C0652D70E002C06FEFF5
:1020B0007FEFC5012C870E949F112C0183012C8585
:1020C0002F77222E17C03801F2E06F0E711CF80135
:1020D000A080B18026FF03C0652D70E002C06FEFC5
:1020E0007FEFC5012C870E9494112C012C8520685C
:1020F000222E830123FC1BC0832D90E04816590635
:10210000B0F4B70180E290E00E94AA113A94F4CFB3
:10211000F50127FC859127FE81915F01B70190E0D1
:102120000E94AA1131103A94F1E04F1A510841145B
:10213000510471F7E5C0843611F0893639F5F8019C
:1021400027FF07C060817181828193810C5F1F4FDF
:1021500008C060817181882777FD8095982F0E5F78
:102160001F4F2F76B22E97FF09C0909580957095DE
:1021700061957F4F8F4F9F4F2068B22E2AE030E04D
:10218000A4010E94DC11A82EA81844C0853729F4A8
:102190002F7EB22E2AE030E025C0F22FF97FBF2E2D
:1021A0008F36C1F018F4883579F0B4C0803719F053
:1021B000883721F0AFC02F2F2061B22EB4FE0DC0A2
:1021C0008B2D8460B82E09C024FF0AC09F2F966013
:1021D000B92E06C028E030E005C020E130E002C0A2
:1021E00020E132E0F801B7FE07C060817181828191
:1021F00093810C5F1F4F06C06081718180E090E089
:102200000E5F1F4FA4010E94DC11A82EA818FB2D01
:10221000FF77BF2EB6FE0BC02B2D2E7FA51450F4DA
:10222000B4FE0AC0B2FC08C02B2D2E7E05C07A2C4D
:102230002B2D03C07A2C01C0752C24FF0DC0FE018C
:10224000EA0DF11D8081803311F4297E09C022FF3F
:1022500006C07394739404C0822F867809F0739437
:1022600023FD13C020FF06C05A2C731418F4530C1E
:102270005718732C731468F4B70180E290E02C8730
:102280000E94AA1173942C85F5CF731410F437189B
:1022900001C0312C24FF12C0B70180E390E02C87ED
:1022A0000E94AA112C8522FF17C021FF03C088E5D8
:1022B00090E002C088E790E0B7010CC0822F8678DA
:1022C00059F021FD02C080E201C08BE227FD8DE2C2
:1022D000B70190E00E94AA11A51438F4B70180E379
:1022E00090E00E94AA115A94F7CFAA94F401EA0D43
:1022F000F11D8081B70190E00E94AA11A110F5CFD5
:10230000332009F451CEB70180E290E00E94AA1177
:102310003A94F6CFF7018681978102C08FEF9FEF45
:102320002C96E2E10C945612FC010590615070402D
:102330000110D8F7809590958E0F9F1F0895FC018E
:102340006150704001900110D8F7809590958E0FE4
:102350009F1F08950F931F93CF93DF93182F092F7B
:10236000EB018B8181FD03C08FEF9FEF20C082FFC7
:1023700010C04E815F812C813D81421753077CF450
:10238000E881F9819F012F5F3F4F398328831083B4
:1023900006C0E885F985812F0995892B29F72E81BB
:1023A0003F812F5F3F4F3F832E83812F902FDF91FF
:1023B000CF911F910F910895FA01AA27283051F16A
:1023C000203181F1E8946F936E7F6E5F7F4F8F4F66
:1023D0009F4FAF4FB1E03ED0B4E03CD0670F781FC5
:1023E000891F9A1FA11D680F791F8A1F911DA11DAA
:1023F0006A0F711D811D911DA11D20D009F46894E3
:102400003F912AE0269F11243019305D3193DEF68A
:10241000CF010895462F4770405D4193B3E00FD040
:10242000C9F7F6CF462F4F70405D4A3318F0495D2B
:1024300031FD4052419302D0A9F7EACFB4E0A6950E
:102440009795879577956795BA95C9F70097610530
:10245000710508959B01AC010A2E06945795479586
:1024600037952795BA95C9F7620F731F841F951F7B
:10247000A01D08952F923F924F925F926F927F928C
:102480008F929F92AF92BF92CF92DF92EF92FF9284
:102490000F931F93CF93DF93CDB7DEB7CA1BDB0B30
:1024A0000FB6F894DEBF0FBECDBF09942A883988D5
:1024B00048885F846E847D848C849B84AA84B984DC
:1024C000C884DF80EE80FD800C811B81AA81B981E8
:1024D000CE0FD11D0FB6F894DEBF0FBECDBFED01FC
:0624E0000895F894FFCFFF
:1024E6003B0A3B0A73616D706C65456E6372797069
:1024F600744B6579000A4C697374656E696E672062
:102506006174202564204D687A2E2E2E0053504982
:1025160020466C61736820496E6974204F4B2E20EB
:10252600556E69717565204D4143203D205B005312
:10253600504920466C617368204D454D206E6F747E
:1025460020666F756E642028697320636869702041
:10255600736F6C64657265643F292E2E2E00524699
:102566004D36395F41544320456E61626C65642087
:10257600284175746F205472616E736D6973736947
:102586006F6E20436F6E74726F6C29004747573A1F
:10259600204E65772074616720666F756E64210032
:1025A6004747573A20506572736F6E2100232C00FF
:1025B6002C52585F525353493A0041434B2073659E
:1025C6006E742C00000000009A062407D8026808E2
:1025D600E706ED03E8057C07CD08FE08DD080707DA
:1025E600C202B30200000000D70C430E590C720C55
:1025F600640CB50C0D0A006E616E00696E66006FA4
:0426060076660000F4
:00000001FF
