:100000000C9463000C94CA0A0C94F10A0C948B00B3
:100010000C948B000C948B000C948B000C948B0034
:100020000C948B000C948B000C948B000C948B0024
:100030000C948B000C948B000C948B000C948B0014
:100040000C94180B0C948B000C940C0E0C943E0E1C
:100050000C948B000C948B000C948B000C948B00F4
:100060000C948B000C948B0000000008000201002F
:100070000003040700000000000000000102040863
:100080001020408001020408102001020408102002
:10009000040404040404040402020202020203032E
:1000A00003030303000000002300260029000000D2
:1000B0000000250028002B0000000000240027007D
:1000C0002A00B4016E0E11241FBECFEFD8E0DEBFB0
:1000D000CDBF12E0A0E0B1E0EAEDF5E202C005908C
:1000E0000D92A035B107D9F723E0A0E5B2E001C039
:1000F0001D92A937B207E1F710E0C6ECD0E004C0CA
:100100002297FE010E941610C23CD107C9F70E9437
:10011000D60F0C94EB120C9400000F931F93CF9307
:10012000DF93CDB7DEB7E2970FB6F894DEBF0FBE10
:10013000CDBF26E040E052EC61E070E08CED92E053
:100140000E94AA0D6AE070E080E090E00E94910BAE
:1001500024E641E06BE28DE692E00E942308E09104
:100160006D02F0916E020084F185E02D61E08DE674
:1001700092E0099564E071E08DE692E00E94A604A9
:10018000609165028DE692E00E948F0781E08F9377
:1001900081EB8F9385E191E09F938F938E010F5FA9
:1001A0001F4F1F930F930E941A10B8018CED92E01D
:1001B0000E94FC0E86E692E00E94780A0F900F9053
:1001C0000F900F900F900F90882321F16DE271E056
:1001D0008CED92E00E94EF0E86E692E00E94430AC8
:1001E0000BEC12E0F80161918F0140E150E08CEDE1
:1001F00092E00E94CE0F6AE38CED92E00E94F10E35
:10020000F2E0033D1F0771F76DE58CED92E00E946F
:100210000E0F06C06FE471E08CED92E00E94FC0EC0
:100220006EE771E08CED92E00E94FC0EE2960FB654
:10023000F894DEBF0FBECDBFDF91CF911F910F911C
:1002400008951F93CF93DF93182FEB0161E00E9475
:100250002F0C61E0812F0E94680CBE01882777FD7A
:100260008095982F0E94910B60E0812FDF91CF91B4
:100270001F910C94680C6F927F928F929F92AF9215
:10028000BF92CF92DF92EF92FF920F931F93CF9383
:10029000DF931F92CDB7DEB76DB67EB6E62EF12C9A
:1002A00015E0619FA00111249A012F5F3F4F6DB7A8
:1002B0007EB7621B730B0FB6F8947EBF0FBE6DBF87
:1002C0006F5F7F4FDC0120E030E000E3C02EE8E705
:1002D000BE2EF0E2AF2EFD01E81BF90BEE15FF0577
:1002E00034F5ED91DE2ED2940FE0D0220E2F0F7058
:1002F000FB01E20FF31FC082B18210E3912E9D0C2F
:10030000928210E3912E900E9382A48219E0812EA6
:100310008D1420F417E3912ED90CD2820A3020F0EC
:10032000D38017E0D10ED3822B5F3F4FD4CFFB0198
:10033000E40FF51F10828CED92E00E94EF0E0FB6D5
:10034000F8947EBE0FBE6DBE0F90DF91CF911F91CE
:100350000F91FF90EF90DF90CF90BF90AF909F9064
:100360008F907F906F9008958AE080936F0282E073
:10037000809370021092710281E080938802109243
:1003800073028FE1809374021092750285E192E00E
:1003900090936E0280936D0240E35FEE68E086E624
:1003A00092E00C94A609EF920F93CF93DF938CED1C
:1003B00092E00E94C70C181619060CF04CC0C0E55C
:1003C000D2E08CED92E00E94E00C899382E0C5358A
:1003D000D807B9F7809150028E3639F46CEA71E093
:1003E0008CED92E00E94FC0E36C08F36A1F5809114
:1003F000510290E0909358028093570280915302EB
:1004000090E0909356028093550264EB71E08CED7E
:1004100092E00E94EF0E60915702709158024AE0FC
:1004200050E08CED92E00E94B90F6AEB71E08CED28
:1004300092E00E94EF0E60915502709156024AE0E0
:1004400050E08CED92E00E94B90F6EEB71E08CED04
:1004500092E00E94EF0EE0916D02F0916E02048036
:10046000F581E02D8DE692E00995882309F4D9C045
:1004700066EC71E08CED92E00E94EF0E409160021C
:100480005091610260916202709163024F5F5F4F11
:100490006F4F7F4F409360025093610260936202FE
:1004A000709363022AE030E08CED92E00E94C10F6D
:1004B0006CE28CED92E00E94F10E6CE28CED92E029
:1004C0000E94F10E609186024AE050E08CED92E0CD
:1004D0000E94CE0F67EC71E08CED92E00E94EF0E6F
:1004E000809165028823A1F069EC71E08CED92E0C7
:1004F0000E94EF0E609185024AE050E08CED92E0A0
:100500000E94CE0F6EEC71E08CED92E00E94EF0E37
:1005100020E080918702281760F4822F90E0FC0190
:10052000E757FD4F3081FC01E75AFD4F30832F5FC5
:10053000F0CF67E089E592E00E943B0161ED71E058
:100540008CED92E00E94EF0E60918002709181022A
:100550004AE050E08CED92E00E94B90F67EC71E048
:100560008CED92E00E94EF0E8DE692E00E948F03E8
:10057000882309F449C0C091860240E063E472E038
:100580008DE692E00E94D6086BED71E08CED92E072
:100590000E94EF0E8091640291E0980F90936402A4
:1005A00063E00E94E60F91112FC065EE71E08CEDC3
:1005B00092E00E94EF0E4AE050E06C2F8CED92E04A
:1005C0000E94CE0F62EF71E08CED92E00E94EF0E80
:1005D00063E070E080E090E00E94910BA8E2EA2ED8
:1005E00000E028E04AEF51E06C2F8DE692E00E9497
:1005F0009207882319F063E072E002C068E072E0BD
:100600008CED92E00E94EF0E8CED92E00E94F80ECD
:1006100063E070E089E0DF91CF910F91EF900C944F
:100620002101DF91CF910F91EF90089580917E028B
:1006300090917F02DC01ED91FC910484F585E02D21
:100640000994CF93DF93EC0161E08A810E94680CEA
:1006500089858CBD8A858DBD7894DF91CF91089571
:10066000FC01F8948CB581878DB582878CB5837F2A
:100670008CBD8CB58F7D8CBD8CB58C7F8CBD8DB5C4
:100680008E7F8DBD60E082810C94680CF89420917F
:100690008802233021F42091840221110FC020917F
:1006A0008802233011F4789407C0DC01ED91FC91AD
:1006B0000288F389E02D099580E00895DC01ED9131
:1006C000FC910488F589E02D61E0099581E00895A9
:1006D0008EBD00000DB407FEFDCF8EB50895CF93FB
:1006E000DF931F92CDB7DEB7DC01ED91FC91048062
:1006F000F581E02D698309956981882359F08091FE
:100700008602861711F06F3F29F49091820281E0F2
:10071000911101C080E00F90DF91CF9108958091F9
:100720008302882329F09091850281E09F3F09F49C
:1007300080E00895EF92FF921F93CF93DF931F9273
:10074000CDB7DEB77C01DC01ED91FC91008CF18D21
:10075000E02D698309956981862F8F770E94680350
:1007600080E00E946803182FD701ED91FC91028C64
:10077000F38DE02DC7010995812F0F90DF91CF9167
:100780001F91FF90EF9008950F931F93CF93DF93E6
:1007900000D0CDB7DEB78C01DC01ED91FC91008C6F
:1007A000F18DE02D4A83698309956981862F8068E0
:1007B0000E9468034A81842F0E946803D801ED914A
:1007C000FC91028CF38DE02DC8010F900F90DF910A
:1007D000CF911F910F9109941F93CF93DF93EC0159
:1007E000162F80918802681709F461C0623009F4FD
:1007F00040C070F4662309F444C0613009F057C06A
:1008000061E0CE010E949A03482F437E44603FC0BE
:100810006330C1F0643009F04AC061E0CE010E944B
:100820009A03482F437E4C6061E0CE010E94C403CE
:100830008885882381F1E881F9810688F789E02D90
:1008400061E014C061E0CE010E949A03482F437E0C
:10085000406161E0CE010E94C40388858823D9F0FD
:10086000E881F9810688F789E02D60E0CE010995DD
:1008700012C061E0CE010E949A03482F437E486077
:1008800006C061E0CE010E949A03482F437E61E0DA
:10089000CE010E94C40380918802811106C067E2E4
:1008A000CE010E949A0387FFF6CF10938802DF9152
:1008B000CF911F910895CF93DF93EC01603208F040
:1008C0006FE16F838885882311F066956F8361E1FE
:1008D000CE010E949A03482F407E8F81482B61E110
:1008E000CE01DF91CF910C94C403CF93DF93EC0141
:1008F0001092870210928602109285021092840252
:100900001092830210928202109281021092800251
:1009100068E20E949A0382FF0AC06DE3CE010E9442
:100920009A03482F44606DE3CE010E94C40340E463
:1009300065E2CE010E94C403E881F9810488F5894B
:10094000E02D63E0CE01DF91CF910994DF92EF9229
:10095000FF920F931F93CF93DF93EC018B01E881FC
:10096000F9810488F589E02D61E0099501151105EB
:10097000E1F0E881F981008CF18DE02DCE0109953F
:100980008EEB0E9468037801D12CF70181917F01E1
:100990000E946803D394F0E1DF12F7CFE881F98178
:1009A000028CF38DE02DCE0109956DE3CE010E94FE
:1009B0009A038E7F91E0012B09F490E0482F492B98
:1009C0006DE3CE01DF91CF911F910F91FF90EF90DA
:1009D000DF900C94C4038F929F92AF92BF92DF92EC
:1009E000EF92FF920F931F93CF93DF93CDB7DEB7B4
:1009F000AE970FB6F894DEBF0FBECDBF7C01D42EEC
:100A00008EE28E010F5F1F4FD801E82F1D92EA95ED
:100A1000E9F791E0998334E03A8342E04B8393E035
:100A20009D834E833F8340E4488735E039879A872A
:100A300096E09B8793E39C8737E03D8798E09F870C
:100A400099E0998B99E19B8B92E49C8B55E25D8BAD
:100A50004E8B46E24F8B388F38E2398F30E13A8F38
:100A600039E23B8F3CED3C8F8D8F88E88E8F8FE293
:100A70008F8F8DE288A380E389A337E33BA330E91E
:100A80003CA338E33DA39EA39CE39FA39FE898A7C4
:100A90009DE399A792E19AA79FE69BA78CA78FEF6A
:100AA0008DA76F3131F06B3231F0663531F489ED5D
:100AB00005C08EE403C08CE601C084EE8E876F31E2
:100AC00041F06B3221F0663521F480E003C080E410
:100AD00001C080EC888B2AA361E0D70112968C912B
:100AE0000E94680C61E0F70182810E942F0C0E9435
:100AF00070090E94620B4B015C014AEA6FE2C70178
:100B00000E94C4036FE2C7010E949A038A3A59F017
:100B10000E94620B681979098A099B096233710581
:100B20008105910550F30E94620B4B015C0145E584
:100B30006FE2C7010E94C4036FE2C7010E949A03DB
:100B4000853559F00E94620B681979098A099B0959
:100B5000623371058105910550F3B12CF801EB0D5D
:100B6000F11DEB0DF11D60816F3F31F04181C70137
:100B70000E94C403B394F2CF60E070E0C7010E940A
:100B8000A604D701ED91FC9111970084F185E02D29
:100B900018966C91C7010995D701ED91FC910488D5
:100BA000F589E02D61E0C70109950E94620B4B01B8
:100BB0005C0167E2C7010E949A0387FD0BC00E9497
:100BC000620B681979098A099B09623371058105ED
:100BD000910578F30E94620B681979098A099B09CB
:100BE000623371058105910588F443E050E066E1C8
:100BF00073E0F70184810E94AA0AF0927F02E092DA
:100C00007E02D7011596DC9281E001C080E0AE96AD
:100C10000FB6F894DEBF0FBECDBFDF91CF911F910D
:100C20000F91FF90EF90DF90BF90AF909F908F90CB
:100C30000895CF93DF93EC0161110DC064E2CE0102
:100C40000E949A0390E091958195910995958795D9
:100C5000DF91CF91089541E063E20E94C40363E213
:100C6000CE010E949A0381FFFACFE8CFCF93DF93A2
:100C7000EC01809188028330A9F480918402811173
:100C800011C060E0CE010E941906863A9F4F54F4CD
:100C9000E881F9810488F589E02D61E0CE010995AC
:100CA00081E001C080E0DF91CF910895FF920F9322
:100CB0001F93CF93DF93EC0180918802833001F57D
:100CC00068E2CE010E949A0382FD28C019C080917B
:100CD00087028D3330F4E0918702F0E0E757FD4F53
:100CE0001082E881F981028CF38DE02DCE01099507
:100CF000E881F9810488F589E02D63E0CE0109954A
:100D000060E0CE010E9419069093810280938002D8
:100D1000DF91CF911F910F91FF900895E881F981A4
:100D20000488F589E02D61E0CE010995E881F9811B
:100D3000008CF18DE02DCE01099580E00E946803C2
:100D400080E00E946803809384028091840283344F
:100D5000D0F4809184028093840280E00E94680332
:100D6000809385028E81811109C0909185028D81C9
:100D7000981721F0809185028F3F39F48091840289
:100D8000833018F017C082E4E6CF10928402E88125
:100D9000F981028CF38DE02DCE010995E881F9816E
:100DA0000288F389E02DCE01DF91CF911F910F9141
:100DB000FF9009948091840283508093870280E0A1
:100DC0000E9468038093860280E00E946803982F47
:100DD000907890938202982F907490938302E88188
:100DE000F9810684F785E02D682FCE010995F12C55
:100DF00080918702F81608F06ACF0F2D10E080E08E
:100E00000E946803F801E757FD4F8083F394F0CF09
:100E10004F925F926F927F929F92AF92BF92EF92AA
:100E20000F931F93CF93DF93EC01162F5A01922E4D
:100E30006DE30E949A03482F44606DE3CE010E9447
:100E4000C4030E94620B2B013C01CE010E943606B6
:100E50008823C1F0E881F9810088F189E02DE12C37
:100E6000292DA501612FCE010995DF91CF911F9109
:100E70000F91EF90BF90AF909F907F906F905F9099
:100E80004F9008950E94620B6419750986099709AD
:100E9000683E734081059105E8F6E881F981048098
:100EA000F581E02DCE010995D0CFCF93DF93EC01F2
:100EB0006887662311F04FE001C04AE163E1CE018B
:100EC0000E94C4038885882341F061E1CE010E941D
:100ED0009A03482F4F71406602C04F81406861E11C
:100EE000CE01DF91CF910C94C4031F93CF93DF9376
:100EF000EC01162F662311F04DE501C045E56AE5CA
:100F0000CE010E94C403112311F04CE701C040E759
:100F10006CE5CE01DF91CF911F910C94C403FC01CD
:100F2000668308952F923F924F925F927F928F92A5
:100F30009F92AF92BF92CF92DF92EF92FF920F9368
:100F40001F93CF93DF93EC01962E5A01722E802EC1
:100F500010E0CE2CD12CE12CF12CE881F98101900C
:100F6000F081E02D01E0272DA501692DCE01099525
:100F70000E94620B1B012C010E94620B6219730913
:100F8000840995096C157D058E059F0540F4692D32
:100F9000CE010E946F03882379F381E009C01F5FAF
:100FA0008116D8F68D858F3110F48F5F8D8780E0A4
:100FB000DF91CF911F910F91FF90EF90DF90CF9035
:100FC000BF90AF909F908F907F905F904F903F9099
:100FD0002F900895CF93DF93EC0160726093C60267
:100FE00080918202882361F18091C602882341F1B9
:100FF00080918702882321F180E00E94680390E0BD
:101000009195819591099F878E8720918702215024
:10101000209387022B853C852115310589F08217A5
:10102000930734F44D854F3118F44F5F4D8708C056
:10103000281739072CF48D85882311F081508D876E
:10104000DF91CF910895FC011486138617861686CA
:101050001092C6023FE135870C94EB048F929F9269
:10106000AF92BF92CF92DF92EF92FF920F931F93B6
:10107000CF93DF93EC01F62ED42E152F822E902ED7
:10108000E881F9810488F589E02D61E0099567E23E
:10109000CE010E949A0387FFFACF40E065E2CE01BD
:1010A0000E94C403EE2011F00C2D01C000E0080DD9
:1010B0000E3308F00DE3E881F981008CF18DE02D0D
:1010C000CE01099580E80E94680383E0800F0E94AA
:1010D00068038F2D0E9468038D810E946803EE20B3
:1010E00099F0CC2011F080EA01C080E80E946803EA
:1010F000CC20B9F0C501B7FE03C091958195910947
:101100000E94680301500DC0992041F08B859C8599
:10111000892B11F080E603C080E401C080E00E94CA
:101120006803CD2CED2CF12E8E2D8C19801730F408
:10113000F70181917F010E946803F6CFE881F98170
:10114000028CF38DE02DCE010995E881F9810488A8
:10115000F589E02D64E0CE0109950E94620B6B01D8
:101160007C018B810E949E0C892BA1F0E881F98182
:101170000488F589E02D61E0CE01DF91CF911F91C8
:101180000F91FF90EF90DF90CF90BF90AF909F9026
:101190008F9009940E94620B6C197D098E099F093A
:1011A000683E73408105910508F7DBCF6F927F920F
:1011B0008F929F92AF92BF92CF92DF92EF92FF9267
:1011C0000F931F93CF93DF93EC013B01F42E10920A
:1011D000830210918602809080029090810280911B
:1011E000C60201E0811101C000E06DE3CE010E9462
:1011F0009A03482F44606DE3CE010E94C4030E940D
:10120000620B5B016C01CE010E943606882301F15E
:10121000109386025401C02EEE24E39400E02F2D9B
:10122000A301612FCE010E942E089092810280922C
:101230008002DF91CF911F910F91FF90EF90DF908F
:10124000CF90BF90AF909F908F907F906F900895B8
:101250000E94620B6A197B098C099D09683E7340E4
:1012600081059105A8F6E881F9810480F581E02DDA
:10127000CE010995C8CFAF92BF92CF92EF920F9354
:10128000A12CB12CC12C0E942E080F91EF90CF9071
:10129000BF90AF9008951F93CF93DF93EC01162F6B
:1012A000809188026817A1F0CE010E94EC031430EF
:1012B00079F48B859C85892B59F0E881F98102842A
:1012C000F385E02D6D85CE01DF91CF911F910994BB
:1012D000DF91CF911F9108951092C6020C9475046E
:1012E000CF93CFB7F8948091CA02811127C0EAE961
:1012F000F0E08491E6E8F0E09491E82FF0E0EE0F62
:10130000FF1FE854FF4FA591B4918C91892321F4DC
:1013100061E08AE00E94680C61E08AE00E942F0C84
:101320008CB580618CBD8CB580648CBD61E08DE036
:101330000E942F0C61E08BE00E942F0C8091CA026A
:101340008F5F8093CA02CFBFCF910895FC0180E5E3
:10135000858316826083528341830895FC018CB596
:1013600083838DB58483358126818091C90288234A
:1013700099F09FB7F8948091C902813059F48DB3E8
:101380008093C7024DB38091C802809584238DBBA2
:101390009FBF02C09093C7023CBD2DBD60E080811D
:1013A0000C94680CCF93DF93EC0161E088810E947C
:1013B000680C8091C902882361F09FB7F89420914E
:1013C000C9028091C702213019F48DBB9FBF01C0B3
:1013D0008FBF8B818CBD8C818DBDDF91CF910895A6
:1013E0000F931F93CF93DF938C010E94AE098FE977
:1013F0000E94680380E00E946803C82FD0E0DC2FC1
:10140000CC2780E00E946803C82BC8010E94D20943
:10141000CE01DF91CF911F910F9108951F93CF932C
:10142000DF93EC010E94AE0985E00E94680380E032
:101430000E946803182FCE010E94D209812FDF91EC
:10144000CF911F9108950E940E0A817008951F93F5
:10145000CF93DF93EC01162F442339F040E066E090
:101460000E94270ACE010E94D209CE010E94230ABF
:101470008111FBCFCE010E94AE09812FDF91CF9168
:101480001F910C9468030F931F93CF93DF938C01EC
:1014900040E06BE40E94270A80E00E94680380E03D
:1014A0000E94680380E00E94680380E00E94680355
:1014B000CBECD2E080E00E946803899382E0C33DD8
:1014C000D807C1F7C8010E94D2098BEC92E0DF91E6
:1014D000CF911F910F910895CF93DF93EC0140E0DE
:1014E0006BEA0E94270ACE01DF91CF910C94D209BA
:1014F000CF93DF93EC018CB58B838DB58C8361E04A
:1015000088810E942F0C80E58D831E82CE010E946F
:10151000D209CE010E946C0A89819A81892B51F0EF
:10152000CE010E94F00929813A818217930711F0B8
:1015300080E00CC041E061E0CE010E94270A80E01B
:101540000E946803CE010E94D20981E0DF91CF9111
:10155000089508958230E8F4E82FF0E0EE0FFF1FC1
:10156000E050FF4F71836083813041F080916900CA
:101570008C7F842B80936900E89A0895809169009C
:10158000440F551F440F551F837F842B80936900A0
:10159000E99A08951F920F920FB60F9211242F937C
:1015A0003F934F935F936F937F938F939F93AF93EB
:1015B000BF93EF93FF93E0910001F0910101099532
:1015C000FF91EF91BF91AF919F918F917F916F911B
:1015D0005F914F913F912F910F900FBE0F901F90F1
:1015E00018951F920F920FB60F9211242F933F93CD
:1015F0004F935F936F937F938F939F93AF93BF931B
:10160000EF93FF93E0910201F09103010995FF919F
:10161000EF91BF91AF919F918F917F916F915F916A
:101620004F913F912F910F900FBE0F901F901895E3
:101630001F920F920FB60F9211242F933F938F9307
:101640009F93AF93BF938091D4029091D502A091C4
:10165000D602B091D7023091D30223E0230F2D3769
:1016600020F40196A11DB11D05C026E8230F0296A6
:10167000A11DB11D2093D3028093D4029093D50273
:10168000A093D602B093D7028091D8029091D9024C
:10169000A091DA02B091DB020196A11DB11D8093E9
:1016A000D8029093D902A093DA02B093DB02BF91E3
:1016B000AF919F918F913F912F910F900FBE0F90FF
:1016C0001F9018952FB7F8946091D4027091D502AD
:1016D0008091D6029091D7022FBF08953FB7F8941A
:1016E0008091D8029091D902A091DA02B091DB02E8
:1016F00026B5A89B05C02F3F19F00196A11DB11D6D
:101700003FBF6627782F892F9A2F620F711D811D89
:10171000911D42E0660F771F881F991F4A95D1F7E8
:1017200008958F929F92AF92BF92CF92DF92EF92E5
:10173000FF926B017C010E946E0B4B015C01C11496
:10174000D104E104F104F1F00E94E50F0E946E0B58
:10175000681979098A099B09683E734081059105DA
:1017600070F321E0C21AD108E108F10888EE880E72
:1017700083E0981EA11CB11CC114D104E104F10442
:1017800029F7DDCFFF90EF90DF90CF90BF90AF9023
:101790009F908F900895789484B5826084BD84B5BD
:1017A000816084BD85B5826085BD85B5816085BD5C
:1017B000EEE6F0E0808181608083E1E8F0E0108275
:1017C000808182608083808181608083E0E8F0E0B6
:1017D000808181608083E1EBF0E0808184608083A0
:1017E000E0EBF0E0808181608083EAE7F0E08081D7
:1017F0008460808380818260808380818160808337
:101800008081806880831092C1000895833081F0C8
:1018100028F4813099F08230A1F008958730A9F042
:101820008830B9F08430D1F4809180008F7D03C07E
:10183000809180008F7780938000089584B58F77A2
:1018400002C084B58F7D84BD08958091B0008F77EC
:1018500003C08091B0008F7D8093B0000895CF9336
:10186000DF9390E0FC01E458FF4F2491FC01E05726
:10187000FF4F8491882349F190E0880F991FFC0164
:10188000E854FF4FA591B49182559F4FFC01C5913B
:10189000D4919FB7611108C0F8948C912095822350
:1018A0008C93888182230AC0623051F4F8948C9121
:1018B000322F309583238C938881822B888304C0B8
:1018C000F8948C91822B8C939FBFDF91CF910895D8
:1018D0000F931F93CF93DF931F92CDB7DEB7282FBF
:1018E00030E0F901E859FF4F8491F901E458FF4FC6
:1018F0001491F901E057FF4F04910023C9F08823A8
:1019000021F069830E94060C6981E02FF0E0EE0F60
:10191000FF1FE255FF4FA591B4919FB7F8948C91AA
:10192000611103C01095812301C0812B8C939FBF4F
:101930000F90DF91CF911F910F910895CF93DF9377
:10194000282F30E0F901E859FF4F8491F901E4585C
:10195000FF4FD491F901E057FF4FC491CC2391F090
:1019600081110E94060CEC2FF0E0EE0FFF1FEC55EA
:10197000FF4FA591B4912C912D2381E090E021F4AB
:1019800080E002C080E090E0DF91CF910895FC01FB
:10199000818D228D90E0805C9F4F821B91098F7317
:1019A00099270895FC01918D828D981731F0828DD1
:1019B000E80FF11D858D90E008958FEF9FEF08955A
:1019C000FC01918D828D981761F0828DDF01A80F47
:1019D000B11D5D968C91928D9F5F9F73928F90E069
:1019E00008958FEF9FEF089584E69EE0892B49F0DC
:1019F00080E090E0892B29F00E94640E81110C9404
:101A000000000895FC01848DDF01A80FB11DA35AC9
:101A1000BF4F2C91848D90E001968F739927848F0E
:101A2000A689B7892C93A089B1898C9180648C9305
:101A3000938D848D981306C00288F389E02D8081F0
:101A40008F7D80830895CF93DF93EC01888D882369
:101A5000C9F0EA89FB89808185FD05C0A889B9891B
:101A60008C9186FD0FC00FB607FCF5CF808185FFF6
:101A7000F2CFA889B9898C9185FFEDCFCE010E9464
:101A8000020DE7CFDF91CF910895CF92DF92FF92C1
:101A90000F931F93CF93DF931F92CDB7DEB76C01E7
:101AA00081E0D60158968C9358975B969C915B97F2
:101AB0005C968C915C97981307C05096ED91FC91C1
:101AC0005197808185FD2EC0F601038D10E00F5FD8
:101AD0001F4F0F731127F02EF601848DF81211C0DD
:101AE0000FB607FCF9CFD6015096ED91FC915197B6
:101AF000808185FFF1CFC60169830E94020D698153
:101B0000EBCF838DE80FF11DE35AFF4F6083D601C1
:101B10005B960C935B975296ED91FC915397808165
:101B200080620CC0D6015696ED91FC915797608368
:101B30005096ED91FC91519780818064808381E083
:101B400090E00F90DF91CF911F910F91FF90DF9068
:101B5000CF900895BF92CF92DF92EF92FF92CF93F2
:101B6000DF93EC016A017B01B22EE889F98982E0FA
:101B70008083411581EE580761057105A1F060E091
:101B800079E08DE390E0A70196010E94F20F2150C9
:101B900031094109510956954795379527952115E2
:101BA00080E1380798F0E889F989108260E874E8E4
:101BB0008EE190E0A70196010E94F20F21503109B9
:101BC000410951095695479537952795EC85FD852F
:101BD0003083EE85FF852083188EEC89FD89B082E5
:101BE000EA89FB89808180618083EA89FB89808121
:101BF00088608083EA89FB89808180688083EA89A4
:101C0000FB8980818F7D8083DF91CF91FF90EF9062
:101C1000DF90CF90BF9008951F920F920FB60F9252
:101C200011242F938F939F93EF93FF93E091EC02F6
:101C3000F091ED028081E091F202F091F30282FDD9
:101C400012C090818091F5028F5F8F732091F60210
:101C5000821751F0E091F502F0E0E452FD4F958FCC
:101C60008093F50201C08081FF91EF919F918F9148
:101C70002F910F900FBE0F901F9018951F920F92EB
:101C80000FB60F9211242F933F934F935F936F934F
:101C90007F938F939F93AF93BF93EF93FF938CEDBD
:101CA00092E00E94020DFF91EF91BF91AF919F9141
:101CB0008F917F916F915F914F913F912F910F90F5
:101CC0000FBE0F901F9018958CED92E00E94C70CEC
:101CD00021E0892B09F420E0822F08951092DF0281
:101CE0001092DE0288EE93E0A0E0B0E08093E00284
:101CF0009093E102A093E202B093E30285E392E0C5
:101D00009093DD028093DC0285EC90E09093E902F1
:101D10008093E80284EC90E09093EB028093EA02D7
:101D200080EC90E09093ED028093EC0281EC90E0E7
:101D30009093EF028093EE0282EC90E09093F10298
:101D40008093F00286EC90E09093F3028093F2028D
:101D50001092F5021092F6021092F7021092F80219
:101D60000895CF92DF92EF92FF920F931F93CF933C
:101D7000DF937C016A01EB0100E010E00C151D050A
:101D800071F06991D701ED91FC910190F081E02D06
:101D9000C7010995892B19F00F5F1F4FEFCFC801BD
:101DA000DF91CF911F910F91FF90EF90DF90CF9037
:101DB00008956115710581F0DB010D900020E9F7B0
:101DC000AD0141505109461B570BDC01ED91FC91CF
:101DD0000280F381E02D099480E090E008950C9456
:101DE000D90EDC01ED91FC910190F081E02D099478
:101DF00061E472E00C94D90E0F931F93CF93DF939D
:101E0000EC010E94D90E8C01CE010E94F80E800FC9
:101E1000911FDF91CF911F910F9108950F931F9301
:101E2000CF93DF93EC010E94F10E8C01CE010E9452
:101E3000F80E800F911FDF91CF911F910F910895A0
:101E40008F929F92AF92BF92DF92EF92FF920F9389
:101E50001F93CF93DF93CDB7DEB7A1970FB6F8945A
:101E6000DEBF0FBECDBF7C01F42FD52ECB0119A252
:101E7000223008F42AE08E010F5D1F4F822E912C34
:101E8000A12CB12C6F2F7D2DA50194010E94F20F82
:101E9000F22FD32ECA01015011096A3014F4E0E385
:101EA00001C0E7E3E60FD801EC93232B242B252B6D
:101EB00049F7B801C7010E94D90EA1960FB6F89450
:101EC000DEBF0FBECDBFDF91CF911F910F91FF906D
:101ED000EF90DF90BF90AF909F908F900895CF923A
:101EE000DF92EF92FF920F931F93CF93DF93EC015A
:101EF0006A017B012115310579F4E881F9810190AE
:101F0000F081E02D642FDF91CF911F910F91FF9011
:101F1000EF90DF90CF9009942A303105E9F477FFF4
:101F20001AC06DE20E94F10E8C0144275527BA01B8
:101F30004C195D096E097F092AE0CE010E94200F2D
:101F4000800F911FDF91CF911F910F91FF90EF9024
:101F5000DF90CF9008952AE0B701A601CE01DF916E
:101F6000CF911F910F91FF90EF90DF90CF900C9445
:101F7000200F9A01AB01662757FD6095762F0C94D0
:101F80006F0F2115310541F4DC01ED91FC910190B9
:101F9000F081E02D642F09940C94200F9A01462FB4
:101FA00050E060E070E00C94C10F08950E94CB0BEC
:101FB0000E94D50F0E948D00C4EFDCE00E94D30187
:101FC0002097E1F30E94F40CF9CF0895991B79E072
:101FD00004C0991F961708F0961B881F7A95C9F7B9
:101FE00080950895A1E21A2EAA1BBB1BFD010DC00E
:101FF000AA1FBB1FEE1FFF1FA217B307E407F507B9
:1020000020F0A21BB30BE40BF50B661F771F881F94
:10201000991F1A9469F760957095809590959B012A
:10202000AC01BD01CF010895EE0FFF1F0590F491A3
:10203000E02D0994AEE0B0E0E0E2F0E10C94C212D1
:102040000D891E8986E08C831A8309838FEF9FE7B1
:102050009E838D83AE01475E5F4F6F89788DCE0181
:1020600001960E943C10EF81F885E00FF11F10826D
:102070002E96E4E00C94DE12ACE0B0E0E2E4F0E195
:102080000C94B4127C016B018A01FC011782168248
:10209000838181FFBDC1CE0101964C01F70193817F
:1020A000F60193FD859193FF81916F01882309F4D7
:1020B000ABC1853239F493FD859193FF81916F0116
:1020C000853229F4B70190E00E942412E7CF512C09
:1020D000312C20E02032A0F48B3269F030F48032D1
:1020E00059F0833269F420612CC08D3239F080338D
:1020F00039F4216026C02260246023C0286021C0FA
:1021000027FD27C030ED380F3A3078F426FF06C09F
:10211000FAE05F9E300D1124532E13C08AE0389EE2
:10212000300D1124332E20620CC08E3221F426FD96
:102130006BC1206406C08C3611F4206802C088365A
:1021400041F4F60193FD859193FF81916F01811117
:10215000C1CF982F9F7D9554933028F40C5F1F4F6B
:10216000FFE3F9830DC0833631F0833771F0833597
:1021700009F05BC022C0F801808189830E5F1F4F88
:1021800044244394512C540115C03801F2E06F0EE1
:10219000711CF801A080B18026FF03C0652D70E09E
:1021A00002C06FEF7FEFC5012C870E9419122C012E
:1021B00083012C852F77222E17C03801F2E06F0E95
:1021C000711CF801A080B18026FF03C0652D70E06E
:1021D00002C06FEF7FEFC5012C870E940E122C0109
:1021E0002C852068222E830123FC1BC0832D90E0C8
:1021F00048165906B0F4B70180E290E00E9424121C
:102200003A94F4CFF50127FC859127FE81915F0177
:10221000B70190E00E94241231103A94F1E04F1A75
:1022200051084114510471F7E5C0843611F0893624
:1022300039F5F80127FF07C06081718182819381A0
:102240000C5F1F4F08C060817181882777FD8095E2
:10225000982F0E5F1F4F2F76B22E97FF09C09095D3
:102260008095709561957F4F8F4F9F4F2068B22E5C
:102270002AE030E0A4010E945612A82EA81844C0FB
:10228000853729F42F7EB22E2AE030E025C0F22FC8
:10229000F97FBF2E8F36C1F018F4883579F0B4C0BD
:1022A000803719F0883721F0AFC02F2F2061B22E70
:1022B000B4FE0DC08B2D8460B82E09C024FF0AC067
:1022C0009F2F9660B92E06C028E030E005C020E1BF
:1022D00030E002C020E132E0F801B7FE07C06081C3
:1022E0007181828193810C5F1F4F06C06081718173
:1022F00080E090E00E5F1F4FA4010E945612A82EAE
:10230000A818FB2DFF77BF2EB6FE0BC02B2D2E7FFE
:10231000A51450F4B4FE0AC0B2FC08C02B2D2E7ECA
:1023200005C07A2C2B2D03C07A2C01C0752C24FFFC
:102330000DC0FE01EA0DF11D8081803311F4297E6C
:1023400009C022FF06C07394739404C0822F86785C
:1023500009F0739423FD13C020FF06C05A2C731498
:1023600018F4530C5718732C731468F4B70180E2F7
:1023700090E02C870E94241273942C85F5CF73145F
:1023800010F4371801C0312C24FF12C0B70180E3CC
:1023900090E02C870E9424122C8522FF17C021FF79
:1023A00003C088E590E002C088E790E0B7010CC068
:1023B000822F867859F021FD02C080E201C08BE2B5
:1023C00027FD8DE2B70190E00E942412A51438F495
:1023D000B70180E390E00E9424125A94F7CFAA94A8
:1023E000F401EA0DF11D8081B70190E00E942412F2
:1023F000A110F5CF332009F451CEB70180E290E06F
:102400000E9424123A94F6CFF7018681978102C088
:102410008FEF9FEF2C96E2E10C94D012FC01059017
:10242000615070400110D8F7809590958E0F9F1FD6
:102430000895FC016150704001900110D8F780951B
:1024400090958E0F9F1F08950F931F93CF93DF9347
:10245000182F092FEB018B8181FD03C08FEF9FEFB8
:1024600020C082FF10C04E815F812C813D814217C8
:1024700053077CF4E881F9819F012F5F3F4F398337
:102480002883108306C0E885F985812F0995892B5B
:1024900029F72E813F812F5F3F4F3F832E83812F6E
:1024A000902FDF91CF911F910F910895FA01AA27E4
:1024B000283051F1203181F1E8946F936E7F6E5F87
:1024C0007F4F8F4F9F4FAF4FB1E03ED0B4E03CD035
:1024D000670F781F891F9A1FA11D680F791F8A1F18
:1024E000911DA11D6A0F711D811D911DA11D20D07F
:1024F00009F468943F912AE0269F11243019305D39
:102500003193DEF6CF010895462F4770405D419329
:10251000B3E00FD0C9F7F6CF462F4F70405D4A3376
:1025200018F0495D31FD4052419302D0A9F7EACF3E
:10253000B4E0A6959795879577956795BA95C9F76D
:1025400000976105710508959B01AC010A2E069460
:102550005795479537952795BA95C9F7620F731F19
:10256000841F951FA01D08952F923F924F925F9256
:102570006F927F928F929F92AF92BF92CF92DF9293
:10258000EF92FF920F931F93CF93DF93CDB7DEB7F8
:10259000CA1BDB0B0FB6F894DEBF0FBECDBF09948C
:1025A0002A88398848885F846E847D848C849B84E3
:1025B000AA84B984C884DF80EE80FD800C811B81F1
:1025C000AA81B981CE0FD11D0FB6F894DEBF0FBE20
:0A25D000CDBFED010895F894FFCF90
:1025DA00A90AA90A73616D706C65456E6372797098
:1025EA00744B6579000A4C697374656E696E67206D
:1025FA006174202564204D687A2E2E2E005350498E
:10260A0020466C61736820496E6974204F4B2E20F6
:10261A00556E69717565204D4143203D205B00531D
:10262A00504920466C617368204D454D206E6F7489
:10263A0020666F756E64202869732063686970204C
:10264A00736F6C64657265643F292E2E2E005246A4
:10265A004D36395F41544320456E61626C65642092
:10266A00284175746F205472616E736D6973736952
:10267A006F6E20436F6E74726F6C29006E657720DF
:10268A0074616700412020202D00202D2000202089
:10269A00202D66696E00232C00746F205B005D207C
:1026AA00002C52585F525353493A0041434B20730E
:1026BA00656E742C0050696E67696E67206E6F6470
:1026CA0065002C41434B2E2E2E0041434B2054458E
:1026DA005354002C6F6B21002C6E6F7468696E67FF
:1026EA000000000000080792074603D60855075B5A
:1026FA00045606EA073B096C094B097507300321A2
:10270A000300000000450DB10EC70CE00CD20C23EB
:10271A000D0D0A006E616E00696E66006F766600C6
:00000001FF
