:100000000C9463000C947A0B0C94A10B0C948B0051
:100010000C948B000C948B000C948B000C948B0034
:100020000C948B000C948B000C948B000C948B0024
:100030000C948B000C948B000C948B000C948B0014
:100040000C94C80B0C948B000C94BC0E0C94EE0E0C
:100050000C948B000C948B000C948B000C948B00F4
:100060000C948B000C948B0000000008000201002F
:100070000003040700000000000000000102040863
:100080001020408001020408102001020408102002
:10009000040404040404040402020202020203032E
:1000A00003030303000000002300260029000000D2
:1000B0000000250028002B0000000000240027007D
:1000C0002A003B011E0F11241FBECFEFD8E0DEBF78
:1000D000CDBF12E0A0E0B1E0E8E9FAE202C005908D
:1000E0000D92AC3BB107D9F723E0ACEBB2E001C015
:1000F0001D92A53DB207E1F710E0C6ECD0E004C0C8
:100100002297FE010E947512C23CD107C9F70E94D6
:10011000B3100C944A150C9400000F931F93CF93C7
:10012000DF93CDB7DEB7E2970FB6F894DEBF0FBE10
:10013000CDBF26E040E052EC61E070E088E393E060
:100140000E945A0E6AE070E080E090E00E94410C4C
:1001500024E641E06BE289EC92E00E949C08E09189
:10016000C902F091CA020084F185E02D61E089ECBA
:1001700092E0099564E071E089EC92E00E94AD04A0
:100180006091C10289EC92E00E94960781E08F9312
:1001900081EB8F9385E191E09F938F938E010F5FA9
:1001A0001F4F1F930F930E947912B80188E393E0C9
:1001B0000E94AC0F82EC92E00E94280B0F900F90EF
:1001C0000F900F900F900F90882321F16DE271E056
:1001D00088E393E00E949F0F82EC92E00E94BC0AA9
:1001E00007E213E0F80161918F0140E150E088E3FC
:1001F00093E00E947E106AE388E393E00E94A10FDF
:10020000F3E00F321F0771F76DE588E393E00E947A
:10021000BE0F06C06FE471E088E393E00E94AC0F6C
:100220006EE771E088E393E00E94AC0FE2960FB6B0
:10023000F894DEBF0FBECDBFDF91CF911F910F911C
:1002400008951F93CF93DF93182FEB0161E00E9475
:10025000DF0C61E0812F0E94180DBE01882777FD19
:100260008095982F0E94410C60E0812FDF91CF9103
:100270001F910C94180D8AE08093CB0282E080934A
:10028000CC021092CD0281E08093E4021092CF0262
:100290008FE18093D0021092D10281E892E0909396
:1002A000CA028093C90240E35FEE68E082EC92E00C
:1002B0000C941F0ACF92DF92EF92FF920F9388E384
:1002C00093E00E94770D181619060CF0CFC088E352
:1002D00093E00E94900D823729F489EC92E00E940D
:1002E0009907C4C0853419F464E071E004C0853610
:1002F00039F460E070E089EC92E00E94AD04B6C091
:100300008037D1F46091C10281E068276093C10217
:1003100089EC92E00E94960763EB71E088E393E03A
:100320000E949F0F8091C102882319F06CEA71E04E
:100330004AC06FEA71E047C0843689F565EC71E028
:1003400088E393E00E94AC0FC12CD12C7601B70159
:10035000A60182EC92E00E94E50A40E150E0682F9D
:1003600088E393E00E947E106EE288E393E00E94AF
:10037000A10F8FEFC81AD80AE80AF80A81E0C81658
:10038000D806E104F10419F782EC92E00E949C0A7D
:100390008111FACF88E393E00E94A80F67C08434EC
:1003A000B9F464ED71E088E393E00E949F0F82EC62
:1003B00092E00E94100B82EC92E00E949C0A811154
:1003C000FACF6DEE71E088E393E00E94AC0F4EC06F
:1003D000893691F462EF71E088E393E00E949F0F09
:1003E00082EC92E00E94690A40E150E0BC0188E39F
:1003F00093E00E949C103AC08437C1F56FEF89ECFE
:1004000092E00E94E907F82E6DEF71E088E393E037
:100410000E949F0F4AE050E06F2D88E393E00E9416
:100420007E106CE072E088E393E00E949F0F6F2DD6
:1004300070E080E090E00E94561126E636E646EE37
:100440005FE30E94E21120E030E040E052E40E94CD
:10045000C4100E9428114AE050E088E393E00E9413
:100460007E1066E488E393E00E94BE0FE091C9022B
:10047000F091CA020480F581E02D89EC92E00995A3
:10048000882309F4D4C060E172E088E393E00E941D
:100490009F0F4091BC025091BD026091BE027091CD
:1004A000BF024F5F5F4F6F4F7F4F4093BC0250932F
:1004B000BD026093BE027093BF022AE030E088E381
:1004C00093E00E9471106DE588E393E00E94A10F14
:1004D0006BE588E393E00E94A10F6091E2024AE09D
:1004E00050E088E393E00E947E1063E172E088E3CD
:1004F00093E00E949F0F8091C1028823A1F066E1E2
:1005000072E088E393E00E949F0F6091E1024AE06D
:1005100050E088E393E00E947E1063E172E088E39C
:1005200093E00E949F0FF12C8091E302F81658F49B
:10053000EF2DF0E0EB51FD4F608188E393E00E94E6
:10054000A10FF394F1CF6BE172E088E393E00E9496
:100550009F0F6091DC027091DD024AE050E088E379
:1005600093E00E94691068E272E088E393E00E94E1
:100570009F0F89EC92E00E949603882309F449C0FA
:10058000F090E20240E06FEA72E089EC92E00E94B3
:100590004F096AE272E088E393E00E949F0F809126
:1005A000C00291E0980F9093C00263E00E94451250
:1005B00091112FC067E372E088E393E00E949F0FE0
:1005C0004AE050E06F2D88E393E00E947E1066E4DD
:1005D00072E088E393E00E949F0F63E070E080E0A8
:1005E00090E00E94410C88E2E82E00E028E040E51F
:1005F00052E06F2D89EC92E00E940B08882319F0DD
:1006000069E572E002C06DE572E088E393E00E9464
:100610009F0F88E393E00E94A80F63E070E089E0F9
:100620000F91FF90EF90DF90CF900C9421010F91EC
:10063000FF90EF90DF90CF9008958091DA02909133
:10064000DB02DC01ED91FC910484F585E02D099439
:10065000CF93DF93EC0161E08A810E94180D8985B8
:100660008CBD8A858DBD7894DF91CF910895FC0172
:10067000F8948CB581878DB582878CB5837F8CBDCE
:100680008CB58F7D8CBD8CB58C7F8CBD8DB58E7FF0
:100690008DBD60E082810C94180DF8942091E402E5
:1006A000233021F42091E00221110FC02091E402B7
:1006B000233011F4789407C0DC01ED91FC9102889D
:1006C000F389E02D099580E00895DC01ED91FC911E
:1006D0000488F589E02D61E0099581E008958EBDDB
:1006E00000000DB407FEFDCF8EB50895CF93DF93C4
:1006F0001F92CDB7DEB7DC01ED91FC910480F5814E
:10070000E02D698309956981882359F08091E2027F
:10071000861711F06F3F29F49091DE0281E091116C
:1007200001C080E00F90DF91CF9108958091DF02AA
:10073000882329F09091E10281E09F3F09F480E055
:100740000895EF92FF921F93CF93DF931F92CDB73F
:10075000DEB77C01DC01ED91FC91008CF18DE02D88
:10076000698309956981862F8F770E946F0380E0E6
:100770000E946F03182FD701ED91FC91028CF38D2D
:10078000E02DC7010995812F0F90DF91CF911F9127
:10079000FF90EF9008950F931F93CF93DF9300D0B6
:1007A000CDB7DEB78C01DC01ED91FC91008CF18DB1
:1007B000E02D4A83698309956981862F80680E94AC
:1007C0006F034A81842F0E946F03D801ED91FC9141
:1007D000028CF38DE02DC8010F900F90DF91CF9127
:1007E0001F910F9109941F93CF93DF93EC01162F64
:1007F0008091E402681709F461C0623009F440C0D6
:1008000070F4662309F444C0613009F057C061E018
:10081000CE010E94A103482F437E44603FC0633055
:10082000C1F0643009F04AC061E0CE010E94A1032A
:10083000482F437E4C6061E0CE010E94CB03888547
:10084000882381F1E881F9810688F789E02D61E04C
:1008500014C061E0CE010E94A103482F437E406195
:1008600061E0CE010E94CB0388858823D9F0E8811E
:10087000F9810688F789E02D60E0CE01099512C064
:1008800061E0CE010E94A103482F437E486006C06C
:1008900061E0CE010E94A103482F437E61E0CE01BA
:1008A0000E94CB038091E402811106C067E2CE0171
:1008B0000E94A10387FFF6CF1093E402DF91CF914E
:1008C0001F910895CF93DF93EC01603208F06FE140
:1008D0006F838885882311F066956F8361E1CE016F
:1008E0000E94A103482F407E8F81482B61E1CE01F9
:1008F000DF91CF910C94CB03CF93DF93EC01109257
:10090000E3021092E2021092E1021092E0021092D1
:10091000DF021092DE021092DD021092DC0268E229
:100920000E94A10382FF0AC06DE3CE010E94A103D1
:10093000482F44606DE3CE010E94CB0340E465E2A2
:10094000CE010E94CB03E881F9810488F589E02D6E
:1009500063E0CE01DF91CF910994DF92EF92FF9295
:100960000F931F93CF93DF93EC018B01E881F98103
:100970000488F589E02D61E0099501151105E1F084
:10098000E881F981008CF18DE02DCE0109958EEB87
:100990000E946F037801D12CF70181917F010E94A1
:1009A0006F03D394F0E1DF12F7CFE881F981028C75
:1009B000F38DE02DCE0109956DE3CE010E94A103D8
:1009C0008E7F91E0012B09F490E0482F492B6DE3D5
:1009D000CE01DF91CF911F910F91FF90EF90DF90AB
:1009E0000C94CB038F929F92AF92BF92DF92EF92C3
:1009F000FF920F931F93CF93DF93CDB7DEB7AE97E0
:100A00000FB6F894DEBF0FBECDBF7C01D42E8EE2B0
:100A10008E010F5F1F4FD801E82F1D92EA95E9F76D
:100A200091E0998334E03A8342E04B8393E09D83E5
:100A30004E833F8340E4488735E039879A8796E0C4
:100A40009B8793E39C8737E03D8798E09F8799E0F9
:100A5000998B99E19B8B92E49C8B55E25D8B4E8B3D
:100A600046E24F8B388F38E2398F30E13A8F39E2E6
:100A70003B8F3CED3C8F8D8F88E88E8F8FE28F8F80
:100A80008DE288A380E389A337E33BA330E93CA34D
:100A900038E33DA39EA39CE39FA39FE898A79DE313
:100AA00099A792E19AA79FE69BA78CA78FEF8DA7A6
:100AB0006F3131F06B3231F0663531F489ED05C0BC
:100AC0008EE403C08CE601C084EE8E876F3141F066
:100AD0006B3221F0663521F480E003C080E401C070
:100AE00080EC888B2AA361E0D70112968C910E943A
:100AF000180D61E0F70182810E94DF0C0E94E90974
:100B00000E94120C4B015C014AEA6FE2C7010E948D
:100B1000CB036FE2C7010E94A1038A3A59F00E94F9
:100B2000120C681979098A099B09623371058105DC
:100B3000910550F30E94120C4B015C0145E56FE2F8
:100B4000C7010E94CB036FE2C7010E94A103853554
:100B500059F00E94120C681979098A099B096233BD
:100B600071058105910550F3B12CF801EB0DF11DD4
:100B7000EB0DF11D60816F3F31F04181C7010E9493
:100B8000CB03B394F2CF60E070E0C7010E94AD04E4
:100B9000D701ED91FC9111970084F185E02D189615
:100BA0006C91C7010995D701ED91FC910488F589F5
:100BB000E02D61E0C70109950E94120C4B015C0118
:100BC00067E2C7010E94A10387FD0BC00E94120CBF
:100BD000681979098A099B096233710581059105B4
:100BE00078F30E94120C681979098A099B0962330B
:100BF00071058105910588F443E050E06DE173E0F3
:100C0000F70184810E945A0BF092DB02E092DA0233
:100C1000D7011596DC9281E001C080E0AE960FB658
:100C2000F894DEBF0FBECDBFDF91CF911F910F9122
:100C3000FF90EF90DF90BF90AF909F908F900895BE
:100C4000CF93DF93EC0161110DC064E2CE010E94ED
:100C5000A10390E091958195910995958795DF91F4
:100C6000CF91089541E063E20E94CB0363E2CE019D
:100C70000E94A10381FFFACFE8CFCF93DF93EC016D
:100C80008091E4028330A9F48091E002811111C0C7
:100C900060E0CE010E942006863A9F4F54F4E8811E
:100CA000F9810488F589E02D61E0CE01099581E0A4
:100CB00001C080E0DF91CF910895FF920F931F93C1
:100CC000CF93DF93EC018091E402833001F568E279
:100CD000CE010E94A10382FD28C019C08091E302C9
:100CE0008D3330F4E091E302F0E0EB51FD4F1082E0
:100CF000E881F981028CF38DE02DCE010995E88120
:100D0000F9810488F589E02D63E0CE01099560E062
:100D1000CE010E9420069093DD028093DC02DF91D9
:100D2000CF911F910F91FF900895E881F981048878
:100D3000F589E02D61E0CE010995E881F981008C0B
:100D4000F18DE02DCE01099580E00E946F0380E0D7
:100D50000E946F038093E0028091E0028334D0F41C
:100D60008091E0028093E00280E00E946F03809314
:100D7000E1028E81811109C09091E1028D81981765
:100D800021F08091E1028F3F39F48091E0028330BD
:100D900018F017C082E4E6CF1092E002E881F981F2
:100DA000028CF38DE02DCE010995E881F98102884E
:100DB000F389E02DCE01DF91CF911F910F91FF902C
:100DC00009948091E00283508093E30280E00E94C6
:100DD0006F038093E20280E00E946F03982F907867
:100DE0009093DE02982F90749093DF02E881F9814E
:100DF0000684F785E02D682FCE010995F12C8091AE
:100E0000E302F81608F06ACF0F2D10E080E00E9490
:100E10006F03F801EB51FD4F8083F394F0CF4F92B5
:100E20005F926F927F929F92AF92BF92EF920F93D9
:100E30001F93CF93DF93EC01162F5A01922E6DE38F
:100E40000E94A103482F44606DE3CE010E94CB03B2
:100E50000E94120C2B013C01CE010E943D0688230A
:100E6000C1F0E881F9810088F189E02DE12C292D7C
:100E7000A501612FCE010995DF91CF911F910F91AF
:100E8000EF90BF90AF909F907F906F905F904F904A
:100E900008950E94120C6419750986099709683E25
:100EA000734081059105E8F6E881F9810480F581B8
:100EB000E02DCE010995D0CFCF93DF93EC01688769
:100EC000662311F04FE001C04AE163E1CE010E94C8
:100ED000CB038885882341F061E1CE010E94A10304
:100EE000482F4F71406602C04F81406861E1CE01DA
:100EF000DF91CF910C94CB031F93CF93DF93EC0141
:100F0000162F662311F04DE501C045E56AE5CE01D7
:100F10000E94CB03112311F04CE701C040E76CE5C0
:100F2000CE01DF91CF911F910C94CB03FC0166831E
:100F300008950F931F93CF93DF93EC0165E672E062
:100F400088E393E00E94AC0F11E0E881F981008C06
:100F5000F18DE02DCE010995812F0E946F0380E075
:100F60000E946F03082FE881F981028CF38DE02D38
:100F7000CE01099540E150E0612F88E393E00E94A3
:100F80007E1069E772E088E393E00E949F0F40E1E2
:100F900050E0602F88E393E00E947E1069E772E0E2
:100FA00088E393E00E949F0F42E050E0602F88E3C7
:100FB00093E00E9485101F5F103539F6E881F981B2
:100FC000028CF38DE02DCE01DF91CF911F910F9117
:100FD00009941F93CF93DF93EC01162FE881F981D9
:100FE0000488F589E02D61E0099548E06EE4CE01C2
:100FF0000E94CB036EE4CE010E94A10382FDFACFD2
:101000006FE4CE010E94A1031B55181B812FDF91B5
:10101000CF911F9108952F923F924F925F927F92AE
:101020008F929F92AF92BF92CF92DF92EF92FF92F8
:101030000F931F93CF93DF93EC01962E5A01722EDC
:10104000802E10E0CE2CD12CE12CF12CE881F981FE
:101050000190F081E02D01E0272DA501692DCE0141
:1010600009950E94120C1B012C010E94120C62199E
:101070007309840995096C157D058E059F0540F45B
:10108000692DCE010E947603882379F381E009C09F
:101090001F5F8116D8F68D858F3110F48F5F8D8795
:1010A00080E0DF91CF911F910F91FF90EF90DF9043
:1010B000CF90BF90AF909F908F907F905F904F9018
:1010C0003F902F900895CF93DF93EC01607260936F
:1010D00022038091DE02882361F18091220388231C
:1010E00041F18091E302882321F180E00E946F03A7
:1010F00090E09195819591099F878E872091E302D9
:1011000021502093E3022B853C852115310589F080
:101110008217930734F44D854F3118F44F5F4D8794
:1011200008C0281739072CF48D85882311F08150C9
:101130008D87DF91CF910895FC0114861386178661
:101140001686109222033FE135870C94F2048F92A9
:101150009F92AF92BF92CF92DF92EF92FF920F9346
:101160001F93CF93DF93EC01F62ED42E152F822EF2
:10117000902EE881F9810488F589E02D61E00995D8
:1011800067E2CE010E94A10387FFFACF40E065E24B
:10119000CE010E94CB03EE2011F00C2D01C000E027
:1011A000080D0E3308F00DE3E881F981008CF18D14
:1011B000E02DCE01099580E80E946F0383E0800F47
:1011C0000E946F038F2D0E946F038D810E946F0319
:1011D000EE2099F0CC2011F080EA01C080E80E9456
:1011E0006F03CC20B9F0C501B7FE03C0919581957E
:1011F00091090E946F0301500DC0992041F08B8529
:101200009C85892B11F080E603C080E401C080E05A
:101210000E946F03CD2CED2CF12E8E2D8C19801792
:1012200030F4F70181917F010E946F03F6CFE881CE
:10123000F981028CF38DE02DCE010995E881F981C9
:101240000488F589E02D64E0CE0109950E94120C16
:101250006B017C018B810E944E0D892BA1F0E881EE
:10126000F9810488F589E02D61E0CE01DF91CF910D
:101270001F910F91FF90EF90DF90CF90BF90AF90B4
:101280009F908F9009940E94120C6C197D098E0911
:101290009F09683E73408105910508F7DBCF6F9287
:1012A0007F928F929F92AF92BF92CF92DF92EF92F6
:1012B000FF920F931F93CF93DF93EC013B01F42E2A
:1012C0001092DF021091E2028090DC029090DD0229
:1012D0008091220301E0811101C000E06DE3CE01A5
:1012E0000E94A103482F44606DE3CE010E94CB030E
:1012F0000E94120C5B016C01CE010E943D06882306
:1013000001F11093E2025401C02EEE24E39400E0B8
:101310002F2DA301612FCE010E94A7089092DD021C
:101320008092DC02DF91CF911F910F91FF90EF909F
:10133000DF90CF90BF90AF909F908F907F906F90F5
:1013400008950E94120C6A197B098C099D09683E58
:10135000734081059105A8F6E881F9810480F58143
:10136000E02DCE010995C8CFAF92BF92CF92EF92F8
:101370000F93A12CB12CC12C0E94A7080F91EF90C4
:10138000CF90BF90AF9008951F93CF93DF93EC0160
:10139000162F8091E4026817A1F0CE010E94F3039A
:1013A000143079F48B859C85892B59F0E881F9817B
:1013B0000284F385E02D6D85CE01DF91CF911F91E1
:1013C0000994DF91CF911F910895109222030C94FC
:1013D0007C04CF93CFB7F89480912603811127C066
:1013E000EAE9F0E08491E6E8F0E09491E82FF0E09B
:1013F000EE0FFF1FE854FF4FA591B4918C91892304
:1014000021F461E08AE00E94180D61E08AE00E9408
:10141000DF0C8CB580618CBD8CB580648CBD61E0C7
:101420008DE00E94DF0C61E08BE00E94DF0C809178
:1014300026038F5F80932603CFBFCF910895FC01D1
:1014400080E5858316826083528341830895FC0181
:101450008CB583838DB58483358126818091250366
:10146000882399F09FB7F89480912503813059F42F
:101470008DB3809323034DB38091240380958423FF
:101480008DBB9FBF02C0909323033CBD2DBD60E088
:1014900080810C94180DCF93DF93EC0161E088817B
:1014A0000E94180D80912503882361F09FB7F8945E
:1014B0002091250380912303213019F48DBB9FBF18
:1014C00001C08FBF8B818CBD8C818DBDDF91CF9191
:1014D00008950F931F93CF93DF938C010E94270AE7
:1014E0008FE90E946F0380E00E946F03C82FD0E055
:1014F000DC2FCC2780E00E946F03C82BC8010E941C
:101500004B0ACE01DF91CF911F910F9108951F9348
:10151000CF93DF93EC010E94270A85E00E946F03BE
:1015200080E00E946F03182FCE010E944B0A812F8A
:10153000DF91CF911F9108950E94870A81700895CD
:101540001F93CF93DF93EC01162F442339F040E033
:1015500066E00E94A00ACE010E944B0ACE010E94C2
:101560009C0A8111FBCFCE010E94270A812FDF91B7
:10157000CF911F910C946F030F931F93CF93DF9321
:101580008C0140E06BE40E94A00A80E00E946F039F
:1015900080E00E946F0380E00E946F0380E00E9461
:1015A0006F03C7E2D3E080E00E946F03899383E07A
:1015B000CF32D807C1F7C8010E944B0A87E293E0F7
:1015C000DF91CF911F910F910895EF92FF920F93AA
:1015D0001F93CF93DF931F92CDB7DEB77C01142FFB
:1015E000062F40E063E059830E94A00A802F0E94EA
:1015F0006F035981852F0E946F03812F0E946F0313
:1016000080E00E946F03182FC7010E944B0A812FB0
:101610000F90DF91CF911F910F91FF90EF90089560
:10162000CF93DF93EC0141E060E60E94A00ACE0177
:10163000DF91CF910C944B0ACF93DF93EC0140E004
:101640006BEA0E94A00ACE01DF91CF910C944B0A65
:10165000CF93DF93EC018CB58B838DB58C8361E0E8
:1016600088810E94DF0C80E58D831E82CE010E945E
:101670004B0ACE010E941C0B89819A81892B51F063
:10168000CE010E94690A29813A818217930711F0DD
:1016900080E00CC041E061E0CE010E94A00A80E041
:1016A0000E946F03CE010E944B0A81E0DF91CF912F
:1016B000089508958230E8F4E82FF0E0EE0FFF1F60
:1016C000E050FF4F71836083813041F08091690069
:1016D0008C7F842B80936900E89A0895809169003B
:1016E000440F551F440F551F837F842B809369003F
:1016F000E99A08951F920F920FB60F9211242F931B
:101700003F934F935F936F937F938F939F93AF9389
:10171000BF93EF93FF93E0910001F09101010995D0
:10172000FF91EF91BF91AF919F918F917F916F91B9
:101730005F914F913F912F910F900FBE0F901F908F
:1017400018951F920F920FB60F9211242F933F936B
:101750004F935F936F937F938F939F93AF93BF93B9
:10176000EF93FF93E0910201F09103010995FF913E
:10177000EF91BF91AF919F918F917F916F915F9109
:101780004F913F912F910F900FBE0F901F90189582
:101790001F920F920FB60F9211242F933F938F93A6
:1017A0009F93AF93BF938091300390913103A091A9
:1017B0003203B091330330912F0323E0230F2D37F1
:1017C00020F40196A11DB11D05C026E8230F029645
:1017D000A11DB11D20932F038093300390933103FB
:1017E000A0933203B0933303809134039091350377
:1017F000A0913603B09137030196A11DB11D8093CE
:10180000340390933503A0933603B0933703BF910D
:10181000AF919F918F913F912F910F900FBE0F909D
:101820001F9018952FB7F894609130037091310391
:1018300080913203909133032FBF08953FB7F894FE
:101840008091340390913503A0913603B091370312
:1018500026B5A89B05C02F3F19F00196A11DB11D0B
:101860003FBF6627782F892F9A2F620F711D811D28
:10187000911D42E0660F771F881F991F4A95D1F787
:1018800008958F929F92AF92BF92CF92DF92EF9284
:10189000FF926B017C010E941E0C4B015C01C11484
:1018A000D104E104F104F1F00E94C2100E941E0C68
:1018B000681979098A099B09683E73408105910579
:1018C00070F321E0C21AD108E108F10888EE880E11
:1018D00083E0981EA11CB11CC114D104E104F104E1
:1018E00029F7DDCFFF90EF90DF90CF90BF90AF90C2
:1018F0009F908F900895789484B5826084BD84B55C
:10190000816084BD85B5826085BD85B5816085BDFA
:10191000EEE6F0E0808181608083E1E8F0E0108213
:10192000808182608083808181608083E0E8F0E054
:10193000808181608083E1EBF0E08081846080833E
:10194000E0EBF0E0808181608083EAE7F0E0808175
:1019500084608083808182608083808181608083D5
:101960008081806880831092C1000895833081F067
:1019700028F4813099F08230A1F008958730A9F0E1
:101980008830B9F08430D1F4809180008F7D03C01D
:10199000809180008F7780938000089584B58F7741
:1019A00002C084B58F7D84BD08958091B0008F778B
:1019B00003C08091B0008F7D8093B0000895CF93D5
:1019C000DF9390E0FC01E458FF4F2491FC01E057C5
:1019D000FF4F8491882349F190E0880F991FFC0103
:1019E000E854FF4FA591B49182559F4FFC01C591DA
:1019F000D4919FB7611108C0F8948C9120958223EF
:101A00008C93888182230AC0623051F4F8948C91BF
:101A1000322F309583238C938881822B888304C056
:101A2000F8948C91822B8C939FBFDF91CF91089576
:101A30000F931F93CF93DF931F92CDB7DEB7282F5D
:101A400030E0F901E859FF4F8491F901E458FF4F64
:101A50001491F901E057FF4F04910023C9F0882346
:101A600021F069830E94B60C6981E02FF0E0EE0F4F
:101A7000FF1FE255FF4FA591B4919FB7F8948C9149
:101A8000611103C01095812301C0812B8C939FBFEE
:101A90000F90DF91CF911F910F910895CF93DF9316
:101AA000282F30E0F901E859FF4F8491F901E458FB
:101AB000FF4FD491F901E057FF4FC491CC2391F02F
:101AC00081110E94B60CEC2FF0E0EE0FFF1FEC55D9
:101AD000FF4FA591B4912C912D2381E090E021F44A
:101AE00080E002C080E090E0DF91CF910895FC019A
:101AF000818D228D90E0805C9F4F821B91098F73B6
:101B000099270895FC01918D828D981731F0828D6F
:101B1000E80FF11D858D90E008958FEF9FEF0895F8
:101B2000FC01918D828D981761F0828DDF01A80FE5
:101B3000B11D5D968C91928D9F5F9F73928F90E007
:101B400008958FEF9FEF089584E19FE0892B49F07E
:101B500080E090E0892B29F00E94140F81110C94F1
:101B600000000895FC01848DDF01A80FB11DA35A68
:101B7000BF4F2C91848D90E001968F739927848FAD
:101B8000A689B7892C93A089B1898C9180648C93A4
:101B9000938D848D981306C00288F389E02D80818F
:101BA0008F7D80830895CF93DF93EC01888D882308
:101BB000C9F0EA89FB89808185FD05C0A889B989BA
:101BC0008C9186FD0FC00FB607FCF5CF808185FF95
:101BD000F2CFA889B9898C9185FFEDCFCE010E9403
:101BE000B20DE7CFDF91CF910895CF92DF92FF92B0
:101BF0000F931F93CF93DF931F92CDB7DEB76C0186
:101C000081E0D60158968C9358975B969C915B9790
:101C10005C968C915C97981307C05096ED91FC915F
:101C20005197808185FD2EC0F601038D10E00F5F76
:101C30001F4F0F731127F02EF601848DF81211C07B
:101C40000FB607FCF9CFD6015096ED91FC91519754
:101C5000808185FFF1CFC60169830E94B20D698141
:101C6000EBCF838DE80FF11DE35AFF4F6083D60160
:101C70005B960C935B975296ED91FC915397808104
:101C800080620CC0D6015696ED91FC915797608307
:101C90005096ED91FC91519780818064808381E022
:101CA00090E00F90DF91CF911F910F91FF90DF9007
:101CB000CF900895BF92CF92DF92EF92FF92CF9391
:101CC000DF93EC016A017B01B22EE889F98982E099
:101CD0008083411581EE580761057105A1F060E030
:101CE00079E08DE390E0A70196010E945112215006
:101CF0003109410951095695479537952795211581
:101D000080E1380798F0E889F989108260E874E882
:101D10008EE190E0A70196010E94511221503109F5
:101D2000410951095695479537952795EC85FD85CD
:101D30003083EE85FF852083188EEC89FD89B08283
:101D4000EA89FB89808180618083EA89FB898081BF
:101D500088608083EA89FB89808180688083EA8942
:101D6000FB8980818F7D8083DF91CF91FF90EF9001
:101D7000DF90CF90BF9008951F920F920FB60F92F1
:101D800011242F938F939F93EF93FF93E091480338
:101D9000F09149038081E0914E03F0914F0382FD61
:101DA00012C09081809151038F5F8F7320915203F5
:101DB000821751F0E0915103F0E0E85CFC4F958F01
:101DC0008093510301C08081FF91EF919F918F918A
:101DD0002F910F900FBE0F901F9018951F920F928A
:101DE0000FB60F9211242F933F934F935F936F93EE
:101DF0007F938F939F93AF93BF93EF93FF9388E36A
:101E000093E00E94B20DFF91EF91BF91AF919F912E
:101E10008F917F916F915F914F913F912F910F9093
:101E20000FBE0F901F90189588E393E00E94770DE6
:101E300021E0892B09F420E0822F089510923B03C2
:101E400010923A0388EE93E0A0E0B0E080933C0368
:101E500090933D03A0933E03B0933F0381EA92E049
:101E6000909339038093380385EC90E09093450379
:101E70008093440384EC90E090934703809346035F
:101E800080EC90E0909349038093480381EC90E0CC
:101E900090934B0380934A0382EC90E090934D0320
:101EA00080934C0386EC90E090934F0380934E0315
:101EB0001092510310925203109253031092540344
:101EC0000895CF92DF92EF92FF920F931F93CF93DB
:101ED000DF937C016A01EB0100E010E00C151D05A9
:101EE00071F06991D701ED91FC910190F081E02DA5
:101EF000C7010995892B19F00F5F1F4FEFCFC8015C
:101F0000DF91CF911F910F91FF90EF90DF90CF90D5
:101F100008956115710581F0DB010D900020E9F74E
:101F2000AD0141505109461B570BDC01ED91FC916D
:101F30000280F381E02D099480E090E008950C94F4
:101F4000890FDC01ED91FC910190F081E02D099465
:101F50006DEA72E00C94890F0F931F93CF93DF9378
:101F6000EC010E94890F8C01CE010E94A80F800F06
:101F7000911FDF91CF911F910F9108950F931F93A0
:101F8000CF93DF93EC010E94A10F8C01CE010E9440
:101F9000A80F800F911FDF91CF911F910F9108958E
:101FA0008F929F92AF92BF92DF92EF92FF920F9328
:101FB0001F93CF93DF93CDB7DEB7A1970FB6F894F9
:101FC000DEBF0FBECDBF7C01F42FD52ECB0119A2F1
:101FD000223008F42AE08E010F5D1F4F822E912CD3
:101FE000A12CB12C6F2F7D2DA50194010E945112BF
:101FF000F22FD32ECA01015011096A3014F4E0E324
:1020000001C0E7E3E60FD801EC93232B242B252B0B
:1020100049F7B801C7010E94890FA1960FB6F8943D
:10202000DEBF0FBECDBFDF91CF911F910F91FF900B
:10203000EF90DF90BF90AF909F908F900895CF92D8
:10204000DF92EF92FF920F931F93CF93DF93EC01F8
:102050006A017B012115310579F4E881F98101904C
:10206000F081E02D642FDF91CF911F910F91FF90B0
:10207000EF90DF90CF9009942A303105E9F477FF93
:102080001AC06DE20E94A10F8C0144275527BA01A6
:102090004C195D096E097F092AE0CE010E94D00F1C
:1020A000800F911FDF91CF911F910F91FF90EF90C3
:1020B000DF90CF9008952AE0B701A601CE01DF910D
:1020C000CF911F910F91FF90EF90DF90CF900C94E4
:1020D000D00F9A01AB01662757FD6095762F0C94BF
:1020E0001F102115310541F4DC01ED91FC910190A7
:1020F000F081E02D642F09940C94D00F9A01462FA3
:1021000050E060E070E00C9471100F931F93CF9338
:10211000DF93EC019A01462F50E060E070E00E94EE
:1021200071108C01CE010E94A80F800F911FDF91CA
:10213000CF911F910F9108950F931F93CF93DF932A
:10214000EC019A01AB0160E070E00E9471108C011B
:10215000CE010E94A80F800F911FDF91CF911F9198
:102160000F91089508950E947B0C0E94B2100E9466
:102170008D00C4EADDE00E945A012097E1F30E943D
:10218000A40DF9CF08955058BB27AA270ED0E0C060
:10219000D1D030F0D6D020F031F49F3F11F41EF4AE
:1021A000C6C00EF4E095E7FBBCC0E92FE2D080F397
:1021B000BA17620773078407950718F071F49EF544
:1021C000FAC00EF4E0950B2EBA2FA02D0B01B90129
:1021D00090010C01CA01A0011124FF27591B99F09D
:1021E000593F50F4503E68F11A16F040A22F232FA9
:1021F000342F4427585FF3CF469537952795A795F9
:10220000F0405395C9F77EF41F16BA0B620B730B9F
:10221000840BBAF09150A1F0FF0FBB1F661F771F10
:10222000881FC2F70EC0BA0F621F731F841F48F4C5
:10223000879577956795B795F7959E3F08F0B3CF4B
:102240009395880F08F09927EE0F97958795089535
:1022500098D088F09F5790F0B92F9927B751A0F0E8
:10226000D1F0660F771F881F991F1AF0BA95C9F72A
:1022700012C0B13081F09FD0B1E008959CC0672FAB
:10228000782F8827B85F39F0B93FCCF386957795DA
:102290006795B395D9F73EF49095809570956195C3
:1022A0007F4F8F4F9F4F0895E89409C097FB3EF4EE
:1022B00090958095709561957F4F8F4F9F4F992393
:1022C000A9F0F92F96E9BB279395F6958795779511
:1022D0006795B795F111F8CFFAF4BB0F11F460FFD1
:1022E0001BC06F5F7F4F8F4F9F4F16C0882311F029
:1022F00096E911C0772321F09EE8872F762F05C03D
:10230000662371F096E8862F70E060E02AF09A95D7
:10231000660F771F881FDAF7880F9695879597F9CC
:10232000089597F99F6780E870E060E008959FEF57
:1023300080EC089500240A9416161706180609065C
:10234000089500240A94121613061406050608952B
:10235000092E0394000C11F4882352F0BB0F40F4B3
:10236000BF2B11F460FF04C06F5F7F4F8F4F9F4FF3
:10237000089557FD9058440F551F59F05F3F71F075
:102380004795880F97FB991F61F09F3F79F08795DC
:102390000895121613061406551FF2CF4695F1DF65
:1023A00008C0161617061806991FF1CF86957105F5
:1023B000610508940895E894BB2766277727CB0129
:1023C00097F908950BD0C4CFB5DF28F0BADF18F025
:1023D000952309F0A6CFABCF1124EECFCADFA0F32F
:1023E000959FD1F3950F50E0551F629FF001729FAA
:1023F000BB27F00DB11D639FAA27F00DB11DAA1FC9
:10240000649F6627B00DA11D661F829F2227B00D15
:10241000A11D621F739FB00DA11D621F839FA00DA0
:10242000611D221F749F3327A00D611D231F849FF0
:10243000600D211D822F762F6A2F11249F57504047
:102440008AF0E1F088234AF0EE0FFF1FBB1F661FE2
:10245000771F881F91505040A9F79E3F510570F09B
:1024600060CFAACF5F3FECF3983EDCF3869577957B
:102470006795B795F795E7959F5FC1F7FE2B880F96
:10248000911D9695879597F90895991B79E004C059
:10249000991F961708F0961B881F7A95C9F78095A3
:1024A0000895A1E21A2EAA1BBB1BFD010DC0AA1F95
:1024B000BB1FEE1FFF1FA217B307E407F50720F0AD
:1024C000A21BB30BE40BF50B661F771F881F991F28
:1024D0001A9469F760957095809590959B01AC0171
:1024E000BD01CF010895EE0FFF1F0590F491E02D7F
:1024F0000994AEE0B0E0EFE7F2E10C9421150D890C
:102500001E8986E08C831A8309838FEF9FE79E8361
:102510008D83AE01475E5F4F6F89788DCE01019646
:102520000E949B12EF81F885E00FF11F10822E961A
:10253000E4E00C943D15ACE0B0E0E1EAF2E10C948B
:1025400013157C016B018A01FC01178216828381BD
:1025500081FFBDC1CE0101964C01F7019381F601C7
:1025600093FD859193FF81916F01882309F4ABC19D
:10257000853239F493FD859193FF81916F01853206
:1025800029F4B70190E00E948314E7CF512C312C3D
:1025900020E02032A0F48B3269F030F4803259F020
:1025A000833269F420612CC08D3239F0803339F4E4
:1025B000216026C02260246023C0286021C027FD3E
:1025C00027C030ED380F3A3078F426FF06C0FAE025
:1025D0005F9E300D1124532E13C08AE0389E300DBB
:1025E0001124332E20620CC08E3221F426FD6BC1E3
:1025F000206406C08C3611F4206802C0883641F48D
:10260000F60193FD859193FF81916F018111C1CFF7
:10261000982F9F7D9554933028F40C5F1F4FFFE354
:10262000F9830DC0833631F0833771F0833509F0BB
:102630005BC022C0F801808189830E5F1F4F442454
:102640004394512C540115C03801F2E06F0E711CF7
:10265000F801A080B18026FF03C0652D70E002C0A4
:102660006FEF7FEFC5012C870E9478142C01830146
:102670002C852F77222E17C03801F2E06F0E711CC7
:10268000F801A080B18026FF03C0652D70E002C074
:102690006FEF7FEFC5012C870E946D142C012C85F4
:1026A0002068222E830123FC1BC0832D90E0481656
:1026B0005906B0F4B70180E290E00E9483143A9486
:1026C000F4CFF50127FC859127FE81915F01B701C9
:1026D00090E00E94831431103A94F1E04F1A5108AF
:1026E0004114510471F7E5C0843611F0893639F58B
:1026F000F80127FF07C060817181828193810C5F9F
:102700001F4F08C060817181882777FD8095982FC1
:102710000E5F1F4F2F76B22E97FF09C090958095C0
:10272000709561957F4F8F4F9F4F2068B22E2AE0A2
:1027300030E0A4010E94B514A82EA81844C0853723
:1027400029F42F7EB22E2AE030E025C0F22FF97F47
:10275000BF2E8F36C1F018F4883579F0B4C08037B9
:1027600019F0883721F0AFC02F2F2061B22EB4FEB0
:102770000DC08B2D8460B82E09C024FF0AC09F2F86
:102780009660B92E06C028E030E005C020E130E0B8
:1027900002C020E132E0F801B7FE07C0608171811C
:1027A000828193810C5F1F4F06C06081718180E040
:1027B00090E00E5F1F4FA4010E94B514A82EA81828
:1027C000FB2DFF77BF2EB6FE0BC02B2D2E7FA51441
:1027D00050F4B4FE0AC0B2FC08C02B2D2E7E05C0FA
:1027E0007A2C2B2D03C07A2C01C0752C24FF0DC030
:1027F000FE01EA0DF11D8081803311F4297E09C0AC
:1028000022FF06C07394739404C0822F867809F067
:10281000739423FD13C020FF06C05A2C731418F4C0
:10282000530C5718732C731468F4B70180E290E0CE
:102830002C870E94831473942C85F5CF731410F4A5
:10284000371801C0312C24FF12C0B70180E390E09B
:102850002C870E9483142C8522FF17C021FF03C000
:1028600088E590E002C088E790E0B7010CC0822FB5
:10287000867859F021FD02C080E201C08BE227FD7D
:102880008DE2B70190E00E948314A51438F4B701DB
:1028900080E390E00E9483145A94F7CFAA94F40145
:1028A000EA0DF11D8081B70190E00E948314A11010
:1028B000F5CF332009F451CEB70180E290E00E94B9
:1028C00083143A94F6CFF7018681978102C08FEF87
:1028D0009FEF2C96E2E10C942F15FC0105906150BE
:1028E00070400110D8F7809590958E0F9F1F089526
:1028F000FC016150704001900110D8F780959095CF
:102900008E0F9F1F08950F931F93CF93DF93182F60
:10291000092FEB018B8181FD03C08FEF9FEF20C05A
:1029200082FF10C04E815F812C813D814217530789
:102930007CF4E881F9819F012F5F3F4F3983288321
:10294000108306C0E885F985812F0995892B29F721
:102950002E813F812F5F3F4F3F832E83812F902F0A
:10296000DF91CF911F910F910895FA01AA27283086
:1029700051F1203181F1E8946F936E7F6E5F7F4F4C
:102980008F4F9F4FAF4FB1E03ED0B4E03CD0670FC8
:10299000781F891F9A1FA11D680F791F8A1F911D1B
:1029A000A11D6A0F711D811D911DA11D20D009F46B
:1029B00068943F912AE0269F11243019305D3193AD
:1029C000DEF6CF010895462F4770405D4193B3E096
:1029D0000FD0C9F7F6CF462F4F70405D4A3318F03D
:1029E000495D31FD4052419302D0A9F7EACFB4E0EE
:1029F000A6959795879577956795BA95C9F70097A6
:102A00006105710508959B01AC010A2E0694579546
:102A1000479537952795BA95C9F7620F731F841F9D
:102A2000951FA01D08952F923F924F925F926F9233
:102A30007F928F929F92AF92BF92CF92DF92EF924E
:102A4000FF920F931F93CF93DF93CDB7DEB7CA1BCF
:102A5000DB0B0FB6F894DEBF0FBECDBF09942A88FA
:102A6000398848885F846E847D848C849B84AA84A2
:102A7000B984C884DF80EE80FD800C811B81AA812F
:102A8000B981CE0FD11D0FB6F894DEBF0FBECDBFFA
:082A9000ED010895F894FFCF59
:102A9800590B590B73616D706C65456E6372797073
:102AA800744B6579000A4C697374656E696E6720AA
:102AB8006174202564204D687A2E2E2E00535049CB
:102AC80020466C61736820496E6974204F4B2E2034
:102AD800556E69717565204D4143203D205B00535B
:102AE800504920466C617368204D454D206E6F74C7
:102AF80020666F756E64202869732063686970208A
:102B0800736F6C64657265643F292E2E2E005246E1
:102B18004D36395F41544320456E61626C656420CF
:102B2800284175746F205472616E736D697373698F
:102B38006F6E20436F6E74726F6C29006F6E006F3A
:102B480066660050726F6D697363756F7573206D7B
:102B58006F64652000466C61736820636F6E7465EE
:102B68006E743A0044656C6574696E6720466C61E2
:102B780073682063686970202E2E2E2000444F4E03
:102B8800450044657669636549443A2000526164AA
:102B9800696F2054656D702069732000432C2000F4
:102BA800235B005D2000746F205B002020205B52B7
:102BB800585F525353493A005D00202D2041434B42
:102BC8002073656E742E002050696E67696E6720E9
:102BD8006E6F64652000202D2041434B2E2E2E0061
:102BE80041434B2054455354006F6B21006E6F7462
:102BF80068696E670041646472657373202D2048AC
:102C08004558202D2042494E00202D20000000006C
:102C1800000F070B084D034F095C0762045D06634C
:102C280008B409E509C4097C073703280300000034
:102C380000F50D610F770D900D820DD30D0D0A0073
:0C2C48006E616E00696E66006F766600BB
:00000001FF
