:100000000C9463000C94650A0C948C0A0C948B007D
:100010000C948B000C948B000C948B000C948B0034
:100020000C948B000C948B000C948B000C948B0024
:100030000C948B000C948B000C948B000C948B0014
:100040000C94B30A0C948B000C94A70D0C94D90D4E
:100050000C948B000C948B000C948B000C948B00F4
:100060000C948B000C948B0000000008000201002F
:100070000003040700000000000000000102040863
:100080001020408001020408102001020408102002
:10009000040404040404040402020202020203032E
:1000A00003030303000000002300260029000000D2
:1000B0000000250028002B0000000000240027007D
:1000C0002A00B401090E11241FBECFEFD8E0DEBF15
:1000D000CDBF12E0A0E0B1E0E8EFF4E202C005908D
:1000E0000D92A033B107D9F723E0A0E3B2E001C03D
:1000F0001D92A135B207E1F710E0C6ECD0E004C0D4
:100100002297FE010E94A50FC23CD107C9F70E94A9
:10011000710F0C947A120C9400000F931F93CF93DD
:10012000DF93CDB7DEB7E2970FB6F894DEBF0FBE10
:10013000CDBF26E040E052EC61E070E084EB92E05D
:100140000E94450D6AE070E080E090E00E942C0B78
:1001500024E641E06BE285E492E00E94BE07E09174
:100160004502F09146020084F185E02D61E085E4CE
:1001700092E0099565E071E085E492E00E94410417
:1001800060913D0285E492E00E942A0781E08F930E
:1001900081EB8F9386E191E09F938F938E010F5FA8
:1001A0001F4F1F930F930E94A90FB80184EB92E099
:1001B0000E94970E8EE392E00E94130A0F900F9018
:1001C0000F900F900F900F90882321F16EE271E055
:1001D00084EB92E00E948A0E8EE392E00E94DE0998
:1001E00003EA12E0F80161918F0140E150E084EBF5
:1001F00092E00E94690F6AE384EB92E00E948C0E09
:10020000F2E00B3A1F0771F76DE584EB92E00E9474
:10021000A90E06C060E571E084EB92E00E94970EA3
:100220006FE771E084EB92E00E94970EE2960FB6C2
:10023000F894DEBF0FBECDBFDF91CF911F910F911C
:1002400008951F93CF93DF93182FEB0161E00E9475
:10025000CA0B61E0812F0E94030CBE01882777FD45
:100260008095982F0E942C0B60E0812FDF91CF9119
:100270001F910C94030C6F927F928F929F92AF927A
:10028000BF92CF92DF92EF92FF920F931F93CF9383
:10029000DF931F92CDB7DEB76DB67EB6E62EF12C9A
:1002A00015E0619FA00111249A012F5F3F4F6DB7A8
:1002B0007EB7621B730B0FB6F8947EBF0FBE6DBF87
:1002C0006F5F7F4FDC0120E030E000E3C02EE8E705
:1002D000BE2EF0E2AF2EFD01E81BF90BEE15FF0577
:1002E00034F5ED91DE2ED2940FE0D0220E2F0F7058
:1002F000FB01E20FF31FC082B18210E3912E9D0C2F
:10030000928210E3912E900E9382A48219E0812EA6
:100310008D1420F417E3912ED90CD2820A3020F0EC
:10032000D38017E0D10ED3822B5F3F4FD4CFFB0198
:10033000E40FF51F108284EB92E00E948A0E0FB644
:10034000F8947EBE0FBE6DBE0F90DF91CF911F91CE
:100350000F91FF90EF90DF90CF90BF90AF909F9064
:100360008F907F906F9008958AE08093470282E09B
:10037000809348021092490281E0809360021092BB
:100380004B028FE180934C0210924D0284EF91E07A
:10039000909346028093450240E35FEE68E08EE36F
:1003A00092E00C944109EF920F9384EB92E00E944B
:1003B000620C18161906ECF584EB92E00E947B0C97
:1003C0008E3641F4809331026DEA71E084EB92E065
:1003D0000E94970E6AE070E080E090E00E942C0B93
:1003E000A8E2EA2E02E02091000141E352E062E03F
:1003F00085E492E00E942D07882339F061EC71E0DA
:1004000084EB92E00E948A0E14C06AEC71E084EBE7
:1004100092E00E948A0E4AE050E06091300284EB44
:1004200092E00E94690F60ED71E084EB92E00E941F
:10043000970EE0914502F09146020480F581E02D8F
:1004400085E492E00995882309F488C069ED71E09C
:1004500084EB92E00E948A0E4091390250913A0258
:1004600060913B0270913C024F5F5F4F6F4F7F4F37
:100470004093390250933A0260933B0270933C02DE
:100480002AE030E084EB92E00E945C0F6CE284EBA7
:1004900092E00E948C0E6CE284EB92E00E948C0E43
:1004A00060915E024AE050E084EB92E00E94690FA6
:1004B0006AED71E084EB92E00E948A0E80915E0208
:1004C0008093300220E080915F02281760F4822F31
:1004D00090E0FC01EF59FD4F3081FC01EE5CFD4FD7
:1004E00030832F5FF0CF67E082E392E00E943B0110
:1004F0006CED71E084EB92E00E948A0E60915802EC
:10050000709159024AE050E084EB92E00E94540F4F
:100510006AED71E084EB92E00E948A0E85E492E03D
:100520000E942A038823D1F080915E0240E062E2BB
:1005300072E085E492E00E94710866EE71E084EB5F
:1005400092E00E948A0E84EB92E00E94930E63E098
:1005500070E089E00F91EF900C9421010F91EF90E2
:1005600008958091560290915702DC01ED91FC9123
:100570000484F585E02D0994CF93DF93EC0161E0CD
:100580008A810E94030C89858CBD8A858DBD7894F3
:10059000DF91CF910895FC01F8948CB581878DB5DA
:1005A00082878CB5837F8CBD8CB58F7D8CBD8CB5DF
:1005B0008C7F8CBD8DB58E7F8DBD60E082810C946B
:1005C000030CF89420916002233021F420915C0206
:1005D00021110FC020916002233011F4789407C0DC
:1005E000DC01ED91FC910288F389E02D099580E012
:1005F0000895DC01ED91FC910488F589E02D61E01E
:10060000099581E008958EBD00000DB407FEFDCF71
:100610008EB50895CF93DF931F92CDB7DEB7DC017F
:10062000ED91FC910480F581E02D69830995698144
:10063000882359F080915E02861711F06F3F29F4EC
:1006400090915A0281E0911101C080E00F90DF91FA
:10065000CF91089580915B02882329F090915D02EB
:1006600081E09F3F09F480E00895EF92FF921F938D
:10067000CF93DF931F92CDB7DEB77C01DC01ED9104
:10068000FC91008CF18DE02D698309956981862F9D
:100690008F770E94030380E00E940303182FD70185
:1006A000ED91FC91028CF38DE02DC7010995812F0E
:1006B0000F90DF91CF911F91FF90EF9008950F93CE
:1006C0001F93CF93DF9300D0CDB7DEB78C01DC0151
:1006D000ED91FC91008CF18DE02D4A8369830995A1
:1006E0006981862F80680E9403034A81842F0E94BB
:1006F0000303D801ED91FC91028CF38DE02DC8012C
:100700000F900F90DF91CF911F910F9109941F933C
:10071000CF93DF93EC01162F80916002681709F4E4
:1007200061C0623009F440C070F4662309F444C02B
:10073000613009F057C061E0CE010E943503482FB7
:10074000437E44603FC06330C1F0643009F04AC06A
:1007500061E0CE010E943503482F437E4C6061E08A
:10076000CE010E945F038885882381F1E881F981A9
:100770000688F789E02D61E014C061E0CE010E9497
:100780003503482F437E406161E0CE010E945F0344
:1007900088858823D9F0E881F9810688F789E02DDA
:1007A00060E0CE01099512C061E0CE010E943503E0
:1007B000482F437E486006C061E0CE010E943503A9
:1007C000482F437E61E0CE010E945F03809160026A
:1007D000811106C067E2CE010E94350387FFF6CF84
:1007E00010936002DF91CF911F910895CF93DF9313
:1007F000EC01603208F06FE16F838885882311F087
:1008000066956F8361E1CE010E943503482F407EDB
:100810008F81482B61E1CE01DF91CF910C945F0372
:10082000CF93DF93EC0110925F0210925E02109260
:100830005D0210925C0210925B0210925A021092BA
:1008400059021092580268E20E94350382FF0AC0E2
:100850006DE3CE010E943503482F44606DE3CE0165
:100860000E945F0340E465E2CE010E945F03E881DD
:10087000F9810488F589E02D63E0CE01DF91CF9105
:100880000994DF92EF92FF920F931F93CF93DF9320
:10089000EC018B01E881F9810488F589E02D61E0A4
:1008A000099501151105E1F0E881F981008CF18DC0
:1008B000E02DCE0109958EEB0E9403037801D12C27
:1008C000F70181917F010E940303D394F0E1DF12CD
:1008D000F7CFE881F981028CF38DE02DCE010995E7
:1008E0006DE3CE010E9435038E7F91E0012B09F468
:1008F00090E0482F492B6DE3CE01DF91CF911F91FE
:100900000F91FF90EF90DF900C945F038F929F9276
:10091000AF92BF92DF92EF92FF920F931F93CF930C
:10092000DF93CDB7DEB7AE970FB6F894DEBF0FBE3C
:10093000CDBF7C01D42E8EE28E010F5F1F4FD801F8
:10094000E82F1D92EA95E9F791E0998334E03A8324
:1009500042E04B8393E09D834E833F8340E448878E
:1009600035E039879A8796E09B8793E39C8737E049
:100970003D8798E09F8799E0998B99E19B8B92E462
:100980009C8B55E25D8B4E8B46E24F8B388F38E265
:10099000398F30E13A8F39E23B8F3CED3C8F8D8FC0
:1009A00088E88E8F8FE28F8F8DE288A380E389A302
:1009B00037E33BA330E93CA338E33DA39EA39CE38C
:1009C0009FA39FE898A79DE399A792E19AA79FE626
:1009D0009BA78CA78FEF8DA76F3131F06B3231F071
:1009E000663531F489ED05C08EE403C08CE601C0A4
:1009F00084EE8E876F3141F06B3221F0663521F441
:100A000080E003C080E401C080EC888B2AA361E011
:100A1000D70112968C910E94030C61E0F70182814C
:100A20000E94CA0B0E940B090E94FD0A4B015C0147
:100A30004AEA6FE2C7010E945F036FE2C7010E94AA
:100A400035038A3A59F00E94FD0A681979098A0922
:100A50009B09623371058105910550F30E94FD0ADF
:100A60004B015C0145E56FE2C7010E945F036FE245
:100A7000C7010E943503853559F00E94FD0A6819A7
:100A800079098A099B09623371058105910550F343
:100A9000B12CF801EB0DF11DEB0DF11D60816F3FE5
:100AA00031F04181C7010E945F03B394F2CF60E04F
:100AB00070E0C7010E944104D701ED91FC911197AC
:100AC0000084F185E02D18966C91C7010995D70136
:100AD000ED91FC910488F589E02D61E0C70109954D
:100AE0000E94FD0A4B015C0167E2C7010E943503C9
:100AF00087FD0BC00E94FD0A681979098A099B09C4
:100B0000623371058105910578F30E94FD0A681929
:100B100079098A099B09623371058105910588F479
:100B200043E050E061EB72E0F70184810E94450AE6
:100B3000F0925702E0925602D7011596DC9281E0BE
:100B400001C080E0AE960FB6F894DEBF0FBECDBFF9
:100B5000DF91CF911F910F91FF90EF90DF90BF90A9
:100B6000AF909F908F900895CF93DF93EC01611128
:100B70000DC064E2CE010E94350390E0919581950D
:100B8000910995958795DF91CF91089541E063E2B2
:100B90000E945F0363E2CE010E94350381FFFACF1A
:100BA000E8CFCF93DF93EC01809160028330A9F40A
:100BB00080915C02811111C060E0CE010E94B405F9
:100BC000863A9F4F54F4E881F9810488F589E02D35
:100BD00061E0CE01099581E001C080E0DF91CF9115
:100BE0000895FF920F931F93CF93DF93EC018091B1
:100BF0006002833001F568E2CE010E94350382FD78
:100C000028C019C080915F028D3330F4E0915F02FB
:100C1000F0E0EF59FD4F1082E881F981028CF38DED
:100C2000E02DCE010995E881F9810488F589E02D50
:100C300063E0CE01099560E0CE010E94B405909377
:100C4000590280935802DF91CF911F910F91FF902D
:100C50000895E881F9810488F589E02D61E0CE01ED
:100C60000995E881F981008CF18DE02DCE0109957F
:100C700080E00E94030380E00E94030380935C02F3
:100C800080915C028334D0F480915C0280935C029A
:100C900080E00E94030380935D028E81811109C070
:100CA00090915D028D81981721F080915D028F3FB8
:100CB00039F480915C02833018F017C082E4E6CFEB
:100CC00010925C02E881F981028CF38DE02DCE0157
:100CD0000995E881F9810288F389E02DCE01DF9141
:100CE000CF911F910F91FF90099480915C028350E6
:100CF00080935F0280E00E94030380935E0280E0A5
:100D00000E940303982F907890935A02982F907422
:100D100090935B02E881F9810684F785E02D682FC6
:100D2000CE010995F12C80915F02F81608F06ACF88
:100D30000F2D10E080E00E940303F801EF59FD4FF2
:100D40008083F394F0CF4F925F926F927F929F9245
:100D5000AF92BF92EF920F931F93CF93DF93EC016B
:100D6000162F5A01922E6DE30E943503482F4460DE
:100D70006DE3CE010E945F030E94FD0A2B013C013E
:100D8000CE010E94D1058823C1F0E881F981008855
:100D9000F189E02DE12C292DA501612FCE010995C6
:100DA000DF91CF911F910F91EF90BF90AF909F90E7
:100DB0007F906F905F904F9008950E94FD0A641994
:100DC000750986099709683E734081059105E8F623
:100DD000E881F9810480F581E02DCE010995D0CF1D
:100DE000CF93DF93EC016887662311F04FE001C0D9
:100DF0004AE163E1CE010E945F038885882341F0C8
:100E000061E1CE010E943503482F4F71406602C058
:100E10004F81406861E1CE01DF91CF910C945F0377
:100E20001F93CF93DF93EC01162F662311F04DE54E
:100E300001C045E56AE5CE010E945F03112311F070
:100E40004CE701C040E76CE5CE01DF91CF911F91E7
:100E50000C945F03FC01668308952F923F924F929A
:100E60005F927F928F929F92AF92BF92CF92DF92CA
:100E7000EF92FF920F931F93CF93DF93EC01962E87
:100E80005A01722E802E10E0CE2CD12CE12CF12CA8
:100E9000E881F9810190F081E02D01E0272DA50185
:100EA000692DCE0109950E94FD0A1B012C010E94AB
:100EB000FD0A62197309840995096C157D058E0573
:100EC0009F0540F4692DCE010E940A03882379F31F
:100ED00081E009C01F5F8116D8F68D858F3110F42F
:100EE0008F5F8D8780E0DF91CF911F910F91FF90F1
:100EF000EF90DF90CF90BF90AF909F908F907F90BA
:100F00005F904F903F902F900895CF93DF93EC0127
:100F1000607260939E0280915A02882361F18091F1
:100F20009E02882341F180915F02882321F180E0B5
:100F30000E94030390E09195819591099F878E8788
:100F400020915F02215020935F022B853C85211563
:100F5000310589F08217930734F44D854F3118F429
:100F60004F5F4D8708C0281739072CF48D858823DB
:100F700011F081508D87DF91CF910895FC01148687
:100F800013861786168610929E023FE135870C94D1
:100F900086048F929F92AF92BF92CF92DF92EF9290
:100FA000FF920F931F93CF93DF93EC01F62ED42E75
:100FB000152F822E902EE881F9810488F589E02D85
:100FC00061E0099567E2CE010E94350387FFFACF01
:100FD00040E065E2CE010E945F03EE2011F00C2D8F
:100FE00001C000E0080D0E3308F00DE3E881F9813F
:100FF000008CF18DE02DCE01099580E80E9403035D
:1010000083E0800F0E9403038F2D0E9403038D81D4
:101010000E940303EE2099F0CC2011F080EA01C079
:1010200080E80E940303CC20B9F0C501B7FE03C0DD
:101030009195819591090E94030301500DC099205B
:1010400041F08B859C85892B11F080E603C080E4FC
:1010500001C080E00E940303CD2CED2CF12E8E2DDB
:101060008C19801730F4F70181917F010E940303EE
:10107000F6CFE881F981028CF38DE02DCE01099540
:10108000E881F9810488F589E02D64E0CE010995B5
:101090000E94FD0A6B017C018B810E94390C892B17
:1010A000A1F0E881F9810488F589E02D61E0CE01A5
:1010B000DF91CF911F910F91FF90EF90DF90CF9034
:1010C000BF90AF909F908F9009940E94FD0A6C1979
:1010D0007D098E099F09683E73408105910508F7D7
:1010E000DBCF6F927F928F929F92AF92BF92CF92FF
:1010F000DF92EF92FF920F931F93CF93DF93EC0158
:101100003B01F42E10925B0210915E028090580217
:101110009090590280919E0201E0811101C000E08F
:101120006DE3CE010E943503482F44606DE3CE018C
:101130000E945F030E94FD0A5B016C01CE010E94C8
:10114000D105882301F110935E025401C02EEE24D4
:10115000E39400E02F2DA301612FCE010E94C90767
:101160009092590280925802DF91CF911F910F9176
:10117000FF90EF90DF90CF90BF90AF909F908F90B7
:101180007F906F9008950E94FD0A6A197B098C096F
:101190009D09683E734081059105A8F6E881F981B3
:1011A0000480F581E02DCE010995C8CFAF92BF92A2
:1011B000CF92EF920F93A12CB12CC12C0E94C907A2
:1011C0000F91EF90CF90BF90AF9008951F93CF9362
:1011D000DF93EC01162F809160026817A1F0CE0119
:1011E0000E948703143079F48B859C85892B59F0F4
:1011F000E881F9810284F385E02D6D85CE01DF91D0
:10120000CF911F910994DF91CF911F910895109272
:101210009E020C941004CF93CFB7F8948091A20251
:10122000811127C0EAE9F0E08491E6E8F0E09491CA
:10123000E82FF0E0EE0FFF1FE854FF4FA591B491A7
:101240008C91892321F461E08AE00E94030C61E023
:101250008AE00E94CA0B8CB580618CBD8CB580641D
:101260008CBD61E08DE00E94CA0B61E08BE00E94C2
:10127000CA0B8091A2028F5F8093A202CFBFCF9151
:101280000895FC0180E58583168260835283418343
:101290000895FC018CB583838DB5848335812681C7
:1012A0008091A102882399F09FB7F8948091A102C0
:1012B000813059F48DB380939F024DB38091A00289
:1012C000809584238DBB9FBF02C090939F023CBD3D
:1012D0002DBD60E080810C94030CCF93DF93EC0173
:1012E00061E088810E94030C8091A102882361F053
:1012F0009FB7F8942091A10280919F02213019F4A8
:101300008DBB9FBF01C08FBF8B818CBD8C818DBD7C
:10131000DF91CF9108950F931F93CF93DF938C01AB
:101320000E9449098FE90E94030380E00E940303A1
:10133000C82FD0E0DC2FCC2780E00E940303C82B0D
:10134000C8010E946D09CE01DF91CF911F910F91CD
:1013500008951F93CF93DF93EC010E94490985E024
:101360000E94030380E00E940303182FCE010E9415
:101370006D09812FDF91CF911F9108950E94A909D6
:10138000817008951F93CF93DF93EC01162F4423B0
:1013900039F040E066E00E94C209CE010E946D096A
:1013A000CE010E94BE098111FBCFCE010E944909E6
:1013B000812FDF91CF911F910C9403030F931F9303
:1013C000CF93DF938C0140E06BE40E94C20980E080
:1013D0000E94030380E00E94030380E00E94030355
:1013E00080E00E940303C3EAD2E080E00E9403038E
:1013F000899382E0CB3AD807C1F7C8010E946D09F2
:1014000083EA92E0DF91CF911F910F910895CF93DE
:10141000DF93EC0140E06BEA0E94C209CE01DF914C
:10142000CF910C946D09CF93DF93EC018CB58B8336
:101430008DB58C8361E088810E94CA0B80E58D8325
:101440001E82CE010E946D09CE010E94070A898189
:101450009A81892B51F0CE010E948B0929813A8112
:101460008217930711F080E00CC041E061E0CE01EB
:101470000E94C20980E00E940303CE010E946D0910
:1014800081E0DF91CF91089508958230E8F4E82F4C
:10149000F0E0EE0FFF1FEF5FFE4F7183608381303E
:1014A00041F0809169008C7F842B80936900E89AD9
:1014B000089580916900440F551F440F551F837F85
:1014C000842B80936900E99A08951F920F920FB6BA
:1014D0000F9211242F933F934F935F936F937F93BA
:1014E0008F939F93AF93BF93EF93FF93E09101018D
:1014F000F09102010995FF91EF91BF91AF919F91FA
:101500008F917F916F915F914F913F912F910F90AC
:101510000FBE0F901F9018951F920F920FB60F924B
:1015200011242F933F934F935F936F937F938F93E8
:101530009F93AF93BF93EF93FF93E0910301F091DB
:1015400004010995FF91EF91BF91AF919F918F9108
:101550007F916F915F914F913F912F910F900FBEAF
:101560000F901F9018951F920F920FB60F92112493
:101570002F933F938F939F93AF93BF938091AC0230
:101580009091AD02A091AE02B091AF023091AB024A
:1015900023E0230F2D3720F40196A11DB11D05C0B6
:1015A00026E8230F0296A11DB11D2093AB02809364
:1015B000AC029093AD02A093AE02B093AF028091C3
:1015C000B0029091B102A091B202B091B302019623
:1015D000A11DB11D8093B0029093B102A093B202FD
:1015E000B093B302BF91AF919F918F913F912F9193
:1015F0000F900FBE0F901F9018952FB7F894609121
:10160000AC027091AD028091AE029091AF022FBFFB
:1016100008953FB7F8948091B0029091B102A091E3
:10162000B202B091B30226B5A89B05C02F3F19F0B6
:101630000196A11DB11D3FBF6627782F892F9A2FD4
:10164000620F711D811D911D42E0660F771F881F7B
:10165000991F4A95D1F708958F929F92AF92BF92AA
:10166000CF92DF92EF92FF926B017C010E94090BF7
:101670004B015C01C114D104E104F104F1F00E94BA
:10168000800F0E94090B681979098A099B09683E35
:1016900073408105910570F321E0C21AD108E10879
:1016A000F10888EE880E83E0981EA11CB11CC114BD
:1016B000D104E104F10429F7DDCFFF90EF90DF9032
:1016C000CF90BF90AF909F908F900895789484B5FD
:1016D000826084BD84B5816084BD85B5826085BD2E
:1016E00085B5816085BDEEE6F0E080818160808314
:1016F000E1E8F0E0108280818260808380818160F7
:101700008083E0E8F0E0808181608083E1EBF0E0BD
:10171000808184608083E0EBF0E080818160808361
:10172000EAE7F0E08081846080838081826080834A
:101730008081816080838081806880831092C10075
:101740000895833081F028F4813099F08230A1F03F
:1017500008958730A9F08830B9F08430D1F48091B1
:1017600080008F7D03C0809180008F778093800000
:10177000089584B58F7702C084B58F7D84BD0895A8
:101780008091B0008F7703C08091B0008F7D8093EF
:10179000B0000895CF93DF9390E0FC01E458FF4F31
:1017A0002491FC01E057FF4F8491882349F190E098
:1017B000880F991FFC01E854FF4FA591B491825501
:1017C0009F4FFC01C591D4919FB7611108C0F89457
:1017D0008C91209582238C93888182230AC0623069
:1017E00051F4F8948C91322F309583238C93888117
:1017F000822B888304C0F8948C91822B8C939FBF9A
:10180000DF91CF9108950F931F93CF93DF931F9292
:10181000CDB7DEB7282F30E0F901E859FF4F8491AA
:10182000F901E458FF4F1491F901E057FF4F04917B
:101830000023C9F0882321F069830E94A10B6981EC
:10184000E02FF0E0EE0FFF1FE255FF4FA591B4919E
:101850009FB7F8948C91611103C01095812301C04A
:10186000812B8C939FBF0F90DF91CF911F910F9190
:101870000895CF93DF93282F30E0F901E859FF4F07
:101880008491F901E458FF4FD491F901E057FF4FDB
:10189000C491CC2391F081110E94A10BEC2FF0E0B8
:1018A000EE0FFF1FEC55FF4FA591B4912C912D2306
:1018B00081E090E021F480E002C080E090E0DF91E0
:1018C000CF910895FC01818D228D90E0805C9F4F27
:1018D000821B91098F7399270895FC01918D828D48
:1018E000981731F0828DE80FF11D858D90E00895F5
:1018F0008FEF9FEF0895FC01918D828D981761F015
:10190000828DDF01A80FB11D5D968C91928D9F5F36
:101910009F73928F90E008958FEF9FEF08958FEF60
:101920009DE0892B49F080E090E0892B29F00E940E
:10193000FF0D81110C9400000895FC01848DDF01DE
:10194000A80FB11DA35ABF4F2C91848D90E0019632
:101950008F739927848FA689B7892C93A089B18921
:101960008C9180648C93938D848D981306C002882B
:10197000F389E02D80818F7D80830895CF93DF935D
:10198000EC01888D8823C9F0EA89FB89808185FD77
:1019900005C0A889B9898C9186FD0FC00FB607FCD8
:1019A000F5CF808185FFF2CFA889B9898C9185FF19
:1019B000EDCFCE010E949D0CE7CFDF91CF9108952E
:1019C000CF92DF92FF920F931F93CF93DF931F92DB
:1019D000CDB7DEB76C0181E0D60158968C9358974D
:1019E0005B969C915B975C968C915C97981307C073
:1019F0005096ED91FC915197808185FD2EC0F601A6
:101A0000038D10E00F5F1F4F0F731127F02EF601AB
:101A1000848DF81211C00FB607FCF9CFD60150968D
:101A2000ED91FC915197808185FFF1CFC6016983CB
:101A30000E949D0C6981EBCF838DE80FF11DE35A65
:101A4000FF4F6083D6015B960C935B975296ED91A6
:101A5000FC915397808180620CC0D6015696ED911F
:101A6000FC91579760835096ED91FC91519780813E
:101A70008064808381E090E00F90DF91CF911F918F
:101A80000F91FF90DF90CF900895BF92CF92DF9299
:101A9000EF92FF92CF93DF93EC016A017B01B22EAC
:101AA000E889F98982E08083411581EE5807610554
:101AB0007105A1F060E079E08DE390E0A701960167
:101AC0000E94810F215031094109510956954795CE
:101AD00037952795211580E1380798F0E889F9892D
:101AE000108260E874E88EE190E0A70196010E9400
:101AF000810F215031094109510956954795379574
:101B00002795EC85FD853083EE85FF852083188E33
:101B1000EC89FD89B082EA89FB89808180618083BC
:101B2000EA89FB89808188608083EA89FB898081DA
:101B300080688083EA89FB8980818F7D8083DF9143
:101B4000CF91FF90EF90DF90CF90BF9008951F92BC
:101B50000F920FB60F9211242F938F939F93EF93B1
:101B6000FF93E091C402F091C5028081E091CA0226
:101B7000F091CB0282FD12C090818091CD028F5FE7
:101B80008F732091CE02821751F0E091CD02F0E0E8
:101B9000EC54FD4F958F8093CD0201C08081FF9161
:101BA000EF919F918F912F910F900FBE0F901F90EB
:101BB00018951F920F920FB60F9211242F933F93F7
:101BC0004F935F936F937F938F939F93AF93BF9345
:101BD000EF93FF9384EB92E00E949D0CFF91EF91B5
:101BE000BF91AF919F918F917F916F915F914F9135
:101BF0003F912F910F900FBE0F901F90189584EB7F
:101C000092E00E94620C21E0892B09F420E0822FEF
:101C100008951092B7021092B60288EE93E0A0E009
:101C2000B0E08093B8029093B902A093BA02B09347
:101C3000BB0284E192E09093B5028093B40285ECFC
:101C400090E09093C1028093C00284EC90E0909366
:101C5000C3028093C20280EC90E09093C50280930F
:101C6000C40281EC90E09093C7028093C60282EC9C
:101C700090E09093C9028093C80286EC90E0909324
:101C8000CB028093CA021092CD021092CE02109223
:101C9000CF021092D0020895CF92DF92EF92FF927E
:101CA0000F931F93CF93DF937C016A01EB0100E058
:101CB00010E00C151D0571F06991D701ED91FC91B3
:101CC0000190F081E02DC7010995892B19F00F5F74
:101CD0001F4FEFCFC801DF91CF911F910F91FF9060
:101CE000EF90DF90CF9008956115710581F0DB01D1
:101CF0000D900020E9F7AD0141505109461B570BEB
:101D0000DC01ED91FC910280F381E02D099480E0EB
:101D100090E008950C94740EDC01ED91FC9101901B
:101D2000F081E02D099460E272E00C94740E0F9340
:101D30001F93CF93DF93EC010E94740E8C01CE01B0
:101D40000E94930E800F911FDF91CF911F910F91F1
:101D500008950F931F93CF93DF93EC010E948C0E95
:101D60008C01CE010E94930E800F911FDF91CF91C5
:101D70001F910F9108958F929F92AF92BF92DF9221
:101D8000EF92FF920F931F93CF93DF93CDB7DEB700
:101D9000A1970FB6F894DEBF0FBECDBF7C01F42F24
:101DA000D52ECB0119A2223008F42AE08E010F5D56
:101DB0001F4F822E912CA12CB12C6F2F7D2DA501B0
:101DC00094010E94810FF22FD32ECA0101501109F4
:101DD0006A3014F4E0E301C0E7E3E60FD801EC93C6
:101DE000232B242B252B49F7B801C7010E94740E21
:101DF000A1960FB6F894DEBF0FBECDBFDF91CF9195
:101E00001F910F91FF90EF90DF90BF90AF909F9048
:101E10008F900895CF92DF92EF92FF920F931F93CE
:101E2000CF93DF93EC016A017B012115310579F431
:101E3000E881F9810190F081E02D642FDF91CF914D
:101E40001F910F91FF90EF90DF90CF9009942A306F
:101E50003105E9F477FF1AC06DE20E948C0E8C0107
:101E600044275527BA014C195D096E097F092AE0FC
:101E7000CE010E94BB0E800F911FDF91CF911F9169
:101E80000F91FF90EF90DF90CF9008952AE0B70177
:101E9000A601CE01DF91CF911F910F91FF90EF909E
:101EA000DF90CF900C94BB0E9A01AB01662757FDD3
:101EB0006095762F0C940A0F2115310541F4DC0151
:101EC000ED91FC910190F081E02D642F09940C9428
:101ED000BB0E9A01462F50E060E070E00C945C0F5E
:101EE00008950E94660B0E94700F0E948D00CFE83B
:101EF000DCE00E94D3012097E1F30E948F0CF9CF20
:101F00000895A1E21A2EAA1BBB1BFD010DC0AA1F3A
:101F1000BB1FEE1FFF1FA217B307E407F50720F052
:101F2000A21BB30BE40BF50B661F771F881F991FCD
:101F30001A9469F760957095809590959B01AC0116
:101F4000BD01CF010895EE0FFF1F0590F491E02D24
:101F50000994AEE0B0E0EFEAFFE00C9451120D8975
:101F60001E8986E08C831A8309838FEF9FE79E8307
:101F70008D83AE01475E5F4F6F89788DCE010196EC
:101F80000E94CB0FEF81F885E00FF11F10822E9693
:101F9000E4E00C946D12ACE0B0E0E1EDFFE00C94F5
:101FA00043127C016B018A01FC0117821682838136
:101FB00081FFBDC1CE0101964C01F7019381F6016D
:101FC00093FD859193FF81916F01882309F4ABC143
:101FD000853239F493FD859193FF81916F018532AC
:101FE00029F4B70190E00E94B311E7CF512C312CB6
:101FF00020E02032A0F48B3269F030F4803259F0C6
:10200000833269F420612CC08D3239F0803339F489
:10201000216026C02260246023C0286021C027FDE3
:1020200027C030ED380F3A3078F426FF06C0FAE0CA
:102030005F9E300D1124532E13C08AE0389E300D60
:102040001124332E20620CC08E3221F426FD6BC188
:10205000206406C08C3611F4206802C0883641F432
:10206000F60193FD859193FF81916F018111C1CF9D
:10207000982F9F7D9554933028F40C5F1F4FFFE3FA
:10208000F9830DC0833631F0833771F0833509F061
:102090005BC022C0F801808189830E5F1F4F4424FA
:1020A0004394512C540115C03801F2E06F0E711C9D
:1020B000F801A080B18026FF03C0652D70E002C04A
:1020C0006FEF7FEFC5012C870E94A8112C018301BF
:1020D0002C852F77222E17C03801F2E06F0E711C6D
:1020E000F801A080B18026FF03C0652D70E002C01A
:1020F0006FEF7FEFC5012C870E949D112C012C856D
:102100002068222E830123FC1BC0832D90E04816FB
:102110005906B0F4B70180E290E00E94B3113A94FE
:10212000F4CFF50127FC859127FE81915F01B7016E
:1021300090E00E94B31131103A94F1E04F1A510827
:102140004114510471F7E5C0843611F0893639F530
:10215000F80127FF07C060817181828193810C5F44
:102160001F4F08C060817181882777FD8095982F67
:102170000E5F1F4F2F76B22E97FF09C09095809566
:10218000709561957F4F8F4F9F4F2068B22E2AE048
:1021900030E0A4010E94E511A82EA81844C085379C
:1021A00029F42F7EB22E2AE030E025C0F22FF97FED
:1021B000BF2E8F36C1F018F4883579F0B4C080375F
:1021C00019F0883721F0AFC02F2F2061B22EB4FE56
:1021D0000DC08B2D8460B82E09C024FF0AC09F2F2C
:1021E0009660B92E06C028E030E005C020E130E05E
:1021F00002C020E132E0F801B7FE07C060817181C2
:10220000828193810C5F1F4F06C06081718180E0E5
:1022100090E00E5F1F4FA4010E94E511A82EA818A0
:10222000FB2DFF77BF2EB6FE0BC02B2D2E7FA514E6
:1022300050F4B4FE0AC0B2FC08C02B2D2E7E05C09F
:102240007A2C2B2D03C07A2C01C0752C24FF0DC0D5
:10225000FE01EA0DF11D8081803311F4297E09C051
:1022600022FF06C07394739404C0822F867809F00D
:10227000739423FD13C020FF06C05A2C731418F466
:10228000530C5718732C731468F4B70180E290E074
:102290002C870E94B31173942C85F5CF731410F41E
:1022A000371801C0312C24FF12C0B70180E390E041
:1022B0002C870E94B3112C8522FF17C021FF03C079
:1022C00088E590E002C088E790E0B7010CC0822F5B
:1022D000867859F021FD02C080E201C08BE227FD23
:1022E0008DE2B70190E00E94B311A51438F4B70154
:1022F00080E390E00E94B3115A94F7CFAA94F401BE
:10230000EA0DF11D8081B70190E00E94B311A11088
:10231000F5CF332009F451CEB70180E290E00E945E
:10232000B3113A94F6CFF7018681978102C08FEFFF
:102330009FEF2C96E2E10C945F12FC010590615036
:1023400070400110D8F7809590958E0F9F1F0895CB
:10235000FC016150704001900110D8F78095909574
:102360008E0F9F1F08950F931F93CF93DF93182F06
:10237000092FEB018B8181FD03C08FEF9FEF20C000
:1023800082FF10C04E815F812C813D81421753072F
:102390007CF4E881F9819F012F5F3F4F39832883C7
:1023A000108306C0E885F985812F0995892B29F7C7
:1023B0002E813F812F5F3F4F3F832E83812F902FB0
:1023C000DF91CF911F910F910895FA01AA2728302C
:1023D00051F1203181F1E8946F936E7F6E5F7F4FF2
:1023E0008F4F9F4FAF4FB1E03ED0B4E03CD0670F6E
:1023F000781F891F9A1FA11D680F791F8A1F911DC1
:10240000A11D6A0F711D811D911DA11D20D009F410
:1024100068943F912AE0269F11243019305D319352
:10242000DEF6CF010895462F4770405D4193B3E03B
:102430000FD0C9F7F6CF462F4F70405D4A3318F0E2
:10244000495D31FD4052419302D0A9F7EACFB4E093
:10245000A6959795879577956795BA95C9F700974B
:102460006105710508959B01AC010A2E06945795EC
:10247000479537952795BA95C9F7620F731F841F43
:10248000951FA01D08952F923F924F925F926F92D9
:102490007F928F929F92AF92BF92CF92DF92EF92F4
:1024A000FF920F931F93CF93DF93CDB7DEB7CA1B75
:1024B000DB0B0FB6F894DEBF0FBECDBF09942A88A0
:1024C000398848885F846E847D848C849B84AA8448
:1024D000B984C884DF80EE80FD800C811B81AA81D5
:1024E000B981CE0FD11D0FB6F894DEBF0FBECDBFA0
:0824F000ED010895F894FFCFFF
:1024F80001440A440A73616D706C65456E637279B4
:1025080070744B6579000A4C697374656E696E67FF
:10251800206174202564204D687A2E2E2E00535099
:102528004920466C61736820496E6974204F4B2EB0
:1025380020556E69717565204D4143203D205B0033
:1025480053504920466C617368204D454D206E6F8D
:102558007420666F756E64202869732063686970DB
:1025680020736F6C64657265643F292E2E2E0052AD
:10257800464D36395F41544320456E61626C65644F
:1025880020284175746F205472616E736D6973737E
:10259800696F6E20436F6E74726F6C2900474757DE
:1025A8003A204E65772074616720666F756E6421E6
:1025B800004747573A204F6B21004747573A2000BA
:1025C800204E6F7468696E6700232C002C52585F88
:1025D800525353493A0041434B2073656E742C00A3
:1025E80000000000A3062D07E1027108F006F603BB
:1025F800F1058507D6080709E6081007CB02BC02D3
:1026080000000000E00C4C0E620C7B0C6D0CBE0C44
:102618000D0A006E616E00696E66006F76660000D6
:00000001FF
