:100000000C9463000C94B5090C94DC090C948B00DF
:100010000C948B000C948B000C948B000C948B0034
:100020000C948B000C948B000C948B000C948B0024
:100030000C948B000C948B000C948B000C948B0014
:100040000C94030A0C948B000C94F70C0C94290D5F
:100050000C948B000C948B000C948B000C948B00F4
:100060000C948B000C948B0000000008000201002F
:100070000003040700000000000000000102040863
:100080001020408001020408102001020408102002
:10009000040404040404040402020202020203032E
:1000A00003030303000000002300260029000000D2
:1000B0000000250028002B0000000000240027007D
:1000C0002A00A301590D11241FBECFEFD8E0DEBFD7
:1000D000CDBF11E0A0E0B1E0E6EFFDE102C0059088
:1000E0000D92A43AB107D9F722E0A4EAB1E001C029
:1000F0001D92A03DB207E1F710E0C6ECD0E004C0CD
:100100002297FE010E94F50EC23CD107C9F70E945A
:10011000C10E0C94F90E0C94000026E040E052EC65
:1001200061E070E083E392E00E94950C6AE070E089
:1001300080E090E00E947C0A24E641E06BE28CECD7
:1001400091E00E943707E091CC01F091CD0100844D
:10015000F185E02D61E08CEC91E009956CE071E0B7
:100160008CEC91E00E94BA036091C4018CEC91E0A8
:100170000E94A30685EC91E00C946309EF920F9323
:100180009CE39093A5018093A6019091C3019F5F8A
:100190009F3F19F09093C30102C01092C301909148
:1001A000C3019093A7016093A801FA01A9EAB1E005
:1001B00091919D9391E0A13BB907D1F79EE3909374
:1001C000B10198E2E92E02E02DE045EA51E0682F06
:1001D0008CEC91E00E94A60690E00F91EF900895BC
:1001E000E091CC01F091CD010480F581E02D8CEC03
:1001F00091E009958823D1F18CEC91E00E94A30253
:10020000882339F040E065E971E08CEC91E00E94D0
:10021000EA078091E5018093B6019091EA019B364F
:1002200031F440E051E06BE60E94BE0006C09091C0
:10023000EA018091C3018917D0F48091EB0180938A
:10024000B501EDEAF1E084E090E0DC01A851BE4F99
:100250002C91219301968C309105B9F78091DF01A3
:100260009091E0018093A40181E6089508958AE7C2
:1002700008958F929F92BF92CF92DF92EF92FF925A
:100280000F931F93CF93DF931F92CDB7DEB78DB639
:100290009EB6E62EF12C15E0619FA00111249A0173
:1002A0002F5F3F4F6DB77EB7621B730B0FB6F8948D
:1002B0007EBF0FBE6DBF6F5F7F4FDC0120E030E07F
:1002C000FD01E81BF90BEE15FF051CF5ED91DE2E87
:1002D000D2940FE0D0220E2F0F70FB01E20FF31F1C
:1002E00010E3C12ECD0CC28210E3C12EC00EC3821A
:1002F00019E0B12EBD1420F417E3C12EDC0CD2821C
:100300000A3020F0D38017E0D10ED3822B5F3F4F0D
:10031000D7CFFB01E40FF51F108283E392E00E9428
:10032000DA0D0FB6F8949EBE0FBE8DBE0F90DF9112
:10033000CF911F910F91FF90EF90DF90CF90BF90E2
:100340009F908F9008958AE08093CE0182E0809301
:10035000CF011092D00181E08093E7011092D20189
:100360008FE18093D3011092D40187E691E09093BE
:10037000CD018093CC0140E35FEE68E085EC91E035
:100380000C94BA08CF93DF930E94F000813649F0B5
:100390008A37B9F56DE171E083E392E00E94E70DE1
:1003A00030C06CE383E392E00E94DC0D4AE050E051
:1003B0006091B60183E392E00E94B90E4AE050E0FA
:1003C0006091C30183E392E00E94B90E6091B50190
:1003D00083E392E00E94DC0D68E08DEA91E00E94E8
:1003E00039016091A401772767FD70954AE050E0DC
:1003F00083E392E00E94A40E6EE383E392E00E9406
:10040000F90D83E392E00E94B20B18161906FCF472
:10041000C7EBD1E083E392E00E94CB0B899381E0AC
:10042000C33CD807B9F7EAEBF1E0A5EAB1E0819166
:100430008D9381E0E23CF807D1F745EA51E0609105
:10044000B9018091B801DF91CF910C94BE00DF918A
:10045000CF9108958091DD019091DE01DC01ED9155
:10046000FC910484F585E02D0994CF93DF93EC0192
:1004700061E08A810E94530B89858CBD8A858DBD80
:100480007894DF91CF910895FC01F8948CB5818721
:100490008DB582878CB5837F8CBD8CB58F7D8CBDEF
:1004A0008CB58C7F8CBD8DB58E7F8DBD60E08281DB
:1004B0000C94530BF8942091E701233021F4209100
:1004C000E30121110FC02091E701233011F478944A
:1004D00007C0DC01ED91FC910288F389E02D0995BC
:1004E00080E00895DC01ED91FC910488F589E02D10
:1004F00061E0099581E008958EBD00000DB407FE0E
:10050000FDCF8EB50895CF93DF931F92CDB7DEB7A1
:10051000DC01ED91FC910480F581E02D6983099562
:100520006981882359F08091E501861711F06F3FAA
:1005300029F49091E10181E0911101C080E00F90D8
:10054000DF91CF9108958091E201882329F0909165
:10055000E40181E09F3F09F480E00895EF92FF926B
:100560001F93CF93DF931F92CDB7DEB77C01DC01E1
:10057000ED91FC91008CF18DE02D698309956981E5
:10058000862F8F770E947C0280E00E947C02182FC9
:10059000D701ED91FC91028CF38DE02DC7010995F7
:1005A000812F0F90DF91CF911F91FF90EF900895D1
:1005B0000F931F93CF93DF9300D0CDB7DEB78C019D
:1005C000DC01ED91FC91008CF18DE02D4A83698373
:1005D00009956981862F80680E947C024A81842F58
:1005E0000E947C02D801ED91FC91028CF38DE02DEC
:1005F000C8010F900F90DF91CF911F910F91099437
:100600001F93CF93DF93EC01162F8091E7016817BA
:1006100009F461C0623009F440C070F4662309F443
:1006200044C0613009F057C061E0CE010E94AE02C3
:10063000482F437E44603FC06330C1F0643009F00E
:100640004AC061E0CE010E94AE02482F437E4C605A
:1006500061E0CE010E94D8028885882381F1E8817B
:10066000F9810688F789E02D61E014C061E0CE01D0
:100670000E94AE02482F437E406161E0CE010E949D
:10068000D80288858823D9F0E881F9810688F7891E
:10069000E02D60E0CE01099512C061E0CE010E941C
:1006A000AE02482F437E486006C061E0CE010E9442
:1006B000AE02482F437E61E0CE010E94D8028091B5
:1006C000E701811106C067E2CE010E94AE0287FFFA
:1006D000F6CF1093E701DF91CF911F910895CF934B
:1006E000DF93EC01603208F06FE16F838885882327
:1006F00011F066956F8361E1CE010E94AE02482F32
:10070000407E8F81482B61E1CE01DF91CF910C9427
:10071000D802CF93DF93EC011092E6011092E5012D
:100720001092E4011092E3011092E2011092E101B3
:100730001092E0011092DF0168E20E94AE0282FF97
:100740000AC06DE3CE010E94AE02482F44606DE303
:10075000CE010E94D80240E465E2CE010E94D80298
:10076000E881F9810488F589E02D63E0CE01DF910D
:10077000CF910994DF92EF92FF920F931F93CF9343
:10078000DF93EC018B01E881F9810488F589E02D84
:1007900061E0099501151105E1F0E881F981008C0E
:1007A000F18DE02DCE0109958EEB0E947C0278013F
:1007B000D12CF70181917F010E947C02D394F0E15A
:1007C000DF12F7CFE881F981028CF38DE02DCE01A5
:1007D00009956DE3CE010E94AE028E7F91E0012B60
:1007E00009F490E0482F492B6DE3CE01DF91CF91C2
:1007F0001F910F91FF90EF90DF900C94D8028F9291
:100800009F92AF92BF92DF92EF92FF920F931F934E
:10081000CF93DF93CDB7DEB7AE970FB6F894DEBFB8
:100820000FBECDBF7C01D42E8EE28E010F5F1F4F15
:10083000D801E82F1D92EA95E9F791E0998334E019
:100840003A8342E04B8393E09D834E833F8340E4B1
:10085000488735E039879A8796E09B8793E39C87A2
:1008600037E03D8798E09F8799E0998B99E19B8BD2
:1008700092E49C8B55E25D8B4E8B46E24F8B388F1A
:1008800038E2398F30E13A8F39E23B8F3CED3C8FD3
:100890008D8F88E88E8F8FE28F8F8DE288A380E323
:1008A00089A337E33BA330E93CA338E33DA39EA3F0
:1008B0009CE39FA39FE898A79DE399A792E19AA73D
:1008C0009FE69BA78CA78FEF8DA76F3131F06B321E
:1008D00031F0663531F489ED05C08EE403C08CE655
:1008E00001C084EE8E876F3141F06B3221F06635A6
:1008F00021F480E003C080E401C080EC888B2AA34F
:1009000061E0D70112968C910E94530B61E0F701D0
:1009100082810E941A0B0E9484080E944D0A4B019A
:100920005C014AEA6FE2C7010E94D8026FE2C70188
:100930000E94AE028A3A59F00E944D0A681979095C
:100940008A099B09623371058105910550F30E9464
:100950004D0A4B015C0145E56FE2C7010E94D802D8
:100960006FE2C7010E94AE02853559F00E944D0A20
:10097000681979098A099B09623371058105910516
:1009800050F3B12CF801EB0DF11DEB0DF11D608161
:100990006F3F31F04181C7010E94D802B394F2CF7A
:1009A00060E070E0C7010E94BA03D701ED91FC91AD
:1009B00011970084F185E02D18966C91C701099577
:1009C000D701ED91FC910488F589E02D61E0C70124
:1009D00009950E944D0A4B015C0167E2C7010E9424
:1009E000AE0287FD0BC00E944D0A681979098A0979
:1009F0009B09623371058105910578F30E944D0AC8
:100A0000681979098A099B09623371058105910585
:100A100088F443E050E06AE272E0F70184810E94CA
:100A20009509F092DE01E092DD01D7011596DC9286
:100A300081E001C080E0AE960FB6F894DEBF0FBE35
:100A4000CDBFDF91CF911F910F91FF90EF90DF907D
:100A5000BF90AF909F908F900895CF93DF93EC015C
:100A600061110DC064E2CE010E94AE0290E091954A
:100A70008195910995958795DF91CF91089541E0F2
:100A800063E20E94D80263E2CE010E94AE0281FFBF
:100A9000FACFE8CFCF93DF93EC018091E701833069
:100AA000A9F48091E301811111C060E0CE010E94A0
:100AB0002D05863A9F4F54F4E881F9810488F58921
:100AC000E02D61E0CE01099581E001C080E0DF9179
:100AD000CF910895FF920F931F93CF93DF93EC0173
:100AE0008091E701833001F568E2CE010E94AE02F9
:100AF00082FD28C019C08091E6018D3330F4E09169
:100B0000E601F0E0E851FE4F1082E881F981028CA5
:100B1000F38DE02DCE010995E881F9810488F589EE
:100B2000E02D63E0CE01099560E0CE010E942D0525
:100B30009093E0018093DF01DF91CF911F910F919E
:100B4000FF900895E881F9810488F589E02D61E03E
:100B5000CE010995E881F981008CF18DE02DCE015F
:100B6000099580E00E947C0280E00E947C028093D4
:100B7000E3018091E3018334D0F48091E301809319
:100B8000E30180E00E947C028093E4018E81811168
:100B900009C09091E4018D81981721F08091E401C2
:100BA0008F3F39F48091E301833018F017C082E45D
:100BB000E6CF1092E301E881F981028CF38DE02DFC
:100BC000CE010995E881F9810288F389E02DCE01F3
:100BD000DF91CF911F910F91FF9009948091E301D4
:100BE00083508093E60180E00E947C028093E501BF
:100BF00080E00E947C02982F90789093E101982FDA
:100C000090749093E201E881F9810684F785E02DE4
:100C1000682FCE010995F12C8091E601F81608F0B5
:100C20006ACF0F2D10E080E00E947C02F801E851AD
:100C3000FE4F8083F394F0CF4F925F926F927F923A
:100C40009F92AF92BF92EF920F931F93CF93DF9338
:100C5000EC01162F5A01922E6DE30E94AE02482F2E
:100C600044606DE3CE010E94D8020E944D0A2B0120
:100C70003C01CE010E944A058823C1F0E881F98138
:100C80000088F189E02DE12C292DA501612FCE01ED
:100C90000995DF91CF911F910F91EF90BF90AF9089
:100CA0009F907F906F905F904F9008950E944D0AA3
:100CB0006419750986099709683E73408105910595
:100CC000E8F6E881F9810480F581E02DCE010995EF
:100CD000D0CFCF93DF93EC016887662311F04FE00C
:100CE00001C04AE163E1CE010E94D80288858823D1
:100CF00041F061E1CE010E94AE02482F4F71406683
:100D000002C04F81406861E1CE01DF91CF910C9428
:100D1000D8021F93CF93DF93EC01162F662311F0B7
:100D20004DE501C045E56AE5CE010E94D8021123D8
:100D300011F04CE701C040E76CE5CE01DF91CF91A7
:100D40001F910C94D802FC01668308952F923F9264
:100D50004F925F927F928F929F92AF92BF92CF926B
:100D6000DF92EF92FF920F931F93CF93DF93EC01EB
:100D7000962E5A01722E802E10E0CE2CD12CE12C12
:100D8000F12CE881F9810190F081E02D01E0272D1F
:100D9000A501692DCE0109950E944D0A1B012C0168
:100DA0000E944D0A62197309840995096C157D0525
:100DB0008E059F0540F4692DCE010E948302882391
:100DC00079F381E009C01F5F8116D8F68D858F31D8
:100DD00010F48F5F8D8780E0DF91CF911F910F918D
:100DE000FF90EF90DF90CF90BF90AF909F908F904B
:100DF0007F905F904F903F902F900895CF93DF9317
:100E0000EC016072609325028091E101882361F119
:100E100080912502882341F18091E601882321F108
:100E200080E00E947C0290E09195819591099F87D6
:100E30008E872091E60121502093E6012B853C8589
:100E40002115310589F08217930734F44D854F3110
:100E500018F44F5F4D8708C0281739072CF48D858B
:100E6000882311F081508D87DF91CF910895FC0187
:100E70001486138617861686109225023FE1358761
:100E80000C94FF038F929F92AF92BF92CF92DF920A
:100E9000EF92FF920F931F93CF93DF93EC01F62E07
:100EA000D42E152F822E902EE881F9810488F589A1
:100EB000E02D61E0099567E2CE010E94AE0287FF56
:100EC000FACF40E065E2CE010E94D802EE2011F098
:100ED0000C2D01C000E0080D0E3308F00DE3E88191
:100EE000F981008CF18DE02DCE01099580E80E94FA
:100EF0007C0283E0800F0E947C028F2D0E947C0286
:100F00008D810E947C02EE2099F0CC2011F080EAC5
:100F100001C080E80E947C02CC20B9F0C501B7FE78
:100F200003C09195819591090E947C0201500DC0EA
:100F3000992041F08B859C85892B11F080E603C0B8
:100F400080E401C080E00E947C02CD2CED2CF12ECB
:100F50008E2D8C19801730F4F70181917F010E944A
:100F60007C02F6CFE881F981028CF38DE02DCE0171
:100F70000995E881F9810488F589E02D64E0CE01C6
:100F800009950E944D0A6B017C018B810E94890B9F
:100F9000892BA1F0E881F9810488F589E02D61E0D1
:100FA000CE01DF91CF911F910F91FF90EF90DF90D5
:100FB000CF90BF90AF909F908F9009940E944D0A60
:100FC0006C197D098E099F09683E73408105910562
:100FD00008F7DBCF6F927F928F929F92AF92BF9272
:100FE000CF92DF92EF92FF920F931F93CF93DF93F5
:100FF000EC013B01F42E1092E2011091E50180908A
:10100000DF019090E0018091250201E0811101C093
:1010100000E06DE3CE010E94AE02482F44606DE314
:10102000CE010E94D8020E944D0A5B016C01CE01E4
:101030000E944A05882301F11093E5015401C02E56
:10104000EE24E39400E02F2DA301612FCE010E9436
:1010500042079092E0018092DF01DF91CF911F91D2
:101060000F91FF90EF90DF90CF90BF90AF909F9047
:101070008F907F906F9008950E944D0A6A197B09A6
:101080008C099D09683E734081059105A8F6E881A9
:10109000F9810480F581E02DCE010995C8CFAF928A
:1010A000BF92CF92EF920F93A12CB12CC12C0E9432
:1010B00042070F91EF90CF90BF90AF9008951F938C
:1010C000CF93DF93EC01162F8091E7016817A1F011
:1010D000CE010E940003143079F48B859C85892B06
:1010E00059F0E881F9810284F385E02D6D85CE0108
:1010F000DF91CF911F910994DF91CF911F910895B6
:10110000109225020C948903CF93CFB7F894809165
:101110002902811127C0EAE9F0E08491E6E8F0E0D5
:101120009491E82FF0E0EE0FFF1FE854FF4FA591D8
:10113000B4918C91892321F461E08AE00E94530BE1
:1011400061E08AE00E941A0B8CB580618CBD8CB581
:1011500080648CBD61E08DE00E941A0B61E08BE041
:101160000E941A0B809129028F5F80932902CFBFC2
:10117000CF910895FC0180E58583168260835283B8
:1011800041830895FC018CB583838DB584833581BB
:10119000268180912802882399F09FB7F894809146
:1011A0002802813059F48DB3809326024DB380918B
:1011B0002702809584238DBB9FBF02C09093260297
:1011C0003CBD2DBD60E080810C94530BCF93DF9329
:1011D000EC0161E088810E94530B809128028823F2
:1011E00061F09FB7F8942091280280912602213067
:1011F00019F48DBB9FBF01C08FBF8B818CBD8C81CB
:101200008DBDDF91CF9108950F931F93CF93DF93FF
:101210008C010E94C2088FE90E947C0280E00E943B
:101220007C02C82FD0E0DC2FCC2780E00E947C021B
:10123000C82BC8010E94E608CE01DF91CF911F9113
:101240000F9108951F93CF93DF93EC010E94C20882
:1012500085E00E947C0280E00E947C02182FCE0173
:101260000E94E608812FDF91CF911F9108950E947F
:101270002209817008951F93CF93DF93EC01162FFD
:10128000442339F040E066E00E943B09CE010E9411
:10129000E608CE010E9437098111FBCFCE010E94E2
:1012A000C208812FDF91CF911F910C947C02CF93C4
:1012B000DF93EC0140E06BEA0E943B09CE01DF9135
:1012C000CF910C94E608CF93DF93EC018CB58B8320
:1012D0008DB58C8361E088810E941A0B80E58D8337
:1012E0001E82CE010E94E608CE010E945709898124
:1012F0009A81892B51F0CE010E94040929813A81FB
:101300008217930711F080E00CC041E061E0CE014C
:101310000E943B0980E00E947C02CE010E94E60808
:1013200081E0DF91CF91089508958230E8F4E82FAD
:10133000F0E0EE0FFF1FE85FFE4F718360838130A6
:1013400041F0809169008C7F842B80936900E89A3A
:10135000089580916900440F551F440F551F837FE6
:10136000842B80936900E99A08951F920F920FB61B
:101370000F9211242F933F934F935F936F937F931B
:101380008F939F93AF93BF93EF93FF93E0910801E7
:10139000F09109010995FF91EF91BF91AF919F9154
:1013A0008F917F916F915F914F913F912F910F900E
:1013B0000FBE0F901F9018951F920F920FB60F92AD
:1013C00011242F933F934F935F936F937F938F934A
:1013D0009F93AF93BF93EF93FF93E0910A01F09136
:1013E0000B010995FF91EF91BF91AF919F918F9163
:1013F0007F916F915F914F913F912F910F900FBE11
:101400000F901F9018951F920F920FB60F921124F4
:101410002F933F938F939F93AF93BF9380912B0212
:1014200090912C02A0912D02B0912E0230912A02AF
:1014300023E0230F2D3720F40196A11DB11D05C017
:1014400026E8230F0296A11DB11D20932A02809346
:101450002B0290932C02A0932D02B0932E02809128
:101460002F0290913002A0913102B0913202019688
:10147000A11DB11D80932F0290933002A0933102E1
:10148000B0933202BF91AF919F918F913F912F9175
:101490000F900FBE0F901F9018952FB7F894609182
:1014A0002B0270912C0280912D0290912E022FBF61
:1014B00008953FB7F89480912F0290913002A09147
:1014C0003102B091320226B5A89B05C02F3F19F01A
:1014D0000196A11DB11D3FBF6627782F892F9A2F36
:1014E000620F711D811D911D42E0660F771F881FDD
:1014F000991F4A95D1F708958F929F92AF92BF920C
:10150000CF92DF92EF92FF926B017C010E94590A09
:101510004B015C01C114D104E104F104F1F00E941B
:10152000D00E0E94590A681979098A099B09683EF8
:1015300073408105910570F321E0C21AD108E108DA
:10154000F10888EE880E83E0981EA11CB11CC1141E
:10155000D104E104F10429F7DDCFFF90EF90DF9093
:10156000CF90BF90AF909F908F900895789484B55E
:10157000826084BD84B5816084BD85B5826085BD8F
:1015800085B5816085BDEEE6F0E080818160808375
:10159000E1E8F0E010828081826080838081816058
:1015A0008083E0E8F0E0808181608083E1EBF0E01F
:1015B000808184608083E0EBF0E0808181608083C3
:1015C000EAE7F0E0808184608083808182608083AC
:1015D0008081816080838081806880831092C100D7
:1015E0000895833081F028F4813099F08230A1F0A1
:1015F00008958730A9F08830B9F08430D1F4809113
:1016000080008F7D03C0809180008F778093800061
:10161000089584B58F7702C084B58F7D84BD089509
:101620008091B0008F7703C08091B0008F7D809350
:10163000B0000895CF93DF9390E0FC01E458FF4F92
:101640002491FC01E057FF4F8491882349F190E0F9
:10165000880F991FFC01E854FF4FA591B491825562
:101660009F4FFC01C591D4919FB7611108C0F894B8
:101670008C91209582238C93888182230AC06230CA
:1016800051F4F8948C91322F309583238C93888178
:10169000822B888304C0F8948C91822B8C939FBFFB
:1016A000DF91CF9108950F931F93CF93DF931F92F4
:1016B000CDB7DEB7282F30E0F901E859FF4F84910C
:1016C000F901E458FF4F1491F901E057FF4F0491DD
:1016D0000023C9F0882321F069830E94F10A6981FF
:1016E000E02FF0E0EE0FFF1FE255FF4FA591B49100
:1016F0009FB7F8948C91611103C01095812301C0AC
:10170000812B8C939FBF0F90DF91CF911F910F91F1
:101710000895CF93DF93282F30E0F901E859FF4F68
:101720008491F901E458FF4FD491F901E057FF4F3C
:10173000C491CC2391F081110E94F10AEC2FF0E0CA
:10174000EE0FFF1FEC55FF4FA591B4912C912D2367
:1017500081E090E021F480E002C080E090E0DF9141
:10176000CF910895FC01818D228D90E0805C9F4F88
:10177000821B91098F7399270895FC01918D828DA9
:10178000981731F0828DE80FF11D858D90E0089556
:101790008FEF9FEF0895FC01918D828D981761F076
:1017A000828DDF01A80FB11D5D968C91928D9F5F98
:1017B0009F73928F90E008958FEF9FEF08958FE4CD
:1017C0009DE0892B49F080E090E0892B29F00E9470
:1017D0004F0D81110C9400000895FC01848DDF01F0
:1017E000A80FB11DA35ABF4F2C91848D90E0019694
:1017F0008F739927848FA689B7892C93A089B18983
:101800008C9180648C93938D848D981306C002888C
:10181000F389E02D80818F7D80830895CF93DF93BE
:10182000EC01888D8823C9F0EA89FB89808185FDD8
:1018300005C0A889B9898C9186FD0FC00FB607FC39
:10184000F5CF808185FFF2CFA889B9898C9185FF7A
:10185000EDCFCE010E94ED0BE7CFDF91CF91089540
:10186000CF92DF92FF920F931F93CF93DF931F923C
:10187000CDB7DEB76C0181E0D60158968C935897AE
:101880005B969C915B975C968C915C97981307C0D4
:101890005096ED91FC915197808185FD2EC0F60107
:1018A000038D10E00F5F1F4F0F731127F02EF6010D
:1018B000848DF81211C00FB607FCF9CFD6015096EF
:1018C000ED91FC915197808185FFF1CFC60169832D
:1018D0000E94ED0B6981EBCF838DE80FF11DE35A78
:1018E000FF4F6083D6015B960C935B975296ED9108
:1018F000FC915397808180620CC0D6015696ED9181
:10190000FC91579760835096ED91FC91519780819F
:101910008064808381E090E00F90DF91CF911F91F0
:101920000F91FF90DF90CF900895BF92CF92DF92FA
:10193000EF92FF92CF93DF93EC016A017B01B22E0D
:10194000E889F98982E08083411581EE58076105B5
:101950007105A1F060E079E08DE390E0A7019601C8
:101960000E94D10E215031094109510956954795E0
:1019700037952795211580E1380798F0E889F9898E
:10198000108260E874E88EE190E0A70196010E9461
:10199000D10E215031094109510956954795379586
:1019A0002795EC85FD853083EE85FF852083188E95
:1019B000EC89FD89B082EA89FB898081806180831E
:1019C000EA89FB89808188608083EA89FB8980813C
:1019D00080688083EA89FB8980818F7D8083DF91A5
:1019E000CF91FF90EF90DF90CF90BF9008951F921E
:1019F0000F920FB60F9211242F938F939F93EF9313
:101A0000FF93E0914302F09144028081E09149020A
:101A1000F0914A0282FD12C0908180914C028F5F4A
:101A20008F7320914D02821751F0E0914C02F0E04B
:101A3000ED5CFD4F958F80934C0201C08081FF913A
:101A4000EF919F918F912F910F900FBE0F901F904C
:101A500018951F920F920FB60F9211242F933F9358
:101A60004F935F936F937F938F939F93AF93BF93A6
:101A7000EF93FF9383E392E00E94ED0BFF91EF91D0
:101A8000BF91AF919F918F917F916F915F914F9196
:101A90003F912F910F900FBE0F901F90189583E3E9
:101AA00092E00E94B20B21E0892B09F420E0822F02
:101AB0000895109236021092350288EE93E0A0E06D
:101AC000B0E08093370290933802A0933902B0932C
:101AD0003A0287E891E0909334028093330285ECD8
:101AE00090E09093400280933F0284EC90E09093CA
:101AF00042028093410280EC90E0909344028093F4
:101B0000430281EC90E0909346028093450282EC80
:101B100090E0909348028093470286EC90E0909387
:101B20004A028093490210924C0210924D02109288
:101B30004E0210924F020895CF92DF92EF92FF92E1
:101B40000F931F93CF93DF937C016A01EB0100E0B9
:101B500010E00C151D0571F06991D701ED91FC9114
:101B60000190F081E02DC7010995892B19F00F5FD5
:101B70001F4FEFCFC801DF91CF911F910F91FF90C1
:101B8000EF90DF90CF9008956115710581F0DB0132
:101B90000D900020E9F7AD0141505109461B570B4C
:101BA000DC01ED91FC910280F381E02D099480E04D
:101BB00090E008950C94C40DDC01ED91FC9101902E
:101BC000F081E02D099463E971E00C94C40D0F934A
:101BD0001F93CF93DF93EC010E94C40D8C01CE01C3
:101BE0000E94E30D800F911FDF91CF911F910F9104
:101BF00008950F931F93CF93DF93EC010E94DC0DA8
:101C00008C01CE010E94E30D800F911FDF91CF91D7
:101C10001F910F9108958F929F92AF92BF92DF9282
:101C2000EF92FF920F931F93CF93DF93CDB7DEB761
:101C3000A1970FB6F894DEBF0FBECDBF7C01F42F85
:101C4000D52ECB0119A2223008F42AE08E010F5DB7
:101C50001F4F822E912CA12CB12C6F2F7D2DA50111
:101C600094010E94D10EF22FD32ECA010150110906
:101C70006A3014F4E0E301C0E7E3E60FD801EC9327
:101C8000232B242B252B49F7B801C7010E94C40D33
:101C9000A1960FB6F894DEBF0FBECDBFDF91CF91F6
:101CA0001F910F91FF90EF90DF90BF90AF909F90AA
:101CB0008F900895CF92DF92EF92FF920F931F9330
:101CC000CF93DF93EC016A017B012115310579F493
:101CD000E881F9810190F081E02D642FDF91CF91AF
:101CE0001F910F91FF90EF90DF90CF9009942A30D1
:101CF0003105E9F477FF1AC06DE20E94DC0D8C011A
:101D000044275527BA014C195D096E097F092AE05D
:101D1000CE010E940B0E800F911FDF91CF911F917A
:101D20000F91FF90EF90DF90CF9008952AE0B701D8
:101D3000A601CE01DF91CF911F910F91FF90EF90FF
:101D4000DF90CF900C940B0E9A01AB01662757FDE4
:101D50006095762F0C945A0E2115310541F4DC0163
:101D6000ED91FC910190F081E02D642F09940C9489
:101D70000B0E9A01462F50E060E070E00C94AC0E20
:101D800008950E94B60A0E94C00E0E948D00CFEDF9
:101D9000DBE00E94C2012097E1F30E94DF0BF9CF44
:101DA0000895A1E21A2EAA1BBB1BFD010DC0AA1F9C
:101DB000BB1FEE1FFF1FA217B307E407F50720F0B4
:101DC000A21BB30BE40BF50B661F771F881F991F2F
:101DD0001A9469F760957095809590959B01AC0178
:101DE000BD01CF010895EE0FFF1F0590F491E02D86
:061DF0000994F894FFCFF6
:101DF60030303030303030309409940973616D7072
:101E06006C65456E63727970744B6579006D3A2026
:101E16004572726F7220696E20636865636B207409
:101E2600726573686F6C64206F6620696E63726595
:101E36006D656E74616C206E756D626572202A2AFE
:101E4600504F535349424C452041545441434B2132
:101E56002A2A00000000001C06A6065A02EA0769A4
:101E6600066F036A05FE064F0880085F0889064468
:101E760002350200000000300C9C0DB20BCB0BBDEE
:101E86000B0E0C0D0A006E616E00696E66006F76B1
:041E960066002E00B4
:00000001FF
