:100000000C9463000C9438090C945F090C948B00D9
:100010000C948B000C948B000C948B000C948B0034
:100020000C948B000C948B000C948B000C948B0024
:100030000C948B000C948B000C948B000C948B0014
:100040000C9486090C948B000C941D0C0C944F0C92
:100050000C948B000C948B000C948B000C948B00F4
:100060000C948B000C948B0000000008000201002F
:100070000003040700000000000000000102040863
:100080001020408001020408102001020408102002
:10009000040404040404040402020202020203032E
:1000A00003030303000000002300260029000000D2
:1000B0000000250028002B0000000000240027007D
:1000C0002A006E017F0C11241FBECFEFD8E0DEBFE7
:1000D000CDBF12E0A0E0B1E0EEEBF1E202C005908E
:1000E0000D92A630B107D9F723E0A6E0B2E001C037
:1000F0001D92AA31B207E1F710E0C6ECD0E004C0CF
:100100002297FE010E94080EC23CD107C9F70E9447
:10011000D50D0C94DD100C9400000F931F93CF931A
:10012000DF93CDB7DEB7E2970FB6F894DEBF0FBE10
:10013000CDBF26E040E052EC61E070E08DE792E058
:100140000E94BB0B24E641E06BE287E092E00E9454
:100150008D06E0910702F09108020084F185E02D00
:1001600061E087E092E0099564E071E087E092E069
:100170000E9413036AEB7FEF87E092E00E94B507CD
:1001800081E08F9381EB8F9385E191E09F938F9333
:100190008E010F5F1F4F1F930F930E940C0EB8012B
:1001A0008DE792E00E940D0D88E192E00E94E60842
:1001B0000F900F900F900F900F900F90882319F1D0
:1001C00060E371E08DE792E00E94000D88E192E02B
:1001D0000E94B1080CE612E0F80161918F0140E144
:1001E00050E08DE792E00E94CD0D60E28DE792E055
:1001F0000E94020DF2E004371F0771F78DE792E0CD
:100200000E94090D06C067E571E08DE792E00E944B
:100210000D0D66E871E08DE792E00E940D0DE2960B
:100220000FB6F894DEBF0FBECDBFDF91CF911F9107
:100230000F9108951F93CF93DF93E0910702F09100
:1002400008020480F581E02D87E092E0099588237B
:1002500009F440C06BE58DE792E00E94020D6091C9
:1002600027024AE050E08DE792E00E94CD0D65EB59
:1002700071E08DE792E00E94000D10E0809128026D
:10028000181778F4C12FD0E0C65DDD4F68818DE787
:1002900092E00E94020D88818F5F809306021F5FAB
:1002A000EDCF68EB71E08DE792E00E94000D609168
:1002B0002102709122024AE050E08DE792E00E9414
:1002C000B80D65EC71E08DE792E0DF91CF911F9161
:1002D0000C94000DDF91CF911F91089540E35FEEE4
:1002E00068E088E192E00E9414088AE080930902A5
:1002F00082E080930A0210920B0281E0809329022F
:1003000010920D028FE180930E0210920F028BEC7F
:1003100091E09093080280930702089580911F0254
:1003200090912002DC01ED91FC910484F585E02D93
:100330000994CF93DF93EC0161E08A810E94790AEE
:1003400089858CBD8A858DBD7894DF91CF91089584
:10035000FC01F8948CB581878DB582878CB5837F3D
:100360008CBD8CB58F7D8CBD8CB58C7F8CBD8DB5D7
:100370008E7F8DBD60E082810C94790AF894209183
:100380002902233021F42091250221110FC0209150
:100390002902233011F4789407C0DC01ED91FC911F
:1003A0000288F389E02D099580E00895DC01ED9144
:1003B000FC910488F589E02D61E0099581E00895BC
:1003C0008EBD00000DB407FEFDCF8EB50895CF930E
:1003D000DF931F92CDB7DEB7DC01ED91FC91048075
:1003E000F581E02D698309956981882359F0809111
:1003F0002702861711F06F3F29F49091230281E0C4
:10040000911101C080E00F90DF91CF910895EF929C
:10041000FF921F93CF93DF931F92CDB7DEB77C017E
:10042000DC01ED91FC91008CF18DE02D6983099543
:100430006981862F8F770E94E00180E00E94E001B1
:10044000182FD701ED91FC91028CF38DE02DC7019F
:100450000995812F0F90DF91CF911F91FF90EF9021
:1004600008950F931F93CF93DF9300D0CDB7DEB7DE
:100470008C01DC01ED91FC91008CF18DE02D4A8323
:10048000698309956981862F80680E94E0014A810D
:10049000842F0E94E001D801ED91FC91028CF38D34
:1004A000E02DC8010F900F90DF91CF911F910F9118
:1004B00009941F93CF93DF93EC01162F80912902AB
:1004C000681709F461C0623009F440C070F4662313
:1004D00009F444C0613009F057C061E0CE010E94C8
:1004E0000702482F437E44603FC06330C1F0643050
:1004F00009F04AC061E0CE010E940702482F437E06
:100500004C6061E0CE010E9431028885882381F130
:10051000E881F9810688F789E02D61E014C061E087
:10052000CE010E940702482F437E406161E0CE0168
:100530000E94310288858823D9F0E881F9810688F4
:10054000F789E02D60E0CE01099512C061E0CE018F
:100550000E940702482F437E486006C061E0CE013A
:100560000E940702482F437E61E0CE010E943102C3
:1005700080912902811106C067E2CE010E94070224
:1005800087FFF6CF10932902DF91CF911F91089535
:10059000CF93DF93EC01603208F06FE16F838885C1
:1005A000882311F066956F8361E1CE010E940702F6
:1005B000482F407E8F81482B61E1CE01DF91CF91A2
:1005C0000C943102CF93DF93EC0110922802109229
:1005D00027021092260210922502109224021092F5
:1005E0002302109222021092210268E20E94070266
:1005F00082FF0AC06DE3CE010E940702482F4460CB
:100600006DE3CE010E94310240E465E2CE010E941A
:100610003102E881F9810488F589E02D63E0CE019B
:10062000DF91CF910994DF92EF92FF920F931F9386
:10063000CF93DF93EC018B01E881F9810488F58980
:10064000E02D61E0099501151105E1F0E881F981DE
:10065000008CF18DE02DCE0109958EEB0E94E0011A
:100660007801D12CF70181917F010E94E001D394A0
:10067000F0E1DF12F7CFE881F981028CF38DE02DF4
:10068000CE0109956DE3CE010E9407028E7F91E0B5
:10069000012B09F490E0482F492B6DE3CE01DF9147
:1006A000CF911F910F91FF90EF90DF900C9431024A
:1006B0008F929F92AF92BF92DF92EF92FF920F9331
:1006C0001F93CF93DF93CDB7DEB7AE970FB6F894F5
:1006D000DEBF0FBECDBF7C01D42E8EE28E010F5F38
:1006E0001F4FD801E82F1D92EA95E9F791E0998311
:1006F00034E03A8342E04B8393E09D834E833F8313
:1007000040E4488735E039879A8796E09B8793E3F2
:100710009C8737E03D8798E09F8799E0998B99E126
:100720009B8B92E49C8B55E25D8B4E8B46E24F8B0C
:10073000388F38E2398F30E13A8F39E23B8F3CED28
:100740003C8F8D8F88E88E8F8FE28F8F8DE288A30C
:1007500080E389A337E33BA330E93CA338E33DA31F
:100760009EA39CE39FA39FE898A79DE399A792E18E
:100770009AA79FE69BA78CA78FEF8DA76F3131F0CB
:100780006B3231F0663531F489ED05C08EE403C07B
:100790008CE601C084EE8E876F3141F06B3221F020
:1007A000663521F480E003C080E401C080EC888BD2
:1007B0002AA361E0D70112968C910E94790A61E028
:1007C000F70182810E94400A0E94DE070E94D00940
:1007D0004B015C014AEA6FE2C7010E9431026FE2FD
:1007E000C7010E9407028A3A59F00E94D00968198D
:1007F00079098A099B09623371058105910550F3D6
:100800000E94D0094B015C0145E56FE2C7010E94DF
:1008100031026FE2C7010E940702853559F00E943C
:10082000D009681979098A099B0962337105810524
:10083000910550F3B12CF801EB0DF11DEB0DF11DFD
:1008400060816F3F31F04181C7010E943102B39452
:10085000F2CF60E070E0C7010E941303D701ED9171
:10086000FC9111970084F185E02D18966C91C701D9
:100870000995D701ED91FC910488F589E02D61E09F
:10088000C70109950E94D0094B015C0167E2C701CD
:100890000E94070287FD0BC00E94D00968197909E0
:1008A0008A099B09623371058105910578F30E94DD
:1008B000D009681979098A099B0962337105810594
:1008C000910588F443E050E06EE871E0F70184811F
:1008D0000E941809F0922002E0921F02D70115969B
:1008E000DC9281E001C080E0AE960FB6F894DEBFE6
:1008F0000FBECDBFDF91CF911F910F91FF90EF9071
:10090000DF90BF90AF909F908F900895CF93DF932B
:10091000EC0161110DC064E2CE010E94070290E07B
:1009200091958195910995958795DF91CF9108953E
:1009300041E063E20E94310263E2CE010E940702BD
:1009400081FFFACFE8CFCF93DF93EC0180912902AA
:100950008330A9F480912502811111C060E0CE019D
:100960000E948604863A9F4F54F4E881F9810488F6
:10097000F589E02D61E0CE01099581E001C080E0BC
:10098000DF91CF910895FF920F931F93CF93DF9341
:10099000EC0180912902833001F568E2CE010E94CA
:1009A000070282FD28C019C0809128028D3330F4DF
:1009B000E0912802F0E0E65DFD4F1082E881F981C8
:1009C000028CF38DE02DCE010995E881F981048830
:1009D000F589E02D63E0CE01099560E0CE010E942B
:1009E00086049093220280932102DF91CF911F9180
:1009F0000F91FF900895E881F9810488F589E02D31
:100A000061E0CE010995E881F981008CF18DE02D3E
:100A1000CE01099580E00E94E00180E00E94E001A3
:100A200080932502809125028334D0F480912502A1
:100A30008093250280E00E94E001809326028E814F
:100A4000811109C0909126028D81981721F0809123
:100A500026028F3F39F480912502833018F017C0A9
:100A600082E4E6CF10922502E881F981028CF38DB1
:100A7000E02DCE010995E881F9810288F389E02D06
:100A8000CE01DF91CF911F910F91FF90099480913A
:100A9000250283508093280280E00E94E001809329
:100AA000270280E00E94E001982F90789093230223
:100AB000982F907490932402E881F9810684F78539
:100AC000E02D682FCE010995F12C80912802F816AF
:100AD00008F06ACF0F2D10E080E00E94E001F801DD
:100AE000E65DFD4F8083F394F0CF4F925F926F925B
:100AF0007F929F92AF92BF92EF920F931F93CF93EB
:100B0000DF93EC01162F5A01922E6DE30E9407022B
:100B1000482F44606DE3CE010E9431020E94D0094B
:100B20002B013C01CE010E94A3048823C1F0E8817F
:100B3000F9810088F189E02DE12C292DA501612F93
:100B4000CE010995DF91CF911F910F91EF90BF904A
:100B5000AF909F907F906F905F904F9008950E940C
:100B6000D0096419750986099709683E73408105A3
:100B70009105E8F6E881F9810480F581E02DCE0148
:100B80000995D0CFCF93DF93EC016887662311F0EE
:100B90004FE001C04AE163E1CE010E943102888545
:100BA000882341F061E1CE010E940702482F4F7176
:100BB000406602C04F81406861E1CE01DF91CF9174
:100BC0000C9431021F93CF93DF93EC01162F662311
:100BD00011F04DE501C045E56AE5CE010E94310204
:100BE000112311F04CE701C040E76CE5CE01DF9125
:100BF000CF911F910C9431022F923F924F925F92AE
:100C00007F928F929F92AF92BF92CF92DF92EF929C
:100C1000FF920F931F93CF93DF93EC01962E5A010F
:100C2000722E802E10E0CE2CD12CE12CF12CE881FC
:100C3000F9810190F081E02D01E0272DA501692DBA
:100C4000CE0109950E94D0091B012C010E94D009F8
:100C500062197309840995096C157D058E059F0538
:100C600040F4692DCE010E94E701882379F381E0E9
:100C700009C01F5F8116D8F68D858F3110F48F5F04
:100C80008D8780E0DF91CF911F910F91FF90EF90C2
:100C9000DF90CF90BF90AF909F908F907F905F90AC
:100CA0004F903F902F900895CF93DF93EC016072A7
:100CB0006093670280912302882361F1809167022B
:100CC000882341F180912802882321F180E00E944D
:100CD000E00190E09195819591099F878E87209101
:100CE00028022150209328022B853C8521153105AF
:100CF00089F08217930734F44D854F3118F44F5F14
:100D00004D8708C0281739072CF48D85882311F0EA
:100D100081508D87DF91CF910895FC011486138651
:100D200017861686109267023FE135870C945803A8
:100D30008F929F92AF92BF92CF92DF92EF92FF92EB
:100D40000F931F93CF93DF93EC01F62ED42E152F24
:100D5000822E902EE881F9810488F589E02D61E0EA
:100D6000099567E2CE010E94070287FFFACF40E0B3
:100D700065E2CE010E943102EE2011F00C2D01C07F
:100D800000E0080D0E3308F00DE3E881F981008CD6
:100D9000F18DE02DCE01099580E80E94E00183E00D
:100DA000800F0E94E0018F2D0E94E0018D810E9442
:100DB000E001EE2099F0CC2011F080EA01C080E83B
:100DC0000E94E001CC20B9F0C501B7FE03C09195A7
:100DD000819591090E94E00101500DC0992041F0D8
:100DE0008B859C85892B11F080E603C080E401C0CF
:100DF00080E00E94E001CD2CED2CF12E8E2D8C197F
:100E0000801730F4F70181917F010E94E001F6CF55
:100E1000E881F981028CF38DE02DCE010995E881FE
:100E2000F9810488F589E02D64E0CE0109950E94DE
:100E3000D0096B017C018B810E94AF0A892BA1F044
:100E4000E881F9810488F589E02D61E0CE01DF9128
:100E5000CF911F910F91FF90EF90DF90CF90BF90B7
:100E6000AF909F908F9009940E94D0096C197D09D2
:100E70008E099F09683E73408105910508F7DBCF15
:100E80006F927F928F929F92AF92BF92CF92DF929A
:100E9000EF92FF920F931F93CF93DF93EC013B01EF
:100EA000F42E10922402109127028090210290903B
:100EB00022028091670201E0811101C000E06DE330
:100EC000CE010E940702482F44606DE3CE010E94CC
:100ED00031020E94D0095B016C01CE010E94A30483
:100EE000882301F1109327025401C02EEE24E394CD
:100EF00000E02F2DA301612FCE010E949806909251
:100F0000220280922102DF91CF911F910F91FF90D9
:100F1000EF90DF90CF90BF90AF909F908F907F9099
:100F20006F9008950E94D0096A197B098C099D0968
:100F3000683E734081059105A8F6E881F981048037
:100F4000F581E02DCE010995C8CFAF92BF92CF9227
:100F5000EF920F93A12CB12CC12C0E9498060F91F7
:100F6000EF90CF90BF90AF900895FC017487638796
:100F700008951F93CF93DF93EC01162F80912902E0
:100F80006817A1F0CE010E945902143079F48B85C4
:100F90009C85892B59F0E881F9810284F385E02D45
:100FA0006D85CE01DF91CF911F910994DF91CF9193
:100FB0001F910895109267020C94E202CF93CFB76D
:100FC000F89480916B02811127C0EAE9F0E08491E6
:100FD000E6E8F0E09491E82FF0E0EE0FFF1FE85410
:100FE000FF4FA591B4918C91892321F461E08AE0AF
:100FF0000E94790A61E08AE00E94400A8CB5806113
:101000008CBD8CB580648CBD61E08DE00E94400A8F
:1010100061E08BE00E94400A80916B028F5F8093B9
:101020006B02CFBFCF910895FC0180E585831682C6
:101030006083528341830895FC018CB583838DB511
:1010400084833581268180916A02882399F09FB735
:10105000F89480916A02813059F48DB380936802CC
:101060004DB380916902809584238DBB9FBF02C0E0
:10107000909368023CBD2DBD60E080810C94790A9C
:10108000CF93DF93EC0161E088810E94790A80911F
:101090006A02882361F09FB7F89420916A028091D8
:1010A0006802213019F48DBB9FBF01C08FBF8B81B7
:1010B0008CBD8C818DBDDF91CF9108950F931F93CF
:1010C000CF93DF938C010E941C088FE90E94E001FE
:1010D00080E00E94E001C82FD0E0DC2FCC2780E028
:1010E0000E94E001C82BC8010E944008CE01DF9198
:1010F000CF911F910F9108951F93CF93DF93EC0130
:101100000E941C0885E00E94E00180E00E94E0014E
:10111000182FCE010E944008812FDF91CF911F919F
:1011200008950E947C08817008951F93CF93DF93E8
:10113000EC01162F442339F040E066E00E94950848
:10114000CE010E944008CE010E9491088111FBCF80
:10115000CE010E941C08812FDF91CF911F910C942A
:10116000E0010F931F93CF93DF938C0140E06BE47A
:101170000E94950880E00E94E00180E00E94E0016A
:1011800080E00E94E00180E00E94E001CCE6D2E035
:1011900080E00E94E001899382E0C437D807C1F75C
:1011A000C8010E9440088CE692E0DF91CF911F9128
:1011B0000F910895CF93DF93EC0140E06BEA0E941A
:1011C0009508CE01DF91CF910C944008CF93DF9327
:1011D000EC018CB58B838DB58C8361E088810E9496
:1011E000400A80E58D831E82CE010E944008CE0118
:1011F0000E94DA0889819A81892B51F0CE010E94E0
:101200005E0829813A818217930711F080E00CC0B3
:1012100041E061E0CE010E94950880E00E94E0017B
:10122000CE010E94400881E0DF91CF91089508959A
:101230008230E8F4E82FF0E0EE0FFF1FE050FF4FA0
:1012400071836083813041F0809169008C7F842BB1
:1012500080936900E89A089580916900440F551FB2
:10126000440F551F837F842B80936900E99A08956A
:101270001F920F920FB60F9211242F933F934F930B
:101280005F936F937F938F939F93AF93BF93EF93EE
:10129000FF93E0910001F09101010995FF91EF9119
:1012A000BF91AF919F918F917F916F915F914F917E
:1012B0003F912F910F900FBE0F901F9018951F9286
:1012C0000F920FB60F9211242F933F934F935F937A
:1012D0006F937F938F939F93AF93BF93EF93FF93FE
:1012E000E0910201F09103010995FF91EF91BF9107
:1012F000AF919F918F917F916F915F914F913F91AE
:101300002F910F900FBE0F901F9018951F920F9264
:101310000FB60F9211242F933F938F939F93AF9308
:10132000BF938091750290917602A0917702B0915F
:1013300078023091740223E0230F2D3720F40196B8
:10134000A11DB11D05C026E8230F0296A11DB11DE8
:10135000209374028093750290937602A093770293
:10136000B09378028091790290917A02A0917B02E9
:10137000B0917C020196A11DB11D809379029093DA
:101380007A02A0937B02B0937C02BF91AF919F91B0
:101390008F913F912F910F900FBE0F901F90189536
:1013A0002FB7F89460917502709176028091770260
:1013B000909178022FBF0895789484B5826084BD9F
:1013C00084B5816084BD85B5826085BD85B5816049
:1013D00085BDEEE6F0E0808181608083E1E8F0E0A9
:1013E0001082808182608083808181608083E0E8D8
:1013F000F0E0808181608083E1EBF0E080818460B7
:101400008083E0EBF0E0808181608083EAE7F0E0B8
:10141000808184608083808182608083808181601C
:1014200080838081806880831092C100089583301A
:1014300081F028F4813099F08230A1F0089587304E
:10144000A9F08830B9F08430D1F4809180008F7D8C
:1014500003C0809180008F7780938000089584B5C9
:101460008F7702C084B58F7D84BD08958091B000D0
:101470008F7703C08091B0008F7D8093B000089576
:10148000CF93DF9390E0FC01E458FF4F2491FC01DF
:10149000E057FF4F8491882349F190E0880F991F0E
:1014A000FC01E854FF4FA591B49182559F4FFC0178
:1014B000C591D4919FB7611108C0F8948C91209583
:1014C00082238C93888182230AC0623051F4F8947D
:1014D0008C91322F309583238C938881822B888343
:1014E00004C0F8948C91822B8C939FBFDF91CF9195
:1014F00008950F931F93CF93DF931F92CDB7DEB75D
:10150000282F30E0F901E859FF4F8491F901E458A0
:10151000FF4F1491F901E057FF4F04910023C9F0E8
:10152000882321F069830E94170A6981E02FF0E087
:10153000EE0FFF1FE255FF4FA591B4919FB7F894AE
:101540008C91611103C01095812301C0812B8C9374
:101550009FBF0F90DF91CF911F910F910895CF936F
:10156000DF93282F30E0F901E859FF4F8491F9010A
:10157000E458FF4FD491F901E057FF4FC491CC23B9
:1015800091F081110E94170AEC2FF0E0EE0FFF1F7F
:10159000EC55FF4FA591B4912C912D2381E090E063
:1015A00021F480E002C080E090E0DF91CF910895C7
:1015B000FC01818D228D90E0805C9F4F821B910900
:1015C0008F7399270895FC01918D828D981731F0C2
:1015D000828DE80FF11D858D90E008958FEF9FEFCC
:1015E0000895FC01918D828D981761F0828DDF0145
:1015F000A80FB11D5D968C91928D9F5F9F73928F06
:1016000090E008958FEF9FEF089585E79CE0892B88
:1016100049F080E090E0892B29F00E94750C81113F
:101620000C9400000895FC01848DDF01A80FB11D0A
:10163000A35ABF4F2C91848D90E001968F73992708
:10164000848FA689B7892C93A089B1898C918064F5
:101650008C93938D848D981306C00288F389E02DB6
:1016600080818F7D80830895CF93DF93EC01888DF7
:101670008823C9F0EA89FB89808185FD05C0A88996
:10168000B9898C9186FD0FC00FB607FCF5CF80811C
:1016900085FFF2CFA889B9898C9185FFEDCFCE0166
:1016A0000E94130BE7CFDF91CF910895CF92DF9285
:1016B000FF920F931F93CF93DF931F92CDB7DEB7A7
:1016C0006C0181E0D60158968C9358975B969C915B
:1016D0005B975C968C915C97981307C05096ED9140
:1016E000FC915197808185FD2EC0F601038D10E09D
:1016F0000F5F1F4F0F731127F02EF601848DF81224
:1017000011C00FB607FCF9CFD6015096ED91FC91B0
:101710005197808185FFF1CFC60169830E94130B29
:101720006981EBCF838DE80FF11DE35AFF4F608392
:10173000D6015B960C935B975296ED91FC91539773
:10174000808180620CC0D6015696ED91FC9157972E
:1017500060835096ED91FC915197808180648083E5
:1017600081E090E00F90DF91CF911F910F91FF905A
:10177000DF90CF900895BF92CF92DF92EF92FF92C9
:10178000CF93DF93EC016A017B01B22EE889F989DE
:1017900082E08083411581EE580761057105A1F053
:1017A00060E079E08DE390E0A70196010E94E40DEE
:1017B000215031094109510956954795379527958B
:1017C000211580E1380798F0E889F989108260E8EE
:1017D00074E88EE190E0A70196010E94E40D21508B
:1017E0003109410951095695479537952795EC855B
:1017F000FD853083EE85FF852083188EEC89FD8979
:10180000B082EA89FB89808180618083EA89FB89D3
:10181000808188608083EA89FB89808180688083F9
:10182000EA89FB8980818F7D8083DF91CF91FF9052
:10183000EF90DF90CF90BF9008951F920F920FB658
:101840000F9211242F938F939F93EF93FF93E09127
:101850008D02F0918E028081E0919302F0919402CA
:1018600082FD12C09081809196028F5F8F732091CC
:101870009702821751F0E0919602F0E0E358FD4F95
:10188000958F8093960201C08081FF91EF919F9187
:101890008F912F910F900FBE0F901F9018951F9250
:1018A0000F920FB60F9211242F933F934F935F9394
:1018B0006F937F938F939F93AF93BF93EF93FF9318
:1018C0008DE792E00E94130BFF91EF91BF91AF91D2
:1018D0009F918F917F916F915F914F913F912F9148
:1018E0000F900FBE0F901F9018958DE792E00E9409
:1018F000D80A21E0892B09F420E0822F0895109264
:10190000800210927F0288EE93E0A0E0B0E0809326
:10191000810290938202A0938302B09384028BEEA3
:1019200091E090937E0280937D0285EC90E090930D
:101930008A028093890284EC90E090938C028093D9
:101940008B0280EC90E090938E0280938D0281EC6C
:1019500090E09093900280938F0282EC90E09093BD
:1019600092028093910286EC90E09093940280938F
:10197000930210929602109297021092980210927F
:1019800099020895CF92DF92EF92FF920F931F93E7
:10199000CF93DF937C016A01EB0100E010E00C15AE
:1019A0001D0571F06991D701ED91FC910190F081D5
:1019B000E02DC7010995892B19F00F5F1F4FEFCF5D
:1019C000C801DF91CF911F910F91FF90EF90DF90B1
:1019D000CF9008956115710581F0DB010D90002015
:1019E000E9F7AD0141505109461B570BDC01ED9160
:1019F000FC910280F381E02D099480E090E008954D
:101A00000C94EA0CDC01ED91FC910190F081E02D49
:101A1000099467EF71E00C94EA0C0F931F93CF9336
:101A2000DF93EC010E94EA0C8C01CE010E94090DAB
:101A3000800F911FDF91CF911F910F9108958F9289
:101A40009F92AF92BF92DF92EF92FF920F931F93FC
:101A5000CF93DF93CDB7DEB7A1970FB6F894DEBF73
:101A60000FBECDBF7C01F42FD52ECB0119A22230A1
:101A700008F42AE08E010F5D1F4F822E912CA12CBD
:101A8000B12C6F2F7D2DA50194010E94E40DF22F42
:101A9000D32ECA01015011096A3014F4E0E301C0E9
:101AA000E7E3E60FD801EC93232B242B252B49F7F2
:101AB000B801C7010E94EA0CA1960FB6F894DEBFE8
:101AC0000FBECDBFDF91CF911F910F91FF90EF908F
:101AD000DF90BF90AF909F908F900895CF92DF924C
:101AE000EF92FF920F931F93CF93DF93EC016A0164
:101AF0007B012115310579F4E881F9810190F081AC
:101B0000E02D642FDF91CF911F910F91FF90EF9007
:101B1000DF90CF9009942A303105E9F477FF1AC09D
:101B20006DE20E94020D8C0144275527BA014C1921
:101B30005D096E097F092AE0CE010E941F0D800F0A
:101B4000911FDF91CF911F910F91FF90EF90DF9048
:101B5000CF9008952AE0B701A601CE01DF91CF9181
:101B60001F910F91FF90EF90DF90CF900C941F0D7D
:101B70009A01AB01662757FD6095762F0C946E0D88
:101B80002115310541F4DC01ED91FC910190F081CA
:101B9000E02D642F09940C941F0D9A01462F50E0FC
:101BA00060E070E00C94C00D08950E94DC090E9472
:101BB000D40D0E948D00C5E0DBE00E941A01209741
:101BC000E1F30E94050BF9CFA1E21A2EAA1BBB1B61
:101BD000FD010DC0AA1FBB1FEE1FFF1FA217B307F9
:101BE000E407F50720F0A21BB30BE40BF50B661F0F
:101BF000771F881F991F1A9469F7609570958095D3
:101C000090959B01AC01BD01CF010895EE0FFF1F20
:101C10000590F491E02D0994AEE0B0E0E2E1FEE041
:101C20000C94B4100D891E8986E08C831A83098375
:101C30008FEF9FE79E838D83AE01475E5F4F6F8975
:101C4000788DCE0101960E942E0EEF81F885E00F6F
:101C5000F11F10822E96E4E00C94D010ACE0B0E0BE
:101C6000E4E3FEE00C94A6107C016B018A01FC0108
:101C700017821682838181FFBDC1CE0101964C017E
:101C8000F7019381F60193FD859193FF81916F0197
:101C9000882309F4ABC1853239F493FD859193FF14
:101CA00081916F01853229F4B70190E00E941610EE
:101CB000E7CF512C312C20E02032A0F48B3269F098
:101CC00030F4803259F0833269F420612CC08D32B7
:101CD00039F0803339F4216026C02260246023C0AB
:101CE000286021C027FD27C030ED380F3A3078F446
:101CF00026FF06C0FAE05F9E300D1124532E13C05C
:101D00008AE0389E300D1124332E20620CC08E32B2
:101D100021F426FD6BC1206406C08C3611F42068C6
:101D200002C0883641F4F60193FD859193FF8191BD
:101D30006F018111C1CF982F9F7D9554933028F466
:101D40000C5F1F4FFFE3F9830DC0833631F08337FB
:101D500071F0833509F05BC022C0F801808189836E
:101D60000E5F1F4F44244394512C540115C0380179
:101D7000F2E06F0E711CF801A080B18026FF03C055
:101D8000652D70E002C06FEF7FEFC5012C870E94C8
:101D90000B102C0183012C852F77222E17C03801C0
:101DA000F2E06F0E711CF801A080B18026FF03C025
:101DB000652D70E002C06FEF7FEFC5012C870E9498
:101DC00000102C012C852068222E830123FC1BC0CF
:101DD000832D90E048165906B0F4B70180E290E0F8
:101DE0000E9416103A94F4CFF50127FC859127FE46
:101DF00081915F01B70190E00E94161031103A9472
:101E0000F1E04F1A51084114510471F7E5C08436CE
:101E100011F0893639F5F80127FF07C0608171811B
:101E2000828193810C5F1F4F08C060817181882778
:101E300077FD8095982F0E5F1F4F2F76B22E97FF5C
:101E400009C090958095709561957F4F8F4F9F4FFA
:101E50002068B22E2AE030E0A4010E944810A82E8B
:101E6000A81844C0853729F42F7EB22E2AE030E02E
:101E700025C0F22FF97FBF2E8F36C1F018F48835B8
:101E800079F0B4C0803719F0883721F0AFC02F2F18
:101E90002061B22EB4FE0DC08B2D8460B82E09C017
:101EA00024FF0AC09F2F9660B92E06C028E030E0BC
:101EB00005C020E130E002C020E132E0F801B7FEC9
:101EC00007C060817181828193810C5F1F4F06C0C2
:101ED0006081718180E090E00E5F1F4FA4010E943D
:101EE0004810A82EA818FB2DFF77BF2EB6FE0BC0FA
:101EF0002B2D2E7FA51450F4B4FE0AC0B2FC08C0EE
:101F00002B2D2E7E05C07A2C2B2D03C07A2C01C0E0
:101F1000752C24FF0DC0FE01EA0DF11D8081803378
:101F200011F4297E09C022FF06C07394739404C083
:101F3000822F867809F0739423FD13C020FF06C01A
:101F40005A2C731418F4530C5718732C731468F428
:101F5000B70180E290E02C870E94161073942C85C4
:101F6000F5CF731410F4371801C0312C24FF12C0C0
:101F7000B70180E390E02C870E9416102C8522FF89
:101F800017C021FF03C088E590E002C088E790E019
:101F9000B7010CC0822F867859F021FD02C080E283
:101FA00001C08BE227FD8DE2B70190E00E94161080
:101FB000A51438F4B70180E390E00E9416105A94FB
:101FC000F7CFAA94F401EA0DF11D8081B70190E0EA
:101FD0000E941610A110F5CF332009F451CEB7019D
:101FE00080E290E00E9416103A94F6CFF7018681C5
:101FF000978102C08FEF9FEF2C96E2E10C94C21004
:10200000FC010590615070400110D8F780959095C3
:102010008E0F9F1F0895FC016150704001900110C8
:10202000D8F7809590958E0F9F1F08950F931F935B
:10203000CF93DF93182F092FEB018B8181FD03C014
:102040008FEF9FEF20C082FF10C04E815F812C81F7
:102050003D81421753077CF4E881F9819F012F5F8E
:102060003F4F39832883108306C0E885F985812F87
:102070000995892B29F72E813F812F5F3F4F3F83A1
:102080002E83812F902FDF91CF911F910F91089573
:10209000FA01AA27283051F1203181F1E8946F9399
:1020A0006E7F6E5F7F4F8F4F9F4FAF4FB1E03ED03F
:1020B000B4E03CD0670F781F891F9A1FA11D680FDD
:1020C000791F8A1F911DA11D6A0F711D811D911D10
:1020D000A11D20D009F468943F912AE0269F112485
:1020E0003019305D3193DEF6CF010895462F4770E9
:1020F000405D4193B3E00FD0C9F7F6CF462F4F7044
:10210000405D4A3318F0495D31FD4052419302D0A1
:10211000A9F7EACFB4E0A695979587957795679547
:10212000BA95C9F700976105710508959B01AC0147
:102130000A2E06945795479537952795BA95C9F76E
:10214000620F731F841F951FA01D08952F923F9249
:102150004F925F926F927F928F929F92AF92BF92B7
:10216000CF92DF92EF92FF920F931F93CF93DF9363
:10217000CDB7DEB7CA1BDB0B0FB6F894DEBF0FBEC0
:10218000CDBF09942A88398848885F846E847D840D
:102190008C849B84AA84B984C884DF80EE80FD800F
:1021A0000C811B81AA81B981CE0FD11D0FB6F89485
:0E21B000DEBF0FBECDBFED010895F894FFCF46
:1021BE001709170973616D706C65456E63727970DE
:1021CE00744B6579000A5472616E736D697474692B
:1021DE006E67206174202564204D687A2E2E2E00A5
:1021EE0053504920466C61736820496E6974204FC4
:1021FE004B202E2E2E20556E697175654944202870
:10220E004D4143293A200053504920466C61736872
:10221E00204D454D206E6F7420666F756E642028BC
:10222E006973206368697020736F6C64657265648E
:10223E003F292E2E2E0052464D36395F41544320F3
:10224E00456E61626C656420284175746F2054720E
:10225E00616E736D697373696F6E20436F6E747206
:10226E006F6C290A005D20002020205B52585F52BF
:10227E005353493A005D00000000007505FC05BE91
:10228E00014007C205C802C3045406A507DA07B900
:10229E0007E205A801990100000000560BC20CD8F8
:1022AE000AF10AE30A340B0D0A006E616E00696EC4
:0622BE0066006F76660069
:00000001FF
