:100000000C9463000C94A10A0C94C80A0C948B0005
:100010000C948B000C948B000C948B000C948B0034
:100020000C948B000C948B000C948B000C948B0024
:100030000C948B000C948B000C948B000C948B0014
:100040000C94EF0A0C948B000C94E30D0C94150E99
:100050000C948B000C948B000C948B000C948B00F4
:100060000C948B000C948B0000000008000201002F
:100070000003040700000000000000000102040863
:100080001020408001020408102001020408102002
:10009000040404040404040402020202020203032E
:1000A00003030303000000002300260029000000D2
:1000B0000000250028002B0000000000240027007D
:1000C0002A00B401450E11241FBECFEFD8E0DEBFD9
:1000D000CDBF12E0A0E0B1E0E8E8F5E202C0059093
:1000E0000D92AE33B107D9F723E0AEE3B2E001C021
:1000F0001D92A236B207E1F710E0C6ECD0E004C0D2
:100100002297FE010E94ED0FC23CD107C9F70E9461
:10011000AD0F0C94C2120C9400000F931F93CF9359
:10012000DF93CDB7DEB7E2970FB6F894DEBF0FBE10
:10013000CDBF26E040E052EC61E070E085EC92E05B
:100140000E94810D6AE070E080E090E00E94680B00
:1001500024E641E06BE286E592E00E94FA07E09136
:100160005602F09157020084F185E02D61E086E5AA
:1001700092E0099564E071E086E592E00E947D04DA
:1001800060914E0286E592E00E94660781E08F93BF
:1001900081EB8F9385E191E09F938F938E010F5FA9
:1001A0001F4F1F930F930E94F10FB80185EC92E04F
:1001B0000E94D30E8FE492E00E944F0A0F900F909E
:1001C0000F900F900F900F90882321F16DE271E056
:1001D00085EC92E00E94C60E8FE492E00E941A0A1B
:1001E00004EB12E0F80161918F0140E150E085ECF1
:1001F00092E00E94A50F6AE385EC92E00E94C80E8F
:10020000F2E00C3B1F0771F76DE585EC92E00E9470
:10021000E50E06C06FE471E085EC92E00E94D30E1B
:100220006EE771E085EC92E00E94D30EE2960FB685
:10023000F894DEBF0FBECDBFDF91CF911F910F911C
:1002400008951F93CF93DF93182FEB0161E00E9475
:10025000060C61E0812F0E943F0CBE01882777FDCC
:100260008095982F0E94680B60E0812FDF91CF91DD
:100270001F910C943F0C6F927F928F929F92AF923E
:10028000BF92CF92DF92EF92FF920F931F93CF9383
:10029000DF931F92CDB7DEB76DB67EB6E62EF12C9A
:1002A00015E0619FA00111249A012F5F3F4F6DB7A8
:1002B0007EB7621B730B0FB6F8947EBF0FBE6DBF87
:1002C0006F5F7F4FDC0120E030E000E3C02EE8E705
:1002D000BE2EF0E2AF2EFD01E81BF90BEE15FF0577
:1002E00034F5ED91DE2ED2940FE0D0220E2F0F7058
:1002F000FB01E20FF31FC082B18210E3912E9D0C2F
:10030000928210E3912E900E9382A48219E0812EA6
:100310008D1420F417E3912ED90CD2820A3020F0EC
:10032000D38017E0D10ED3822B5F3F4FD4CFFB0198
:10033000E40FF51F108285EC92E00E94C60E0FB606
:10034000F8947EBE0FBE6DBE0F90DF91CF911F91CE
:100350000F91FF90EF90DF90CF90BF90AF909F9064
:100360008F907F906F9008958AE08093580282E08A
:100370008093590210925A0281E080937102109288
:100380005C028FE180935D0210925E0283E092E056
:10039000909357028093560240E35FEE68E08FE44B
:1003A00092E00C947D09EF920F93CF9385EC92E04D
:1003B0000E949E0C181619063CF585EC92E00E94EE
:1003C000B70C8E3639F46CEA71E085EC92E00E944D
:1003D000D30E1AC08F36C1F485EC92E00E94B70CA0
:1003E00085EC92E00E94B70C90934102809340020A
:1003F00085EC92E00E94B70C85EC92E00E94B70C6D
:1004000090933F0280933E02E0915602F091570292
:100410000480F581E02D86E592E00995882309F4B2
:10042000D8C064EB71E085EC92E00E94C60E40916A
:10043000490250914A0260914B0270914C024F5F09
:100440005F4F6F4F7F4F4093490250934A02609332
:100450004B0270934C022AE030E085EC92E00E945F
:10046000980F6CE285EC92E00E94C80E6CE285EC7D
:1004700092E00E94C80E60916F024AE050E085EC65
:1004800092E00E94A50F65EB71E085EC92E00E947E
:10049000C60E80914E028823A1F067EB71E085ECD7
:1004A00092E00E94C60E60916E024AE050E085EC38
:1004B00092E00E94A50F6CEB71E085EC92E00E9447
:1004C000C60E20E080917002281760F4822F90E021
:1004D000FC01EE58FD4F3081FC01EE5BFD4F308397
:1004E0002F5FF0CF67E082E492E00E943B016FEB68
:1004F00071E085EC92E00E94C60E609169027091F5
:100500006A024AE050E085EC92E00E94900F65EBB1
:1005100071E085EC92E00E94C60E86E592E00E94B2
:100520006603882309F449C0C0916F0240E061E38B
:1005300072E086E592E00E94AD0869EC71E085EC1E
:1005400092E00E94C60E80914D0291E0980F909328
:100550004D0263E00E94BD0F91112FC063ED71E069
:1005600085EC92E00E94C60E4AE050E06C2F85ECCC
:1005700092E00E94A50F60EE71E085EC92E00E948F
:10058000C60E63E070E080E090E00E94680BA8E295
:10059000EA2E00E028E048EE51E06C2F86E592E07C
:1005A0000E946907882319F061EF71E002C066EFCD
:1005B00071E085EC92E00E94C60E85EC92E00E940C
:1005C000CF0E63E070E089E0CF910F91EF900C9433
:1005D0002101CF910F91EF90089580916702909142
:1005E0006802DC01ED91FC910484F585E02D09940D
:1005F000CF93DF93EC0161E08A810E943F0C8985F3
:100600008CBD8A858DBD7894DF91CF910895FC01D2
:10061000F8948CB581878DB582878CB5837F8CBD2E
:100620008CB58F7D8CBD8CB58C7F8CBD8DB58E7F50
:100630008DBD60E082810C943F0CF8942091710292
:10064000233021F420916D0221110FC020917102FD
:10065000233011F4789407C0DC01ED91FC910288FD
:10066000F389E02D099580E00895DC01ED91FC917E
:100670000488F589E02D61E0099581E008958EBD3B
:1006800000000DB407FEFDCF8EB50895CF93DF9324
:100690001F92CDB7DEB7DC01ED91FC910480F581AE
:1006A000E02D698309956981882359F080916F0253
:1006B000861711F06F3F29F490916B0281E0911140
:1006C00001C080E00F90DF91CF91089580916C027E
:1006D000882329F090916E0281E09F3F09F480E029
:1006E0000895EF92FF921F93CF93DF931F92CDB7A0
:1006F000DEB77C01DC01ED91FC91008CF18DE02DE9
:10070000698309956981862F8F770E943F0380E076
:100710000E943F03182FD701ED91FC91028CF38DBD
:10072000E02DC7010995812F0F90DF91CF911F9187
:10073000FF90EF9008950F931F93CF93DF9300D016
:10074000CDB7DEB78C01DC01ED91FC91008CF18D11
:10075000E02D4A83698309956981862F80680E940C
:100760003F034A81842F0E943F03D801ED91FC9101
:10077000028CF38DE02DC8010F900F90DF91CF9187
:100780001F910F9109941F93CF93DF93EC01162FC4
:1007900080917102681709F461C0623009F440C0A9
:1007A00070F4662309F444C0613009F057C061E079
:1007B000CE010E947103482F437E44603FC06330E6
:1007C000C1F0643009F04AC061E0CE010E947103BB
:1007D000482F437E4C6061E0CE010E949B038885D8
:1007E000882381F1E881F9810688F789E02D61E0AD
:1007F00014C061E0CE010E947103482F437E406126
:1008000061E0CE010E949B0388858823D9F0E881AE
:10081000F9810688F789E02D60E0CE01099512C0C4
:1008200061E0CE010E947103482F437E486006C0FC
:1008300061E0CE010E947103482F437E61E0CE014A
:100840000E949B0380917102811106C067E2CE0174
:100850000E94710387FFF6CF10937102DF91CF9151
:100860001F910895CF93DF93EC01603208F06FE1A0
:100870006F838885882311F066956F8361E1CE01CF
:100880000E947103482F407E8F81482B61E1CE0189
:10089000DF91CF910C949B03CF93DF93EC011092E7
:1008A000700210926F0210926E0210926D021092FE
:1008B0006C0210926B0210926A021092690268E256
:1008C0000E94710382FF0AC06DE3CE010E94710392
:1008D000482F44606DE3CE010E949B0340E465E233
:1008E000CE010E949B03E881F9810488F589E02DFF
:1008F00063E0CE01DF91CF910994DF92EF92FF92F6
:100900000F931F93CF93DF93EC018B01E881F98163
:100910000488F589E02D61E0099501151105E1F0E4
:10092000E881F981008CF18DE02DCE0109958EEBE7
:100930000E943F037801D12CF70181917F010E9431
:100940003F03D394F0E1DF12F7CFE881F981028C05
:10095000F38DE02DCE0109956DE3CE010E94710368
:100960008E7F91E0012B09F490E0482F492B6DE335
:10097000CE01DF91CF911F910F91FF90EF90DF900B
:100980000C949B038F929F92AF92BF92DF92EF9253
:10099000FF920F931F93CF93DF93CDB7DEB7AE9740
:1009A0000FB6F894DEBF0FBECDBF7C01D42E8EE211
:1009B0008E010F5F1F4FD801E82F1D92EA95E9F7CE
:1009C00091E0998334E03A8342E04B8393E09D8346
:1009D0004E833F8340E4488735E039879A8796E025
:1009E0009B8793E39C8737E03D8798E09F8799E05A
:1009F000998B99E19B8B92E49C8B55E25D8B4E8B9E
:100A000046E24F8B388F38E2398F30E13A8F39E246
:100A10003B8F3CED3C8F8D8F88E88E8F8FE28F8FE0
:100A20008DE288A380E389A337E33BA330E93CA3AD
:100A300038E33DA39EA39CE39FA39FE898A79DE373
:100A400099A792E19AA79FE69BA78CA78FEF8DA706
:100A50006F3131F06B3231F0663531F489ED05C01C
:100A60008EE403C08CE601C084EE8E876F3141F0C6
:100A70006B3221F0663521F480E003C080E401C0D0
:100A800080EC888B2AA361E0D70112968C910E949A
:100A90003F0C61E0F70182810E94060C0E94470929
:100AA0000E94390B4B015C014AEA6FE2C7010E94C8
:100AB0009B036FE2C7010E9471038A3A59F00E94BA
:100AC000390B681979098A099B0962337105810517
:100AD000910550F30E94390B4B015C0145E56FE233
:100AE000C7010E949B036FE2C7010E947103853515
:100AF00059F00E94390B681979098A099B096233F8
:100B000071058105910550F3B12CF801EB0DF11D34
:100B1000EB0DF11D60816F3F31F04181C7010E94F3
:100B20009B03B394F2CF60E070E0C7010E947D04A4
:100B3000D701ED91FC9111970084F185E02D189675
:100B40006C91C7010995D701ED91FC910488F58955
:100B5000E02D61E0C70109950E94390B4B015C0152
:100B600067E2C7010E94710387FD0BC00E94390B29
:100B7000681979098A099B09623371058105910514
:100B800078F30E94390B681979098A099B09623345
:100B900071058105910588F443E050E06DEE72E047
:100BA000F70184810E94810AF0926802E092670254
:100BB000D7011596DC9281E001C080E0AE960FB6B9
:100BC000F894DEBF0FBECDBFDF91CF911F910F9183
:100BD000FF90EF90DF90BF90AF909F908F9008951F
:100BE000CF93DF93EC0161110DC064E2CE010E944E
:100BF000710390E091958195910995958795DF9185
:100C0000CF91089541E063E20E949B0363E2CE012D
:100C10000E94710381FFFACFE8CFCF93DF93EC01FD
:100C2000809171028330A9F480916D02811111C00D
:100C300060E0CE010E94F005863A9F4F54F4E881AF
:100C4000F9810488F589E02D61E0CE01099581E004
:100C500001C080E0DF91CF910895FF920F931F9321
:100C6000CF93DF93EC0180917102833001F568E24C
:100C7000CE010E94710382FD28C019C080917002CC
:100C80008D3330F4E0917002F0E0EE58FD4F1082A9
:100C9000E881F981028CF38DE02DCE010995E88180
:100CA000F9810488F589E02D63E0CE01099560E0C3
:100CB000CE010E94F00590936A0280936902DF9151
:100CC000CF911F910F91FF900895E881F9810488D9
:100CD000F589E02D61E0CE010995E881F981008C6C
:100CE000F18DE02DCE01099580E00E943F0380E068
:100CF0000E943F0380936D0280916D028334D0F493
:100D000080916D0280936D0280E00E943F0380938A
:100D10006E028E81811109C090916E028D819817AB
:100D200021F080916E028F3F39F480916D02833003
:100D300018F017C082E4E6CF10926D02E881F981C5
:100D4000028CF38DE02DCE010995E881F9810288AE
:100D5000F389E02DCE01DF91CF911F910F91FF908C
:100D6000099480916D0283508093700280E00E940C
:100D70003F0380936F0280E00E943F03982F90789A
:100D800090936B02982F907490936C02E881F98194
:100D90000684F785E02D682FCE010995F12C80910E
:100DA0007002F81608F06ACF0F2D10E080E00E9464
:100DB0003F03F801EE58FD4F8083F394F0CF4F923C
:100DC0005F926F927F929F92AF92BF92EF920F933A
:100DD0001F93CF93DF93EC01162F5A01922E6DE3F0
:100DE0000E947103482F44606DE3CE010E949B0373
:100DF0000E94390B2B013C01CE010E940D06882375
:100E0000C1F0E881F9810088F189E02DE12C292DDC
:100E1000A501612FCE010995DF91CF911F910F910F
:100E2000EF90BF90AF909F907F906F905F904F90AA
:100E300008950E94390B6419750986099709683E5F
:100E4000734081059105E8F6E881F9810480F58118
:100E5000E02DCE010995D0CFCF93DF93EC016887C9
:100E6000662311F04FE001C04AE163E1CE010E9428
:100E70009B038885882341F061E1CE010E947103C4
:100E8000482F4F71406602C04F81406861E1CE013A
:100E9000DF91CF910C949B031F93CF93DF93EC01D1
:100EA000162F662311F04DE501C045E56AE5CE0138
:100EB0000E949B03112311F04CE701C040E76CE551
:100EC000CE01DF91CF911F910C949B03FC016683AF
:100ED00008952F923F924F925F927F928F929F92AE
:100EE000AF92BF92CF92DF92EF92FF920F931F9338
:100EF000CF93DF93EC01962E5A01722E802E10E0D4
:100F0000CE2CD12CE12CF12CE881F9810190F081DB
:100F1000E02D01E0272DA501692DCE0109950E9444
:100F2000390B1B012C010E94390B621973098409CA
:100F300095096C157D058E059F0540F4692DCE0140
:100F40000E944603882379F381E009C01F5F811660
:100F5000D8F68D858F3110F48F5F8D8780E0DF911B
:100F6000CF911F910F91FF90EF90DF90CF90BF90A6
:100F7000AF909F908F907F905F904F903F902F9079
:100F80000895CF93DF93EC0160726093AF0280917C
:100F90006B02882361F18091AF02882341F1809137
:100FA0007002882321F180E00E943F0390E0919538
:100FB000819591099F878E872091700221502093FF
:100FC00070022B853C852115310589F08217930726
:100FD00034F44D854F3118F44F5F4D8708C0281702
:100FE00039072CF48D85882311F081508D87DF918E
:100FF000CF910895FC0114861386178616861092E9
:10100000AF023FE135870C94C2048F929F92AF925A
:10101000BF92CF92DF92EF92FF920F931F93CF93E5
:10102000DF93EC01F62ED42E152F822E902EE88120
:10103000F9810488F589E02D61E0099567E2CE0128
:101040000E94710387FFFACF40E065E2CE010E9463
:101050009B03EE2011F00C2D01C000E0080D0E33B3
:1010600008F00DE3E881F981008CF18DE02DCE01CF
:10107000099580E80E943F0383E0800F0E943F03B0
:101080008F2D0E943F038D810E943F03EE2099F037
:10109000CC2011F080EA01C080E80E943F03CC2000
:1010A000B9F0C501B7FE03C09195819591090E94E1
:1010B0003F0301500DC0992041F08B859C85892B01
:1010C00011F080E603C080E401C080E00E943F038D
:1010D000CD2CED2CF12E8E2D8C19801730F4F701CC
:1010E00081917F010E943F03F6CFE881F981028C54
:1010F000F38DE02DCE010995E881F9810488F58909
:10110000E02D64E0CE0109950E94390B6B017C0152
:101110008B810E94750C892BA1F0E881F9810488EC
:10112000F589E02D61E0CE01DF91CF911F910F9104
:10113000FF90EF90DF90CF90BF90AF909F908F90F7
:1011400009940E94390B6C197D098E099F09683E2C
:1011500073408105910508F7DBCF6F927F928F92E4
:101160009F92AF92BF92CF92DF92EF92FF920F9336
:101170001F93CF93DF93EC013B01F42E10926C028E
:1011800010916F028090690290906A028091AF0284
:1011900001E0811101C000E06DE3CE010E94710306
:1011A000482F44606DE3CE010E949B030E94390BDF
:1011B0005B016C01CE010E940D06882301F11093A2
:1011C0006F025401C02EEE24E39400E02F2DA30102
:1011D000612FCE010E94050890926A0280926902F6
:1011E000DF91CF911F910F91FF90EF90DF90CF9003
:1011F000BF90AF909F908F907F906F9008950E94C6
:10120000390B6A197B098C099D09683E7340810579
:101210009105A8F6E881F9810480F581E02DCE01E1
:101220000995C8CFAF92BF92CF92EF920F93A12CA6
:10123000B12CC12C0E9405080F91EF90CF90BF9068
:10124000AF9008951F93CF93DF93EC01162F8091F9
:1012500071026817A1F0CE010E94C303143079F423
:101260008B859C85892B59F0E881F9810284F3856F
:10127000E02D6D85CE01DF91CF911F910994DF9113
:10128000CF911F9108951092AF020C944C04CF930C
:10129000CFB7F8948091B302811127C0EAE9F0E05A
:1012A0008491E6E8F0E09491E82FF0E0EE0FFF1F64
:1012B000E854FF4FA591B4918C91892321F461E00A
:1012C0008AE00E943F0C61E08AE00E94060C8CB527
:1012D00080618CBD8CB580648CBD61E08DE00E9426
:1012E000060C61E08BE00E94060C8091B3028F5FD8
:1012F0008093B302CFBFCF910895FC0180E5858331
:1013000016826083528341830895FC018CB58383E8
:101310008DB58483358126818091B202882399F02E
:101320009FB7F8948091B202813059F48DB38093C5
:10133000B0024DB38091B102809584238DBB9FBFD5
:1013400002C09093B0023CBD2DBD60E080810C9442
:101350003F0CCF93DF93EC0161E088810E943F0C4A
:101360008091B202882361F09FB7F8942091B20275
:101370008091B002213019F48DBB9FBF01C08FBF97
:101380008B818CBD8C818DBDDF91CF9108950F93A2
:101390001F93CF93DF938C010E9485098FE90E94F0
:1013A0003F0380E00E943F03C82FD0E0DC2FCC2712
:1013B00080E00E943F03C82BC8010E94A909CE010A
:1013C000DF91CF911F910F9108951F93CF93DF93DA
:1013D000EC010E94850985E00E943F0380E00E94A5
:1013E0003F03182FCE010E94A909812FDF91CF91D1
:1013F0001F9108950E94E509817008951F93CF936E
:10140000DF93EC01162F442339F040E066E00E94A0
:10141000FE09CE010E94A909CE010E94FA0981119C
:10142000FBCFCE010E948509812FDF91CF911F91C3
:101430000C943F030F931F93CF93DF938C0140E0F5
:101440006BE40E94FE0980E00E943F0380E00E945E
:101450003F0380E00E943F0380E00E943F03C4EB13
:10146000D2E080E00E943F03899382E0CC3BD80722
:10147000C1F7C8010E94A90984EB92E0DF91CF91E6
:101480001F910F910895CF93DF93EC0140E06BEA39
:101490000E94FE09CE01DF91CF910C94A909CF9350
:1014A000DF93EC018CB58B838DB58C8361E08881F3
:1014B0000E94060C80E58D831E82CE010E94A90940
:1014C000CE010E94430A89819A81892B51F0CE0175
:1014D0000E94C70929813A818217930711F080E0A1
:1014E0000CC041E061E0CE010E94FE0980E00E9454
:1014F0003F03CE010E94A90981E0DF91CF910895B9
:1015000008958230E8F4E82FF0E0EE0FFF1FE0507E
:10151000FF4F71836083813041F0809169008C7F3F
:10152000842B80936900E89A089580916900440FA4
:10153000551F440F551F837F842B80936900E99AC0
:1015400008951F920F920FB60F9211242F933F937D
:101550004F935F936F937F938F939F93AF93BF93BB
:10156000EF93FF93E0910001F09101010995FF9144
:10157000EF91BF91AF919F918F917F916F915F910B
:101580004F913F912F910F900FBE0F901F90189584
:101590001F920F920FB60F9211242F933F934F93E8
:1015A0005F936F937F938F939F93AF93BF93EF93CB
:1015B000FF93E0910201F09103010995FF91EF91F2
:1015C000BF91AF919F918F917F916F915F914F915B
:1015D0003F912F910F900FBE0F901F9018951F9263
:1015E0000F920FB60F9211242F933F938F939F93D7
:1015F000AF93BF938091BD029091BE02A091BF02B4
:10160000B091C0023091BC0223E0230F2D3720F4AB
:101610000196A11DB11D05C026E8230F0296A11D4C
:10162000B11D2093BC028093BD029093BE02A09393
:10163000BF02B093C0028091C1029091C202A091FA
:10164000C302B091C4020196A11DB11D8093C102D5
:101650009093C202A093C302B093C402BF91AF9112
:101660009F918F913F912F910F900FBE0F901F90E0
:1016700018952FB7F8946091BD027091BE028091C9
:10168000BF029091C0022FBF08953FB7F894809198
:10169000C1029091C202A091C302B091C40226B5CA
:1016A000A89B05C02F3F19F00196A11DB11D3FBF9A
:1016B0006627782F892F9A2F620F711D811D911D2A
:1016C00042E0660F771F881F991F4A95D1F708954A
:1016D0008F929F92AF92BF92CF92DF92EF92FF9242
:1016E0006B017C010E94450B4B015C01C114D104CC
:1016F000E104F104F1F00E94BC0F0E94450B68194F
:1017000079098A099B09683E73408105910570F348
:1017100021E0C21AD108E108F10888EE880E83E0C2
:10172000981EA11CB11CC114D104E104F10429F7D5
:10173000DDCFFF90EF90DF90CF90BF90AF909F9064
:101740008F900895789484B5826084BD84B581605B
:1017500084BD85B5826085BD85B5816085BDEEE6B9
:10176000F0E0808181608083E1E8F0E01082808198
:1017700082608083808181608083E0E8F0E0808106
:1017800081608083E1EBF0E0808184608083E0EB26
:10179000F0E0808181608083EAE7F0E0808184600E
:1017A000808380818260808380818160808380816A
:1017B000806880831092C1000895833081F028F4FE
:1017C000813099F08230A1F008958730A9F08830F7
:1017D000B9F08430D1F4809180008F7D03C0809176
:1017E00080008F7780938000089584B58F7702C042
:1017F00084B58F7D84BD08958091B0008F7703C03C
:101800008091B0008F7D8093B0000895CF93DF93D7
:1018100090E0FC01E458FF4F2491FC01E057FF4F9A
:101820008491882349F190E0880F991FFC01E854C6
:10183000FF4FA591B49182559F4FFC01C591D49162
:101840009FB7611108C0F8948C91209582238C93E6
:10185000888182230AC0623051F4F8948C91322F2F
:10186000309583238C938881822B888304C0F894DD
:101870008C91822B8C939FBFDF91CF9108950F9312
:101880001F93CF93DF931F92CDB7DEB7282F30E0A1
:10189000F901E859FF4F8491F901E458FF4F149181
:1018A000F901E057FF4F04910023C9F0882321F08C
:1018B00069830E94DD0B6981E02FF0E0EE0FFF1FCE
:1018C000E255FF4FA591B4919FB7F8948C916111A7
:1018D00003C01095812301C0812B8C939FBF0F9073
:1018E000DF91CF911F910F910895CF93DF93282F10
:1018F00030E0F901E859FF4F8491F901E458FF4FB6
:10190000D491F901E057FF4FC491CC2391F081119C
:101910000E94DD0BEC2FF0E0EE0FFF1FEC55FF4FA8
:10192000A591B4912C912D2381E090E021F480E0E9
:1019300002C080E090E0DF91CF910895FC01818D9D
:10194000228D90E0805C9F4F821B91098F739927B5
:101950000895FC01918D828D981731F0828DE80FEA
:10196000F11D858D90E008958FEF9FEF0895FC01A4
:10197000918D828D981761F0828DDF01A80FB11DC6
:101980005D968C91928D9F5F9F73928F90E00895EA
:101990008FEF9FEF08958BE39EE0892B49F080E065
:1019A00090E0892B29F00E943B0E81110C940000DD
:1019B0000895FC01848DDF01A80FB11DA35ABF4F0C
:1019C0002C91848D90E001968F739927848FA6893E
:1019D000B7892C93A089B1898C9180648C93938D65
:1019E000848D981306C00288F389E02D80818F7D55
:1019F00080830895CF93DF93EC01888D8823C9F00D
:101A0000EA89FB89808185FD05C0A889B9898C9107
:101A100086FD0FC00FB607FCF5CF808185FFF2CFA2
:101A2000A889B9898C9185FFEDCFCE010E94D90C90
:101A3000E7CFDF91CF910895CF92DF92FF920F937E
:101A40001F93CF93DF931F92CDB7DEB76C0181E078
:101A5000D60158968C9358975B969C915B975C96B1
:101A60008C915C97981307C05096ED91FC9151971B
:101A7000808185FD2EC0F601038D10E00F5F1F4FA2
:101A80000F731127F02EF601848DF81211C00FB6D6
:101A900007FCF9CFD6015096ED91FC9151978081CA
:101AA00085FFF1CFC60169830E94D90C6981EBCF14
:101AB000838DE80FF11DE35AFF4F6083D6015B96DB
:101AC0000C935B975296ED91FC91539780818062C5
:101AD0000CC0D6015696ED91FC91579760835096B5
:101AE000ED91FC91519780818064808381E090E04A
:101AF0000F90DF91CF911F910F91FF90DF90CF90CA
:101B00000895BF92CF92DF92EF92FF92CF93DF932F
:101B1000EC016A017B01B22EE889F98982E08083B9
:101B2000411581EE580761057105A1F060E079E08B
:101B30008DE390E0A70196010E94C90F2150310961
:101B4000410951095695479537952795211580E10B
:101B5000380798F0E889F989108260E874E88EE126
:101B600090E0A70196010E94C90F21503109410957
:101B700051095695479537952795EC85FD85308316
:101B8000EE85FF852083188EEC89FD89B082EA8975
:101B9000FB89808180618083EA89FB8980818860FC
:101BA0008083EA89FB89808180688083EA89FB8958
:101BB00080818F7D8083DF91CF91FF90EF90DF90C8
:101BC000CF90BF9008951F920F920FB60F921124DD
:101BD0002F938F939F93EF93FF93E091D502F09112
:101BE000D6028081E091DB02F091DC0282FD12C01E
:101BF00090818091DE028F5F8F732091DF028217C8
:101C000051F0E091DE02F0E0EB53FD4F958F8093B1
:101C1000DE0201C08081FF91EF919F918F912F9102
:101C20000F900FBE0F901F9018951F920F920FB636
:101C30000F9211242F933F934F935F936F937F9352
:101C40008F939F93AF93BF93EF93FF9385EC92E0B5
:101C50000E94D90CFF91EF91BF91AF919F918F910D
:101C60007F916F915F914F913F912F910F900FBE98
:101C70000F901F90189585EC92E00E949E0C21E039
:101C8000892B09F420E0822F08951092C802109247
:101C9000C70288EE93E0A0E0B0E08093C902909381
:101CA000CA02A093CB02B093CC0283E292E090935D
:101CB000C6028093C50285EC90E09093D202809397
:101CC000D10284EC90E09093D4028093D30280EC14
:101CD00090E09093D6028093D50281EC90E09093AF
:101CE000D8028093D70282EC90E09093DA0280933E
:101CF000D90286EC90E09093DC028093DB02109294
:101D0000DE021092DF021092E0021092E1020895CA
:101D1000CF92DF92EF92FF920F931F93CF93DF93B7
:101D20007C016A01EB0100E010E00C151D0571F06B
:101D30006991D701ED91FC910190F081E02DC701EF
:101D40000995892B19F00F5F1F4FEFCFC801DF9165
:101D5000CF911F910F91FF90EF90DF90CF9008955A
:101D60006115710581F0DB010D900020E9F7AD01EF
:101D700041505109461B570BDC01ED91FC9102804B
:101D8000F381E02D099480E090E008950C94B00E6A
:101D9000DC01ED91FC910190F081E02D09946FE25E
:101DA00072E00C94B00E0F931F93CF93DF93EC016E
:101DB0000E94B00E8C01CE010E94CF0E800F911FA9
:101DC000DF91CF911F910F9108950F931F93CF93A0
:101DD000DF93EC010E94C80E8C01CE010E94CF0E51
:101DE000800F911FDF91CF911F910F9108958F92D6
:101DF0009F92AF92BF92DF92EF92FF920F931F9349
:101E0000CF93DF93CDB7DEB7A1970FB6F894DEBFBF
:101E10000FBECDBF7C01F42FD52ECB0119A22230ED
:101E200008F42AE08E010F5D1F4F822E912CA12C09
:101E3000B12C6F2F7D2DA50194010E94C90FF22FA7
:101E4000D32ECA01015011096A3014F4E0E301C035
:101E5000E7E3E60FD801EC93232B242B252B49F73E
:101E6000B801C7010E94B00EA1960FB6F894DEBF6C
:101E70000FBECDBFDF91CF911F910F91FF90EF90DB
:101E8000DF90BF90AF909F908F900895CF92DF9298
:101E9000EF92FF920F931F93CF93DF93EC016A01B0
:101EA0007B012115310579F4E881F9810190F081F8
:101EB000E02D642FDF91CF911F910F91FF90EF9054
:101EC000DF90CF9009942A303105E9F477FF1AC0EA
:101ED0006DE20E94C80E8C0144275527BA014C19A7
:101EE0005D096E097F092AE0CE010E94F70E800F7E
:101EF000911FDF91CF911F910F91FF90EF90DF9095
:101F0000CF9008952AE0B701A601CE01DF91CF91CD
:101F10001F910F91FF90EF90DF90CF900C94F70EF0
:101F20009A01AB01662757FD6095762F0C94460FFA
:101F30002115310541F4DC01ED91FC910190F08116
:101F4000E02D642F09940C94F70E9A01462F50E06F
:101F500060E070E00C94980F08950E94A20B0E941C
:101F6000AC0F0E948D00CBECDCE00E94D3012097E7
:101F7000E1F30E94CB0CF9CF0895991B79E004C0DE
:101F8000991F961708F0961B881F7A95C9F78095B8
:101F90000895A1E21A2EAA1BBB1BFD010DC0AA1FAA
:101FA000BB1FEE1FFF1FA217B307E407F50720F0C2
:101FB000A21BB30BE40BF50B661F771F881F991F3D
:101FC0001A9469F760957095809590959B01AC0186
:101FD000BD01CF010895EE0FFF1F0590F491E02D94
:101FE0000994AEE0B0E0E7EFFFE00C9499120D89A0
:101FF0001E8986E08C831A8309838FEF9FE79E8377
:102000008D83AE01475E5F4F6F89788DCE0101965B
:102010000E941310EF81F885E00FF11F10822E96B9
:10202000E4E00C94B512ACE0B0E0E9E1F0E10C942E
:102030008B127C016B018A01FC011782168283815D
:1020400081FFBDC1CE0101964C01F7019381F601DC
:1020500093FD859193FF81916F01882309F4ABC1B2
:10206000853239F493FD859193FF81916F0185321B
:1020700029F4B70190E00E94FB11E7CF512C312CDD
:1020800020E02032A0F48B3269F030F4803259F035
:10209000833269F420612CC08D3239F0803339F4F9
:1020A000216026C02260246023C0286021C027FD53
:1020B00027C030ED380F3A3078F426FF06C0FAE03A
:1020C0005F9E300D1124532E13C08AE0389E300DD0
:1020D0001124332E20620CC08E3221F426FD6BC1F8
:1020E000206406C08C3611F4206802C0883641F4A2
:1020F000F60193FD859193FF81916F018111C1CF0D
:10210000982F9F7D9554933028F40C5F1F4FFFE369
:10211000F9830DC0833631F0833771F0833509F0D0
:102120005BC022C0F801808189830E5F1F4F442469
:102130004394512C540115C03801F2E06F0E711C0C
:10214000F801A080B18026FF03C0652D70E002C0B9
:102150006FEF7FEFC5012C870E94F0112C018301E6
:102160002C852F77222E17C03801F2E06F0E711CDC
:10217000F801A080B18026FF03C0652D70E002C089
:102180006FEF7FEFC5012C870E94E5112C012C8594
:102190002068222E830123FC1BC0832D90E048166B
:1021A0005906B0F4B70180E290E00E94FB113A9426
:1021B000F4CFF50127FC859127FE81915F01B701DE
:1021C00090E00E94FB1131103A94F1E04F1A51084F
:1021D0004114510471F7E5C0843611F0893639F5A0
:1021E000F80127FF07C060817181828193810C5FB4
:1021F0001F4F08C060817181882777FD8095982FD7
:102200000E5F1F4F2F76B22E97FF09C090958095D5
:10221000709561957F4F8F4F9F4F2068B22E2AE0B7
:1022200030E0A4010E942D12A82EA81844C08537C2
:1022300029F42F7EB22E2AE030E025C0F22FF97F5C
:10224000BF2E8F36C1F018F4883579F0B4C08037CE
:1022500019F0883721F0AFC02F2F2061B22EB4FEC5
:102260000DC08B2D8460B82E09C024FF0AC09F2F9B
:102270009660B92E06C028E030E005C020E130E0CD
:1022800002C020E132E0F801B7FE07C06081718131
:10229000828193810C5F1F4F06C06081718180E055
:1022A00090E00E5F1F4FA4010E942D12A82EA818C7
:1022B000FB2DFF77BF2EB6FE0BC02B2D2E7FA51456
:1022C00050F4B4FE0AC0B2FC08C02B2D2E7E05C00F
:1022D0007A2C2B2D03C07A2C01C0752C24FF0DC045
:1022E000FE01EA0DF11D8081803311F4297E09C0C1
:1022F00022FF06C07394739404C0822F867809F07D
:10230000739423FD13C020FF06C05A2C731418F4D5
:10231000530C5718732C731468F4B70180E290E0E3
:102320002C870E94FB1173942C85F5CF731410F445
:10233000371801C0312C24FF12C0B70180E390E0B0
:102340002C870E94FB112C8522FF17C021FF03C0A0
:1023500088E590E002C088E790E0B7010CC0822FCA
:10236000867859F021FD02C080E201C08BE227FD92
:102370008DE2B70190E00E94FB11A51438F4B7017B
:1023800080E390E00E94FB115A94F7CFAA94F401E5
:10239000EA0DF11D8081B70190E00E94FB11A110B0
:1023A000F5CF332009F451CEB70180E290E00E94CE
:1023B000FB113A94F6CFF7018681978102C08FEF27
:1023C0009FEF2C96E2E10C94A712FC01059061505E
:1023D00070400110D8F7809590958E0F9F1F08953B
:1023E000FC016150704001900110D8F780959095E4
:1023F0008E0F9F1F08950F931F93CF93DF93182F76
:10240000092FEB018B8181FD03C08FEF9FEF20C06F
:1024100082FF10C04E815F812C813D81421753079E
:102420007CF4E881F9819F012F5F3F4F3983288336
:10243000108306C0E885F985812F0995892B29F736
:102440002E813F812F5F3F4F3F832E83812F902F1F
:10245000DF91CF911F910F910895FA01AA2728309B
:1024600051F1203181F1E8946F936E7F6E5F7F4F61
:102470008F4F9F4FAF4FB1E03ED0B4E03CD0670FDD
:10248000781F891F9A1FA11D680F791F8A1F911D30
:10249000A11D6A0F711D811D911DA11D20D009F480
:1024A00068943F912AE0269F11243019305D3193C2
:1024B000DEF6CF010895462F4770405D4193B3E0AB
:1024C0000FD0C9F7F6CF462F4F70405D4A3318F052
:1024D000495D31FD4052419302D0A9F7EACFB4E003
:1024E000A6959795879577956795BA95C9F70097BB
:1024F0006105710508959B01AC010A2E069457955C
:10250000479537952795BA95C9F7620F731F841FB2
:10251000951FA01D08952F923F924F925F926F9248
:102520007F928F929F92AF92BF92CF92DF92EF9263
:10253000FF920F931F93CF93DF93CDB7DEB7CA1BE4
:10254000DB0B0FB6F894DEBF0FBECDBF09942A880F
:10255000398848885F846E847D848C849B84AA84B7
:10256000B984C884DF80EE80FD800C811B81AA8144
:10257000B981CE0FD11D0FB6F894DEBF0FBECDBF0F
:08258000ED010895F894FFCF6E
:10258800800A800A73616D706C65456E637279703C
:10259800744B6579000A4C697374656E696E6720BF
:1025A8006174202564204D687A2E2E2E00535049E0
:1025B80020466C61736820496E6974204F4B2E2049
:1025C800556E69717565204D4143203D205B005370
:1025D800504920466C617368204D454D206E6F74DC
:1025E80020666F756E64202869732063686970209F
:1025F800736F6C64657265643F292E2E2E005246F7
:102608004D36395F41544320456E61626C656420E4
:10261800284175746F205472616E736D69737369A4
:102628006F6E20436F6E74726F6C29006E65772031
:1026380074616700232C00746F205B005D20002C00
:1026480052585F525353493A0041434B2073656EC9
:10265800742C0050696E67696E67206E6F64650040
:102668002C41434B2E2E2E0041434B2054455354AE
:10267800002C6F6B21002C6E6F7468696E67000008
:10268800000000DF0669071D03AD082C0732042D82
:1026980006C1071209430922094C070703F802007B
:1026A8000000001C0D880E9E0CB70CA90CFA0C0D2E
:0E26B8000A006E616E00696E66006F76660045
:00000001FF
