:100000000C9463000C94AF0A0C94D60A0C948B00E9
:100010000C948B000C948B000C948B000C948B0034
:100020000C948B000C948B000C948B000C948B0024
:100030000C948B000C948B000C948B000C948B0014
:100040000C94FD0A0C948B000C94F10D0C94230E6F
:100050000C948B000C948B000C948B000C948B00F4
:100060000C948B000C948B0000000008000201002F
:100070000003040700000000000000000102040863
:100080001020408001020408102001020408102002
:10009000040404040404040402020202020203032E
:1000A00003030303000000002300260029000000D2
:1000B0000000250028002B0000000000240027007D
:1000C0002A00B401530E11241FBECFEFD8E0DEBFCB
:1000D000CDBF12E0A0E0B1E0E4EAF5E202C0059095
:1000E0000D92A036B107D9F723E0A0E6B2E001C037
:1000F0001D92A238B207E1F710E0C6ECD0E004C0D0
:100100002297FE010E94FB0FC23CD107C9F70E9453
:10011000BB0F0C94D0120C9400000F931F93CF933D
:10012000DF93CDB7DEB7E2970FB6F894DEBF0FBE10
:10013000CDBF26E040E052EC61E070E085EE92E059
:100140000E948F0D6AE070E080E090E00E94760BE4
:1001500024E641E06BE286E792E00E940808E09125
:100160007602F09177020084F185E02D61E086E768
:1001700092E0099564E071E086E792E00E948B04CA
:1001800060916E0286E792E00E94740781E08F938F
:1001900081EB8F9385E191E09F938F938E010F5FA9
:1001A0001F4F1F930F930E94FF0FB80185EE92E03F
:1001B0000E94E10E8FE692E00E945D0A0F900F9080
:1001C0000F900F900F900F90882321F16DE271E056
:1001D00085EE92E00E94D40E8FE692E00E94280AFB
:1001E00004ED12E0F80161918F0140E150E085EEED
:1001F00092E00E94B30F6AE385EE92E00E94D60E71
:10020000F2E00C3D1F0771F76DE585EE92E00E946C
:10021000F30E06C06FE471E085EE92E00E94E10EFD
:100220006EE771E085EE92E00E94E10EE2960FB675
:10023000F894DEBF0FBECDBFDF91CF911F910F911C
:1002400008951F93CF93DF93182FEB0161E00E9475
:10025000140C61E0812F0E944D0CBE01882777FDB0
:100260008095982F0E94760B60E0812FDF91CF91CF
:100270001F910C944D0C6F927F928F929F92AF9230
:10028000BF92CF92DF92EF92FF920F931F93CF9383
:10029000DF931F92CDB7DEB76DB67EB6E62EF12C9A
:1002A00015E0619FA00111249A012F5F3F4F6DB7A8
:1002B0007EB7621B730B0FB6F8947EBF0FBE6DBF87
:1002C0006F5F7F4FDC0120E030E000E3C02EE8E705
:1002D000BE2EF0E2AF2EFD01E81BF90BEE15FF0577
:1002E00034F5ED91DE2ED2940FE0D0220E2F0F7058
:1002F000FB01E20FF31FC082B18210E3912E9D0C2F
:10030000928210E3912E900E9382A48219E0812EA6
:100310008D1420F417E3912ED90CD2820A3020F0EC
:10032000D38017E0D10ED3822B5F3F4FD4CFFB0198
:10033000E40FF51F108285EE92E00E94D40E0FB6F6
:10034000F8947EBE0FBE6DBE0F90DF91CF911F91CE
:100350000F91FF90EF90DF90CF90BF90AF909F9064
:100360008F907F906F9008958AE08093780282E06A
:100370008093790210927A0281E080939102109228
:100380007C028FE180937D0210927E0285E292E0F2
:10039000909377028093760240E35FEE68E08FE609
:1003A00092E00C948B09EF920F93CF9385EE92E03D
:1003B0000E94AC0C181619068CF585EE92E00E948E
:1003C000C50C8E3641F4809361026CEA71E085EED3
:1003D00092E00E94E10EB8E2EB2E02E021E041E65D
:1003E00052E06091600286E792E00E9477078823DE
:1003F00039F060EC71E085EE92E00E94D40E0EC000
:100400004AE050E06091600285EE92E00E94B30FF6
:1004100069EC71E085EE92E00E94E10EE0917602D7
:10042000F09177020480F581E02D86E792E009954E
:10043000882309F4DCC066ED71E085EE92E00E944D
:10044000D40E4091690250916A0260916B027091E2
:100450006C024F5F5F4F6F4F7F4F40936902509325
:100460006A0260936B0270936C022AE030E085EEC2
:1004700092E00E94A60F6CE285EE92E00E94D60EFA
:100480006CE285EE92E00E94D60E60918F024AE007
:1004900050E085EE92E00E94B30F67ED71E085EECB
:1004A00092E00E94D40E80918F028093600280912E
:1004B0006E028823A1F069ED71E085EE92E00E9462
:1004C000D40E60918E024AE050E085EE92E00E94E8
:1004D000B30F6EED71E085EE92E00E94D40E20E045
:1004E00080919002281760F4822F90E0FC01EE5674
:1004F000FD4F3081FC01EE59FD4F30832F5FF0CF6F
:1005000067E082E692E00E943B0161EE71E085EED9
:1005100092E00E94D40E6091890270918A024AE0B2
:1005200050E085EE92E00E949E0F67ED71E085EE4F
:1005300092E00E94D40E86E792E00E947403882322
:1005400009F449C0C0918F0240E063E572E086E79C
:1005500092E00E94BB086BEE71E085EE92E00E9493
:10056000D40E80916D0291E0980F90936D0263E03C
:100570000E94CB0F91112FC065EF71E085EE92E0E4
:100580000E94D40E4AE050E06C2F85EE92E00E946B
:10059000B30F62E072E085EE92E00E94D40E63E059
:1005A00070E080E090E00E94760BA8E2EA2E00E086
:1005B00028E04AE052E06C2F86E792E00E9477073D
:1005C000882319F063E172E002C068E172E085EE11
:1005D00092E00E94D40E85EE92E00E94DD0E63E070
:1005E00070E089E0CF910F91EF900C942101CF91B1
:1005F0000F91EF9008958091870290918802DC011D
:10060000ED91FC910484F585E02D0994CF93DF935F
:10061000EC0161E08A810E944D0C89858CBD8A8540
:100620008DBD7894DF91CF910895FC01F8948CB53D
:1006300081878DB582878CB5837F8CBD8CB58F7D8E
:100640008CBD8CB58C7F8CBD8DB58E7F8DBD60E0F3
:1006500082810C944D0CF89420919102233021F466
:1006600020918D0221110FC020919102233011F4AD
:10067000789407C0DC01ED91FC910288F389E02DAC
:10068000099580E00895DC01ED91FC910488F589DD
:10069000E02D61E0099581E008958EBD00000DB464
:1006A00007FEFDCF8EB50895CF93DF931F92CDB790
:1006B000DEB7DC01ED91FC910480F581E02D6983CA
:1006C00009956981882359F080918F02861711F06E
:1006D0006F3F29F490918B0281E0911101C080E07D
:1006E0000F90DF91CF91089580918C02882329F09B
:1006F00090918E0281E09F3F09F480E00895EF928F
:10070000FF921F93CF93DF931F92CDB7DEB77C018B
:10071000DC01ED91FC91008CF18DE02D6983099550
:100720006981862F8F770E944D0380E00E944D03E0
:10073000182FD701ED91FC91028CF38DE02DC701AC
:100740000995812F0F90DF91CF911F91FF90EF902E
:1007500008950F931F93CF93DF9300D0CDB7DEB7EB
:100760008C01DC01ED91FC91008CF18DE02D4A8330
:10077000698309956981862F80680E944D034A81AB
:10078000842F0E944D03D801ED91FC91028CF38DD2
:10079000E02DC8010F900F90DF91CF911F910F9125
:1007A00009941F93CF93DF93EC01162F8091910250
:1007B000681709F461C0623009F440C070F4662320
:1007C00009F444C0613009F057C061E0CE010E94D5
:1007D0007F03482F437E44603FC06330C1F06430E4
:1007E00009F04AC061E0CE010E947F03482F437E9A
:1007F0004C6061E0CE010E94A9038885882381F1C5
:10080000E881F9810688F789E02D61E014C061E094
:10081000CE010E947F03482F437E406161E0CE01FC
:100820000E94A90388858823D9F0E881F981068888
:10083000F789E02D60E0CE01099512C061E0CE019C
:100840000E947F03482F437E486006C061E0CE01CE
:100850000E947F03482F437E61E0CE010E94A903DE
:1008600080919102811106C067E2CE010E947F0350
:1008700087FFF6CF10939102DF91CF911F910895DA
:10088000CF93DF93EC01603208F06FE16F838885CE
:10089000882311F066956F8361E1CE010E947F038A
:1008A000482F407E8F81482B61E1CE01DF91CF91AF
:1008B0000C94A903CF93DF93EC0110929002109255
:1008C0008F0210928E0210928D0210928C02109262
:1008D0008B0210928A021092890268E20E947F03C2
:1008E00082FF0AC06DE3CE010E947F03482F44605F
:1008F0006DE3CE010E94A90340E465E2CE010E94AF
:10090000A903E881F9810488F589E02D63E0CE012F
:10091000DF91CF910994DF92EF92FF920F931F9393
:10092000CF93DF93EC018B01E881F9810488F5898D
:10093000E02D61E0099501151105E1F0E881F981EB
:10094000008CF18DE02DCE0109958EEB0E944D03B8
:100950007801D12CF70181917F010E944D03D3943E
:10096000F0E1DF12F7CFE881F981028CF38DE02D01
:10097000CE0109956DE3CE010E947F038E7F91E049
:10098000012B09F490E0482F492B6DE3CE01DF9154
:10099000CF911F910F91FF90EF90DF900C94A903DE
:1009A0008F929F92AF92BF92DF92EF92FF920F933E
:1009B0001F93CF93DF93CDB7DEB7AE970FB6F89402
:1009C000DEBF0FBECDBF7C01D42E8EE28E010F5F45
:1009D0001F4FD801E82F1D92EA95E9F791E099831E
:1009E00034E03A8342E04B8393E09D834E833F8320
:1009F00040E4488735E039879A8796E09B8793E300
:100A00009C8737E03D8798E09F8799E0998B99E133
:100A10009B8B92E49C8B55E25D8B4E8B46E24F8B19
:100A2000388F38E2398F30E13A8F39E23B8F3CED35
:100A30003C8F8D8F88E88E8F8FE28F8F8DE288A319
:100A400080E389A337E33BA330E93CA338E33DA32C
:100A50009EA39CE39FA39FE898A79DE399A792E19B
:100A60009AA79FE69BA78CA78FEF8DA76F3131F0D8
:100A70006B3231F0663531F489ED05C08EE403C088
:100A80008CE601C084EE8E876F3141F06B3221F02D
:100A9000663521F480E003C080E401C080EC888BDF
:100AA0002AA361E0D70112968C910E944D0C61E05F
:100AB000F70182810E94140C0E9455090E94470B85
:100AC0004B015C014AEA6FE2C7010E94A9036FE291
:100AD000C7010E947F038A3A59F00E94470B6819A8
:100AE00079098A099B09623371058105910550F3E3
:100AF0000E94470B4B015C0145E56FE2C7010E9474
:100B0000A9036FE2C7010E947F03853559F00E9457
:100B1000470B681979098A099B09623371058105B8
:100B2000910550F3B12CF801EB0DF11DEB0DF11D0A
:100B300060816F3F31F04181C7010E94A903B394E6
:100B4000F2CF60E070E0C7010E948B04D701ED9105
:100B5000FC9111970084F185E02D18966C91C701E6
:100B60000995D701ED91FC910488F589E02D61E0AC
:100B7000C70109950E94470B4B015C0167E2C70161
:100B80000E947F0387FD0BC00E94470B68197909FB
:100B90008A099B09623371058105910578F30E94EA
:100BA000470B681979098A099B0962337105810528
:100BB000910588F443E050E06BEF72E0F701848127
:100BC0000E948F0AF0928802E0928702D701159660
:100BD000DC9281E001C080E0AE960FB6F894DEBFF3
:100BE0000FBECDBFDF91CF911F910F91FF90EF907E
:100BF000DF90BF90AF909F908F900895CF93DF9339
:100C0000EC0161110DC064E2CE010E947F0390E00F
:100C100091958195910995958795DF91CF9108954B
:100C200041E063E20E94A90363E2CE010E947F03D8
:100C300081FFFACFE8CFCF93DF93EC01809191024F
:100C40008330A9F480918D02811111C060E0CE0142
:100C50000E94FE05863A9F4F54F4E881F98104888A
:100C6000F589E02D61E0CE01099581E001C080E0C9
:100C7000DF91CF910895FF920F931F93CF93DF934E
:100C8000EC0180919102833001F568E2CE010E946F
:100C90007F0382FD28C019C0809190028D3330F40B
:100CA000E0919002F0E0EE56FD4F1082E881F9816C
:100CB000028CF38DE02DCE010995E881F98104883D
:100CC000F589E02D63E0CE01099560E0CE010E9438
:100CD000FE0590938A0280938902DF91CF911F9144
:100CE0000F91FF900895E881F9810488F589E02D3E
:100CF00061E0CE010995E881F981008CF18DE02D4C
:100D0000CE01099580E00E944D0380E00E944D03D2
:100D100080938D0280918D028334D0F480918D0276
:100D200080938D0280E00E944D0380938E028E811D
:100D3000811109C090918E028D81981721F08091C8
:100D40008E028F3F39F480918D02833018F017C0E6
:100D500082E4E6CF10928D02E881F981028CF38D56
:100D6000E02DCE010995E881F9810288F389E02D13
:100D7000CE01DF91CF911F910F91FF900994809147
:100D80008D0283508093900280E00E944D038093F7
:100D90008F0280E00E944D03982F907890938B02F1
:100DA000982F907490938C02E881F9810684F785DE
:100DB000E02D682FCE010995F12C80919002F81654
:100DC00008F06ACF0F2D10E080E00E944D03F8017B
:100DD000EE56FD4F8083F394F0CF4F925F926F9267
:100DE0007F929F92AF92BF92EF920F931F93CF93F8
:100DF000DF93EC01162F5A01922E6DE30E947F03C0
:100E0000482F44606DE3CE010E94A9030E94470B66
:100E10002B013C01CE010E941B068823C1F0E88112
:100E2000F9810088F189E02DE12C292DA501612FA0
:100E3000CE010995DF91CF911F910F91EF90BF9057
:100E4000AF909F907F906F905F904F9008950E9419
:100E5000470B6419750986099709683E7340810537
:100E60009105E8F6E881F9810480F581E02DCE0155
:100E70000995D0CFCF93DF93EC016887662311F0FB
:100E80004FE001C04AE163E1CE010E94A9038885D9
:100E9000882341F061E1CE010E947F03482F4F710A
:100EA000406602C04F81406861E1CE01DF91CF9181
:100EB0000C94A9031F93CF93DF93EC01162F6623A5
:100EC00011F04DE501C045E56AE5CE010E94A90398
:100ED000112311F04CE701C040E76CE5CE01DF9132
:100EE000CF911F910C94A903FC01668308952F9262
:100EF0003F924F925F927F928F929F92AF92BF925A
:100F0000CF92DF92EF92FF920F931F93CF93DF93D5
:100F1000EC01962E5A01722E802E10E0CE2CD12C90
:100F2000E12CF12CE881F9810190F081E02D01E0C4
:100F3000272DA501692DCE0109950E94470B1B01A4
:100F40002C010E94470B62197309840995096C15DD
:100F50007D058E059F0540F4692DCE010E94540346
:100F6000882379F381E009C01F5F8116D8F68D854B
:100F70008F3110F48F5F8D8780E0DF91CF911F91CB
:100F80000F91FF90EF90DF90CF90BF90AF909F9028
:100F90008F907F905F904F903F902F900895CF93C8
:100FA000DF93EC0160726093CF0280918B02882303
:100FB00061F18091CF02882341F1809190028823D2
:100FC00021F180E00E944D0390E091958195910977
:100FD0009F878E87209190022150209390022B852D
:100FE0003C852115310589F08217930734F44D852E
:100FF0004F3118F44F5F4D8708C0281739072CF47C
:101000008D85882311F081508D87DF91CF910895D0
:10101000FC0114861386178616861092CF023FE1D4
:1010200035870C94D0048F929F92AF92BF92CF924B
:10103000DF92EF92FF920F931F93CF93DF93EC0118
:10104000F62ED42E152F822E902EE881F981048859
:10105000F589E02D61E0099567E2CE010E947F03EA
:1010600087FFFACF40E065E2CE010E94A903EE209F
:1010700011F00C2D01C000E0080D0E3308F00DE357
:10108000E881F981008CF18DE02DCE01099580E891
:101090000E944D0383E0800F0E944D038F2D0E941C
:1010A0004D038D810E944D03EE2099F0CC2011F06C
:1010B00080EA01C080E80E944D03CC20B9F0C50150
:1010C000B7FE03C09195819591090E944D0301508F
:1010D0000DC0992041F08B859C85892B11F080E60D
:1010E00003C080E401C080E00E944D03CD2CED2CB4
:1010F000F12E8E2D8C19801730F4F70181917F012C
:101100000E944D03F6CFE881F981028CF38DE02D2A
:10111000CE010995E881F9810488F589E02D64E024
:10112000CE0109950E94470B6B017C018B810E94C7
:10113000830C892BA1F0E881F9810488F589E02DE1
:1011400061E0CE01DF91CF911F910F91FF90EF9061
:10115000DF90CF90BF90AF909F908F9009940E94A6
:10116000470B6C197D098E099F09683E7340810504
:10117000910508F7DBCF6F927F928F929F92AF928B
:10118000BF92CF92DF92EF92FF920F931F93CF9374
:10119000DF93EC013B01F42E10928C0210918F0230
:1011A0008090890290908A028091CF0201E08111A3
:1011B00001C000E06DE3CE010E947F03482F446030
:1011C0006DE3CE010E94A9030E94470B5B016C01F5
:1011D000CE010E941B06882301F110938F02540157
:1011E000C02EEE24E39400E02F2DA301612FCE0149
:1011F0000E94130890928A0280928902DF91CF9117
:101200001F910F91FF90EF90DF90CF90BF90AF9024
:101210009F908F907F906F9008950E94470B6A195E
:101220007B098C099D09683E734081059105A8F6EC
:10123000E881F9810480F581E02DCE010995C8CFC0
:10124000AF92BF92CF92EF920F93A12CB12CC12CF1
:101250000E9413080F91EF90CF90BF90AF90089528
:101260001F93CF93DF93EC01162F809191026817A3
:10127000A1F0CE010E94D103143079F48B859C85B6
:10128000892B59F0E881F9810284F385E02D6D8581
:10129000CE01DF91CF911F910994DF91CF911F91E2
:1012A00008951092CF020C945A04CF93CFB7F894BC
:1012B0008091D302811127C0EAE9F0E08491E6E849
:1012C000F0E09491E82FF0E0EE0FFF1FE854FF4F9D
:1012D000A591B4918C91892321F461E08AE00E9468
:1012E0004D0C61E08AE00E94140C8CB580618CBDCD
:1012F0008CB580648CBD61E08DE00E94140C61E0CF
:101300008BE00E94140C8091D3028F5F8093D302F4
:10131000CFBFCF910895FC0180E58583168260835D
:10132000528341830895FC018CB583838DB58483FA
:10133000358126818091D202882399F09FB7F89455
:101340008091D202813059F48DB38093D0024DB395
:101350008091D102809584238DBB9FBF02C0909362
:10136000D0023CBD2DBD60E080810C944D0CCF932C
:10137000DF93EC0161E088810E944D0C8091D202E4
:10138000882361F09FB7F8942091D2028091D00217
:10139000213019F48DBB9FBF01C08FBF8B818CBDE5
:1013A0008C818DBDDF91CF9108950F931F93CF93C3
:1013B000DF938C010E9493098FE90E944D0380E026
:1013C0000E944D03C82FD0E0DC2FCC2780E00E9484
:1013D0004D03C82BC8010E94B709CE01DF91CF9100
:1013E0001F910F9108951F93CF93DF93EC010E94FB
:1013F000930985E00E944D0380E00E944D03182F61
:10140000CE010E94B709812FDF91CF911F910895DE
:101410000E94F309817008951F93CF93DF93EC012D
:10142000162F442339F040E066E00E940C0ACE01FA
:101430000E94B709CE010E94080A8111FBCFCE019C
:101440000E949309812FDF91CF911F910C944D033E
:101450000F931F93CF93DF938C0140E06BE40E94C6
:101460000C0A80E00E944D0380E00E944D0380E062
:101470000E944D0380E00E944D03C4EDD2E080E065
:101480000E944D03899382E0CC3DD807C1F7C80183
:101490000E94B70984ED92E0DF91CF911F910F91E7
:1014A0000895CF93DF93EC0140E06BEA0E940C0AB1
:1014B000CE01DF91CF910C94B709CF93DF93EC016C
:1014C0008CB58B838DB58C8361E088810E94140C70
:1014D00080E58D831E82CE010E94B709CE010E9455
:1014E000510A89819A81892B51F0CE010E94D50938
:1014F00029813A818217930711F080E00CC041E006
:1015000061E0CE010E940C0A80E00E944D03CE01F2
:101510000E94B70981E0DF91CF910895089582304C
:10152000E8F4E82FF0E0EE0FFF1FE050FF4F71836B
:101530006083813041F0809169008C7F842B80939F
:101540006900E89A089580916900440F551F440F7F
:10155000551F837F842B80936900E99A08951F9219
:101560000F920FB60F9211242F933F934F935F93D7
:101570006F937F938F939F93AF93BF93EF93FF935B
:10158000E0910001F09101010995FF91EF91BF9168
:10159000AF919F918F917F916F915F914F913F910B
:1015A0002F910F900FBE0F901F9018951F920F92C2
:1015B0000FB60F9211242F933F934F935F936F9326
:1015C0007F938F939F93AF93BF93EF93FF93E0919C
:1015D0000201F09103010995FF91EF91BF91AF9145
:1015E0009F918F917F916F915F914F913F912F913B
:1015F0000F900FBE0F901F9018951F920F920FB66D
:101600000F9211242F933F938F939F93AF93BF9388
:101610008091DD029091DE02A091DF02B091E002A4
:101620003091DC0223E0230F2D3720F40196A11D19
:10163000B11D05C026E8230F0296A11DB11D209300
:10164000DC028093DD029093DE02A093DF02B09370
:10165000E0028091E1029091E202A091E302B09158
:10166000E4020196A11DB11D8093E1029093E20274
:10167000A093E302B093E402BF91AF919F918F9149
:101680003F912F910F900FBE0F901F9018952FB77D
:10169000F8946091DD027091DE028091DF029091FA
:1016A000E0022FBF08953FB7F8948091E102909136
:1016B000E202A091E302B091E40226B5A89B05C026
:1016C0002F3F19F00196A11DB11D3FBF6627782F4E
:1016D000892F9A2F620F711D811D911D42E0660FA7
:1016E000771F881F991F4A95D1F708958F929F926F
:1016F000AF92BF92CF92DF92EF92FF926B017C018B
:101700000E94530B4B015C01C114D104E104F104AC
:10171000F1F00E94CA0F0E94530B681979098A09D7
:101720009B09683E73408105910570F321E0C21A60
:10173000D108E108F10888EE880E83E0981EA11C0C
:10174000B11CC114D104E104F10429F7DDCFFF90ED
:10175000EF90DF90CF90BF90AF909F908F900895C3
:10176000789484B5826084BD84B5816084BD85B57C
:10177000826085BD85B5816085BDEEE6F0E0808143
:1017800081608083E1E8F0E0108280818260808364
:10179000808181608083E0E8F0E0808181608083E7
:1017A000E1EBF0E0808184608083E0EBF0E0808119
:1017B00081608083EAE7F0E08081846080838081BB
:1017C0008260808380818160808380818068808363
:1017D0001092C1000895833081F028F4813099F08F
:1017E0008230A1F008958730A9F08830B9F08430B4
:1017F000D1F4809180008F7D03C0809180008F772D
:1018000080938000089584B58F7702C084B58F7D62
:1018100084BD08958091B0008F7703C08091B0009F
:101820008F7D8093B0000895CF93DF9390E0FC010B
:10183000E458FF4F2491FC01E057FF4F8491882327
:1018400049F190E0880F991FFC01E854FF4FA591E2
:10185000B49182559F4FFC01C591D4919FB76111FE
:1018600008C0F8948C91209582238C9388818223E0
:101870000AC0623051F4F8948C91322F3095832352
:101880008C938881822B888304C0F8948C91822B5E
:101890008C939FBFDF91CF9108950F931F93CF93A8
:1018A000DF931F92CDB7DEB7282F30E0F901E8595A
:1018B000FF4F8491F901E458FF4F1491F901E0576B
:1018C000FF4F04910023C9F0882321F069830E940F
:1018D000EB0B6981E02FF0E0EE0FFF1FE255FF4FA9
:1018E000A591B4919FB7F8948C91611103C01095A4
:1018F000812301C0812B8C939FBF0F90DF91CF91EB
:101900001F910F910895CF93DF93282F30E0F901B5
:10191000E859FF4F8491F901E458FF4FD491F90140
:10192000E057FF4FC491CC2391F081110E94EB0B43
:10193000EC2FF0E0EE0FFF1FEC55FF4FA591B49197
:101940002C912D2381E090E021F480E002C080E022
:1019500090E0DF91CF910895FC01818D228D90E080
:10196000805C9F4F821B91098F7399270895FC011A
:10197000918D828D981731F0828DE80FF11D858D44
:1019800090E008958FEF9FEF0895FC01918D828D77
:10199000981761F0828DDF01A80FB11D5D968C91C3
:1019A000928D9F5F9F73928F90E008958FEF9FEFCE
:1019B000089589E49EE0892B49F080E090E0892B2E
:1019C00029F00E94490E81110C9400000895FC0139
:1019D000848DDF01A80FB11DA35ABF4F2C91848DB8
:1019E00090E001968F739927848FA689B7892C93ED
:1019F000A089B1898C9180648C93938D848D981388
:101A000006C00288F389E02D80818F7D8083089550
:101A1000CF93DF93EC01888D8823C9F0EA89FB8995
:101A2000808185FD05C0A889B9898C9186FD0FC08C
:101A30000FB607FCF5CF808185FFF2CFA889B98961
:101A40008C9185FFEDCFCE010E94E70CE7CFDF91AF
:101A5000CF910895CF92DF92FF920F931F93CF9370
:101A6000DF931F92CDB7DEB76C0181E0D6015896A7
:101A70008C9358975B969C915B975C968C915C9746
:101A8000981307C05096ED91FC915197808185FD88
:101A90002EC0F601038D10E00F5F1F4F0F7311274B
:101AA000F02EF601848DF81211C00FB607FCF9CFA5
:101AB000D6015096ED91FC915197808185FFF1CF31
:101AC000C60169830E94E70C6981EBCF838DE80F23
:101AD000F11DE35AFF4F6083D6015B960C935B9731
:101AE0005296ED91FC915397808180620CC0D60193
:101AF0005696ED91FC91579760835096ED91FC912D
:101B0000519780818064808381E090E00F90DF9125
:101B1000CF911F910F91FF90DF90CF900895BF92CA
:101B2000CF92DF92EF92FF92CF93DF93EC016A01A5
:101B30007B01B22EE889F98982E08083411581EE2C
:101B4000580761057105A1F060E079E08DE390E050
:101B5000A70196010E94D70F21503109410951096F
:101B60005695479537952795211580E1380798F0C8
:101B7000E889F989108260E874E88EE190E0A701B5
:101B800096010E94D70F21503109410951095695FC
:101B9000479537952795EC85FD853083EE85FF8544
:101BA0002083188EEC89FD89B082EA89FB898081C7
:101BB00080618083EA89FB89808188608083EA89EB
:101BC000FB89808180688083EA89FB8980818F7DA1
:101BD0008083DF91CF91FF90EF90DF90CF90BF9007
:101BE00008951F920F920FB60F9211242F938F9387
:101BF0009F93EF93FF93E091F502F091F6028081BD
:101C0000E091FB02F091FC0282FD12C09081809174
:101C1000FE028F5F8F732091FF02821751F0E091D7
:101C2000FE02F0E0EB51FD4F958F8093FE0201C064
:101C30008081FF91EF919F918F912F910F900FBE17
:101C40000F901F9018951F920F920FB60F921124AC
:101C50002F933F934F935F936F937F938F939F93B4
:101C6000AF93BF93EF93FF9385EE92E00E94E70C52
:101C7000FF91EF91BF91AF919F918F917F916F9164
:101C80005F914F913F912F910F900FBE0F901F903A
:101C9000189585EE92E00E94AC0C21E0892B09F4A6
:101CA00020E0822F08951092E8021092E70288EE59
:101CB00093E0A0E0B0E08093E9029093EA02A09361
:101CC000EB02B093EC0285E492E09093E6028093FD
:101CD000E50285EC90E09093F2028093F10284ECAF
:101CE00090E09093F4028093F30280EC90E0909364
:101CF000F6028093F50281EC90E09093F8028093D5
:101D0000F70282EC90E09093FA028093F90286EC5D
:101D100090E09093FC028093FB021092FE021092DE
:101D2000FF0210920003109201030895CF92DF92F8
:101D3000EF92FF920F931F93CF93DF937C016A0181
:101D4000EB0100E010E00C151D0571F06991D70161
:101D5000ED91FC910190F081E02DC7010995892B4F
:101D600019F00F5F1F4FEFCFC801DF91CF911F9187
:101D70000F91FF90EF90DF90CF900895611571055E
:101D800081F0DB010D900020E9F7AD0141505109D0
:101D9000461B570BDC01ED91FC910280F381E02D95
:101DA000099480E090E008950C94BE0EDC01ED9162
:101DB000FC910190F081E02D099461E572E00C94B2
:101DC000BE0E0F931F93CF93DF93EC010E94BE0EC4
:101DD0008C01CE010E94DD0E800F911FDF91CF910B
:101DE0001F910F9108950F931F93CF93DF93EC01F1
:101DF0000E94D60E8C01CE010E94DD0E800F911F35
:101E0000DF91CF911F910F9108958F929F92AF9282
:101E1000BF92DF92EF92FF920F931F93CF93DF93C6
:101E2000CDB7DEB7A1970FB6F894DEBF0FBECDBF1A
:101E30007C01F42FD52ECB0119A2223008F42AE020
:101E40008E010F5D1F4F822E912CA12CB12C6F2F74
:101E50007D2DA50194010E94D70FF22FD32ECA0128
:101E6000015011096A3014F4E0E301C0E7E3E60F22
:101E7000D801EC93232B242B252B49F7B801C7015C
:101E80000E94BE0EA1960FB6F894DEBF0FBECDBF66
:101E9000DF91CF911F910F91FF90EF90DF90BF9056
:101EA000AF909F908F900895CF92DF92EF92FF9224
:101EB0000F931F93CF93DF93EC016A017B012115F0
:101EC000310579F4E881F9810190F081E02D642FEA
:101ED000DF91CF911F910F91FF90EF90DF90CF9006
:101EE00009942A303105E9F477FF1AC06DE20E94A7
:101EF000D60E8C0144275527BA014C195D096E098D
:101F00007F092AE0CE010E94050F800F911FDF910B
:101F1000CF911F910F91FF90EF90DF90CF90089598
:101F20002AE0B701A601CE01DF91CF911F910F9159
:101F3000FF90EF90DF90CF900C94050F9A01AB01CA
:101F4000662757FD6095762F0C94540F21153105A7
:101F500041F4DC01ED91FC910190F081E02D642FC2
:101F600009940C94050F9A01462F50E060E070E050
:101F70000C94A60F08950E94B00B0E94BA0F0E9405
:101F80008D00C9EDDCE00E94D3012097E1F30E94AF
:101F9000D90CF9CF0895991B79E004C0991F9617C1
:101FA00008F0961B881F7A95C9F780950895A1E2DD
:101FB0001A2EAA1BBB1BFD010DC0AA1FBB1FEE1FC3
:101FC000FF1FA217B307E407F50720F0A21BB30B0E
:101FD000E40BF50B661F771F881F991F1A9469F78A
:101FE00060957095809590959B01AC01BD01CF01E6
:101FF0000895EE0FFF1F0590F491E02D0994AEE0D7
:10200000B0E0E5E0F0E10C94A7120D891E8986E0AE
:102010008C831A8309838FEF9FE79E838D83AE01A4
:10202000475E5F4F6F89788DCE0101960E94211027
:10203000EF81F885E00FF11F10822E96E4E00C94FA
:10204000C312ACE0B0E0E7E2F0E10C9499127C013D
:102050006B018A01FC0117821682838181FFBDC159
:10206000CE0101964C01F7019381F60193FD859114
:1020700093FF81916F01882309F4ABC1853239F454
:1020800093FD859193FF81916F01853229F4B7010A
:1020900090E00E940912E7CF512C312C20E0203231
:1020A000A0F48B3269F030F4803259F0833269F455
:1020B00020612CC08D3239F0803339F4216026C084
:1020C0002260246023C0286021C027FD27C030ED96
:1020D000380F3A3078F426FF06C0FAE05F9E300DE4
:1020E0001124532E13C08AE0389E300D1124332E54
:1020F00020620CC08E3221F426FD6BC1206406C024
:102100008C3611F4206802C0883641F4F60193FD44
:10211000859193FF81916F018111C1CF982F9F7D90
:102120009554933028F40C5F1F4FFFE3F9830DC0E3
:10213000833631F0833771F0833509F05BC022C0FC
:10214000F801808189830E5F1F4F44244394512CF2
:10215000540115C03801F2E06F0E711CF801A08027
:10216000B18026FF03C0652D70E002C06FEF7FEFE6
:10217000C5012C870E94FE112C0183012C852F772D
:10218000222E17C03801F2E06F0E711CF801A080FA
:10219000B18026FF03C0652D70E002C06FEF7FEFB6
:1021A000C5012C870E94F3112C012C852068222E5A
:1021B000830123FC1BC0832D90E048165906B0F420
:1021C000B70180E290E00E9409123A94F4CFF50141
:1021D00027FC859127FE81915F01B70190E00E9465
:1021E000091231103A94F1E04F1A51084114510488
:1021F00071F7E5C0843611F0893639F5F80127FF0B
:1022000007C060817181828193810C5F1F4F08C07C
:1022100060817181882777FD8095982F0E5F1F4F11
:102220002F76B22E97FF09C0909580957095619595
:102230007F4F8F4F9F4F2068B22E2AE030E0A401DD
:102240000E943B12A82EA81844C0853729F42F7E7F
:10225000B22E2AE030E025C0F22FF97FBF2E8F3654
:10226000C1F018F4883579F0B4C0803719F0883798
:1022700021F0AFC02F2F2061B22EB4FE0DC08B2DE8
:102280008460B82E09C024FF0AC09F2F9660B92E23
:1022900006C028E030E005C020E130E002C020E1C7
:1022A00032E0F801B7FE07C06081718182819381BD
:1022B0000C5F1F4F06C06081718180E090E00E5F6F
:1022C0001F4FA4010E943B12A82EA818FB2DFF77D8
:1022D000BF2EB6FE0BC02B2D2E7FA51450F4B4FEDE
:1022E0000AC0B2FC08C02B2D2E7E05C07A2C2B2DE7
:1022F00003C07A2C01C0752C24FF0DC0FE01EA0D2D
:10230000F11D8081803311F4297E09C022FF06C0AF
:102310007394739404C0822F867809F0739423FD1C
:1023200013C020FF06C05A2C731418F4530C57180E
:10233000732C731468F4B70180E290E02C870E943C
:10234000091273942C85F5CF731410F4371801C05B
:10235000312C24FF12C0B70180E390E02C870E944B
:1023600009122C8522FF17C021FF03C088E590E0E9
:1023700002C088E790E0B7010CC0822F867859F040
:1023800021FD02C080E201C08BE227FD8DE2B70192
:1023900090E00E940912A51438F4B70180E390E0A0
:1023A0000E9409125A94F7CFAA94F401EA0DF11D84
:1023B0008081B70190E00E940912A110F5CF33206F
:1023C00009F451CEB70180E290E00E9409123A94DC
:1023D000F6CFF7018681978102C08FEF9FEF2C9691
:1023E000E2E10C94B512FC010590615070400110BF
:1023F000D8F7809590958E0F9F1F0895FC0161502E
:10240000704001900110D8F7809590958E0F9F1F16
:1024100008950F931F93CF93DF93182F092FEB018C
:102420008B8181FD03C08FEF9FEF20C082FF10C022
:102430004E815F812C813D81421753077CF4E881F6
:10244000F9819F012F5F3F4F39832883108306C096
:10245000E885F985812F0995892B29F72E813F8100
:102460002F5F3F4F3F832E83812F902FDF91CF919E
:102470001F910F910895FA01AA27283051F12031B8
:1024800081F1E8946F936E7F6E5F7F4F8F4F9F4F08
:10249000AF4FB1E03ED0B4E03CD0670F781F891F4A
:1024A0009A1FA11D680F791F8A1F911DA11D6A0F18
:1024B000711D811D911DA11D20D009F468943F91CB
:1024C0002AE0269F11243019305D3193DEF6CF01CA
:1024D0000895462F4770405D4193B3E00FD0C9F790
:1024E000F6CF462F4F70405D4A3318F0495D31FDFD
:1024F0004052419302D0A9F7EACFB4E0A695979550
:10250000879577956795BA95C9F700976105710525
:1025100008959B01AC010A2E06945795479537956F
:102520002795BA95C9F7620F731F841F951FA01DC9
:1025300008952F923F924F925F926F927F928F9267
:102540009F92AF92BF92CF92DF92EF92FF920F9342
:102550001F93CF93DF93CDB7DEB7CA1BDB0B0FB64C
:10256000F894DEBF0FBECDBF09942A883988488809
:102570005F846E847D848C849B84AA84B984C8849F
:10258000DF80EE80FD800C811B81AA81B981CE0F96
:10259000D11D0FB6F894DEBF0FBECDBFED0108957B
:0425A000F894FFCFDD
:1025A4008E0A8E0A73616D706C65456E6372797004
:1025B400744B6579000A4C697374656E696E6720A3
:1025C4006174202564204D687A2E2E2E00535049C4
:1025D40020466C61736820496E6974204F4B2E202D
:1025E400556E69717565204D4143203D205B005354
:1025F400504920466C617368204D454D206E6F74C0
:1026040020666F756E642028697320636869702082
:10261400736F6C64657265643F292E2E2E005246DA
:102624004D36395F41544320456E61626C656420C8
:10263400284175746F205472616E736D6973736988
:102644006F6E20436F6E74726F6C29004747573A60
:10265400204E65772074616720666F756E64210073
:102664004747573A204F6B21004747573A204E6F50
:102674007468696E6700232C00746F205B005D2012
:10268400002C52585F525353493A0041434B207334
:10269400656E742C0050696E67696E67206E6F6496
:1026A40065002C41434B2E2E2E0041434B205445B4
:1026B4005354002C6F6B21002C6E6F7468696E6725
:1026C4000000000000ED0677072B03BB083A074023
:1026D400043B06CF072009510930095A07150306A0
:1026E40003000000002A0D960EAC0CC50CB70C08B4
:1026F4000D0D0A006E616E00696E66006F766600ED
:00000001FF
