:100000000C9463000C94AA090C94D1090C948B00F5
:100010000C948B000C948B000C948B000C948B0034
:100020000C948B000C948B000C948B000C948B0024
:100030000C948B000C948B000C948B000C948B0014
:100040000C94F8090C948B000C94EC0C0C941E0D81
:100050000C948B000C948B000C948B000C948B00F4
:100060000C948B000C948B0000000008000201002F
:100070000003040700000000000000000102040863
:100080001020408001020408102001020408102002
:10009000040404040404040402020202020203032E
:1000A00003030303000000002300260029000000D2
:1000B0000000250028002B0000000000240027007D
:1000C0002A00E0014E0D11241FBECFEFD8E0DEBFA5
:1000D000CDBF12E0A0E0B1E0EEEAF3E202C005908D
:1000E0000D92A632B107D9F723E0A6E2B2E001C033
:1000F0001D92AB33B207E1F710E0C6ECD0E004C0CC
:100100002297FE010E94000FC23CD107C9F70E944E
:10011000A40E0C94D5110C9400000F931F93CF9351
:10012000DF93CDB7DEB7E2970FB6F894DEBF0FBE10
:10013000CDBF26E040E052EC61E070E08EE992E055
:100140000E948A0C24E641E06BE287E292E00E9482
:10015000FF06E0912702F09128020084F185E02D4E
:1001600061E087E292E0099565E071E087E292E064
:100170000E9485036AEB7FEF87E292E00E942708E6
:1001800081E08F9381EB8F9386E191E09F938F9332
:100190008E010F5F1F4F1F930F930E94040FB80132
:1001A0008EE992E00E94DC0D88E392E00E945809FB
:1001B0000F900F900F900F900F900F90882319F1D0
:1001C00061E371E08EE992E00E94CF0D88E392E056
:1001D0000E9423090DE812E0F80161918F0140E1CE
:1001E00050E08EE992E00E949C0E60E28EE992E07F
:1001F0000E94D10DF2E005391F0771F78EE992E0F8
:100200000E94D80D06C068E571E08EE992E00E9478
:10021000DC0D67E871E08EE992E00E94DC0DE29669
:100220000FB6F894DEBF0FBECDBFDF91CF911F9107
:100230000F9108951F93CF93DF93182FEB0161E087
:100240000E940F0B61E0812F0E94480BBE0188279E
:1002500077FD8095982F0E94710A60E0812FDF91D1
:10026000CF911F910C94480BEF920F931F93CF9354
:10027000DF93E0912702F09128020480F581E02DC0
:1002800087E292E00995882309F494C06BE58EE932
:1002900092E00E94D10D609148024AE050E08EE960
:1002A00092E00E949C0E66EB71E08EE992E00E9463
:1002B000CF0D10E080914902181778F4C12FD0E0DB
:1002C000C55BDD4F68818EE992E00E94D10D888187
:1002D0008F5F809326021F5FEDCF69EB71E08EE99F
:1002E00092E00E94CF0D60914202709143024AE079
:1002F00050E08EE992E00E94870E66EC71E08EE994
:1003000092E00E94CF0D64EF71E080E090E00E94E7
:10031000710A68EC71E08EE992E00E94CF0D4AE02C
:1003200050E0609100018EE992E00E949C0E61ED28
:1003300071E08EE992E00E94CF0DC0E020910001B3
:10034000C21758F4EC2FF0E0E15CFD4F60818EE9BC
:1003500092E00E94D10DCF5FF1CF88E2E82E02E05B
:1003600046E252E062E087E292E00E946E06882355
:1003700019F065ED71E002C06AED71E08EE992E07E
:100380000E94CF0D8091000190E001966FE170E036
:100390000E94B40E809300018EE992E00E94D80D75
:1003A00063E070E089E0DF91CF911F910F91EF90B2
:1003B0000C941A01DF91CF911F910F91EF90089546
:1003C00040E35FEE68E088E392E00E9486088AE0FE
:1003D0008093290282E080932A0210922B0281E00E
:1003E00080934A0210922D028FE180932E02109288
:1003F0002F028AEE91E090932802809327020895BD
:100400008091400290914102DC01ED91FC910484C5
:10041000F585E02D0994CF93DF93EC0161E08A81AB
:100420000E94480B89858CBD8A858DBD7894DF91AB
:10043000CF910895FC01F8948CB581878DB58287A2
:100440008CB5837F8CBD8CB58F7D8CBD8CB58C7F3E
:100450008CBD8DB58E7F8DBD60E082810C94480B84
:10046000F89420914A02233021F420914602211170
:100470000FC020914A02233011F4789407C0DC01A8
:10048000ED91FC910288F389E02D099580E00895B3
:10049000DC01ED91FC910488F589E02D61E009957E
:1004A00081E008958EBD00000DB407FEFDCF8EB52E
:1004B0000895CF93DF931F92CDB7DEB7DC01ED91A6
:1004C000FC910480F581E02D698309956981882379
:1004D00059F080914802861711F06F3F29F49091EE
:1004E000440281E0911101C080E00F90DF91CF9133
:1004F0000895EF92FF921F93CF93DF931F92CDB792
:10050000DEB77C01DC01ED91FC91008CF18DE02DDA
:10051000698309956981862F8F770E94520280E056
:100520000E945202182FD701ED91FC91028CF38D9D
:10053000E02DC7010995812F0F90DF91CF911F9179
:10054000FF90EF9008950F931F93CF93DF9300D008
:10055000CDB7DEB78C01DC01ED91FC91008CF18D03
:10056000E02D4A83698309956981862F80680E94FE
:1005700052024A81842F0E945202D801ED91FC91CF
:10058000028CF38DE02DC8010F900F90DF91CF9179
:100590001F910F9109941F93CF93DF93EC01162FB6
:1005A00080914A02681709F461C0623009F440C0C2
:1005B00070F4662309F444C0613009F057C061E06B
:1005C000CE010E947902482F437E44603FC06330D1
:1005D000C1F0643009F04AC061E0CE010E947902A6
:1005E000482F437E4C6061E0CE010E94A3028885C3
:1005F000882381F1E881F9810688F789E02D61E09F
:1006000014C061E0CE010E947902482F437E406110
:1006100061E0CE010E94A30288858823D9F0E88199
:10062000F9810688F789E02D60E0CE01099512C0B6
:1006300061E0CE010E947902482F437E486006C0E7
:1006400061E0CE010E947902482F437E61E0CE0135
:100650000E94A30280914A02811106C067E2CE0186
:100660000E94790287FFF6CF10934A02DF91CF9163
:100670001F910895CF93DF93EC01603208F06FE192
:100680006F838885882311F066956F8361E1CE01C1
:100690000E947902482F407E8F81482B61E1CE0174
:1006A000DF91CF910C94A302CF93DF93EC011092D2
:1006B000490210924802109247021092460210928C
:1006C000450210924402109243021092420268E2E4
:1006D0000E94790282FF0AC06DE3CE010E94790276
:1006E000482F44606DE3CE010E94A30240E465E21E
:1006F000CE010E94A302E881F9810488F589E02DEA
:1007000063E0CE01DF91CF910994DF92EF92FF92E7
:100710000F931F93CF93DF93EC018B01E881F98155
:100720000488F589E02D61E0099501151105E1F0D6
:10073000E881F981008CF18DE02DCE0109958EEBD9
:100740000E9452027801D12CF70181917F010E9411
:100750005202D394F0E1DF12F7CFE881F981028CE5
:10076000F38DE02DCE0109956DE3CE010E94790253
:100770008E7F91E0012B09F490E0482F492B6DE327
:10078000CE01DF91CF911F910F91FF90EF90DF90FD
:100790000C94A3028F929F92AF92BF92DF92EF923E
:1007A000FF920F931F93CF93DF93CDB7DEB7AE9732
:1007B0000FB6F894DEBF0FBECDBF7C01D42E8EE203
:1007C0008E010F5F1F4FD801E82F1D92EA95E9F7C0
:1007D00091E0998334E03A8342E04B8393E09D8338
:1007E0004E833F8340E4488735E039879A8796E017
:1007F0009B8793E39C8737E03D8798E09F8799E04C
:10080000998B99E19B8B92E49C8B55E25D8B4E8B8F
:1008100046E24F8B388F38E2398F30E13A8F39E238
:100820003B8F3CED3C8F8D8F88E88E8F8FE28F8FD2
:100830008DE288A380E389A337E33BA330E93CA39F
:1008400038E33DA39EA39CE39FA39FE898A79DE365
:1008500099A792E19AA79FE69BA78CA78FEF8DA7F8
:100860006F3131F06B3231F0663531F489ED05C00E
:100870008EE403C08CE601C084EE8E876F3141F0B8
:100880006B3221F0663521F480E003C080E401C0C2
:1008900080EC888B2AA361E0D70112968C910E948C
:1008A000480B61E0F70182810E940F0B0E94500803
:1008B0000E94420A4B015C014AEA6FE2C7010E94B2
:1008C000A3026FE2C7010E9479028A3A59F00E949E
:1008D000420A681979098A099B0962337105810501
:1008E000910550F30E94420A4B015C0145E56FE21D
:1008F000C7010E94A3026FE2C7010E9479028535F9
:1009000059F00E94420A681979098A099B096233E1
:1009100071058105910550F3B12CF801EB0DF11D26
:10092000EB0DF11D60816F3F31F04181C7010E94E5
:10093000A302B394F2CF60E070E0C7010E94850388
:10094000D701ED91FC9111970084F185E02D189667
:100950006C91C7010995D701ED91FC910488F58947
:10096000E02D61E0C70109950E94420A4B015C013C
:1009700067E2C7010E94790287FD0BC00E94420A0C
:10098000681979098A099B09623371058105910506
:1009900078F30E94420A681979098A099B0962332F
:1009A00071058105910588F443E050E060E072E054
:1009B000F70184810E948A09F0924102E09240028C
:1009C000D7011596DC9281E001C080E0AE960FB6AB
:1009D000F894DEBF0FBECDBFDF91CF911F910F9175
:1009E000FF90EF90DF90BF90AF909F908F90089511
:1009F000CF93DF93EC0161110DC064E2CE010E9440
:100A0000790290E091958195910995958795DF916F
:100A1000CF91089541E063E20E94A30263E2CE0118
:100A20000E94790281FFFACFE8CFCF93DF93EC01E8
:100A300080914A028330A9F480914602811111C04D
:100A400060E0CE010E94F804863A9F4F54F4E8819A
:100A5000F9810488F589E02D61E0CE01099581E0F6
:100A600001C080E0DF91CF910895FF920F931F9313
:100A7000CF93DF93EC0180914A02833001F568E265
:100A8000CE010E94790282FD28C019C080914902DE
:100A90008D3330F4E0914902F0E0E55BFD4F1082C8
:100AA000E881F981028CF38DE02DCE010995E88172
:100AB000F9810488F589E02D63E0CE01099560E0B5
:100AC000CE010E94F8049093430280934202DF918A
:100AD000CF911F910F91FF900895E881F9810488CB
:100AE000F589E02D61E0CE010995E881F981008C5E
:100AF000F18DE02DCE01099580E00E94520280E048
:100B00000E94520280934602809146028334D0F4C0
:100B1000809146028093460280E00E9452028093B8
:100B200047028E81811109C0909147028D819817EB
:100B300021F0809147028F3F39F480914602833043
:100B400018F017C082E4E6CF10924602E881F981DE
:100B5000028CF38DE02DCE010995E881F9810288A0
:100B6000F389E02DCE01DF91CF911F910F91FF907E
:100B700009948091460283508093490280E00E944C
:100B800052028093480280E00E945202982F90788F
:100B900090934402982F907490934502E881F981D4
:100BA0000684F785E02D682FCE010995F12C809100
:100BB0004902F81608F06ACF0F2D10E080E00E947D
:100BC0005202F801E55BFD4F8083F394F0CF4F9222
:100BD0005F926F927F929F92AF92BF92EF920F932C
:100BE0001F93CF93DF93EC01162F5A01922E6DE3E2
:100BF0000E947902482F44606DE3CE010E94A30257
:100C00000E94420A2B013C01CE010E941505882357
:100C1000C1F0E881F9810088F189E02DE12C292DCE
:100C2000A501612FCE010995DF91CF911F910F9101
:100C3000EF90BF90AF909F907F906F905F904F909C
:100C400008950E94420A6419750986099709683E49
:100C5000734081059105E8F6E881F9810480F5810A
:100C6000E02DCE010995D0CFCF93DF93EC016887BB
:100C7000662311F04FE001C04AE163E1CE010E941A
:100C8000A3028885882341F061E1CE010E947902A8
:100C9000482F4F71406602C04F81406861E1CE012C
:100CA000DF91CF910C94A3021F93CF93DF93EC01BC
:100CB000162F662311F04DE501C045E56AE5CE012A
:100CC0000E94A302112311F04CE701C040E76CE53C
:100CD000CE01DF91CF911F910C94A3022F923F92EE
:100CE0004F925F927F928F929F92AF92BF92CF92DC
:100CF000DF92EF92FF920F931F93CF93DF93EC015C
:100D0000962E5A01722E802E10E0CE2CD12CE12C82
:100D1000F12CE881F9810190F081E02D01E0272D8F
:100D2000A501692DCE0109950E94420A1B012C01E3
:100D30000E94420A62197309840995096C157D05A0
:100D40008E059F0540F4692DCE010E94590288232B
:100D500079F381E009C01F5F8116D8F68D858F3148
:100D600010F48F5F8D8780E0DF91CF911F910F91FD
:100D7000FF90EF90DF90CF90BF90AF909F908F90BB
:100D80007F905F904F903F902F900895CF93DF9387
:100D9000EC0160726093880280914402882361F1C3
:100DA00080918802882341F180914902882321F1B2
:100DB00080E00E94520290E09195819591099F8771
:100DC0008E87209149022150209349022B853C8532
:100DD0002115310589F08217930734F44D854F3181
:100DE00018F44F5F4D8708C0281739072CF48D85FC
:100DF000882311F081508D87DF91CF910895FC01F8
:100E00001486138617861686109288023FE135876E
:100E10000C94CA038F929F92AF92BF92CF92DF92AF
:100E2000EF92FF920F931F93CF93DF93EC01F62E77
:100E3000D42E152F822E902EE881F9810488F58911
:100E4000E02D61E0099567E2CE010E94790287FFFB
:100E5000FACF40E065E2CE010E94A302EE2011F03D
:100E60000C2D01C000E0080D0E3308F00DE3E88101
:100E7000F981008CF18DE02DCE01099580E80E946A
:100E8000520283E0800F0E9452028F2D0E94520274
:100E90008D810E945202EE2099F0CC2011F080EA60
:100EA00001C080E80E945202CC20B9F0C501B7FE13
:100EB00003C09195819591090E94520201500DC085
:100EC000992041F08B859C85892B11F080E603C029
:100ED00080E401C080E00E945202CD2CED2CF12E66
:100EE0008E2D8C19801730F4F70181917F010E94BB
:100EF0005202F6CFE881F981028CF38DE02DCE010C
:100F00000995E881F9810488F589E02D64E0CE0136
:100F100009950E94420A6B017C018B810E947E0B25
:100F2000892BA1F0E881F9810488F589E02D61E041
:100F3000CE01DF91CF911F910F91FF90EF90DF9045
:100F4000CF90BF90AF909F908F9009940E94420ADB
:100F50006C197D098E099F09683E734081059105D2
:100F600008F7DBCF6F927F928F929F92AF92BF92E2
:100F7000CF92DF92EF92FF920F931F93CF93DF9365
:100F8000EC013B01F42E1092450210914802809032
:100F90004202909043028091880201E0811101C0D9
:100FA00000E06DE3CE010E947902482F44606DE3BA
:100FB000CE010E94A3020E94420A5B016C01CE0195
:100FC0000E941505882301F1109348025401C02E98
:100FD000EE24E39400E02F2DA301612FCE010E94A7
:100FE0000A079092430280924202DF91CF911F91B3
:100FF0000F91FF90EF90DF90CF90BF90AF909F90B8
:101000008F907F906F9008950E94420A6A197B0921
:101010008C099D09683E734081059105A8F6E88119
:10102000F9810480F581E02DCE010995C8CFAF92FA
:10103000BF92CF92EF920F93A12CB12CC12C0E94A2
:101040000A070F91EF90CF90BF90AF900895FC01E9
:101050007487638708951F93CF93DF93EC01162F56
:1010600080914A026817A1F0CE010E94CB02143091
:1010700079F48B859C85892B59F0E881F98102846C
:10108000F385E02D6D85CE01DF91CF911F910994FD
:10109000DF91CF911F910895109288020C94540310
:1010A000CF93CFB7F89480918C02811127C0EAE9E1
:1010B000F0E08491E6E8F0E09491E82FF0E0EE0FA4
:1010C000FF1FE854FF4FA591B4918C91892321F41F
:1010D00061E08AE00E94480B61E08AE00E940F0B09
:1010E0008CB580618CBD8CB580648CBD61E08DE079
:1010F0000E940F0B61E08BE00E940F0B80918C022D
:101100008F5F80938C02CFBFCF910895FC0180E563
:10111000858316826083528341830895FC018CB5D8
:1011200083838DB584833581268180918B028823CA
:1011300099F09FB7F89480918B02813059F48DB368
:10114000809389024DB380918A02809584238DBB60
:101150009FBF02C0909389023CBD2DBD60E080819D
:101160000C94480BCF93DF93EC0161E088810E94DF
:10117000480B80918B02882361F09FB7F8942091EF
:101180008B0280918902213019F48DBB9FBF01C071
:101190008FBF8B818CBD8C818DBDDF91CF910895E8
:1011A0000F931F93CF93DF938C010E948E088FE9DA
:1011B0000E94520280E00E945202C82FD0E0DC2F31
:1011C000CC2780E00E945202C82BC8010E94B208BE
:1011D000CE01DF91CF911F910F9108951F93CF936F
:1011E000DF93EC010E948E0885E00E94520280E0AD
:1011F0000E945202182FCE010E94B208812FDF9167
:10120000CF911F9108950E94EE08817008951F9359
:10121000CF93DF93EC01162F442339F040E066E0D2
:101220000E940709CE010E94B208CE010E94030964
:101230008111FBCFCE010E948E08812FDF91CF91CB
:101240001F910C9452020F931F93CF93DF938C0145
:1012500040E06BE40E94070980E00E94520280E0B7
:101260000E94520280E00E94520280E00E945202DC
:10127000CDE8D2E080E00E945202899382E0C53935
:10128000D807C1F7C8010E94B2088DE892E0DF914B
:10129000CF911F910F910895CF93DF93EC0140E020
:1012A0006BEA0E940709CE01DF91CF910C94B2083E
:1012B000CF93DF93EC018CB58B838DB58C8361E08C
:1012C00088810E940F0B80E58D831E82CE010E94D3
:1012D000B208CE010E944C0989819A81892B51F074
:1012E000CE010E94D00829813A818217930711F01C
:1012F00080E00CC041E061E0CE010E94070980E07F
:101300000E945202CE010E94B20881E0DF91CF918B
:10131000089508958230E8F4E82FF0E0EE0FFF1F03
:10132000EF5FFE4F71836083813041F080916900EF
:101330008C7F842B80936900E89A089580916900DE
:10134000440F551F440F551F837F842B80936900E2
:10135000E99A08951F920F920FB60F9211242F93BE
:101360003F934F935F936F937F938F939F93AF932D
:10137000BF93EF93FF93E0910101F0910201099572
:10138000FF91EF91BF91AF919F918F917F916F915D
:101390005F914F913F912F910F900FBE0F901F9033
:1013A00018951F920F920FB60F9211242F933F930F
:1013B0004F935F936F937F938F939F93AF93BF935D
:1013C000EF93FF93E0910301F09104010995FF91E0
:1013D000EF91BF91AF919F918F917F916F915F91AD
:1013E0004F913F912F910F900FBE0F901F90189526
:1013F0001F920F920FB60F9211242F933F938F934A
:101400009F93AF93BF938091960290919702A09182
:101410009802B09199023091950223E0230F2D3765
:1014200020F40196A11DB11D05C026E8230F0296E8
:10143000A11DB11D2093950280939602909397026F
:10144000A0939802B093990280919A0290919B0286
:10145000A0919C02B0919D020196A11DB11D8093A7
:101460009A0290939B02A0939C02B0939D02BF911D
:10147000AF919F918F913F912F910F900FBE0F9041
:101480001F9018952FB7F89460919602709197026B
:1014900080919802909199022FBF08953FB7F894D8
:1014A00080919A0290919B02A0919C02B0919D0222
:1014B00026B5A89B05C02F3F19F00196A11DB11DAF
:1014C0003FBF6627782F892F9A2F620F711D811DCC
:1014D000911D42E0660F771F881F991F4A95D1F72B
:1014E00008958F929F92AF92BF92CF92DF92EF9228
:1014F000FF926B017C010E944E0A4B015C01C114FA
:10150000D104E104F104F1F00E94B30E0E944E0AEE
:10151000681979098A099B09683E7340810591051C
:1015200070F321E0C21AD108E108F10888EE880EB4
:1015300083E0981EA11CB11CC114D104E104F10484
:1015400029F7DDCFFF90EF90DF90CF90BF90AF9065
:101550009F908F900895789484B5826084BD84B5FF
:10156000816084BD85B5826085BD85B5816085BD9E
:10157000EEE6F0E0808181608083E1E8F0E01082B7
:10158000808182608083808181608083E0E8F0E0F8
:10159000808181608083E1EBF0E0808184608083E2
:1015A000E0EBF0E0808181608083EAE7F0E0808119
:1015B0008460808380818260808380818160808379
:1015C0008081806880831092C1000895833081F00B
:1015D00028F4813099F08230A1F008958730A9F085
:1015E0008830B9F08430D1F4809180008F7D03C0C1
:1015F000809180008F7780938000089584B58F77E5
:1016000002C084B58F7D84BD08958091B0008F772E
:1016100003C08091B0008F7D8093B0000895CF9378
:10162000DF9390E0FC01E458FF4F2491FC01E05768
:10163000FF4F8491882349F190E0880F991FFC01A6
:10164000E854FF4FA591B49182559F4FFC01C5917D
:10165000D4919FB7611108C0F8948C912095822392
:101660008C93888182230AC0623051F4F8948C9163
:10167000322F309583238C938881822B888304C0FA
:10168000F8948C91822B8C939FBFDF91CF9108951A
:101690000F931F93CF93DF931F92CDB7DEB7282F01
:1016A00030E0F901E859FF4F8491F901E458FF4F08
:1016B0001491F901E057FF4F04910023C9F08823EA
:1016C00021F069830E94E60A6981E02FF0E0EE0FC5
:1016D000FF1FE255FF4FA591B4919FB7F8948C91ED
:1016E000611103C01095812301C0812B8C939FBF92
:1016F0000F90DF91CF911F910F910895CF93DF93BA
:10170000282F30E0F901E859FF4F8491F901E4589E
:10171000FF4FD491F901E057FF4FC491CC2391F0D2
:1017200081110E94E60AEC2FF0E0EE0FFF1FEC554E
:10173000FF4FA591B4912C912D2381E090E021F4ED
:1017400080E002C080E090E0DF91CF910895FC013D
:10175000818D228D90E0805C9F4F821B91098F7359
:1017600099270895FC01918D828D981731F0828D13
:10177000E80FF11D858D90E008958FEF9FEF08959C
:10178000FC01918D828D981761F0828DDF01A80F89
:10179000B11D5D968C91928D9F5F9F73928F90E0AB
:1017A00008958FEF9FEF089584E49DE0892B49F021
:1017B00080E090E0892B29F00E94440D81110C9467
:1017C00000000895FC01848DDF01A80FB11DA35A0C
:1017D000BF4F2C91848D90E001968F739927848F51
:1017E000A689B7892C93A089B1898C9180648C9348
:1017F000938D848D981306C00288F389E02D808133
:101800008F7D80830895CF93DF93EC01888D8823AB
:10181000C9F0EA89FB89808185FD05C0A889B9895D
:101820008C9186FD0FC00FB607FCF5CF808185FF38
:10183000F2CFA889B9898C9185FFEDCFCE010E94A6
:10184000E20BE7CFDF91CF910895CF92DF92FF9225
:101850000F931F93CF93DF931F92CDB7DEB76C0129
:1018600081E0D60158968C9358975B969C915B9734
:101870005C968C915C97981307C05096ED91FC9103
:101880005197808185FD2EC0F601038D10E00F5F1A
:101890001F4F0F731127F02EF601848DF81211C01F
:1018A0000FB607FCF9CFD6015096ED91FC915197F8
:1018B000808185FFF1CFC60169830E94E20B6981B7
:1018C000EBCF838DE80FF11DE35AFF4F6083D60104
:1018D0005B960C935B975296ED91FC9153978081A8
:1018E00080620CC0D6015696ED91FC9157976083AB
:1018F0005096ED91FC91519780818064808381E0C6
:1019000090E00F90DF91CF911F910F91FF90DF90AA
:10191000CF900895BF92CF92DF92EF92FF92CF9334
:10192000DF93EC016A017B01B22EE889F98982E03C
:101930008083411581EE580761057105A1F060E0D3
:1019400079E08DE390E0A70196010E94C80E215036
:101950003109410951095695479537952795211524
:1019600080E1380798F0E889F989108260E874E826
:101970008EE190E0A70196010E94C80E2150310926
:10198000410951095695479537952795EC85FD8571
:101990003083EE85FF852083188EEC89FD89B08227
:1019A000EA89FB89808180618083EA89FB89808163
:1019B00088608083EA89FB89808180688083EA89E6
:1019C000FB8980818F7D8083DF91CF91FF90EF90A5
:1019D000DF90CF90BF9008951F920F920FB60F9295
:1019E00011242F938F939F93EF93FF93E091AE0277
:1019F000F091AF028081E091B402F091B50282FDD6
:101A000012C090818091B7028F5F8F732091B802CE
:101A1000821751F0E091B702F0E0E256FD4F958F4A
:101A20008093B70201C08081FF91EF919F918F91C8
:101A30002F910F900FBE0F901F9018951F920F922D
:101A40000FB60F9211242F933F934F935F936F9391
:101A50007F938F939F93AF93BF93EF93FF938EE901
:101A600092E00E94E20BFF91EF91BF91AF919F91A5
:101A70008F917F916F915F914F913F912F910F9037
:101A80000FBE0F901F9018958EE992E00E94A70B51
:101A900021E0892B09F420E0822F08951092A10201
:101AA0001092A00288EE93E0A0E0B0E08093A20242
:101AB0009093A302A093A402B093A5028AE092E0BF
:101AC00090939F0280939E0285EC90E09093AB02EE
:101AD0008093AA0284EC90E09093AD028093AC02D4
:101AE00080EC90E09093AF028093AE0281EC90E0A6
:101AF0009093B1028093B00282EC90E09093B30295
:101B00008093B20286EC90E09093B5028093B40289
:101B10001092B7021092B8021092B9021092BA0253
:101B20000895CF92DF92EF92FF920F931F93CF937E
:101B3000DF937C016A01EB0100E010E00C151D054C
:101B400071F06991D701ED91FC910190F081E02D48
:101B5000C7010995892B19F00F5F1F4FEFCFC801FF
:101B6000DF91CF911F910F91FF90EF90DF90CF9079
:101B700008956115710581F0DB010D900020E9F7F2
:101B8000AD0141505109461B570BDC01ED91FC9111
:101B90000280F381E02D099480E090E008950C9498
:101BA000B90DDC01ED91FC910190F081E02D0994DB
:101BB00066E172E00C94B90D0F931F93CF93DF93FE
:101BC000EC010E94B90D8C01CE010E94D80D800F4E
:101BD000911FDF91CF911F910F9108958F929F9246
:101BE000AF92BF92DF92EF92FF920F931F93CF932A
:101BF000DF93CDB7DEB7A1970FB6F894DEBF0FBE67
:101C0000CDBF7C01F42FD52ECB0119A2223008F4D0
:101C10002AE08E010F5D1F4F822E912CA12CB12C3A
:101C20006F2F7D2DA50194010E94C80EF22FD32E97
:101C3000CA01015011096A3014F4E0E301C0E7E37E
:101C4000E60FD801EC93232B242B252B49F7B80161
:101C5000C7010E94B90DA1960FB6F894DEBF0FBE62
:101C6000CDBFDF91CF911F910F91FF90EF90DF904B
:101C7000BF90AF909F908F900895CF92DF92EF9298
:101C8000FF920F931F93CF93DF93EC016A017B01C7
:101C90002115310579F4E881F9810190F081E02D79
:101CA000642FDF91CF911F910F91FF90EF90DF9004
:101CB000CF9009942A303105E9F477FF1AC06DE21C
:101CC0000E94D10D8C0144275527BA014C195D099A
:101CD0006E097F092AE0CE010E94EE0D800F911F50
:101CE000DF91CF911F910F91FF90EF90DF90CF90F8
:101CF00008952AE0B701A601CE01DF91CF911F918F
:101D00000F91FF90EF90DF90CF900C94EE0D9A0121
:101D1000AB01662757FD6095762F0C943D0E21157B
:101D2000310541F4DC01ED91FC910190F081E02D51
:101D3000642F09940C94EE0D9A01462F50E060E058
:101D400070E00C948F0E08950E94AB0A0E94A30EBF
:101D50000E948D00C4EDDBE00E9434012097E1F386
:101D60000E94D40BF9CF089597FB072E16F4009428
:101D700007D077FD09D00E94EA0E07FC05D03EF49B
:101D8000909581959F4F0895709561957F4F089527
:101D9000A1E21A2EAA1BBB1BFD010DC0AA1FBB1F6F
:101DA000EE1FFF1FA217B307E407F50720F0A21BE1
:101DB000B30BE40BF50B661F771F881F991F1A944E
:101DC00069F760957095809590959B01AC01BD0178
:101DD000CF010895AA1BBB1B51E107C0AA1FBB1F5F
:101DE000A617B70710F0A61BB70B881F991F5A95A7
:101DF000A9F780959095BC01CD010895EE0FFF1FC6
:101E00000590F491E02D0994AEE0B0E0EAE0FFE047
:101E10000C94AC110D891E8986E08C831A8309838A
:101E20008FEF9FE79E838D83AE01475E5F4F6F8983
:101E3000788DCE0101960E94260FEF81F885E00F84
:101E4000F11F10822E96E4E00C94C811ACE0B0E0D3
:101E5000ECE2FFE00C949E117C016B018A01FC0115
:101E600017821682838181FFBDC1CE0101964C018C
:101E7000F7019381F60193FD859193FF81916F01A5
:101E8000882309F4ABC1853239F493FD859193FF22
:101E900081916F01853229F4B70190E00E940E1103
:101EA000E7CF512C312C20E02032A0F48B3269F0A6
:101EB00030F4803259F0833269F420612CC08D32C5
:101EC00039F0803339F4216026C02260246023C0B9
:101ED000286021C027FD27C030ED380F3A3078F454
:101EE00026FF06C0FAE05F9E300D1124532E13C06A
:101EF0008AE0389E300D1124332E20620CC08E32C1
:101F000021F426FD6BC1206406C08C3611F42068D4
:101F100002C0883641F4F60193FD859193FF8191CB
:101F20006F018111C1CF982F9F7D9554933028F474
:101F30000C5F1F4FFFE3F9830DC0833631F0833709
:101F400071F0833509F05BC022C0F801808189837C
:101F50000E5F1F4F44244394512C540115C0380187
:101F6000F2E06F0E711CF801A080B18026FF03C063
:101F7000652D70E002C06FEF7FEFC5012C870E94D6
:101F800003112C0183012C852F77222E17C03801D5
:101F9000F2E06F0E711CF801A080B18026FF03C033
:101FA000652D70E002C06FEF7FEFC5012C870E94A6
:101FB000F8102C012C852068222E830123FC1BC0E5
:101FC000832D90E048165906B0F4B70180E290E006
:101FD0000E940E113A94F4CFF50127FC859127FE5B
:101FE00081915F01B70190E00E940E1131103A9487
:101FF000F1E04F1A51084114510471F7E5C08436DD
:1020000011F0893639F5F80127FF07C06081718129
:10201000828193810C5F1F4F08C060817181882786
:1020200077FD8095982F0E5F1F4F2F76B22E97FF6A
:1020300009C090958095709561957F4F8F4F9F4F08
:102040002068B22E2AE030E0A4010E944011A82EA0
:10205000A81844C0853729F42F7EB22E2AE030E03C
:1020600025C0F22FF97FBF2E8F36C1F018F48835C6
:1020700079F0B4C0803719F0883721F0AFC02F2F26
:102080002061B22EB4FE0DC08B2D8460B82E09C025
:1020900024FF0AC09F2F9660B92E06C028E030E0CA
:1020A00005C020E130E002C020E132E0F801B7FED7
:1020B00007C060817181828193810C5F1F4F06C0D0
:1020C0006081718180E090E00E5F1F4FA4010E944B
:1020D0004011A82EA818FB2DFF77BF2EB6FE0BC00F
:1020E0002B2D2E7FA51450F4B4FE0AC0B2FC08C0FC
:1020F0002B2D2E7E05C07A2C2B2D03C07A2C01C0EF
:10210000752C24FF0DC0FE01EA0DF11D8081803386
:1021100011F4297E09C022FF06C07394739404C091
:10212000822F867809F0739423FD13C020FF06C028
:102130005A2C731418F4530C5718732C731468F436
:10214000B70180E290E02C870E940E1173942C85D9
:10215000F5CF731410F4371801C0312C24FF12C0CE
:10216000B70180E390E02C870E940E112C8522FF9E
:1021700017C021FF03C088E590E002C088E790E027
:10218000B7010CC0822F867859F021FD02C080E291
:1021900001C08BE227FD8DE2B70190E00E940E1195
:1021A000A51438F4B70180E390E00E940E115A9410
:1021B000F7CFAA94F401EA0DF11D8081B70190E0F8
:1021C0000E940E11A110F5CF332009F451CEB701B2
:1021D00080E290E00E940E113A94F6CFF7018681DA
:1021E000978102C08FEF9FEF2C96E2E10C94BA1119
:1021F000FC010590615070400110D8F780959095D2
:102200008E0F9F1F0895FC016150704001900110D6
:10221000D8F7809590958E0F9F1F08950F931F9369
:10222000CF93DF93182F092FEB018B8181FD03C022
:102230008FEF9FEF20C082FF10C04E815F812C8105
:102240003D81421753077CF4E881F9819F012F5F9C
:102250003F4F39832883108306C0E885F985812F95
:102260000995892B29F72E813F812F5F3F4F3F83AF
:102270002E83812F902FDF91CF911F910F91089581
:10228000FA01AA27283051F1203181F1E8946F93A7
:102290006E7F6E5F7F4F8F4F9F4FAF4FB1E03ED04D
:1022A000B4E03CD0670F781F891F9A1FA11D680FEB
:1022B000791F8A1F911DA11D6A0F711D811D911D1E
:1022C000A11D20D009F468943F912AE0269F112493
:1022D0003019305D3193DEF6CF010895462F4770F7
:1022E000405D4193B3E00FD0C9F7F6CF462F4F7052
:1022F000405D4A3318F0495D31FD4052419302D0B0
:10230000A9F7EACFB4E0A695979587957795679555
:10231000BA95C9F700976105710508959B01AC0155
:102320000A2E06945795479537952795BA95C9F77C
:10233000620F731F841F951FA01D08952F923F9257
:102340004F925F926F927F928F929F92AF92BF92C5
:10235000CF92DF92EF92FF920F931F93CF93DF9371
:10236000CDB7DEB7CA1BDB0B0FB6F894DEBF0FBECE
:10237000CDBF09942A88398848885F846E847D841B
:102380008C849B84AA84B984C884DF80EE80FD801D
:102390000C811B81AA81B981CE0FD11D0FB6F89493
:0E23A000DEBF0FBECDBFED010895F894FFCF54
:1023AE00018909890973616D706C65456E63727977
:1023BE0070744B6579000A5472616E736D69747432
:1023CE00696E67206174202564204D687A2E2E2E4A
:1023DE000053504920466C61736820496E69742021
:1023EE004F4B202E2E2E20556E6971756549442057
:1023FE00284D4143293A200053504920466C6173C1
:10240E0068204D454D206E6F7420666F756E64208A
:10241E00286973206368697020736F6C64657265D8
:10242E00643F292E2E2E0052464D36395F415443BD
:10243E0020456E61626C656420284175746F20546E
:10244E0072616E736D697373696F6E20436F6E7414
:10245E00726F6C290A005D20002020205B52585FAD
:10246E00525353493A005D0053656E64696E675B63
:10247E00005D3A2000206F6B2100206E6F7468693A
:10248E006E672E2E2E0000000000E7056E0630024D
:10249E00B20734063A033505C60617084C082B0852
:1024AE0054061A020B0200000000250C910DA70B1A
:1024BE00C00BB20B030C0D0A006E616E00696E66E6
:0624CE00006F76660000BD
:00000001FF
